{
    "contractName": "AssetToken",
    "abi": [
        {
            "inputs": [
                {
                    "internalType": "string",
                    "name": "_url",
                    "type": "string"
                },
                {
                    "internalType": "uint256",
                    "name": "_dueDate",
                    "type": "uint256"
                },
                {
                    "internalType": "bool",
                    "name": "_collectBuyerDetails",
                    "type": "bool"
                },
                {
                    "internalType": "string",
                    "name": "_email",
                    "type": "string"
                },
                {
                    "internalType": "address",
                    "name": "_erc20Token",
                    "type": "address"
                },
                {
                    "internalType": "string",
                    "name": "_name",
                    "type": "string"
                },
                {
                    "internalType": "string",
                    "name": "_symbol",
                    "type": "string"
                },
                {
                    "internalType": "uint8",
                    "name": "_decimals",
                    "type": "uint8"
                },
                {
                    "internalType": "uint256",
                    "name": "_supplyToMint",
                    "type": "uint256"
                },
                {
                    "internalType": "address",
                    "name": "_owner",
                    "type": "address"
                }
            ],
            "payable": false,
            "stateMutability": "nonpayable",
            "type": "constructor"
        },
        {
            "anonymous": false,
            "inputs": [
                {
                    "indexed": true,
                    "internalType": "address",
                    "name": "owner",
                    "type": "address"
                },
                {
                    "indexed": true,
                    "internalType": "address",
                    "name": "spender",
                    "type": "address"
                },
                {
                    "indexed": false,
                    "internalType": "uint256",
                    "name": "value",
                    "type": "uint256"
                }
            ],
            "name": "Approval",
            "type": "event"
        },
        {
            "anonymous": false,
            "inputs": [
                {
                    "indexed": true,
                    "internalType": "address",
                    "name": "previousOwner",
                    "type": "address"
                },
                {
                    "indexed": true,
                    "internalType": "address",
                    "name": "newOwner",
                    "type": "address"
                }
            ],
            "name": "OwnershipTransferred",
            "type": "event"
        },
        {
            "anonymous": false,
            "inputs": [
                {
                    "indexed": true,
                    "internalType": "address",
                    "name": "account",
                    "type": "address"
                },
                {
                    "indexed": true,
                    "internalType": "uint256",
                    "name": "amount",
                    "type": "uint256"
                }
            ],
            "name": "Redeem",
            "type": "event"
        },
        {
            "anonymous": false,
            "inputs": [
                {
                    "indexed": true,
                    "internalType": "address",
                    "name": "from",
                    "type": "address"
                },
                {
                    "indexed": true,
                    "internalType": "address",
                    "name": "to",
                    "type": "address"
                },
                {
                    "indexed": false,
                    "internalType": "uint256",
                    "name": "value",
                    "type": "uint256"
                }
            ],
            "name": "Transfer",
            "type": "event"
        },
        {
            "constant": true,
            "inputs": [
                {
                    "internalType": "address",
                    "name": "owner",
                    "type": "address"
                },
                {
                    "internalType": "address",
                    "name": "spender",
                    "type": "address"
                }
            ],
            "name": "allowance",
            "outputs": [
                {
                    "internalType": "uint256",
                    "name": "",
                    "type": "uint256"
                }
            ],
            "payable": false,
            "stateMutability": "view",
            "type": "function"
        },
        {
            "constant": false,
            "inputs": [
                {
                    "internalType": "address",
                    "name": "spender",
                    "type": "address"
                },
                {
                    "internalType": "uint256",
                    "name": "value",
                    "type": "uint256"
                }
            ],
            "name": "approve",
            "outputs": [
                {
                    "internalType": "bool",
                    "name": "",
                    "type": "bool"
                }
            ],
            "payable": false,
            "stateMutability": "nonpayable",
            "type": "function"
        },
        {
            "constant": true,
            "inputs": [
                {
                    "internalType": "address",
                    "name": "account",
                    "type": "address"
                }
            ],
            "name": "balanceOf",
            "outputs": [
                {
                    "internalType": "uint256",
                    "name": "",
                    "type": "uint256"
                }
            ],
            "payable": false,
            "stateMutability": "view",
            "type": "function"
        },
        {
            "constant": true,
            "inputs": [
                {
                    "internalType": "uint256",
                    "name": "toBeRedeemedTokens",
                    "type": "uint256"
                }
            ],
            "name": "calcRedeemAmount",
            "outputs": [
                {
                    "internalType": "uint256",
                    "name": "",
                    "type": "uint256"
                }
            ],
            "payable": false,
            "stateMutability": "view",
            "type": "function"
        },
        {
            "constant": true,
            "inputs": [],
            "name": "collectBuyerDetails",
            "outputs": [
                {
                    "internalType": "bool",
                    "name": "",
                    "type": "bool"
                }
            ],
            "payable": false,
            "stateMutability": "view",
            "type": "function"
        },
        {
            "constant": true,
            "inputs": [],
            "name": "decimals",
            "outputs": [
                {
                    "internalType": "uint8",
                    "name": "",
                    "type": "uint8"
                }
            ],
            "payable": false,
            "stateMutability": "view",
            "type": "function"
        },
        {
            "constant": false,
            "inputs": [
                {
                    "internalType": "address",
                    "name": "spender",
                    "type": "address"
                },
                {
                    "internalType": "uint256",
                    "name": "subtractedValue",
                    "type": "uint256"
                }
            ],
            "name": "decreaseAllowance",
            "outputs": [
                {
                    "internalType": "bool",
                    "name": "",
                    "type": "bool"
                }
            ],
            "payable": false,
            "stateMutability": "nonpayable",
            "type": "function"
        },
        {
            "constant": true,
            "inputs": [],
            "name": "documentUrl",
            "outputs": [
                {
                    "internalType": "string",
                    "name": "",
                    "type": "string"
                }
            ],
            "payable": false,
            "stateMutability": "view",
            "type": "function"
        },
        {
            "constant": true,
            "inputs": [],
            "name": "dueDate",
            "outputs": [
                {
                    "internalType": "uint256",
                    "name": "",
                    "type": "uint256"
                }
            ],
            "payable": false,
            "stateMutability": "view",
            "type": "function"
        },
        {
            "constant": true,
            "inputs": [],
            "name": "erc20Token",
            "outputs": [
                {
                    "internalType": "address",
                    "name": "",
                    "type": "address"
                }
            ],
            "payable": false,
            "stateMutability": "view",
            "type": "function"
        },
        {
            "constant": false,
            "inputs": [
                {
                    "internalType": "address",
                    "name": "spender",
                    "type": "address"
                },
                {
                    "internalType": "uint256",
                    "name": "addedValue",
                    "type": "uint256"
                }
            ],
            "name": "increaseAllowance",
            "outputs": [
                {
                    "internalType": "bool",
                    "name": "",
                    "type": "bool"
                }
            ],
            "payable": false,
            "stateMutability": "nonpayable",
            "type": "function"
        },
        {
            "constant": true,
            "inputs": [],
            "name": "isOwner",
            "outputs": [
                {
                    "internalType": "bool",
                    "name": "",
                    "type": "bool"
                }
            ],
            "payable": false,
            "stateMutability": "view",
            "type": "function"
        },
        {
            "constant": true,
            "inputs": [],
            "name": "name",
            "outputs": [
                {
                    "internalType": "string",
                    "name": "",
                    "type": "string"
                }
            ],
            "payable": false,
            "stateMutability": "view",
            "type": "function"
        },
        {
            "constant": true,
            "inputs": [],
            "name": "owner",
            "outputs": [
                {
                    "internalType": "address",
                    "name": "",
                    "type": "address"
                }
            ],
            "payable": false,
            "stateMutability": "view",
            "type": "function"
        },
        {
            "constant": true,
            "inputs": [],
            "name": "ownerEmail",
            "outputs": [
                {
                    "internalType": "string",
                    "name": "",
                    "type": "string"
                }
            ],
            "payable": false,
            "stateMutability": "view",
            "type": "function"
        },
        {
            "constant": false,
            "inputs": [],
            "name": "renounceOwnership",
            "outputs": [],
            "payable": false,
            "stateMutability": "nonpayable",
            "type": "function"
        },
        {
            "constant": true,
            "inputs": [],
            "name": "state",
            "outputs": [
                {
                    "internalType": "enum AssetToken.State",
                    "name": "",
                    "type": "uint8"
                }
            ],
            "payable": false,
            "stateMutability": "view",
            "type": "function"
        },
        {
            "constant": true,
            "inputs": [],
            "name": "symbol",
            "outputs": [
                {
                    "internalType": "string",
                    "name": "",
                    "type": "string"
                }
            ],
            "payable": false,
            "stateMutability": "view",
            "type": "function"
        },
        {
            "constant": true,
            "inputs": [],
            "name": "totalSupply",
            "outputs": [
                {
                    "internalType": "uint256",
                    "name": "",
                    "type": "uint256"
                }
            ],
            "payable": false,
            "stateMutability": "view",
            "type": "function"
        },
        {
            "constant": false,
            "inputs": [
                {
                    "internalType": "address",
                    "name": "recipient",
                    "type": "address"
                },
                {
                    "internalType": "uint256",
                    "name": "amount",
                    "type": "uint256"
                }
            ],
            "name": "transfer",
            "outputs": [
                {
                    "internalType": "bool",
                    "name": "",
                    "type": "bool"
                }
            ],
            "payable": false,
            "stateMutability": "nonpayable",
            "type": "function"
        },
        {
            "constant": false,
            "inputs": [
                {
                    "internalType": "address",
                    "name": "sender",
                    "type": "address"
                },
                {
                    "internalType": "address",
                    "name": "recipient",
                    "type": "address"
                },
                {
                    "internalType": "uint256",
                    "name": "amount",
                    "type": "uint256"
                }
            ],
            "name": "transferFrom",
            "outputs": [
                {
                    "internalType": "bool",
                    "name": "",
                    "type": "bool"
                }
            ],
            "payable": false,
            "stateMutability": "nonpayable",
            "type": "function"
        },
        {
            "constant": false,
            "inputs": [
                {
                    "internalType": "address",
                    "name": "newOwner",
                    "type": "address"
                }
            ],
            "name": "transferOwnership",
            "outputs": [],
            "payable": false,
            "stateMutability": "nonpayable",
            "type": "function"
        },
        {
            "constant": false,
            "inputs": [
                {
                    "internalType": "uint256",
                    "name": "amount",
                    "type": "uint256"
                }
            ],
            "name": "mintAssetTokens",
            "outputs": [
                {
                    "internalType": "bool",
                    "name": "",
                    "type": "bool"
                }
            ],
            "payable": false,
            "stateMutability": "nonpayable",
            "type": "function"
        }
    ],
    "bytecode": "0x60806040523480156200001157600080fd5b50604051620029203803806200292083398181016040526101408110156200003857600080fd5b81019080805160405193929190846401000000008211156200005957600080fd5b838201915060208201858111156200007057600080fd5b82518660018202830111640100000000821117156200008e57600080fd5b8083526020830192505050908051906020019080838360005b83811015620000c4578082015181840152602081019050620000a7565b50505050905090810190601f168015620000f25780820380516001836020036101000a031916815260200191505b506040526020018051906020019092919080519060200190929190805160405193929190846401000000008211156200012a57600080fd5b838201915060208201858111156200014157600080fd5b82518660018202830111640100000000821117156200015f57600080fd5b8083526020830192505050908051906020019080838360005b838110156200019557808201518184015260208101905062000178565b50505050905090810190601f168015620001c35780820380516001836020036101000a031916815260200191505b506040526020018051906020019092919080516040519392919084640100000000821115620001f157600080fd5b838201915060208201858111156200020857600080fd5b82518660018202830111640100000000821117156200022657600080fd5b8083526020830192505050908051906020019080838360005b838110156200025c5780820151818401526020810190506200023f565b50505050905090810190601f1680156200028a5780820380516001836020036101000a031916815260200191505b5060405260200180516040519392919084640100000000821115620002ae57600080fd5b83820191506020820185811115620002c557600080fd5b8251866001820283011164010000000082111715620002e357600080fd5b8083526020830192505050908051906020019080838360005b8381101562000319578082015181840152602081019050620002fc565b50505050905090810190601f168015620003475780820380516001836020036101000a031916815260200191505b506040526020018051906020019092919080519060200190929190805190602001909291905050508585858582828282600390805190602001906200038e929190620009b9565b508160049080519060200190620003a7929190620009b9565b5080600560006101000a81548160ff021916908360ff16021790555050505033600560016101000a81548173ffffffffffffffffffffffffffffffffffffffff021916908373ffffffffffffffffffffffffffffffffffffffff160217905550600560019054906101000a900473ffffffffffffffffffffffffffffffffffffffff1673ffffffffffffffffffffffffffffffffffffffff16600073ffffffffffffffffffffffffffffffffffffffff167f8be0079c531659141344cd1fd0a4f28419497f9722a3daafe3b4186f6b6457e060405160405180910390a383600660006101000a81548173ffffffffffffffffffffffffffffffffffffffff021916908373ffffffffffffffffffffffffffffffffffffffff1602179055506001600560156101000a81548160ff0219169083151502179055505050505060008a5114156200055d576040517f08c379a00000000000000000000000000000000000000000000000000000000081526004018080602001828103825260128152602001807f456d70747920646f63756d656e742075726c000000000000000000000000000081525060200191505060405180910390fd5b896009908051906020019062000575929190620009b9565b508860078190555087600660146101000a81548160ff021916908315150217905550600660149054906101000a900460ff1615620005c7578660089080519060200190620005c5929190620009b9565b505b620005e1816200060c640100000000026401000000009004565b620005fc818362000754640100000000026401000000009004565b5050505050505050505062000a68565b600073ffffffffffffffffffffffffffffffffffffffff168173ffffffffffffffffffffffffffffffffffffffff16141562000694576040517f08c379a0000000000000000000000000000000000000000000000000000000008152600401808060200182810382526026815260200180620028fa6026913960400191505060405180910390fd5b8073ffffffffffffffffffffffffffffffffffffffff16600560019054906101000a900473ffffffffffffffffffffffffffffffffffffffff1673ffffffffffffffffffffffffffffffffffffffff167f8be0079c531659141344cd1fd0a4f28419497f9722a3daafe3b4186f6b6457e060405160405180910390a380600560016101000a81548173ffffffffffffffffffffffffffffffffffffffff021916908373ffffffffffffffffffffffffffffffffffffffff16021790555050565b600073ffffffffffffffffffffffffffffffffffffffff168273ffffffffffffffffffffffffffffffffffffffff161415620007f8576040517f08c379a000000000000000000000000000000000000000000000000000000000815260040180806020018281038252601f8152602001807f45524332303a206d696e7420746f20746865207a65726f20616464726573730081525060200191505060405180910390fd5b6200081d81600254620009306401000000000262001799179091906401000000009004565b60028190555062000884816000808573ffffffffffffffffffffffffffffffffffffffff1673ffffffffffffffffffffffffffffffffffffffff16815260200190815260200160002054620009306401000000000262001799179091906401000000009004565b6000808473ffffffffffffffffffffffffffffffffffffffff1673ffffffffffffffffffffffffffffffffffffffff168152602001908152602001600020819055508173ffffffffffffffffffffffffffffffffffffffff16600073ffffffffffffffffffffffffffffffffffffffff167fddf252ad1be2c89b69c2b068fc378daa952ba7f163c4a11628f55a4df523b3ef836040518082815260200191505060405180910390a35050565b600080828401905083811015620009af576040517f08c379a000000000000000000000000000000000000000000000000000000000815260040180806020018281038252601b8152602001807f536166654d6174683a206164646974696f6e206f766572666c6f77000000000081525060200191505060405180910390fd5b8091505092915050565b828054600181600116156101000203166002900490600052602060002090601f016020900481019282601f10620009fc57805160ff191683800117855562000a2d565b8280016001018555821562000a2d579182015b8281111562000a2c57825182559160200191906001019062000a0f565b5b50905062000a3c919062000a40565b5090565b62000a6591905b8082111562000a6157600081600090555060010162000a47565b5090565b90565b611e828062000a786000396000f3fe608060405234801561001057600080fd5b506004361061016a576000357c010000000000000000000000000000000000000000000000000000000090048063786716fe116100e0578063a457c2d711610099578063a457c2d7146106a9578063a9059cbb1461070f578063bf9d0b9c14610775578063c19d93fb146107bb578063dd62ed3e146107e7578063f2fde38b1461085f5761016a565b8063786716fe146105305780638a13eea71461054e5780638da5cb5b146105985780638f32d59b146105e257806395d89b41146106045780639658cc2b146106875761016a565b80633085ca96116101325780633085ca961461037f578063313ce567146104025780633950935114610426578063469f7d641461048c57806370a08231146104ce578063715018a6146105265761016a565b806306fdde031461016f578063095ea7b3146101f257806318160ddd1461025857806323b872dd1461027657806328ef8705146102fc575b600080fd5b6101776108a3565b6040518080602001828103825283818151815260200191508051906020019080838360005b838110156101b757808201518184015260208101905061019c565b50505050905090810190601f1680156101e45780820380516001836020036101000a031916815260200191505b509250505060405180910390f35b61023e6004803603604081101561020857600080fd5b81019080803573ffffffffffffffffffffffffffffffffffffffff16906020019092919080359060200190929190505050610945565b604051808215151515815260200191505060405180910390f35b61026061095c565b6040518082815260200191505060405180910390f35b6102e26004803603606081101561028c57600080fd5b81019080803573ffffffffffffffffffffffffffffffffffffffff169060200190929190803573ffffffffffffffffffffffffffffffffffffffff16906020019092919080359060200190929190505050610966565b604051808215151515815260200191505060405180910390f35b610304610a17565b6040518080602001828103825283818151815260200191508051906020019080838360005b83811015610344578082015181840152602081019050610329565b50505050905090810190601f1680156103715780820380516001836020036101000a031916815260200191505b509250505060405180910390f35b610387610ab5565b6040518080602001828103825283818151815260200191508051906020019080838360005b838110156103c75780820151818401526020810190506103ac565b50505050905090810190601f1680156103f45780820380516001836020036101000a031916815260200191505b509250505060405180910390f35b61040a610b53565b604051808260ff1660ff16815260200191505060405180910390f35b6104726004803603604081101561043c57600080fd5b81019080803573ffffffffffffffffffffffffffffffffffffffff16906020019092919080359060200190929190505050610b6a565b604051808215151515815260200191505060405180910390f35b6104b8600480360360208110156104a257600080fd5b8101908080359060200190929190505050610c0f565b6040518082815260200191505060405180910390f35b610510600480360360208110156104e457600080fd5b81019080803573ffffffffffffffffffffffffffffffffffffffff169060200190929190505050610d6b565b6040518082815260200191505060405180910390f35b61052e610db3565b005b610538610eee565b6040518082815260200191505060405180910390f35b610556610ef4565b604051808273ffffffffffffffffffffffffffffffffffffffff1673ffffffffffffffffffffffffffffffffffffffff16815260200191505060405180910390f35b6105a0610f1a565b604051808273ffffffffffffffffffffffffffffffffffffffff1673ffffffffffffffffffffffffffffffffffffffff16815260200191505060405180910390f35b6105ea610f44565b604051808215151515815260200191505060405180910390f35b61060c610f9c565b6040518080602001828103825283818151815260200191508051906020019080838360005b8381101561064c578082015181840152602081019050610631565b50505050905090810190601f1680156106795780820380516001836020036101000a031916815260200191505b509250505060405180910390f35b61068f61103e565b604051808215151515815260200191505060405180910390f35b6106f5600480360360408110156106bf57600080fd5b81019080803573ffffffffffffffffffffffffffffffffffffffff16906020019092919080359060200190929190505050611051565b604051808215151515815260200191505060405180910390f35b61075b6004803603604081101561072557600080fd5b81019080803573ffffffffffffffffffffffffffffffffffffffff169060200190929190803590602001909291905050506110f6565b604051808215151515815260200191505060405180910390f35b6107a16004803603602081101561078b57600080fd5b810190808035906020019092919050505061110d565b604051808215151515815260200191505060405180910390f35b6107c361119c565b604051808260018111156107d357fe5b60ff16815260200191505060405180910390f35b610849600480360360408110156107fd57600080fd5b81019080803573ffffffffffffffffffffffffffffffffffffffff169060200190929190803573ffffffffffffffffffffffffffffffffffffffff1690602001909291905050506111af565b6040518082815260200191505060405180910390f35b6108a16004803603602081101561087557600080fd5b81019080803573ffffffffffffffffffffffffffffffffffffffff169060200190929190505050611236565b005b606060038054600181600116156101000203166002900480601f01602080910402602001604051908101604052809291908181526020018280546001816001161561010002031660029004801561093b5780601f106109105761010080835404028352916020019161093b565b820191906000526020600020905b81548152906001019060200180831161091e57829003601f168201915b5050505050905090565b60006109523384846112bc565b6001905092915050565b6000600254905090565b60006109738484846114b3565b610a0c8433610a0785600160008a73ffffffffffffffffffffffffffffffffffffffff1673ffffffffffffffffffffffffffffffffffffffff16815260200190815260200160002060003373ffffffffffffffffffffffffffffffffffffffff1673ffffffffffffffffffffffffffffffffffffffff1681526020019081526020016000205461174f90919063ffffffff16565b6112bc565b600190509392505050565b60088054600181600116156101000203166002900480601f016020809104026020016040519081016040528092919081815260200182805460018160011615610100020316600290048015610aad5780601f10610a8257610100808354040283529160200191610aad565b820191906000526020600020905b815481529060010190602001808311610a9057829003601f168201915b505050505081565b60098054600181600116156101000203166002900480601f016020809104026020016040519081016040528092919081815260200182805460018160011615610100020316600290048015610b4b5780601f10610b2057610100808354040283529160200191610b4b565b820191906000526020600020905b815481529060010190602001808311610b2e57829003601f168201915b505050505081565b6000600560009054906101000a900460ff16905090565b6000610c053384610c0085600160003373ffffffffffffffffffffffffffffffffffffffff1673ffffffffffffffffffffffffffffffffffffffff16815260200190815260200160002060008973ffffffffffffffffffffffffffffffffffffffff1673ffffffffffffffffffffffffffffffffffffffff1681526020019081526020016000205461179990919063ffffffff16565b6112bc565b6001905092915050565b600080600660009054906101000a900473ffffffffffffffffffffffffffffffffffffffff1690506000610c62610c4c610c47610f1a565b610d6b565b610c5461095c565b61174f90919063ffffffff16565b905060008273ffffffffffffffffffffffffffffffffffffffff166370a08231306040518263ffffffff167c0100000000000000000000000000000000000000000000000000000000028152600401808273ffffffffffffffffffffffffffffffffffffffff1673ffffffffffffffffffffffffffffffffffffffff16815260200191505060206040518083038186803b158015610cff57600080fd5b505afa158015610d13573d6000803e3d6000fd5b505050506040513d6020811015610d2957600080fd5b81019080805190602001909291905050509050610d6182610d53838861182190919063ffffffff16565b6118a790919063ffffffff16565b9350505050919050565b60008060008373ffffffffffffffffffffffffffffffffffffffff1673ffffffffffffffffffffffffffffffffffffffff168152602001908152602001600020549050919050565b610dbb610f44565b610e2d576040517f08c379a00000000000000000000000000000000000000000000000000000000081526004018080602001828103825260208152602001807f4f776e61626c653a2063616c6c6572206973206e6f7420746865206f776e657281525060200191505060405180910390fd5b600073ffffffffffffffffffffffffffffffffffffffff16600560019054906101000a900473ffffffffffffffffffffffffffffffffffffffff1673ffffffffffffffffffffffffffffffffffffffff167f8be0079c531659141344cd1fd0a4f28419497f9722a3daafe3b4186f6b6457e060405160405180910390a36000600560016101000a81548173ffffffffffffffffffffffffffffffffffffffff021916908373ffffffffffffffffffffffffffffffffffffffff160217905550565b60075481565b600660009054906101000a900473ffffffffffffffffffffffffffffffffffffffff1681565b6000600560019054906101000a900473ffffffffffffffffffffffffffffffffffffffff16905090565b6000600560019054906101000a900473ffffffffffffffffffffffffffffffffffffffff1673ffffffffffffffffffffffffffffffffffffffff163373ffffffffffffffffffffffffffffffffffffffff1614905090565b606060048054600181600116156101000203166002900480601f0160208091040260200160405190810160405280929190818152602001828054600181600116156101000203166002900480156110345780601f1061100957610100808354040283529160200191611034565b820191906000526020600020905b81548152906001019060200180831161101757829003601f168201915b5050505050905090565b600660149054906101000a900460ff1681565b60006110ec33846110e785600160003373ffffffffffffffffffffffffffffffffffffffff1673ffffffffffffffffffffffffffffffffffffffff16815260200190815260200160002060008973ffffffffffffffffffffffffffffffffffffffff1673ffffffffffffffffffffffffffffffffffffffff1681526020019081526020016000205461174f90919063ffffffff16565b6112bc565b6001905092915050565b60006111033384846114b3565b6001905092915050565b6000611117610f44565b611189576040517f08c379a00000000000000000000000000000000000000000000000000000000081526004018080602001828103825260208152602001807f4f776e61626c653a2063616c6c6572206973206e6f7420746865206f776e657281525060200191505060405180910390fd5b61119333836118f1565b60019050919050565b600660159054906101000a900460ff1681565b6000600160008473ffffffffffffffffffffffffffffffffffffffff1673ffffffffffffffffffffffffffffffffffffffff16815260200190815260200160002060008373ffffffffffffffffffffffffffffffffffffffff1673ffffffffffffffffffffffffffffffffffffffff16815260200190815260200160002054905092915050565b61123e610f44565b6112b0576040517f08c379a00000000000000000000000000000000000000000000000000000000081526004018080602001828103825260208152602001807f4f776e61626c653a2063616c6c6572206973206e6f7420746865206f776e657281525060200191505060405180910390fd5b6112b981611aac565b50565b600073ffffffffffffffffffffffffffffffffffffffff168373ffffffffffffffffffffffffffffffffffffffff161415611342576040517f08c379a0000000000000000000000000000000000000000000000000000000008152600401808060200182810382526024815260200180611e2a6024913960400191505060405180910390fd5b600073ffffffffffffffffffffffffffffffffffffffff168273ffffffffffffffffffffffffffffffffffffffff1614156113c8576040517f08c379a0000000000000000000000000000000000000000000000000000000008152600401808060200182810382526022815260200180611dc26022913960400191505060405180910390fd5b80600160008573ffffffffffffffffffffffffffffffffffffffff1673ffffffffffffffffffffffffffffffffffffffff16815260200190815260200160002060008473ffffffffffffffffffffffffffffffffffffffff1673ffffffffffffffffffffffffffffffffffffffff168152602001908152602001600020819055508173ffffffffffffffffffffffffffffffffffffffff168373ffffffffffffffffffffffffffffffffffffffff167f8c5be1e5ebec7d5bd14f71427d1e84f3dd0314c0f7b2291e5b200ac8c7c3b925836040518082815260200191505060405180910390a3505050565b600073ffffffffffffffffffffffffffffffffffffffff168373ffffffffffffffffffffffffffffffffffffffff161415611539576040517f08c379a0000000000000000000000000000000000000000000000000000000008152600401808060200182810382526025815260200180611e056025913960400191505060405180910390fd5b600073ffffffffffffffffffffffffffffffffffffffff168273ffffffffffffffffffffffffffffffffffffffff1614156115bf576040517f08c379a0000000000000000000000000000000000000000000000000000000008152600401808060200182810382526023815260200180611d796023913960400191505060405180910390fd5b611610816000808673ffffffffffffffffffffffffffffffffffffffff1673ffffffffffffffffffffffffffffffffffffffff1681526020019081526020016000205461174f90919063ffffffff16565b6000808573ffffffffffffffffffffffffffffffffffffffff1673ffffffffffffffffffffffffffffffffffffffff168152602001908152602001600020819055506116a3816000808573ffffffffffffffffffffffffffffffffffffffff1673ffffffffffffffffffffffffffffffffffffffff1681526020019081526020016000205461179990919063ffffffff16565b6000808473ffffffffffffffffffffffffffffffffffffffff1673ffffffffffffffffffffffffffffffffffffffff168152602001908152602001600020819055508173ffffffffffffffffffffffffffffffffffffffff168373ffffffffffffffffffffffffffffffffffffffff167fddf252ad1be2c89b69c2b068fc378daa952ba7f163c4a11628f55a4df523b3ef836040518082815260200191505060405180910390a3505050565b600061179183836040518060400160405280601e81526020017f536166654d6174683a207375627472616374696f6e206f766572666c6f770000815250611bf2565b905092915050565b600080828401905083811015611817576040517f08c379a000000000000000000000000000000000000000000000000000000000815260040180806020018281038252601b8152602001807f536166654d6174683a206164646974696f6e206f766572666c6f77000000000081525060200191505060405180910390fd5b8091505092915050565b60008083141561183457600090506118a1565b600082840290508284828161184557fe5b041461189c576040517f08c379a0000000000000000000000000000000000000000000000000000000008152600401808060200182810382526021815260200180611de46021913960400191505060405180910390fd5b809150505b92915050565b60006118e983836040518060400160405280601a81526020017f536166654d6174683a206469766973696f6e206279207a65726f000000000000815250611cb2565b905092915050565b600073ffffffffffffffffffffffffffffffffffffffff168273ffffffffffffffffffffffffffffffffffffffff161415611994576040517f08c379a000000000000000000000000000000000000000000000000000000000815260040180806020018281038252601f8152602001807f45524332303a206d696e7420746f20746865207a65726f20616464726573730081525060200191505060405180910390fd5b6119a98160025461179990919063ffffffff16565b600281905550611a00816000808573ffffffffffffffffffffffffffffffffffffffff1673ffffffffffffffffffffffffffffffffffffffff1681526020019081526020016000205461179990919063ffffffff16565b6000808473ffffffffffffffffffffffffffffffffffffffff1673ffffffffffffffffffffffffffffffffffffffff168152602001908152602001600020819055508173ffffffffffffffffffffffffffffffffffffffff16600073ffffffffffffffffffffffffffffffffffffffff167fddf252ad1be2c89b69c2b068fc378daa952ba7f163c4a11628f55a4df523b3ef836040518082815260200191505060405180910390a35050565b600073ffffffffffffffffffffffffffffffffffffffff168173ffffffffffffffffffffffffffffffffffffffff161415611b32576040517f08c379a0000000000000000000000000000000000000000000000000000000008152600401808060200182810382526026815260200180611d9c6026913960400191505060405180910390fd5b8073ffffffffffffffffffffffffffffffffffffffff16600560019054906101000a900473ffffffffffffffffffffffffffffffffffffffff1673ffffffffffffffffffffffffffffffffffffffff167f8be0079c531659141344cd1fd0a4f28419497f9722a3daafe3b4186f6b6457e060405160405180910390a380600560016101000a81548173ffffffffffffffffffffffffffffffffffffffff021916908373ffffffffffffffffffffffffffffffffffffffff16021790555050565b6000838311158290611c9f576040517f08c379a00000000000000000000000000000000000000000000000000000000081526004018080602001828103825283818151815260200191508051906020019080838360005b83811015611c64578082015181840152602081019050611c49565b50505050905090810190601f168015611c915780820380516001836020036101000a031916815260200191505b509250505060405180910390fd5b5060008385039050809150509392505050565b60008083118290611d5e576040517f08c379a00000000000000000000000000000000000000000000000000000000081526004018080602001828103825283818151815260200191508051906020019080838360005b83811015611d23578082015181840152602081019050611d08565b50505050905090810190601f168015611d505780820380516001836020036101000a031916815260200191505b509250505060405180910390fd5b506000838581611d6a57fe5b04905080915050939250505056fe45524332303a207472616e7366657220746f20746865207a65726f20616464726573734f776e61626c653a206e6577206f776e657220697320746865207a65726f206164647265737345524332303a20617070726f766520746f20746865207a65726f2061646472657373536166654d6174683a206d756c7469706c69636174696f6e206f766572666c6f7745524332303a207472616e736665722066726f6d20746865207a65726f206164647265737345524332303a20617070726f76652066726f6d20746865207a65726f2061646472657373a265627a7a723158205e4a14734978b0d5aaeea3c451d8cadadc7171495ea4aaa5d9200f538fcce4b364736f6c634300051000324f776e61626c653a206e6577206f776e657220697320746865207a65726f2061646472657373",
    "source": "\npragma solidity 0.5.16;\n\nimport \"./BasePoolToken.sol\";\n\ncontract AssetToken is BasePoolToken {\n\n    enum State { Initialized, Settled }\n\n    bool public collectBuyerDetails;\n    State public state;\n    uint256 public dueDate;\n    string public ownerEmail;\n    string public documentUrl;\n\n    constructor(string memory _url, uint256 _dueDate, bool _collectBuyerDetails, string memory _email, address _erc20Token,\n        string memory _name, string memory _symbol, uint8 _decimals, uint256 _supplyToMint, address _owner\n    ) BasePoolToken(_erc20Token, _name, _symbol, _decimals)\n      public {\n        require(bytes(_url).length != 0, \"Empty document url\");\n\n        documentUrl = _url;\n        dueDate = _dueDate;\n        collectBuyerDetails = _collectBuyerDetails;\n        if (collectBuyerDetails) {\n            ownerEmail = _email;\n        }\n        _transferOwnership(_owner);\n        _mint(_owner, _supplyToMint);\n    }\n\n    function mintAssetTokens(uint256 amount) external onlyOwner returns (bool) {\n        _mint(msg.sender, amount);\n        return true;\n    }\n\n}",
    "sourcePath": "/home/akshay/workspace/somish/Konkrete/tokenization-smart-contracts/contracts/AssetToken.sol",
    "compiler": {
        "name": "solc",
        "version": "0.5.16+commit.9c3226ce.Emscripten.clang"
    },
    "schemaVersion": "3.2.0",
    "updatedAt": "2020-07-16T05:26:37.382Z",
    "devdoc": {
        "methods": {
            "allowance(address,address)": {
                "details": "See `IERC20.allowance`."
            },
            "approve(address,uint256)": {
                "details": "See `IERC20.approve`.     * Requirements:     * - `spender` cannot be the zero address."
            },
            "balanceOf(address)": {
                "details": "See `IERC20.balanceOf`."
            },
            "decimals()": {
                "details": "Returns the number of decimals used to get its user representation. For example, if `decimals` equals `2`, a balance of `505` tokens should be displayed to a user as `5,05` (`505 / 10 ** 2`).     * Tokens usually opt for a value of 18, imitating the relationship between Ether and Wei.     * > Note that this information is only used for _display_ purposes: it in no way affects any of the arithmetic of the contract, including `IERC20.balanceOf` and `IERC20.transfer`."
            },
            "decreaseAllowance(address,uint256)": {
                "details": "Atomically decreases the allowance granted to `spender` by the caller.     * This is an alternative to `approve` that can be used as a mitigation for problems described in `IERC20.approve`.     * Emits an `Approval` event indicating the updated allowance.     * Requirements:     * - `spender` cannot be the zero address. - `spender` must have allowance for the caller of at least `subtractedValue`."
            },
            "increaseAllowance(address,uint256)": {
                "details": "Atomically increases the allowance granted to `spender` by the caller.     * This is an alternative to `approve` that can be used as a mitigation for problems described in `IERC20.approve`.     * Emits an `Approval` event indicating the updated allowance.     * Requirements:     * - `spender` cannot be the zero address."
            },
            "isOwner()": {
                "details": "Returns true if the caller is the current owner."
            },
            "name()": {
                "details": "Returns the name of the token."
            },
            "owner()": {
                "details": "Returns the address of the current owner."
            },
            "renounceOwnership()": {
                "details": "Leaves the contract without owner. It will not be possible to call `onlyOwner` functions anymore. Can only be called by the current owner.     * > Note: Renouncing ownership will leave the contract without an owner, thereby removing any functionality that is only available to the owner."
            },
            "symbol()": {
                "details": "Returns the symbol of the token, usually a shorter version of the name."
            },
            "totalSupply()": {
                "details": "See `IERC20.totalSupply`."
            },
            "transfer(address,uint256)": {
                "details": "See `IERC20.transfer`.     * Requirements:     * - `recipient` cannot be the zero address. - the caller must have a balance of at least `amount`."
            },
            "transferFrom(address,address,uint256)": {
                "details": "See `IERC20.transferFrom`.     * Emits an `Approval` event indicating the updated allowance. This is not required by the EIP. See the note at the beginning of `ERC20`;     * Requirements: - `sender` and `recipient` cannot be the zero address. - `sender` must have a balance of at least `value`. - the caller must have allowance for `sender`'s tokens of at least `amount`."
            },
            "transferOwnership(address)": {
                "details": "Transfers ownership of the contract to a new account (`newOwner`). Can only be called by the current owner."
            }
        }
    },
    "userdoc": {
        "methods": {}
    }
}