{
  "contractName": "CDaiDelegate",
  "abi": [
    {
      "anonymous": false,
      "inputs": [
        {
          "indexed": false,
          "internalType": "uint256",
          "name": "cashPrior",
          "type": "uint256"
        },
        {
          "indexed": false,
          "internalType": "uint256",
          "name": "interestAccumulated",
          "type": "uint256"
        },
        {
          "indexed": false,
          "internalType": "uint256",
          "name": "borrowIndex",
          "type": "uint256"
        },
        {
          "indexed": false,
          "internalType": "uint256",
          "name": "totalBorrows",
          "type": "uint256"
        }
      ],
      "name": "AccrueInterest",
      "type": "event"
    },
    {
      "anonymous": false,
      "inputs": [
        {
          "indexed": true,
          "internalType": "address",
          "name": "owner",
          "type": "address"
        },
        {
          "indexed": true,
          "internalType": "address",
          "name": "spender",
          "type": "address"
        },
        {
          "indexed": false,
          "internalType": "uint256",
          "name": "amount",
          "type": "uint256"
        }
      ],
      "name": "Approval",
      "type": "event"
    },
    {
      "anonymous": false,
      "inputs": [
        {
          "indexed": false,
          "internalType": "address",
          "name": "borrower",
          "type": "address"
        },
        {
          "indexed": false,
          "internalType": "uint256",
          "name": "borrowAmount",
          "type": "uint256"
        },
        {
          "indexed": false,
          "internalType": "uint256",
          "name": "accountBorrows",
          "type": "uint256"
        },
        {
          "indexed": false,
          "internalType": "uint256",
          "name": "totalBorrows",
          "type": "uint256"
        }
      ],
      "name": "Borrow",
      "type": "event"
    },
    {
      "anonymous": false,
      "inputs": [
        {
          "indexed": false,
          "internalType": "uint256",
          "name": "error",
          "type": "uint256"
        },
        {
          "indexed": false,
          "internalType": "uint256",
          "name": "info",
          "type": "uint256"
        },
        {
          "indexed": false,
          "internalType": "uint256",
          "name": "detail",
          "type": "uint256"
        }
      ],
      "name": "Failure",
      "type": "event"
    },
    {
      "anonymous": false,
      "inputs": [
        {
          "indexed": false,
          "internalType": "address",
          "name": "liquidator",
          "type": "address"
        },
        {
          "indexed": false,
          "internalType": "address",
          "name": "borrower",
          "type": "address"
        },
        {
          "indexed": false,
          "internalType": "uint256",
          "name": "repayAmount",
          "type": "uint256"
        },
        {
          "indexed": false,
          "internalType": "address",
          "name": "cTokenCollateral",
          "type": "address"
        },
        {
          "indexed": false,
          "internalType": "uint256",
          "name": "seizeTokens",
          "type": "uint256"
        }
      ],
      "name": "LiquidateBorrow",
      "type": "event"
    },
    {
      "anonymous": false,
      "inputs": [
        {
          "indexed": false,
          "internalType": "address",
          "name": "minter",
          "type": "address"
        },
        {
          "indexed": false,
          "internalType": "uint256",
          "name": "mintAmount",
          "type": "uint256"
        },
        {
          "indexed": false,
          "internalType": "uint256",
          "name": "mintTokens",
          "type": "uint256"
        }
      ],
      "name": "Mint",
      "type": "event"
    },
    {
      "anonymous": false,
      "inputs": [
        {
          "indexed": false,
          "internalType": "address",
          "name": "oldAdmin",
          "type": "address"
        },
        {
          "indexed": false,
          "internalType": "address",
          "name": "newAdmin",
          "type": "address"
        }
      ],
      "name": "NewAdmin",
      "type": "event"
    },
    {
      "anonymous": false,
      "inputs": [
        {
          "indexed": false,
          "internalType": "contract ComptrollerInterface",
          "name": "oldComptroller",
          "type": "address"
        },
        {
          "indexed": false,
          "internalType": "contract ComptrollerInterface",
          "name": "newComptroller",
          "type": "address"
        }
      ],
      "name": "NewComptroller",
      "type": "event"
    },
    {
      "anonymous": false,
      "inputs": [
        {
          "indexed": false,
          "internalType": "contract InterestRateModel",
          "name": "oldInterestRateModel",
          "type": "address"
        },
        {
          "indexed": false,
          "internalType": "contract InterestRateModel",
          "name": "newInterestRateModel",
          "type": "address"
        }
      ],
      "name": "NewMarketInterestRateModel",
      "type": "event"
    },
    {
      "anonymous": false,
      "inputs": [
        {
          "indexed": false,
          "internalType": "address",
          "name": "oldPendingAdmin",
          "type": "address"
        },
        {
          "indexed": false,
          "internalType": "address",
          "name": "newPendingAdmin",
          "type": "address"
        }
      ],
      "name": "NewPendingAdmin",
      "type": "event"
    },
    {
      "anonymous": false,
      "inputs": [
        {
          "indexed": false,
          "internalType": "uint256",
          "name": "oldReserveFactorMantissa",
          "type": "uint256"
        },
        {
          "indexed": false,
          "internalType": "uint256",
          "name": "newReserveFactorMantissa",
          "type": "uint256"
        }
      ],
      "name": "NewReserveFactor",
      "type": "event"
    },
    {
      "anonymous": false,
      "inputs": [
        {
          "indexed": false,
          "internalType": "address",
          "name": "redeemer",
          "type": "address"
        },
        {
          "indexed": false,
          "internalType": "uint256",
          "name": "redeemAmount",
          "type": "uint256"
        },
        {
          "indexed": false,
          "internalType": "uint256",
          "name": "redeemTokens",
          "type": "uint256"
        }
      ],
      "name": "Redeem",
      "type": "event"
    },
    {
      "anonymous": false,
      "inputs": [
        {
          "indexed": false,
          "internalType": "address",
          "name": "payer",
          "type": "address"
        },
        {
          "indexed": false,
          "internalType": "address",
          "name": "borrower",
          "type": "address"
        },
        {
          "indexed": false,
          "internalType": "uint256",
          "name": "repayAmount",
          "type": "uint256"
        },
        {
          "indexed": false,
          "internalType": "uint256",
          "name": "accountBorrows",
          "type": "uint256"
        },
        {
          "indexed": false,
          "internalType": "uint256",
          "name": "totalBorrows",
          "type": "uint256"
        }
      ],
      "name": "RepayBorrow",
      "type": "event"
    },
    {
      "anonymous": false,
      "inputs": [
        {
          "indexed": false,
          "internalType": "address",
          "name": "benefactor",
          "type": "address"
        },
        {
          "indexed": false,
          "internalType": "uint256",
          "name": "addAmount",
          "type": "uint256"
        },
        {
          "indexed": false,
          "internalType": "uint256",
          "name": "newTotalReserves",
          "type": "uint256"
        }
      ],
      "name": "ReservesAdded",
      "type": "event"
    },
    {
      "anonymous": false,
      "inputs": [
        {
          "indexed": false,
          "internalType": "address",
          "name": "admin",
          "type": "address"
        },
        {
          "indexed": false,
          "internalType": "uint256",
          "name": "reduceAmount",
          "type": "uint256"
        },
        {
          "indexed": false,
          "internalType": "uint256",
          "name": "newTotalReserves",
          "type": "uint256"
        }
      ],
      "name": "ReservesReduced",
      "type": "event"
    },
    {
      "anonymous": false,
      "inputs": [
        {
          "indexed": true,
          "internalType": "address",
          "name": "from",
          "type": "address"
        },
        {
          "indexed": true,
          "internalType": "address",
          "name": "to",
          "type": "address"
        },
        {
          "indexed": false,
          "internalType": "uint256",
          "name": "amount",
          "type": "uint256"
        }
      ],
      "name": "Transfer",
      "type": "event"
    },
    {
      "constant": false,
      "inputs": [],
      "name": "_acceptAdmin",
      "outputs": [
        {
          "internalType": "uint256",
          "name": "",
          "type": "uint256"
        }
      ],
      "payable": false,
      "stateMutability": "nonpayable",
      "type": "function"
    },
    {
      "constant": false,
      "inputs": [
        {
          "internalType": "uint256",
          "name": "addAmount",
          "type": "uint256"
        }
      ],
      "name": "_addReserves",
      "outputs": [
        {
          "internalType": "uint256",
          "name": "",
          "type": "uint256"
        }
      ],
      "payable": false,
      "stateMutability": "nonpayable",
      "type": "function"
    },
    {
      "constant": false,
      "inputs": [
        {
          "internalType": "uint256",
          "name": "reduceAmount",
          "type": "uint256"
        }
      ],
      "name": "_reduceReserves",
      "outputs": [
        {
          "internalType": "uint256",
          "name": "",
          "type": "uint256"
        }
      ],
      "payable": false,
      "stateMutability": "nonpayable",
      "type": "function"
    },
    {
      "constant": false,
      "inputs": [
        {
          "internalType": "contract ComptrollerInterface",
          "name": "newComptroller",
          "type": "address"
        }
      ],
      "name": "_setComptroller",
      "outputs": [
        {
          "internalType": "uint256",
          "name": "",
          "type": "uint256"
        }
      ],
      "payable": false,
      "stateMutability": "nonpayable",
      "type": "function"
    },
    {
      "constant": false,
      "inputs": [
        {
          "internalType": "contract InterestRateModel",
          "name": "newInterestRateModel",
          "type": "address"
        }
      ],
      "name": "_setInterestRateModel",
      "outputs": [
        {
          "internalType": "uint256",
          "name": "",
          "type": "uint256"
        }
      ],
      "payable": false,
      "stateMutability": "nonpayable",
      "type": "function"
    },
    {
      "constant": false,
      "inputs": [
        {
          "internalType": "address payable",
          "name": "newPendingAdmin",
          "type": "address"
        }
      ],
      "name": "_setPendingAdmin",
      "outputs": [
        {
          "internalType": "uint256",
          "name": "",
          "type": "uint256"
        }
      ],
      "payable": false,
      "stateMutability": "nonpayable",
      "type": "function"
    },
    {
      "constant": false,
      "inputs": [
        {
          "internalType": "uint256",
          "name": "newReserveFactorMantissa",
          "type": "uint256"
        }
      ],
      "name": "_setReserveFactor",
      "outputs": [
        {
          "internalType": "uint256",
          "name": "",
          "type": "uint256"
        }
      ],
      "payable": false,
      "stateMutability": "nonpayable",
      "type": "function"
    },
    {
      "constant": true,
      "inputs": [],
      "name": "accrualBlockNumber",
      "outputs": [
        {
          "internalType": "uint256",
          "name": "",
          "type": "uint256"
        }
      ],
      "payable": false,
      "stateMutability": "view",
      "type": "function"
    },
    {
      "constant": true,
      "inputs": [],
      "name": "admin",
      "outputs": [
        {
          "internalType": "address payable",
          "name": "",
          "type": "address"
        }
      ],
      "payable": false,
      "stateMutability": "view",
      "type": "function"
    },
    {
      "constant": true,
      "inputs": [
        {
          "internalType": "address",
          "name": "owner",
          "type": "address"
        },
        {
          "internalType": "address",
          "name": "spender",
          "type": "address"
        }
      ],
      "name": "allowance",
      "outputs": [
        {
          "internalType": "uint256",
          "name": "",
          "type": "uint256"
        }
      ],
      "payable": false,
      "stateMutability": "view",
      "type": "function"
    },
    {
      "constant": false,
      "inputs": [
        {
          "internalType": "address",
          "name": "spender",
          "type": "address"
        },
        {
          "internalType": "uint256",
          "name": "amount",
          "type": "uint256"
        }
      ],
      "name": "approve",
      "outputs": [
        {
          "internalType": "bool",
          "name": "",
          "type": "bool"
        }
      ],
      "payable": false,
      "stateMutability": "nonpayable",
      "type": "function"
    },
    {
      "constant": true,
      "inputs": [
        {
          "internalType": "address",
          "name": "owner",
          "type": "address"
        }
      ],
      "name": "balanceOf",
      "outputs": [
        {
          "internalType": "uint256",
          "name": "",
          "type": "uint256"
        }
      ],
      "payable": false,
      "stateMutability": "view",
      "type": "function"
    },
    {
      "constant": false,
      "inputs": [
        {
          "internalType": "address",
          "name": "owner",
          "type": "address"
        }
      ],
      "name": "balanceOfUnderlying",
      "outputs": [
        {
          "internalType": "uint256",
          "name": "",
          "type": "uint256"
        }
      ],
      "payable": false,
      "stateMutability": "nonpayable",
      "type": "function"
    },
    {
      "constant": false,
      "inputs": [
        {
          "internalType": "uint256",
          "name": "borrowAmount",
          "type": "uint256"
        }
      ],
      "name": "borrow",
      "outputs": [
        {
          "internalType": "uint256",
          "name": "",
          "type": "uint256"
        }
      ],
      "payable": false,
      "stateMutability": "nonpayable",
      "type": "function"
    },
    {
      "constant": false,
      "inputs": [
        {
          "internalType": "address",
          "name": "account",
          "type": "address"
        }
      ],
      "name": "borrowBalanceCurrent",
      "outputs": [
        {
          "internalType": "uint256",
          "name": "",
          "type": "uint256"
        }
      ],
      "payable": false,
      "stateMutability": "nonpayable",
      "type": "function"
    },
    {
      "constant": true,
      "inputs": [
        {
          "internalType": "address",
          "name": "account",
          "type": "address"
        }
      ],
      "name": "borrowBalanceStored",
      "outputs": [
        {
          "internalType": "uint256",
          "name": "",
          "type": "uint256"
        }
      ],
      "payable": false,
      "stateMutability": "view",
      "type": "function"
    },
    {
      "constant": true,
      "inputs": [],
      "name": "borrowIndex",
      "outputs": [
        {
          "internalType": "uint256",
          "name": "",
          "type": "uint256"
        }
      ],
      "payable": false,
      "stateMutability": "view",
      "type": "function"
    },
    {
      "constant": true,
      "inputs": [],
      "name": "borrowRatePerBlock",
      "outputs": [
        {
          "internalType": "uint256",
          "name": "",
          "type": "uint256"
        }
      ],
      "payable": false,
      "stateMutability": "view",
      "type": "function"
    },
    {
      "constant": true,
      "inputs": [],
      "name": "comptroller",
      "outputs": [
        {
          "internalType": "contract ComptrollerInterface",
          "name": "",
          "type": "address"
        }
      ],
      "payable": false,
      "stateMutability": "view",
      "type": "function"
    },
    {
      "constant": true,
      "inputs": [],
      "name": "daiJoinAddress",
      "outputs": [
        {
          "internalType": "address",
          "name": "",
          "type": "address"
        }
      ],
      "payable": false,
      "stateMutability": "view",
      "type": "function"
    },
    {
      "constant": true,
      "inputs": [],
      "name": "decimals",
      "outputs": [
        {
          "internalType": "uint8",
          "name": "",
          "type": "uint8"
        }
      ],
      "payable": false,
      "stateMutability": "view",
      "type": "function"
    },
    {
      "constant": false,
      "inputs": [],
      "name": "exchangeRateCurrent",
      "outputs": [
        {
          "internalType": "uint256",
          "name": "",
          "type": "uint256"
        }
      ],
      "payable": false,
      "stateMutability": "nonpayable",
      "type": "function"
    },
    {
      "constant": true,
      "inputs": [],
      "name": "exchangeRateStored",
      "outputs": [
        {
          "internalType": "uint256",
          "name": "",
          "type": "uint256"
        }
      ],
      "payable": false,
      "stateMutability": "view",
      "type": "function"
    },
    {
      "constant": true,
      "inputs": [
        {
          "internalType": "address",
          "name": "account",
          "type": "address"
        }
      ],
      "name": "getAccountSnapshot",
      "outputs": [
        {
          "internalType": "uint256",
          "name": "",
          "type": "uint256"
        },
        {
          "internalType": "uint256",
          "name": "",
          "type": "uint256"
        },
        {
          "internalType": "uint256",
          "name": "",
          "type": "uint256"
        },
        {
          "internalType": "uint256",
          "name": "",
          "type": "uint256"
        }
      ],
      "payable": false,
      "stateMutability": "view",
      "type": "function"
    },
    {
      "constant": true,
      "inputs": [],
      "name": "getCash",
      "outputs": [
        {
          "internalType": "uint256",
          "name": "",
          "type": "uint256"
        }
      ],
      "payable": false,
      "stateMutability": "view",
      "type": "function"
    },
    {
      "constant": true,
      "inputs": [],
      "name": "implementation",
      "outputs": [
        {
          "internalType": "address",
          "name": "",
          "type": "address"
        }
      ],
      "payable": false,
      "stateMutability": "view",
      "type": "function"
    },
    {
      "constant": false,
      "inputs": [
        {
          "internalType": "address",
          "name": "underlying_",
          "type": "address"
        },
        {
          "internalType": "contract ComptrollerInterface",
          "name": "comptroller_",
          "type": "address"
        },
        {
          "internalType": "contract InterestRateModel",
          "name": "interestRateModel_",
          "type": "address"
        },
        {
          "internalType": "uint256",
          "name": "initialExchangeRateMantissa_",
          "type": "uint256"
        },
        {
          "internalType": "string",
          "name": "name_",
          "type": "string"
        },
        {
          "internalType": "string",
          "name": "symbol_",
          "type": "string"
        },
        {
          "internalType": "uint8",
          "name": "decimals_",
          "type": "uint8"
        }
      ],
      "name": "initialize",
      "outputs": [],
      "payable": false,
      "stateMutability": "nonpayable",
      "type": "function"
    },
    {
      "constant": false,
      "inputs": [
        {
          "internalType": "contract ComptrollerInterface",
          "name": "comptroller_",
          "type": "address"
        },
        {
          "internalType": "contract InterestRateModel",
          "name": "interestRateModel_",
          "type": "address"
        },
        {
          "internalType": "uint256",
          "name": "initialExchangeRateMantissa_",
          "type": "uint256"
        },
        {
          "internalType": "string",
          "name": "name_",
          "type": "string"
        },
        {
          "internalType": "string",
          "name": "symbol_",
          "type": "string"
        },
        {
          "internalType": "uint8",
          "name": "decimals_",
          "type": "uint8"
        }
      ],
      "name": "initialize",
      "outputs": [],
      "payable": false,
      "stateMutability": "nonpayable",
      "type": "function"
    },
    {
      "constant": true,
      "inputs": [],
      "name": "interestRateModel",
      "outputs": [
        {
          "internalType": "contract InterestRateModel",
          "name": "",
          "type": "address"
        }
      ],
      "payable": false,
      "stateMutability": "view",
      "type": "function"
    },
    {
      "constant": true,
      "inputs": [],
      "name": "isCToken",
      "outputs": [
        {
          "internalType": "bool",
          "name": "",
          "type": "bool"
        }
      ],
      "payable": false,
      "stateMutability": "view",
      "type": "function"
    },
    {
      "constant": false,
      "inputs": [
        {
          "internalType": "address",
          "name": "borrower",
          "type": "address"
        },
        {
          "internalType": "uint256",
          "name": "repayAmount",
          "type": "uint256"
        },
        {
          "internalType": "contract CTokenInterface",
          "name": "cTokenCollateral",
          "type": "address"
        }
      ],
      "name": "liquidateBorrow",
      "outputs": [
        {
          "internalType": "uint256",
          "name": "",
          "type": "uint256"
        }
      ],
      "payable": false,
      "stateMutability": "nonpayable",
      "type": "function"
    },
    {
      "constant": false,
      "inputs": [
        {
          "internalType": "uint256",
          "name": "mintAmount",
          "type": "uint256"
        }
      ],
      "name": "mint",
      "outputs": [
        {
          "internalType": "uint256",
          "name": "",
          "type": "uint256"
        }
      ],
      "payable": false,
      "stateMutability": "nonpayable",
      "type": "function"
    },
    {
      "constant": true,
      "inputs": [],
      "name": "name",
      "outputs": [
        {
          "internalType": "string",
          "name": "",
          "type": "string"
        }
      ],
      "payable": false,
      "stateMutability": "view",
      "type": "function"
    },
    {
      "constant": true,
      "inputs": [],
      "name": "pendingAdmin",
      "outputs": [
        {
          "internalType": "address payable",
          "name": "",
          "type": "address"
        }
      ],
      "payable": false,
      "stateMutability": "view",
      "type": "function"
    },
    {
      "constant": true,
      "inputs": [],
      "name": "potAddress",
      "outputs": [
        {
          "internalType": "address",
          "name": "",
          "type": "address"
        }
      ],
      "payable": false,
      "stateMutability": "view",
      "type": "function"
    },
    {
      "constant": false,
      "inputs": [
        {
          "internalType": "uint256",
          "name": "redeemTokens",
          "type": "uint256"
        }
      ],
      "name": "redeem",
      "outputs": [
        {
          "internalType": "uint256",
          "name": "",
          "type": "uint256"
        }
      ],
      "payable": false,
      "stateMutability": "nonpayable",
      "type": "function"
    },
    {
      "constant": false,
      "inputs": [
        {
          "internalType": "uint256",
          "name": "redeemAmount",
          "type": "uint256"
        }
      ],
      "name": "redeemUnderlying",
      "outputs": [
        {
          "internalType": "uint256",
          "name": "",
          "type": "uint256"
        }
      ],
      "payable": false,
      "stateMutability": "nonpayable",
      "type": "function"
    },
    {
      "constant": false,
      "inputs": [
        {
          "internalType": "uint256",
          "name": "repayAmount",
          "type": "uint256"
        }
      ],
      "name": "repayBorrow",
      "outputs": [
        {
          "internalType": "uint256",
          "name": "",
          "type": "uint256"
        }
      ],
      "payable": false,
      "stateMutability": "nonpayable",
      "type": "function"
    },
    {
      "constant": false,
      "inputs": [
        {
          "internalType": "address",
          "name": "borrower",
          "type": "address"
        },
        {
          "internalType": "uint256",
          "name": "repayAmount",
          "type": "uint256"
        }
      ],
      "name": "repayBorrowBehalf",
      "outputs": [
        {
          "internalType": "uint256",
          "name": "",
          "type": "uint256"
        }
      ],
      "payable": false,
      "stateMutability": "nonpayable",
      "type": "function"
    },
    {
      "constant": true,
      "inputs": [],
      "name": "reserveFactorMantissa",
      "outputs": [
        {
          "internalType": "uint256",
          "name": "",
          "type": "uint256"
        }
      ],
      "payable": false,
      "stateMutability": "view",
      "type": "function"
    },
    {
      "constant": false,
      "inputs": [
        {
          "internalType": "address",
          "name": "liquidator",
          "type": "address"
        },
        {
          "internalType": "address",
          "name": "borrower",
          "type": "address"
        },
        {
          "internalType": "uint256",
          "name": "seizeTokens",
          "type": "uint256"
        }
      ],
      "name": "seize",
      "outputs": [
        {
          "internalType": "uint256",
          "name": "",
          "type": "uint256"
        }
      ],
      "payable": false,
      "stateMutability": "nonpayable",
      "type": "function"
    },
    {
      "constant": true,
      "inputs": [],
      "name": "supplyRatePerBlock",
      "outputs": [
        {
          "internalType": "uint256",
          "name": "",
          "type": "uint256"
        }
      ],
      "payable": false,
      "stateMutability": "view",
      "type": "function"
    },
    {
      "constant": true,
      "inputs": [],
      "name": "symbol",
      "outputs": [
        {
          "internalType": "string",
          "name": "",
          "type": "string"
        }
      ],
      "payable": false,
      "stateMutability": "view",
      "type": "function"
    },
    {
      "constant": true,
      "inputs": [],
      "name": "totalBorrows",
      "outputs": [
        {
          "internalType": "uint256",
          "name": "",
          "type": "uint256"
        }
      ],
      "payable": false,
      "stateMutability": "view",
      "type": "function"
    },
    {
      "constant": false,
      "inputs": [],
      "name": "totalBorrowsCurrent",
      "outputs": [
        {
          "internalType": "uint256",
          "name": "",
          "type": "uint256"
        }
      ],
      "payable": false,
      "stateMutability": "nonpayable",
      "type": "function"
    },
    {
      "constant": true,
      "inputs": [],
      "name": "totalReserves",
      "outputs": [
        {
          "internalType": "uint256",
          "name": "",
          "type": "uint256"
        }
      ],
      "payable": false,
      "stateMutability": "view",
      "type": "function"
    },
    {
      "constant": true,
      "inputs": [],
      "name": "totalSupply",
      "outputs": [
        {
          "internalType": "uint256",
          "name": "",
          "type": "uint256"
        }
      ],
      "payable": false,
      "stateMutability": "view",
      "type": "function"
    },
    {
      "constant": false,
      "inputs": [
        {
          "internalType": "address",
          "name": "dst",
          "type": "address"
        },
        {
          "internalType": "uint256",
          "name": "amount",
          "type": "uint256"
        }
      ],
      "name": "transfer",
      "outputs": [
        {
          "internalType": "bool",
          "name": "",
          "type": "bool"
        }
      ],
      "payable": false,
      "stateMutability": "nonpayable",
      "type": "function"
    },
    {
      "constant": false,
      "inputs": [
        {
          "internalType": "address",
          "name": "src",
          "type": "address"
        },
        {
          "internalType": "address",
          "name": "dst",
          "type": "address"
        },
        {
          "internalType": "uint256",
          "name": "amount",
          "type": "uint256"
        }
      ],
      "name": "transferFrom",
      "outputs": [
        {
          "internalType": "bool",
          "name": "",
          "type": "bool"
        }
      ],
      "payable": false,
      "stateMutability": "nonpayable",
      "type": "function"
    },
    {
      "constant": true,
      "inputs": [],
      "name": "underlying",
      "outputs": [
        {
          "internalType": "address",
          "name": "",
          "type": "address"
        }
      ],
      "payable": false,
      "stateMutability": "view",
      "type": "function"
    },
    {
      "constant": true,
      "inputs": [],
      "name": "vatAddress",
      "outputs": [
        {
          "internalType": "address",
          "name": "",
          "type": "address"
        }
      ],
      "payable": false,
      "stateMutability": "view",
      "type": "function"
    },
    {
      "constant": false,
      "inputs": [
        {
          "internalType": "bytes",
          "name": "data",
          "type": "bytes"
        }
      ],
      "name": "_becomeImplementation",
      "outputs": [],
      "payable": false,
      "stateMutability": "nonpayable",
      "type": "function"
    },
    {
      "constant": false,
      "inputs": [],
      "name": "_resignImplementation",
      "outputs": [],
      "payable": false,
      "stateMutability": "nonpayable",
      "type": "function"
    },
    {
      "constant": false,
      "inputs": [],
      "name": "accrueInterest",
      "outputs": [
        {
          "internalType": "uint256",
          "name": "",
          "type": "uint256"
        }
      ],
      "payable": false,
      "stateMutability": "nonpayable",
      "type": "function"
    }
  ],
  "bytecode": "0x6080604052615ddc806100136000396000f3fe608060405234801561001057600080fd5b50600436106103425760003560e01c8063852a12e3116101b8578063b71d1a0c11610104578063f2b3abbd116100a2578063f851a4401161007c578063f851a44014610b9b578063f8f9da2814610ba3578063fca7820b14610bab578063fe9c44ae14610bc857610342565b8063f2b3abbd14610b37578063f3fdb15a14610b5d578063f5e3c46214610b6557610342565b8063c5ebeaec116100de578063c5ebeaec14610ac7578063db006a7514610ae4578063dd62ed3e14610b01578063e9c714f214610b2f57610342565b8063b71d1a0c14610a4d578063bd6d894d14610a73578063c37f68e214610a7b57610342565b806399d8c1b411610171578063a9059cbb1161014b578063a9059cbb146109db578063aa5af0fd14610a07578063ae9d70b014610a0f578063b2a02ff114610a1757610342565b806399d8c1b414610868578063a0712d68146109b6578063a6afed95146109d357610342565b8063852a12e3146108055780638a8df2e6146108225780638d925ccd1461082a5780638f840ddd1461083257806395d89b411461083a57806395dd91931461084257610342565b80633af9e669116102925780635fe3b567116102305780636c540baf1161020a5780636c540baf146107c75780636f307dc3146107cf57806370a08231146107d757806373acee98146107fd57610342565b80635fe3b5671461079a578063601a0bf1146107a257806366ced602146107bf57610342565b80634576b5db1161026c5780634576b5db146106c057806347bd3718146106e657806356e67728146106ee5780635c60da1b1461079257610342565b80633af9e669146106755780633b1d21a21461069b5780633e941010146106a357610342565b806318160ddd116102ff57806323b872dd116102d957806323b872dd146105d15780632608f818146106075780632678224714610633578063313ce5671461065757610342565b806318160ddd1461046b578063182df0f5146104735780631a31d4651461047b57610342565b806306fdde0314610347578063095ea7b3146103c45780630e75270214610404578063153ab50514610433578063173b99041461043d57806317bfdfbc14610445575b600080fd5b61034f610bd0565b6040805160208082528351818301528351919283929083019185019080838360005b83811015610389578181015183820152602001610371565b50505050905090810190601f1680156103b65780820380516001836020036101000a031916815260200191505b509250505060405180910390f35b6103f0600480360360408110156103da57600080fd5b506001600160a01b038135169060200135610c5d565b604080519115158252519081900360200190f35b6104216004803603602081101561041a57600080fd5b5035610cca565b60408051918252519081900360200190f35b61043b610ce0565b005b610421610f7e565b6104216004803603602081101561045b57600080fd5b50356001600160a01b0316610f84565b610421611044565b61042161104a565b61043b600480360360e081101561049157600080fd5b6001600160a01b03823581169260208101358216926040820135909216916060820135919081019060a081016080820135600160201b8111156104d357600080fd5b8201836020820111156104e557600080fd5b803590602001918460018302840111600160201b8311171561050657600080fd5b91908080601f0160208091040260200160405190810160405280939291908181526020018383808284376000920191909152509295949360208101935035915050600160201b81111561055857600080fd5b82018360208201111561056a57600080fd5b803590602001918460018302840111600160201b8311171561058b57600080fd5b91908080601f0160208091040260200160405190810160405280939291908181526020018383808284376000920191909152509295505050903560ff1691506110ad9050565b6103f0600480360360608110156105e757600080fd5b506001600160a01b03813581169160208101359091169060400135611141565b6104216004803603604081101561061d57600080fd5b506001600160a01b0381351690602001356111b3565b61063b6111c9565b604080516001600160a01b039092168252519081900360200190f35b61065f6111d8565b6040805160ff9092168252519081900360200190f35b6104216004803603602081101561068b57600080fd5b50356001600160a01b03166111e1565b610421611297565b610421600480360360208110156106b957600080fd5b50356112a6565b610421600480360360208110156106d657600080fd5b50356001600160a01b03166112b1565b610421611406565b61043b6004803603602081101561070457600080fd5b810190602081018135600160201b81111561071e57600080fd5b82018360208201111561073057600080fd5b803590602001918460018302840111600160201b8311171561075157600080fd5b91908080601f01602080910402602001604051908101604052809392919081815260200183838082843760009201919091525092955061140c945050505050565b61063b61148f565b61063b61149e565b610421600480360360208110156107b857600080fd5b50356114ad565b61063b611548565b610421611557565b61063b61155d565b610421600480360360208110156107ed57600080fd5b50356001600160a01b031661156c565b610421611587565b6104216004803603602081101561081b57600080fd5b503561163d565b61063b611648565b61063b611657565b610421611666565b61034f61166c565b6104216004803603602081101561085857600080fd5b50356001600160a01b03166116c4565b61043b600480360360c081101561087e57600080fd5b6001600160a01b03823581169260208101359091169160408201359190810190608081016060820135600160201b8111156108b857600080fd5b8201836020820111156108ca57600080fd5b803590602001918460018302840111600160201b831117156108eb57600080fd5b91908080601f0160208091040260200160405190810160405280939291908181526020018383808284376000920191909152509295949360208101935035915050600160201b81111561093d57600080fd5b82018360208201111561094f57600080fd5b803590602001918460018302840111600160201b8311171561097057600080fd5b91908080601f0160208091040260200160405190810160405280939291908181526020018383808284376000920191909152509295505050903560ff1691506117219050565b610421600480360360208110156109cc57600080fd5b5035611908565b610421611914565b6103f0600480360360408110156109f157600080fd5b506001600160a01b03813516906020013561198f565b610421611a00565b610421611a06565b61042160048036036060811015610a2d57600080fd5b506001600160a01b03813581169160208101359091169060400135611aa5565b61042160048036036020811015610a6357600080fd5b50356001600160a01b0316611b16565b610421611ba2565b610aa160048036036020811015610a9157600080fd5b50356001600160a01b0316611c5e565b604080519485526020850193909352838301919091526060830152519081900360800190f35b61042160048036036020811015610add57600080fd5b5035611cf3565b61042160048036036020811015610afa57600080fd5b5035611cfe565b61042160048036036040811015610b1757600080fd5b506001600160a01b0381358116916020013516611d09565b610421611d34565b61042160048036036020811015610b4d57600080fd5b50356001600160a01b0316611e38565b61063b611e72565b61042160048036036060811015610b7b57600080fd5b506001600160a01b03813581169160208101359160409091013516611e81565b61063b611e99565b610421611ead565b61042160048036036020811015610bc157600080fd5b5035611f11565b6103f0611f8f565b60018054604080516020600284861615610100026000190190941693909304601f81018490048402820184019092528181529291830182828015610c555780601f10610c2a57610100808354040283529160200191610c55565b820191906000526020600020905b815481529060010190602001808311610c3857829003601f168201915b505050505081565b336000818152600f602090815260408083206001600160a01b03871680855290835281842086905581518681529151939493909284927f8c5be1e5ebec7d5bd14f71427d1e84f3dd0314c0f7b2291e5b200ac8c7c3b925929081900390910190a360019150505b92915050565b600080610cd683611f94565b509150505b919050565b60035461010090046001600160a01b03163314610d2e5760405162461bcd60e51b815260040180806020018281038252602d815260200180615b60602d913960400191505060405180910390fd5b60135460145460155460408051634fb3c66560e11b815290516001600160a01b039485169493841693909216918391639f678cca9160048083019260209291908290030181600087803b158015610d8457600080fd5b505af1158015610d98573d6000803e3d6000fd5b505050506040513d6020811015610dae57600080fd5b5050604080516305f5d64360e11b815230600482015290516000916001600160a01b03851691630bebac8691602480820192602092909190829003018186803b158015610dfa57600080fd5b505afa158015610e0e573d6000803e3d6000fd5b505050506040513d6020811015610e2457600080fd5b505160408051637f8661a160e01b81526004810183905290519192506001600160a01b03851691637f8661a19160248082019260009290919082900301818387803b158015610e7257600080fd5b505af1158015610e86573d6000803e3d6000fd5b505060408051633612d9a360e11b81523060048201529051600093506001600160a01b0386169250636c25b34691602480820192602092909190829003018186803b158015610ed457600080fd5b505afa158015610ee8573d6000803e3d6000fd5b505050506040513d6020811015610efe57600080fd5b50516040805163ef693bed60e01b81523060048201526b033b2e3c9fd0803ce80000008304602482015290519192506001600160a01b0387169163ef693bed9160448082019260009290919082900301818387803b158015610f5f57600080fd5b505af1158015610f73573d6000803e3d6000fd5b505050505050505050565b60085481565b6000805460ff16610fc9576040805162461bcd60e51b815260206004820152600a6024820152691c994b595b9d195c995960b21b604482015290519081900360640190fd5b6000805460ff19168155610fdb611914565b14611026576040805162461bcd60e51b81526020600482015260166024820152751858d8dc9d59481a5b9d195c995cdd0819985a5b195960521b604482015290519081900360640190fd5b61102f826116c4565b90505b6000805460ff19166001179055919050565b600d5481565b600080600061105761203d565b9092509050600082600381111561106a57fe5b146110a65760405162461bcd60e51b8152600401808060200182810382526035815260200180615cf36035913960400191505060405180910390fd5b9150505b90565b6110bb868686868686611721565b601180546001600160a01b0319166001600160a01b038981169190911791829055604080516318160ddd60e01b8152905192909116916318160ddd91600480820192602092909190829003018186803b15801561111757600080fd5b505afa15801561112b573d6000803e3d6000fd5b505050506040513d6020811015610f7357600080fd5b6000805460ff16611186576040805162461bcd60e51b815260206004820152600a6024820152691c994b595b9d195c995960b21b604482015290519081900360640190fd5b6000805460ff1916815561119c338686866120eb565b1490506000805460ff191660011790559392505050565b6000806111c084846123f9565b50949350505050565b6004546001600160a01b031681565b60035460ff1681565b60006111eb6158e4565b60405180602001604052806111fe611ba2565b90526001600160a01b0384166000908152600e602052604081205491925090819061122a9084906124a4565b9092509050600082600381111561123d57fe5b1461128f576040805162461bcd60e51b815260206004820152601f60248201527f62616c616e636520636f756c64206e6f742062652063616c63756c6174656400604482015290519081900360640190fd5b949350505050565b60006112a16124f8565b905090565b6000610cc48261260a565b60035460009061010090046001600160a01b031633146112de576112d76001603f61269e565b9050610cdb565b60055460408051623f1ee960e11b815290516001600160a01b0392831692851691627e3dd2916004808301926020929190829003018186803b15801561132357600080fd5b505afa158015611337573d6000803e3d6000fd5b505050506040513d602081101561134d57600080fd5b50516113a0576040805162461bcd60e51b815260206004820152601c60248201527f6d61726b6572206d6574686f642072657475726e65642066616c736500000000604482015290519081900360640190fd5b600580546001600160a01b0319166001600160a01b03858116918217909255604080519284168352602083019190915280517f7ac369dbd14fa5ea3f473ed67cc9d598964a77501540ba6751eb0b3decf5870d9281900390910190a160005b9392505050565b600b5481565b60035461010090046001600160a01b0316331461145a5760405162461bcd60e51b8152600401808060200182810382526030815260200180615ade6030913960400191505060405180910390fd5b60008082806020019051604081101561147257600080fd5b508051602090910151909250905061148a8282612704565b505050565b6012546001600160a01b031681565b6005546001600160a01b031681565b6000805460ff166114f2576040805162461bcd60e51b815260206004820152600a6024820152691c994b595b9d195c995960b21b604482015290519081900360640190fd5b6000805460ff19168155611504611914565b9050801561152a5761152281601081111561151b57fe5b603061269e565b915050611032565b61153383612a1f565b9150506000805460ff19166001179055919050565b6014546001600160a01b031681565b60095481565b6011546001600160a01b031681565b6001600160a01b03166000908152600e602052604090205490565b6000805460ff166115cc576040805162461bcd60e51b815260206004820152600a6024820152691c994b595b9d195c995960b21b604482015290519081900360640190fd5b6000805460ff191681556115de611914565b14611629576040805162461bcd60e51b81526020600482015260166024820152751858d8dc9d59481a5b9d195c995cdd0819985a5b195960521b604482015290519081900360640190fd5b50600b546000805460ff1916600117905590565b6000610cc482612b52565b6013546001600160a01b031681565b6015546001600160a01b031681565b600c5481565b6002805460408051602060018416156101000260001901909316849004601f81018490048402820184019092528181529291830182828015610c555780601f10610c2a57610100808354040283529160200191610c55565b60008060006116d284612bd3565b909250905060008260038111156116e557fe5b146113ff5760405162461bcd60e51b8152600401808060200182810382526037815260200180615bb86037913960400191505060405180910390fd5b60035461010090046001600160a01b0316331461176f5760405162461bcd60e51b8152600401808060200182810382526024815260200180615a976024913960400191505060405180910390fd5b60095415801561177f5750600a54155b6117ba5760405162461bcd60e51b8152600401808060200182810382526023815260200180615abb6023913960400191505060405180910390fd5b6007849055836117fb5760405162461bcd60e51b8152600401808060200182810382526030815260200180615b0e6030913960400191505060405180910390fd5b6000611806876112b1565b9050801561185b576040805162461bcd60e51b815260206004820152601a60248201527f73657474696e6720636f6d7074726f6c6c6572206661696c6564000000000000604482015290519081900360640190fd5b611863612c87565b600955670de0b6b3a7640000600a5561187b86612c8b565b905080156118ba5760405162461bcd60e51b8152600401808060200182810382526022815260200180615b3e6022913960400191505060405180910390fd5b83516118cd9060019060208701906158f7565b5082516118e19060029060208601906158f7565b50506003805460ff90921660ff199283161790556000805490911660011790555050505050565b600080610cd683612e00565b60145460408051634fb3c66560e11b815290516000926001600160a01b031691639f678cca91600480830192602092919082900301818787803b15801561195a57600080fd5b505af115801561196e573d6000803e3d6000fd5b505050506040513d602081101561198457600080fd5b506112a19050612e81565b6000805460ff166119d4576040805162461bcd60e51b815260206004820152600a6024820152691c994b595b9d195c995960b21b604482015290519081900360640190fd5b6000805460ff191681556119ea333386866120eb565b1490506000805460ff1916600117905592915050565b600a5481565b6006546000906001600160a01b031663b8168816611a226124f8565b600b54600c546008546040518563ffffffff1660e01b81526004018085815260200184815260200183815260200182815260200194505050505060206040518083038186803b158015611a7457600080fd5b505afa158015611a88573d6000803e3d6000fd5b505050506040513d6020811015611a9e57600080fd5b5051905090565b6000805460ff16611aea576040805162461bcd60e51b815260206004820152600a6024820152691c994b595b9d195c995960b21b604482015290519081900360640190fd5b6000805460ff19169055611b00338585856132ae565b90506000805460ff191660011790559392505050565b60035460009061010090046001600160a01b03163314611b3c576112d76001604561269e565b600480546001600160a01b038481166001600160a01b0319831681179093556040805191909216808252602082019390935281517fca4f2f25d0898edd99413412fb94012f9e54ec8142f9b093e7720646a95b16a9929181900390910190a160006113ff565b6000805460ff16611be7576040805162461bcd60e51b815260206004820152600a6024820152691c994b595b9d195c995960b21b604482015290519081900360640190fd5b6000805460ff19168155611bf9611914565b14611c44576040805162461bcd60e51b81526020600482015260166024820152751858d8dc9d59481a5b9d195c995cdd0819985a5b195960521b604482015290519081900360640190fd5b611c4c61104a565b90506000805460ff1916600117905590565b6001600160a01b0381166000908152600e6020526040812054819081908190818080611c8989612bd3565b935090506000816003811115611c9b57fe5b14611cb95760095b975060009650869550859450611cec9350505050565b611cc161203d565b925090506000816003811115611cd357fe5b14611cdf576009611ca3565b5060009650919450925090505b9193509193565b6000610cc482613514565b6000610cc482613593565b6001600160a01b039182166000908152600f6020908152604080832093909416825291909152205490565b6004546000906001600160a01b031633141580611d4f575033155b15611d6757611d606001600061269e565b90506110aa565b60038054600480546001600160a01b03818116610100818102610100600160a81b0319871617968790556001600160a01b031990931690935560408051948390048216808652929095041660208401528351909391927ff9ffabca9c8276e99321725bcb43fb076a6c66a54b7f21c4e8146d8519b417dc92908290030190a1600454604080516001600160a01b038085168252909216602083015280517fca4f2f25d0898edd99413412fb94012f9e54ec8142f9b093e7720646a95b16a99281900390910190a160005b9250505090565b600080611e43611914565b90508015611e6957611e61816010811115611e5a57fe5b604061269e565b915050610cdb565b6113ff83612c8b565b6006546001600160a01b031681565b600080611e8f85858561360d565b5095945050505050565b60035461010090046001600160a01b031681565b6006546000906001600160a01b03166315f24053611ec96124f8565b600b54600c546040518463ffffffff1660e01b815260040180848152602001838152602001828152602001935050505060206040518083038186803b158015611a7457600080fd5b6000805460ff16611f56576040805162461bcd60e51b815260206004820152600a6024820152691c994b595b9d195c995960b21b604482015290519081900360640190fd5b6000805460ff19168155611f68611914565b90508015611f8657611522816010811115611f7f57fe5b604661269e565b6115338361373f565b600181565b60008054819060ff16611fdb576040805162461bcd60e51b815260206004820152600a6024820152691c994b595b9d195c995960b21b604482015290519081900360640190fd5b6000805460ff19168155611fed611914565b905080156120185761200b81601081111561200457fe5b603661269e565b9250600091506120299050565b6120233333866137e7565b92509250505b6000805460ff191660011790559092909150565b600080600d54600014156120585750506007546000906120e7565b60006120626124f8565b9050600061206e6158e4565b600061207f84600b54600c54613c19565b93509050600081600381111561209157fe5b146120a5579450600093506120e792505050565b6120b183600d54613c65565b9250905060008160038111156120c357fe5b146120d7579450600093506120e792505050565b50516000945092506120e7915050565b9091565b600554604080516317b9b84b60e31b81523060048201526001600160a01b03868116602483015285811660448301526064820185905291516000938493169163bdcdc25891608480830192602092919082900301818787803b15801561215057600080fd5b505af1158015612164573d6000803e3d6000fd5b505050506040513d602081101561217a57600080fd5b505190508015612199576121916003604a83613d15565b91505061128f565b836001600160a01b0316856001600160a01b031614156121bf576121916002604b61269e565b60006001600160a01b0387811690871614156121de5750600019612206565b506001600160a01b038086166000908152600f60209081526040808320938a16835292905220545b6000806000806122168589613d7b565b9094509250600084600381111561222957fe5b146122475761223a6009604b61269e565b965050505050505061128f565b6001600160a01b038a166000908152600e602052604090205461226a9089613d7b565b9094509150600084600381111561227d57fe5b1461228e5761223a6009604c61269e565b6001600160a01b0389166000908152600e60205260409020546122b19089613d9e565b909450905060008460038111156122c457fe5b146122d55761223a6009604d61269e565b6001600160a01b03808b166000908152600e6020526040808220859055918b16815220819055600019851461232d576001600160a01b03808b166000908152600f60209081526040808320938f168352929052208390555b886001600160a01b03168a6001600160a01b0316600080516020615c4b8339815191528a6040518082815260200191505060405180910390a36005546040805163352b4a3f60e11b81523060048201526001600160a01b038d811660248301528c81166044830152606482018c905291519190921691636a56947e91608480830192600092919082900301818387803b1580156123c957600080fd5b505af11580156123dd573d6000803e3d6000fd5b50600092506123ea915050565b9b9a5050505050505050505050565b60008054819060ff16612440576040805162461bcd60e51b815260206004820152600a6024820152691c994b595b9d195c995960b21b604482015290519081900360640190fd5b6000805460ff19168155612452611914565b9050801561247d5761247081601081111561246957fe5b603561269e565b92506000915061248e9050565b6124883386866137e7565b92509250505b6000805460ff1916600117905590939092509050565b60008060006124b16158e4565b6124bb8686613dc4565b909250905060008260038111156124ce57fe5b146124df57509150600090506124f1565b60006124ea82613e2c565b9350935050505b9250929050565b601454604080516305f5d64360e11b815230600482015290516000926001600160a01b03169183918391630bebac86916024808301926020929190829003018186803b15801561254757600080fd5b505afa15801561255b573d6000803e3d6000fd5b505050506040513d602081101561257157600080fd5b50516040805163324abb3160e21b815290519192506b033b2e3c9fd0803ce8000000916125fb916001600160a01b0386169163c92aecc491600480820192602092909190829003018186803b1580156125c957600080fd5b505afa1580156125dd573d6000803e3d6000fd5b505050506040513d60208110156125f357600080fd5b505183613e3b565b8161260257fe5b049250505090565b6000805460ff1661264f576040805162461bcd60e51b815260206004820152600a6024820152691c994b595b9d195c995960b21b604482015290519081900360640190fd5b6000805460ff19168155612661611914565b9050801561267f5761152281601081111561267857fe5b604e61269e565b61268883613e96565b509150506000805460ff19166001179055919050565b60007f45b96fe442630264581b197e84bbada861235052c5a1aadfff9ea4e40a969aa08360108111156126cd57fe5b8360508111156126d957fe5b604080519283526020830191909152600082820152519081900360600190a18260108111156113ff57fe5b600082905060008290506000826001600160a01b031663f4b9fa756040518163ffffffff1660e01b8152600401602060405180830381600087803b15801561274b57600080fd5b505af115801561275f573d6000803e3d6000fd5b505050506040513d602081101561277557600080fd5b5051604080516336569e7760e01b815290519192506000916001600160a01b038616916336569e7791600480830192602092919082900301818787803b1580156127be57600080fd5b505af11580156127d2573d6000803e3d6000fd5b505050506040513d60208110156127e857600080fd5b50516011549091506001600160a01b038381169116146128395760405162461bcd60e51b8152600401808060200182810382526022815260200180615bef6022913960400191505060405180910390fd5b601380546001600160a01b038089166001600160a01b0319928316179283905560148054898316908416179055601580548583169316929092179091556040805163095ea7b360e01b815292821660048401526000196024840152519084169163095ea7b391604480830192600092919082900301818387803b1580156128bf57600080fd5b505af11580156128d3573d6000803e3d6000fd5b5050601454604080516328ec8bf160e21b81526001600160a01b0392831660048201529051918516935063a3b22fc4925060248082019260009290919082900301818387803b15801561292557600080fd5b505af1158015612939573d6000803e3d6000fd5b5050601354604080516328ec8bf160e21b81526001600160a01b0392831660048201529051918516935063a3b22fc4925060248082019260009290919082900301818387803b15801561298b57600080fd5b505af115801561299f573d6000803e3d6000fd5b50505050826001600160a01b0316639f678cca6040518163ffffffff1660e01b8152600401602060405180830381600087803b1580156129de57600080fd5b505af11580156129f2573d6000803e3d6000fd5b505050506040513d6020811015612a0857600080fd5b50612a169050306000613fb8565b50505050505050565b600354600090819061010090046001600160a01b03163314612a4757611e616001603161269e565b612a4f612c87565b60095414612a6357611e61600a603361269e565b82612a6c6124f8565b1015612a7e57611e61600e603261269e565b600c54831115612a9457611e616002603461269e565b50600c5482810390811115612ada5760405162461bcd60e51b8152600401808060200182810382526024815260200180615d846024913960400191505060405180910390fd5b600c819055600354612afa9061010090046001600160a01b0316846142dd565b600354604080516101009092046001600160a01b0316825260208201859052818101839052517f3bad0c59cf2f06e7314077049f48a93578cd16f5ef92329f1dab1420a99c177e916060908290030190a160006113ff565b6000805460ff16612b97576040805162461bcd60e51b815260206004820152600a6024820152691c994b595b9d195c995960b21b604482015290519081900360640190fd5b6000805460ff19168155612ba9611914565b90508015612bc757611522816010811115612bc057fe5b602761269e565b61153333600085614442565b6001600160a01b038116600090815260106020526040812080548291829182918291612c0a575060009450849350612c8292505050565b612c1a8160000154600a54614909565b90945092506000846003811115612c2d57fe5b14612c42575091935060009250612c82915050565b612c50838260010154614948565b90945091506000846003811115612c6357fe5b14612c78575091935060009250612c82915050565b5060009450925050505b915091565b4390565b600354600090819061010090046001600160a01b03163314612cb357611e616001604261269e565b612cbb612c87565b60095414612ccf57611e61600a604161269e565b600660009054906101000a90046001600160a01b03169050826001600160a01b0316632191f92a6040518163ffffffff1660e01b815260040160206040518083038186803b158015612d2057600080fd5b505afa158015612d34573d6000803e3d6000fd5b505050506040513d6020811015612d4a57600080fd5b5051612d9d576040805162461bcd60e51b815260206004820152601c60248201527f6d61726b6572206d6574686f642072657475726e65642066616c736500000000604482015290519081900360640190fd5b600680546001600160a01b0319166001600160a01b03858116918217909255604080519284168352602083019190915280517fedffc32e068c7c95dfd4bdfd5c4d939a084d6b11c4199eac8436ed234d72f9269281900390910190a160006113ff565b60008054819060ff16612e47576040805162461bcd60e51b815260206004820152600a6024820152691c994b595b9d195c995960b21b604482015290519081900360640190fd5b6000805460ff19168155612e59611914565b90508015612e775761200b816010811115612e7057fe5b601e61269e565b6120233385614973565b6000612e8b615975565b6000612e956124f8565b600654600b54600c54604080516315f2405360e01b81526004810186905260248101939093526044830191909152519293506001600160a01b03909116916315f2405391606480820192602092909190829003018186803b158015612ef957600080fd5b505afa158015612f0d573d6000803e3d6000fd5b505050506040513d6020811015612f2357600080fd5b50516040830181905265048c273950001015612f86576040805162461bcd60e51b815260206004820152601c60248201527f626f72726f772072617465206973206162737572646c79206869676800000000604482015290519081900360640190fd5b612f8e612c87565b60608301819052600954612fa29190613d7b565b6080840181905283826003811115612fb657fe5b6003811115612fc157fe5b9052506000905082516003811115612fd557fe5b14613027576040805162461bcd60e51b815260206004820152601f60248201527f636f756c64206e6f742063616c63756c61746520626c6f636b2064656c746100604482015290519081900360640190fd5b613047604051806020016040528084604001518152508360800151613dc4565b60a084018190528382600381111561305b57fe5b600381111561306657fe5b905250600090508251600381111561307a57fe5b146130a45761309b600960068460000151600381111561309657fe5b613d15565b925050506110aa565b6130b48260a00151600b546124a4565b60c08401819052838260038111156130c857fe5b60038111156130d357fe5b90525060009050825160038111156130e757fe5b146131035761309b600960018460000151600381111561309657fe5b6131138260c00151600b54613d9e565b60e084018190528382600381111561312757fe5b600381111561313257fe5b905250600090508251600381111561314657fe5b146131625761309b600960048460000151600381111561309657fe5b61318360405180602001604052806008548152508360c00151600c54614e1a565b61010084018190528382600381111561319857fe5b60038111156131a357fe5b90525060009050825160038111156131b757fe5b146131d35761309b600960058460000151600381111561309657fe5b6131e68260a00151600a54600a54614e1a565b6101208401819052838260038111156131fb57fe5b600381111561320657fe5b905250600090508251600381111561321a57fe5b146132365761309b600960038460000151600381111561309657fe5b606080830151600955610120830151600a81905560e0840151600b819055610100850151600c5560c08501516040805186815260208101929092528181019390935292830152517f4dec04e750ca11537cabcd8a9eab06494de08da3735bc8871cd41250e190bc049181900360800190a16000611e31565b6005546040805163d02f735160e01b81523060048201526001600160a01b038781166024830152868116604483015285811660648301526084820185905291516000938493169163d02f73519160a480830192602092919082900301818787803b15801561331b57600080fd5b505af115801561332f573d6000803e3d6000fd5b505050506040513d602081101561334557600080fd5b50519050801561335c576121916003601b83613d15565b846001600160a01b0316846001600160a01b03161415613382576121916006601c61269e565b6001600160a01b0384166000908152600e6020526040812054819081906133a99087613d7b565b909350915060008360038111156133bc57fe5b146133df576133d46009601a85600381111561309657fe5b94505050505061128f565b6001600160a01b0388166000908152600e60205260409020546134029087613d9e565b9093509050600083600381111561341557fe5b1461342d576133d46009601985600381111561309657fe5b6001600160a01b038088166000818152600e60209081526040808320879055938c168083529184902085905583518a815293519193600080516020615c4b833981519152929081900390910190a360055460408051636d35bf9160e01b81523060048201526001600160a01b038c811660248301528b811660448301528a81166064830152608482018a905291519190921691636d35bf919160a480830192600092919082900301818387803b1580156134e657600080fd5b505af11580156134fa573d6000803e3d6000fd5b5060009250613507915050565b9998505050505050505050565b6000805460ff16613559576040805162461bcd60e51b815260206004820152600a6024820152691c994b595b9d195c995960b21b604482015290519081900360640190fd5b6000805460ff1916815561356b611914565b905080156135895761152281601081111561358257fe5b600861269e565b6115333384614e67565b6000805460ff166135d8576040805162461bcd60e51b815260206004820152600a6024820152691c994b595b9d195c995960b21b604482015290519081900360640190fd5b6000805460ff191681556135ea611914565b9050801561360157611522816010811115612bc057fe5b61153333846000614442565b60008054819060ff16613654576040805162461bcd60e51b815260206004820152600a6024820152691c994b595b9d195c995960b21b604482015290519081900360640190fd5b6000805460ff19168155613666611914565b905080156136915761368481601081111561367d57fe5b600f61269e565b9250600091506137289050565b836001600160a01b031663a6afed956040518163ffffffff1660e01b8152600401602060405180830381600087803b1580156136cc57600080fd5b505af11580156136e0573d6000803e3d6000fd5b505050506040513d60208110156136f657600080fd5b5051905080156137165761368481601081111561370f57fe5b601061269e565b61372233878787615175565b92509250505b6000805460ff191660011790559094909350915050565b60035460009061010090046001600160a01b03163314613765576112d76001604761269e565b61376d612c87565b60095414613781576112d7600a604861269e565b670de0b6b3a764000082111561379d576112d76002604961269e565b6008805490839055604080518281526020810185905281517faaa68312e2ea9d50e16af5068410ab56e1a1fd06037b1a35664812c30f821460929181900390910190a160006113ff565b60055460408051631200453160e11b81523060048201526001600160a01b0386811660248301528581166044830152606482018590529151600093849384939116916324008a629160848082019260209290919082900301818787803b15801561385057600080fd5b505af1158015613864573d6000803e3d6000fd5b505050506040513d602081101561387a57600080fd5b50519050801561389e576138916003603883613d15565b925060009150613c119050565b6138a6612c87565b600954146138ba57613891600a603961269e565b6138c26159cf565b6001600160a01b03861660009081526010602052604090206001015460608201526138ec86612bd3565b608083018190526020830182600381111561390357fe5b600381111561390e57fe5b905250600090508160200151600381111561392557fe5b1461394f57613941600960378360200151600381111561309657fe5b935060009250613c11915050565b6000198514156139685760808101516040820152613970565b604081018590525b61397e8782604001516156f8565b8190601081111561398b57fe5b9081601081111561399857fe5b9052506000815160108111156139aa57fe5b146139bc57805161394190603c61269e565b6139ca878260400151613fb8565b60e0820181905260808201516139df91613d7b565b60a08301819052602083018260038111156139f657fe5b6003811115613a0157fe5b9052506000905081602001516003811115613a1857fe5b14613a545760405162461bcd60e51b815260040180806020018281038252603a815260200180615c11603a913960400191505060405180910390fd5b613a64600b548260e00151613d7b565b60c0830181905260208301826003811115613a7b57fe5b6003811115613a8657fe5b9052506000905081602001516003811115613a9d57fe5b14613ad95760405162461bcd60e51b8152600401808060200182810382526031815260200180615c6b6031913960400191505060405180910390fd5b60a080820180516001600160a01b03808a16600081815260106020908152604091829020948555600a5460019095019490945560c0870151600b81905560e088015195518251948f16855294840192909252828101949094526060820192909252608081019190915290517f1a2a22cb034d26d1854bdc6666a5b91fe25efbbb5dcad3b0355478d6f5c362a1929181900390910190a160055460e0820151606083015160408051631ededc9160e01b81523060048201526001600160a01b038c811660248301528b8116604483015260648201949094526084810192909252519190921691631ededc919160a480830192600092919082900301818387803b158015613be457600080fd5b505af1158015613bf8573d6000803e3d6000fd5b5060009250613c05915050565b8160e001519350935050505b935093915050565b600080600080613c298787613d9e565b90925090506000826003811115613c3c57fe5b14613c4d5750915060009050613c11565b613c578186613d7b565b935093505050935093915050565b6000613c6f6158e4565b600080613c8486670de0b6b3a7640000614909565b90925090506000826003811115613c9757fe5b14613cb6575060408051602081019091526000815290925090506124f1565b600080613cc38388614948565b90925090506000826003811115613cd657fe5b14613cf8575060408051602081019091526000815290945092506124f1915050565b604080516020810190915290815260009890975095505050505050565b60007f45b96fe442630264581b197e84bbada861235052c5a1aadfff9ea4e40a969aa0846010811115613d4457fe5b846050811115613d5057fe5b604080519283526020830191909152818101859052519081900360600190a183601081111561128f57fe5b600080838311613d925750600090508183036124f1565b506003905060006124f1565b600080838301848110613db6576000925090506124f1565b5060029150600090506124f1565b6000613dce6158e4565b600080613ddf866000015186614909565b90925090506000826003811115613df257fe5b14613e11575060408051602081019091526000815290925090506124f1565b60408051602081019091529081526000969095509350505050565b51670de0b6b3a7640000900490565b6000811580613e5657505080820282828281613e5357fe5b04145b610cc4576040805162461bcd60e51b815260206004820152600c60248201526b6d756c2d6f766572666c6f7760a01b604482015290519081900360640190fd5b600080600080613ea4612c87565b60095414613ec357613eb8600a604f61269e565b93509150612c829050565b6000613ecf33876156f8565b90506000816010811115613edf57fe5b14613efc57613eef81605061269e565b8294509450505050612c82565b613f063387613fb8565b915081600c54019250600c54831015613f66576040805162461bcd60e51b815260206004820181905260248201527f61646420726573657276657320756e6578706563746564206f766572666c6f77604482015290519081900360640190fd5b600c839055604080513381526020810184905280820185905290517fa91e67c5ea634cd43a12c5a482724b03de01e85ca68702a53d0c2f45cb7c1dc59181900360600190a15060009590945092505050565b601154604080516323b872dd60e01b81526001600160a01b038581166004830152306024830152604482018590529151600093929092169182916323b872dd91606480830192602092919082900301818887803b15801561401857600080fd5b505af115801561402c573d6000803e3d6000fd5b505050506040513d602081101561404257600080fd5b505161407f5760405162461bcd60e51b8152600401808060200182810382526024815260200180615ccf6024913960400191505060405180910390fd5b601354601154601454601554604080516370a0823160e01b8152306004820181905291516001600160a01b03968716969586169594851694909316928692633b4da69f92909187916370a08231916024808301926020929190829003018186803b1580156140ec57600080fd5b505afa158015614100573d6000803e3d6000fd5b505050506040513d602081101561411657600080fd5b5051604080516001600160e01b031960e086901b1681526001600160a01b039093166004840152602483019190915251604480830192600092919082900301818387803b15801561416657600080fd5b505af115801561417a573d6000803e3d6000fd5b505060408051633612d9a360e11b81523060048201529051600093506001600160a01b0385169250636c25b34691602480820192602092909190829003018186803b1580156141c857600080fd5b505afa1580156141dc573d6000803e3d6000fd5b505050506040513d60208110156141f257600080fd5b50516040805163324abb3160e21b815290519192506000916001600160a01b0386169163c92aecc4916004808301926020929190829003018186803b15801561423a57600080fd5b505afa15801561424e573d6000803e3d6000fd5b505050506040513d602081101561426457600080fd5b5051828161426e57fe5b049050836001600160a01b031663049878f3826040518263ffffffff1660e01b815260040180828152602001915050600060405180830381600087803b1580156142b757600080fd5b505af11580156142cb573d6000803e3d6000fd5b509a9c9b505050505050505050505050565b6013546014546040805163324abb3160e21b815290516001600160a01b03938416939092169160009161438291849163c92aecc4916004808301926020929190829003018186803b15801561433157600080fd5b505afa158015614345573d6000803e3d6000fd5b505050506040513d602081101561435b57600080fd5b5051614373866b033b2e3c9fd0803ce8000000613e3b565b8161437a57fe5b04600161582c565b9050816001600160a01b0316637f8661a1826040518263ffffffff1660e01b815260040180828152602001915050600060405180830381600087803b1580156143ca57600080fd5b505af11580156143de573d6000803e3d6000fd5b50505050826001600160a01b031663ef693bed86866040518363ffffffff1660e01b815260040180836001600160a01b03166001600160a01b0316815260200182815260200192505050600060405180830381600087803b158015610f5f57600080fd5b600082158061444f575081155b61448a5760405162461bcd60e51b8152600401808060200182810382526034815260200180615d506034913960400191505060405180910390fd5b614492615a15565b61449a61203d565b60408301819052602083018260038111156144b157fe5b60038111156144bc57fe5b90525060009050816020015160038111156144d357fe5b146144f7576144ef6009602b8360200151600381111561309657fe5b9150506113ff565b831561457857606081018490526040805160208101825290820151815261451e90856124a4565b608083018190526020830182600381111561453557fe5b600381111561454057fe5b905250600090508160200151600381111561455757fe5b14614573576144ef600960298360200151600381111561309657fe5b6145f1565b6145948360405180602001604052808460400151815250615873565b60608301819052602083018260038111156145ab57fe5b60038111156145b657fe5b90525060009050816020015160038111156145cd57fe5b146145e9576144ef6009602a8360200151600381111561309657fe5b608081018390525b60055460608201516040805163eabe7d9160e01b81523060048201526001600160a01b03898116602483015260448201939093529051600093929092169163eabe7d919160648082019260209290919082900301818787803b15801561465657600080fd5b505af115801561466a573d6000803e3d6000fd5b505050506040513d602081101561468057600080fd5b5051905080156146a0576146976003602883613d15565b925050506113ff565b6146a8612c87565b600954146146bc57614697600a602c61269e565b6146cc600d548360600151613d7b565b60a08401819052602084018260038111156146e357fe5b60038111156146ee57fe5b905250600090508260200151600381111561470557fe5b14614721576146976009602e8460200151600381111561309657fe5b6001600160a01b0386166000908152600e602052604090205460608301516147499190613d7b565b60c084018190526020840182600381111561476057fe5b600381111561476b57fe5b905250600090508260200151600381111561478257fe5b1461479e576146976009602d8460200151600381111561309657fe5b81608001516147ab6124f8565b10156147bd57614697600e602f61269e565b6147cb8683608001516142dd565b60a0820151600d5560c08201516001600160a01b0387166000818152600e6020908152604091829020939093556060850151815190815290513093600080516020615c4b833981519152928290030190a36080820151606080840151604080516001600160a01b038b168152602081019490945283810191909152517fe5b754fb1abb7f01b499791d0b820ae3b6af3424ac1c59768edb53f4ec31a9299281900390910190a160055460808301516060840151604080516351dff98960e01b81523060048201526001600160a01b038b81166024830152604482019490945260648101929092525191909216916351dff98991608480830192600092919082900301818387803b1580156148de57600080fd5b505af11580156148f2573d6000803e3d6000fd5b50600092506148ff915050565b9695505050505050565b6000808361491c575060009050806124f1565b8383028385828161492957fe5b041461493d575060029150600090506124f1565b6000925090506124f1565b6000808261495c57506001905060006124f1565b600083858161496757fe5b04915091509250929050565b60055460408051634ef4c3e160e01b81523060048201526001600160a01b03858116602483015260448201859052915160009384938493911691634ef4c3e19160648082019260209290919082900301818787803b1580156149d457600080fd5b505af11580156149e8573d6000803e3d6000fd5b505050506040513d60208110156149fe57600080fd5b505190508015614a2257614a156003601f83613d15565b9250600091506124f19050565b614a2a612c87565b60095414614a3e57614a15600a602261269e565b614a46615a15565b614a5086866156f8565b81906010811115614a5d57fe5b90816010811115614a6a57fe5b905250600081516010811115614a7c57fe5b14614a9c578051614a8e90602661269e565b9350600092506124f1915050565b614aa461203d565b6040830181905260208301826003811115614abb57fe5b6003811115614ac657fe5b9052506000905081602001516003811115614add57fe5b14614af957614a8e600960218360200151600381111561309657fe5b614b038686613fb8565b60c0820181905260408051602081018252908301518152614b249190615873565b6060830181905260208301826003811115614b3b57fe5b6003811115614b4657fe5b9052506000905081602001516003811115614b5d57fe5b14614baf576040805162461bcd60e51b815260206004820181905260248201527f4d494e545f45584348414e47455f43414c43554c4154494f4e5f4641494c4544604482015290519081900360640190fd5b614bbf600d548260600151613d9e565b6080830181905260208301826003811115614bd657fe5b6003811115614be157fe5b9052506000905081602001516003811115614bf857fe5b14614c345760405162461bcd60e51b8152600401808060200182810382526028815260200180615d286028913960400191505060405180910390fd5b6001600160a01b0386166000908152600e60205260409020546060820151614c5c9190613d9e565b60a0830181905260208301826003811115614c7357fe5b6003811115614c7e57fe5b9052506000905081602001516003811115614c9557fe5b14614cd15760405162461bcd60e51b815260040180806020018281038252602b815260200180615b8d602b913960400191505060405180910390fd5b6080810151600d5560a08101516001600160a01b0387166000818152600e60209081526040918290209390935560c084015160608086015183519485529484019190915282820193909352517f4c209b5fc8ad50758f13e2e1088ba56a560dff690a1c6fef26394f4c03821c4f929181900390910190a1606081015160408051918252516001600160a01b038816913091600080516020615c4b8339815191529181900360200190a360055460c08201516060830151604080516341c728b960e01b81523060048201526001600160a01b038b81166024830152604482019490945260648101929092525191909216916341c728b991608480830192600092919082900301818387803b158015614de757600080fd5b505af1158015614dfb573d6000803e3d6000fd5b5060009250614e08915050565b8160c001519350935050509250929050565b6000806000614e276158e4565b614e318787613dc4565b90925090506000826003811115614e4457fe5b14614e555750915060009050613c11565b613c57614e6182613e2c565b86613d9e565b6005546040805163368f515360e21b81523060048201526001600160a01b0385811660248301526044820185905291516000938493169163da3d454c91606480830192602092919082900301818787803b158015614ec457600080fd5b505af1158015614ed8573d6000803e3d6000fd5b505050506040513d6020811015614eee57600080fd5b505190508015614f0d57614f056003600e83613d15565b915050610cc4565b614f15612c87565b60095414614f2857614f05600a8061269e565b82614f316124f8565b1015614f4357614f05600e600961269e565b614f4b615a53565b614f5485612bd3565b6020830181905282826003811115614f6857fe5b6003811115614f7357fe5b9052506000905081516003811115614f8757fe5b14614fac57614fa3600960078360000151600381111561309657fe5b92505050610cc4565b614fba816020015185613d9e565b6040830181905282826003811115614fce57fe5b6003811115614fd957fe5b9052506000905081516003811115614fed57fe5b1461500957614fa36009600c8360000151600381111561309657fe5b615015600b5485613d9e565b606083018190528282600381111561502957fe5b600381111561503457fe5b905250600090508151600381111561504857fe5b1461506457614fa36009600b8360000151600381111561309657fe5b61506e85856142dd565b604080820180516001600160a01b03881660008181526010602090815290859020928355600a54600190930192909255606080860151600b81905593518551928352928201899052818501929092529081019190915290517f13ed6866d4e1ee6da46f845c46d7e54120883d75c5ea9a2dacc1c4ca8984ab809181900360800190a160055460408051635c77860560e01b81523060048201526001600160a01b0388811660248301526044820188905291519190921691635c77860591606480830192600092919082900301818387803b15801561514b57600080fd5b505af115801561515f573d6000803e3d6000fd5b506000925061516c915050565b95945050505050565b60055460408051632fe3f38f60e11b81523060048201526001600160a01b0384811660248301528781166044830152868116606483015260848201869052915160009384938493911691635fc7e71e9160a48082019260209290919082900301818787803b1580156151e657600080fd5b505af11580156151fa573d6000803e3d6000fd5b505050506040513d602081101561521057600080fd5b505190508015615234576152276003601283613d15565b9250600091506156ef9050565b61523c612c87565b6009541461525057615227600a601661269e565b615258612c87565b846001600160a01b0316636c540baf6040518163ffffffff1660e01b815260040160206040518083038186803b15801561529157600080fd5b505afa1580156152a5573d6000803e3d6000fd5b505050506040513d60208110156152bb57600080fd5b5051146152ce57615227600a601161269e565b866001600160a01b0316866001600160a01b031614156152f4576152276006601761269e565b84615305576152276007601561269e565b60001985141561531b576152276007601461269e565b6000806153298989896137e7565b909250905081156153595761534a82601081111561534357fe5b601861269e565b9450600093506156ef92505050565b6005546040805163c488847b60e01b81523060048201526001600160a01b038981166024830152604482018590528251600094859492169263c488847b926064808301939192829003018186803b1580156153b357600080fd5b505afa1580156153c7573d6000803e3d6000fd5b505050506040513d60408110156153dd57600080fd5b508051602090910151909250905081156154285760405162461bcd60e51b8152600401808060200182810382526033815260200180615c9c6033913960400191505060405180910390fd5b80886001600160a01b03166370a082318c6040518263ffffffff1660e01b815260040180826001600160a01b03166001600160a01b0316815260200191505060206040518083038186803b15801561547f57600080fd5b505afa158015615493573d6000803e3d6000fd5b505050506040513d60208110156154a957600080fd5b505110156154fe576040805162461bcd60e51b815260206004820152601860248201527f4c49515549444154455f5345495a455f544f4f5f4d5543480000000000000000604482015290519081900360640190fd5b60006001600160a01b0389163014156155245761551d308d8d856132ae565b90506155ae565b6040805163b2a02ff160e01b81526001600160a01b038e811660048301528d81166024830152604482018590529151918b169163b2a02ff1916064808201926020929091908290030181600087803b15801561557f57600080fd5b505af1158015615593573d6000803e3d6000fd5b505050506040513d60208110156155a957600080fd5b505190505b80156155f8576040805162461bcd60e51b81526020600482015260146024820152731d1bdad95b881cd95a5e9d5c994819985a5b195960621b604482015290519081900360640190fd5b604080516001600160a01b03808f168252808e1660208301528183018790528b1660608201526080810184905290517f298637f684da70674f26509b10f07ec2fbc77a335ab1e7d6215a4b2484d8bb529181900360a00190a1600554604080516347ef3b3b60e01b81523060048201526001600160a01b038c811660248301528f811660448301528e811660648301526084820188905260a48201869052915191909216916347ef3b3b9160c480830192600092919082900301818387803b1580156156c357600080fd5b505af11580156156d7573d6000803e3d6000fd5b50600092506156e4915050565b975092955050505050505b94509492505050565b60115460408051636eb1769f60e11b81526001600160a01b038581166004830152306024830152915160009392909216918491839163dd62ed3e91604480820192602092909190829003018186803b15801561575357600080fd5b505afa158015615767573d6000803e3d6000fd5b505050506040513d602081101561577d57600080fd5b5051101561578f57600c915050610cc4565b82816001600160a01b03166370a08231866040518263ffffffff1660e01b815260040180826001600160a01b03166001600160a01b0316815260200191505060206040518083038186803b1580156157e657600080fd5b505afa1580156157fa573d6000803e3d6000fd5b505050506040513d602081101561581057600080fd5b5051101561582257600d915050610cc4565b5060009392505050565b80820182811015610cc4576040805162461bcd60e51b815260206004820152600c60248201526b6164642d6f766572666c6f7760a01b604482015290519081900360640190fd5b60008060006158806158e4565b6124bb8686600061588f6158e4565b6000806158a4670de0b6b3a764000087614909565b909250905060008260038111156158b757fe5b146158d6575060408051602081019091526000815290925090506124f1565b6124ea818660000151613c65565b6040518060200160405280600081525090565b828054600181600116156101000203166002900490600052602060002090601f016020900481019282601f1061593857805160ff1916838001178555615965565b82800160010185558215615965579182015b8281111561596557825182559160200191906001019061594a565b50615971929150615a7c565b5090565b6040805161014081019091528060008152602001600081526020016000815260200160008152602001600081526020016159ad6158e4565b8152602001600081526020016000815260200160008152602001600081525090565b6040805161010081019091528060008152602001600081526020016000815260200160008152602001600081526020016000815260200160008152602001600081525090565b6040805160e0810190915280600081526020016000815260200160008152602001600081526020016000815260200160008152602001600081525090565b604080516080810190915280600081526020016000815260200160008152602001600081525090565b6110aa91905b808211156159715760008155600101615a8256fe6f6e6c792061646d696e206d617920696e697469616c697a6520746865206d61726b65746d61726b6574206d6179206f6e6c7920626520696e697469616c697a6564206f6e63656f6e6c79207468652061646d696e206d617920696e697469616c697a652074686520696d706c656d656e746174696f6e696e697469616c2065786368616e67652072617465206d7573742062652067726561746572207468616e207a65726f2e73657474696e6720696e7465726573742072617465206d6f64656c206661696c65646f6e6c79207468652061646d696e206d6179206162616e646f6e2074686520696d706c656d656e746174696f6e4d494e545f4e45575f4143434f554e545f42414c414e43455f43414c43554c4154494f4e5f4641494c4544626f72726f7742616c616e636553746f7265643a20626f72726f7742616c616e636553746f726564496e7465726e616c206661696c6564444149206d757374206265207468652073616d6520617320756e6465726c79696e6752455041595f424f52524f575f4e45575f4143434f554e545f424f52524f575f42414c414e43455f43414c43554c4154494f4e5f4641494c4544ddf252ad1be2c89b69c2b068fc378daa952ba7f163c4a11628f55a4df523b3ef52455041595f424f52524f575f4e45575f544f54414c5f42414c414e43455f43414c43554c4154494f4e5f4641494c45444c49515549444154455f434f4d5054524f4c4c45525f43414c43554c4154455f414d4f554e545f5345495a455f4641494c4544756e6578706563746564204549502d3230207472616e7366657220696e2072657475726e65786368616e67655261746553746f7265643a2065786368616e67655261746553746f726564496e7465726e616c206661696c65644d494e545f4e45575f544f54414c5f535550504c595f43414c43554c4154494f4e5f4641494c45446f6e65206f662072656465656d546f6b656e73496e206f722072656465656d416d6f756e74496e206d757374206265207a65726f72656475636520726573657276657320756e657870656374656420756e646572666c6f77a265627a7a723158205a68a698c61d24b62d13e0f2be22f9c3f4627f5c34c4dda276e5cef177910aa764736f6c634300050c0032",
  "source": "pragma solidity ^0.5.12;\n\nimport \"./CErc20Delegate.sol\";\n\n/**\n * @title Compound's CDai Contract\n * @notice CToken which wraps Multi-Collateral DAI\n * @author Compound\n */\ncontract CDaiDelegate is CErc20Delegate {\n    /**\n     * @notice DAI adapter address\n     */\n    address public daiJoinAddress;\n\n    /**\n     * @notice DAI Savings Rate (DSR) pot address\n     */\n    address public potAddress;\n\n    /**\n     * @notice DAI vat address\n     */\n    address public vatAddress;\n\n    /**\n     * @notice Delegate interface to become the implementation\n     * @param data The encoded arguments for becoming\n     */\n    function _becomeImplementation(bytes memory data) public {\n        require(msg.sender == admin, \"only the admin may initialize the implementation\");\n\n        (address daiJoinAddress_, address potAddress_) = abi.decode(data, (address, address));\n        return _becomeImplementation(daiJoinAddress_, potAddress_);\n    }\n\n    /**\n     * @notice Explicit interface to become the implementation\n     * @param daiJoinAddress_ DAI adapter address\n     * @param potAddress_ DAI Savings Rate (DSR) pot address\n     */\n    function _becomeImplementation(address daiJoinAddress_, address potAddress_) internal {\n        // Get dai and vat and sanity check the underlying\n        DaiJoinLike daiJoin = DaiJoinLike(daiJoinAddress_);\n        PotLike pot = PotLike(potAddress_);\n        GemLike dai = daiJoin.dai();\n        VatLike vat = daiJoin.vat();\n        require(address(dai) == underlying, \"DAI must be the same as underlying\");\n\n        // Remember the relevant addresses\n        daiJoinAddress = daiJoinAddress_;\n        potAddress = potAddress_;\n        vatAddress = address(vat);\n\n        // Approve moving our DAI into the vat through daiJoin\n        dai.approve(daiJoinAddress, uint(-1));\n\n        // Approve the pot to transfer our funds within the vat\n        vat.hope(potAddress);\n        vat.hope(daiJoinAddress);\n\n        // Accumulate DSR interest -- must do this in order to doTransferIn\n        pot.drip();\n\n        // Transfer all cash in (doTransferIn does this regardless of amount)\n        doTransferIn(address(this), 0);\n    }\n\n    /**\n     * @notice Delegate interface to resign the implementation\n     */\n    function _resignImplementation() public {\n        require(msg.sender == admin, \"only the admin may abandon the implementation\");\n\n        // Transfer all cash out of the DSR - note that this relies on self-transfer\n        DaiJoinLike daiJoin = DaiJoinLike(daiJoinAddress);\n        PotLike pot = PotLike(potAddress);\n        VatLike vat = VatLike(vatAddress);\n\n        // Accumulate interest\n        pot.drip();\n\n        // Calculate the total amount in the pot, and move it out\n        uint pie = pot.pie(address(this));\n        pot.exit(pie);\n\n        // Checks the actual balance of DAI in the vat after the pot exit\n        uint bal = vat.dai(address(this));\n\n        // Remove our whole balance\n        daiJoin.exit(address(this), bal / RAY);\n    }\n\n    /*** CToken Overrides ***/\n\n    /**\n      * @notice Accrues DSR then applies accrued interest to total borrows and reserves\n      * @dev This calculates interest accrued from the last checkpointed block\n      *      up to the current block and writes new checkpoint to storage.\n      */\n    function accrueInterest() public returns (uint) {\n        // Accumulate DSR interest\n        PotLike(potAddress).drip();\n\n        // Accumulate CToken interest\n        return super.accrueInterest();\n    }\n\n    /*** Safe Token ***/\n\n    /**\n     * @notice Gets balance of this contract in terms of the underlying\n     * @dev This excludes the value of the current message, if any\n     * @return The quantity of underlying tokens owned by this contract\n     */\n    function getCashPrior() internal view returns (uint) {\n        PotLike pot = PotLike(potAddress);\n        uint pie = pot.pie(address(this));\n        return mul(pot.chi(), pie) / RAY;\n    }\n\n    /**\n     * @notice Transfer the underlying to this contract and sweep into DSR pot\n     * @param from Address to transfer funds from\n     * @param amount Amount of underlying to transfer\n     * @return The actual amount that is transferred\n     */\n    function doTransferIn(address from, uint amount) internal returns (uint) {\n        // Perform the EIP-20 transfer in\n        EIP20Interface token = EIP20Interface(underlying);\n        require(token.transferFrom(from, address(this), amount), \"unexpected EIP-20 transfer in return\");\n\n        DaiJoinLike daiJoin = DaiJoinLike(daiJoinAddress);\n        GemLike dai = GemLike(underlying);\n        PotLike pot = PotLike(potAddress);\n        VatLike vat = VatLike(vatAddress);\n\n        // Convert all our DAI to internal DAI in the vat\n        daiJoin.join(address(this), dai.balanceOf(address(this)));\n\n        // Checks the actual balance of DAI in the vat after the join\n        uint bal = vat.dai(address(this));\n\n        // Calculate the percentage increase to th pot for the entire vat, and move it in\n        // Note: We may leave a tiny bit of DAI in the vat...but we do the whole thing every time\n        uint pie = bal / pot.chi();\n        pot.join(pie);\n\n        return amount;\n    }\n\n    /**\n     * @notice Transfer the underlying from this contract, after sweeping out of DSR pot\n     * @param to Address to transfer funds to\n     * @param amount Amount of underlying to transfer\n     */\n    function doTransferOut(address payable to, uint amount) internal {\n        DaiJoinLike daiJoin = DaiJoinLike(daiJoinAddress);\n        PotLike pot = PotLike(potAddress);\n\n        // Calculate the percentage decrease from the pot, and move that much out\n        // Note: Use a slightly larger pie size to ensure that we get at least amount in the vat\n        uint pie = add(mul(amount, RAY) / pot.chi(), 1);\n        pot.exit(pie);\n\n        daiJoin.exit(to, amount);\n    }\n\n    /*** Maker Internals ***/\n\n    uint256 constant RAY = 10 ** 27;\n\n    function add(uint x, uint y) internal pure returns (uint z) {\n        require((z = x + y) >= x, \"add-overflow\");\n    }\n\n    function mul(uint x, uint y) internal pure returns (uint z) {\n        require(y == 0 || (z = x * y) / y == x, \"mul-overflow\");\n    }\n}\n\n/*** Maker Interfaces ***/\n\ncontract PotLike {\n    function chi() public view returns (uint);\n    function dsr() public view returns (uint);\n    function rho() public view returns (uint);\n    function pie(address) public view returns (uint);\n    function drip() public returns (uint);\n    function join(uint) public;\n    function exit(uint) public;\n}\n\ncontract GemLike {\n    function approve(address, uint) public;\n    function balanceOf(address) public view returns (uint);\n    function transfer(address, uint) public;\n    function transferFrom(address, address, uint) public;\n    function deposit() public payable;\n    function withdraw(uint) public;\n}\n\ncontract VatLike {\n    function can(address, address) public view returns (uint);\n    function ilks(bytes32) public view returns (uint, uint, uint, uint, uint);\n    function dai(address) public view returns (uint);\n    function urns(bytes32, address) public view returns (uint, uint);\n    function frob(bytes32, address, address, address, int, int) public;\n    function hope(address) public;\n    function move(address, address, uint) public;\n}\n\ncontract DaiJoinLike {\n    function vat() public returns (VatLike);\n    function dai() public returns (GemLike);\n    function join(address, uint) public payable;\n    function exit(address, uint) public;\n}\n",
  "sourcePath": "/home/akshay/workspace/somish/Compound-Finance/compound-protocol/contracts/CDaiDelegate.sol",
  "compiler": {
    "name": "solc",
    "version": "0.5.12+commit.7709ece9.Emscripten.clang"
  },
  "schemaVersion": "3.0.23",
  "updatedAt": "2020-03-04T10:50:01.265Z",
  "devdoc": {
    "author": "Compound",
    "methods": {
      "_acceptAdmin()": {
        "details": "Admin function for pending admin to accept role and update admin",
        "return": "uint 0=success, otherwise a failure (see ErrorReporter.sol for details)"
      },
      "_addReserves(uint256)": {
        "params": {
          "addAmount": "The amount fo underlying token to add as reserves"
        },
        "return": "uint 0=success, otherwise a failure (see ErrorReporter.sol for details)"
      },
      "_becomeImplementation(bytes)": {
        "params": {
          "data": "The encoded arguments for becoming"
        }
      },
      "_reduceReserves(uint256)": {
        "params": {
          "reduceAmount": "Amount of reduction to reserves"
        },
        "return": "uint 0=success, otherwise a failure (see ErrorReporter.sol for details)"
      },
      "_setComptroller(address)": {
        "details": "Admin function to set a new comptroller",
        "return": "uint 0=success, otherwise a failure (see ErrorReporter.sol for details)"
      },
      "_setInterestRateModel(address)": {
        "details": "Admin function to accrue interest and update the interest rate model",
        "params": {
          "newInterestRateModel": "the new interest rate model to use"
        },
        "return": "uint 0=success, otherwise a failure (see ErrorReporter.sol for details)"
      },
      "_setPendingAdmin(address)": {
        "details": "Admin function to begin change of admin. The newPendingAdmin must call `_acceptAdmin` to finalize the transfer.",
        "params": {
          "newPendingAdmin": "New pending admin."
        },
        "return": "uint 0=success, otherwise a failure (see ErrorReporter.sol for details)"
      },
      "_setReserveFactor(uint256)": {
        "details": "Admin function to accrue interest and set a new reserve factor",
        "return": "uint 0=success, otherwise a failure (see ErrorReporter.sol for details)"
      },
      "accrueInterest()": {
        "details": "This calculates interest accrued from the last checkpointed block     up to the current block and writes new checkpoint to storage."
      },
      "allowance(address,address)": {
        "params": {
          "owner": "The address of the account which owns the tokens to be spent",
          "spender": "The address of the account which may transfer tokens"
        },
        "return": "The number of tokens allowed to be spent (-1 means infinite)"
      },
      "approve(address,uint256)": {
        "details": "This will overwrite the approval amount for `spender` and is subject to issues noted [here](https://eips.ethereum.org/EIPS/eip-20#approve)",
        "params": {
          "amount": "The number of tokens that are approved (-1 means infinite)",
          "spender": "The address of the account which may transfer tokens"
        },
        "return": "Whether or not the approval succeeded"
      },
      "balanceOf(address)": {
        "params": {
          "owner": "The address of the account to query"
        },
        "return": "The number of tokens owned by `owner`"
      },
      "balanceOfUnderlying(address)": {
        "details": "This also accrues interest in a transaction",
        "params": {
          "owner": "The address of the account to query"
        },
        "return": "The amount of underlying owned by `owner`"
      },
      "borrow(uint256)": {
        "params": {
          "borrowAmount": "The amount of the underlying asset to borrow"
        },
        "return": "uint 0=success, otherwise a failure (see ErrorReporter.sol for details)"
      },
      "borrowBalanceCurrent(address)": {
        "params": {
          "account": "The address whose balance should be calculated after updating borrowIndex"
        },
        "return": "The calculated balance"
      },
      "borrowBalanceStored(address)": {
        "params": {
          "account": "The address whose balance should be calculated"
        },
        "return": "The calculated balance"
      },
      "borrowRatePerBlock()": {
        "return": "The borrow interest rate per block, scaled by 1e18"
      },
      "exchangeRateCurrent()": {
        "return": "Calculated exchange rate scaled by 1e18"
      },
      "exchangeRateStored()": {
        "details": "This function does not accrue interest before calculating the exchange rate",
        "return": "Calculated exchange rate scaled by 1e18"
      },
      "getAccountSnapshot(address)": {
        "details": "This is used by comptroller to more efficiently perform liquidity checks.",
        "params": {
          "account": "Address of the account to snapshot"
        },
        "return": "(possible error, token balance, borrow balance, exchange rate mantissa)"
      },
      "getCash()": {
        "return": "The quantity of underlying asset owned by this contract"
      },
      "initialize(address,address,address,uint256,string,string,uint8)": {
        "params": {
          "comptroller_": "The address of the Comptroller",
          "decimals_": "ERC-20 decimal precision of this token",
          "initialExchangeRateMantissa_": "The initial exchange rate, scaled by 1e18",
          "interestRateModel_": "The address of the interest rate model",
          "name_": "ERC-20 name of this token",
          "symbol_": "ERC-20 symbol of this token",
          "underlying_": "The address of the underlying asset"
        }
      },
      "initialize(address,address,uint256,string,string,uint8)": {
        "params": {
          "comptroller_": "The address of the Comptroller",
          "decimals_": "EIP-20 decimal precision of this token",
          "initialExchangeRateMantissa_": "The initial exchange rate, scaled by 1e18",
          "interestRateModel_": "The address of the interest rate model",
          "name_": "EIP-20 name of this token",
          "symbol_": "EIP-20 symbol of this token"
        }
      },
      "liquidateBorrow(address,uint256,address)": {
        "params": {
          "borrower": "The borrower of this cToken to be liquidated",
          "cTokenCollateral": "The market in which to seize collateral from the borrower",
          "repayAmount": "The amount of the underlying borrowed asset to repay"
        },
        "return": "uint 0=success, otherwise a failure (see ErrorReporter.sol for details)"
      },
      "mint(uint256)": {
        "details": "Accrues interest whether or not the operation succeeds, unless reverted",
        "params": {
          "mintAmount": "The amount of the underlying asset to supply"
        },
        "return": "uint 0=success, otherwise a failure (see ErrorReporter.sol for details)"
      },
      "redeem(uint256)": {
        "details": "Accrues interest whether or not the operation succeeds, unless reverted",
        "params": {
          "redeemTokens": "The number of cTokens to redeem into underlying"
        },
        "return": "uint 0=success, otherwise a failure (see ErrorReporter.sol for details)"
      },
      "redeemUnderlying(uint256)": {
        "details": "Accrues interest whether or not the operation succeeds, unless reverted",
        "params": {
          "redeemAmount": "The amount of underlying to redeem"
        },
        "return": "uint 0=success, otherwise a failure (see ErrorReporter.sol for details)"
      },
      "repayBorrow(uint256)": {
        "params": {
          "repayAmount": "The amount to repay"
        },
        "return": "uint 0=success, otherwise a failure (see ErrorReporter.sol for details)"
      },
      "repayBorrowBehalf(address,uint256)": {
        "params": {
          "borrower": "the account with the debt being payed off",
          "repayAmount": "The amount to repay"
        },
        "return": "uint 0=success, otherwise a failure (see ErrorReporter.sol for details)"
      },
      "seize(address,address,uint256)": {
        "details": "Will fail unless called by another cToken during the process of liquidation. Its absolutely critical to use msg.sender as the borrowed cToken and not a parameter.",
        "params": {
          "borrower": "The account having collateral seized",
          "liquidator": "The account receiving seized collateral",
          "seizeTokens": "The number of cTokens to seize"
        },
        "return": "uint 0=success, otherwise a failure (see ErrorReporter.sol for details)"
      },
      "supplyRatePerBlock()": {
        "return": "The supply interest rate per block, scaled by 1e18"
      },
      "totalBorrowsCurrent()": {
        "return": "The total borrows with interest"
      },
      "transfer(address,uint256)": {
        "params": {
          "amount": "The number of tokens to transfer",
          "dst": "The address of the destination account"
        },
        "return": "Whether or not the transfer succeeded"
      },
      "transferFrom(address,address,uint256)": {
        "params": {
          "amount": "The number of tokens to transfer",
          "dst": "The address of the destination account",
          "src": "The address of the source account"
        },
        "return": "Whether or not the transfer succeeded"
      }
    },
    "title": "Compound's CDai Contract"
  },
  "userdoc": {
    "methods": {
      "_acceptAdmin()": {
        "notice": "Accepts transfer of admin rights. msg.sender must be pendingAdmin"
      },
      "_addReserves(uint256)": {
        "notice": "The sender adds to reserves."
      },
      "_becomeImplementation(bytes)": {
        "notice": "Delegate interface to become the implementation"
      },
      "_reduceReserves(uint256)": {
        "notice": "Accrues interest and reduces reserves by transferring to admin"
      },
      "_resignImplementation()": {
        "notice": "Delegate interface to resign the implementation"
      },
      "_setComptroller(address)": {
        "notice": "Sets a new comptroller for the market"
      },
      "_setInterestRateModel(address)": {
        "notice": "accrues interest and updates the interest rate model using _setInterestRateModelFresh"
      },
      "_setPendingAdmin(address)": {
        "notice": "Begins transfer of admin rights. The newPendingAdmin must call `_acceptAdmin` to finalize the transfer."
      },
      "_setReserveFactor(uint256)": {
        "notice": "accrues interest and sets a new reserve factor for the protocol using _setReserveFactorFresh"
      },
      "accrueInterest()": {
        "notice": "Accrues DSR then applies accrued interest to total borrows and reserves"
      },
      "allowance(address,address)": {
        "notice": "Get the current allowance from `owner` for `spender`"
      },
      "approve(address,uint256)": {
        "notice": "Approve `spender` to transfer up to `amount` from `src`"
      },
      "balanceOf(address)": {
        "notice": "Get the token balance of the `owner`"
      },
      "balanceOfUnderlying(address)": {
        "notice": "Get the underlying balance of the `owner`"
      },
      "borrow(uint256)": {
        "notice": "Sender borrows assets from the protocol to their own address"
      },
      "borrowBalanceCurrent(address)": {
        "notice": "Accrue interest to updated borrowIndex and then calculate account's borrow balance using the updated borrowIndex"
      },
      "borrowBalanceStored(address)": {
        "notice": "Return the borrow balance of account based on stored data"
      },
      "borrowRatePerBlock()": {
        "notice": "Returns the current per-block borrow interest rate for this cToken"
      },
      "exchangeRateCurrent()": {
        "notice": "Accrue interest then return the up-to-date exchange rate"
      },
      "exchangeRateStored()": {
        "notice": "Calculates the exchange rate from the underlying to the CToken"
      },
      "getAccountSnapshot(address)": {
        "notice": "Get a snapshot of the account's balances, and the cached exchange rate"
      },
      "getCash()": {
        "notice": "Get cash balance of this cToken in the underlying asset"
      },
      "initialize(address,address,address,uint256,string,string,uint8)": {
        "notice": "Initialize the new money market"
      },
      "initialize(address,address,uint256,string,string,uint8)": {
        "notice": "Initialize the money market"
      },
      "liquidateBorrow(address,uint256,address)": {
        "notice": "The sender liquidates the borrowers collateral. The collateral seized is transferred to the liquidator."
      },
      "mint(uint256)": {
        "notice": "Sender supplies assets into the market and receives cTokens in exchange"
      },
      "redeem(uint256)": {
        "notice": "Sender redeems cTokens in exchange for the underlying asset"
      },
      "redeemUnderlying(uint256)": {
        "notice": "Sender redeems cTokens in exchange for a specified amount of underlying asset"
      },
      "repayBorrow(uint256)": {
        "notice": "Sender repays their own borrow"
      },
      "repayBorrowBehalf(address,uint256)": {
        "notice": "Sender repays a borrow belonging to borrower"
      },
      "seize(address,address,uint256)": {
        "notice": "Transfers collateral tokens (this market) to the liquidator."
      },
      "supplyRatePerBlock()": {
        "notice": "Returns the current per-block supply interest rate for this cToken"
      },
      "totalBorrowsCurrent()": {
        "notice": "Returns the current total borrows plus accrued interest"
      },
      "transfer(address,uint256)": {
        "notice": "Transfer `amount` tokens from `msg.sender` to `dst`"
      },
      "transferFrom(address,address,uint256)": {
        "notice": "Transfer `amount` tokens from `src` to `dst`"
      }
    },
    "notice": "CToken which wraps Multi-Collateral DAI"
  }
}