{
  "contractName": "CErc20",
  "abi": [
    {
      "anonymous": false,
      "inputs": [
        {
          "indexed": false,
          "internalType": "uint256",
          "name": "cashPrior",
          "type": "uint256"
        },
        {
          "indexed": false,
          "internalType": "uint256",
          "name": "interestAccumulated",
          "type": "uint256"
        },
        {
          "indexed": false,
          "internalType": "uint256",
          "name": "borrowIndex",
          "type": "uint256"
        },
        {
          "indexed": false,
          "internalType": "uint256",
          "name": "totalBorrows",
          "type": "uint256"
        }
      ],
      "name": "AccrueInterest",
      "type": "event"
    },
    {
      "anonymous": false,
      "inputs": [
        {
          "indexed": true,
          "internalType": "address",
          "name": "owner",
          "type": "address"
        },
        {
          "indexed": true,
          "internalType": "address",
          "name": "spender",
          "type": "address"
        },
        {
          "indexed": false,
          "internalType": "uint256",
          "name": "amount",
          "type": "uint256"
        }
      ],
      "name": "Approval",
      "type": "event"
    },
    {
      "anonymous": false,
      "inputs": [
        {
          "indexed": false,
          "internalType": "address",
          "name": "borrower",
          "type": "address"
        },
        {
          "indexed": false,
          "internalType": "uint256",
          "name": "borrowAmount",
          "type": "uint256"
        },
        {
          "indexed": false,
          "internalType": "uint256",
          "name": "accountBorrows",
          "type": "uint256"
        },
        {
          "indexed": false,
          "internalType": "uint256",
          "name": "totalBorrows",
          "type": "uint256"
        }
      ],
      "name": "Borrow",
      "type": "event"
    },
    {
      "anonymous": false,
      "inputs": [
        {
          "indexed": false,
          "internalType": "uint256",
          "name": "error",
          "type": "uint256"
        },
        {
          "indexed": false,
          "internalType": "uint256",
          "name": "info",
          "type": "uint256"
        },
        {
          "indexed": false,
          "internalType": "uint256",
          "name": "detail",
          "type": "uint256"
        }
      ],
      "name": "Failure",
      "type": "event"
    },
    {
      "anonymous": false,
      "inputs": [
        {
          "indexed": false,
          "internalType": "address",
          "name": "liquidator",
          "type": "address"
        },
        {
          "indexed": false,
          "internalType": "address",
          "name": "borrower",
          "type": "address"
        },
        {
          "indexed": false,
          "internalType": "uint256",
          "name": "repayAmount",
          "type": "uint256"
        },
        {
          "indexed": false,
          "internalType": "address",
          "name": "cTokenCollateral",
          "type": "address"
        },
        {
          "indexed": false,
          "internalType": "uint256",
          "name": "seizeTokens",
          "type": "uint256"
        }
      ],
      "name": "LiquidateBorrow",
      "type": "event"
    },
    {
      "anonymous": false,
      "inputs": [
        {
          "indexed": false,
          "internalType": "address",
          "name": "minter",
          "type": "address"
        },
        {
          "indexed": false,
          "internalType": "uint256",
          "name": "mintAmount",
          "type": "uint256"
        },
        {
          "indexed": false,
          "internalType": "uint256",
          "name": "mintTokens",
          "type": "uint256"
        }
      ],
      "name": "Mint",
      "type": "event"
    },
    {
      "anonymous": false,
      "inputs": [
        {
          "indexed": false,
          "internalType": "address",
          "name": "oldAdmin",
          "type": "address"
        },
        {
          "indexed": false,
          "internalType": "address",
          "name": "newAdmin",
          "type": "address"
        }
      ],
      "name": "NewAdmin",
      "type": "event"
    },
    {
      "anonymous": false,
      "inputs": [
        {
          "indexed": false,
          "internalType": "contract ComptrollerInterface",
          "name": "oldComptroller",
          "type": "address"
        },
        {
          "indexed": false,
          "internalType": "contract ComptrollerInterface",
          "name": "newComptroller",
          "type": "address"
        }
      ],
      "name": "NewComptroller",
      "type": "event"
    },
    {
      "anonymous": false,
      "inputs": [
        {
          "indexed": false,
          "internalType": "contract InterestRateModel",
          "name": "oldInterestRateModel",
          "type": "address"
        },
        {
          "indexed": false,
          "internalType": "contract InterestRateModel",
          "name": "newInterestRateModel",
          "type": "address"
        }
      ],
      "name": "NewMarketInterestRateModel",
      "type": "event"
    },
    {
      "anonymous": false,
      "inputs": [
        {
          "indexed": false,
          "internalType": "address",
          "name": "oldPendingAdmin",
          "type": "address"
        },
        {
          "indexed": false,
          "internalType": "address",
          "name": "newPendingAdmin",
          "type": "address"
        }
      ],
      "name": "NewPendingAdmin",
      "type": "event"
    },
    {
      "anonymous": false,
      "inputs": [
        {
          "indexed": false,
          "internalType": "uint256",
          "name": "oldReserveFactorMantissa",
          "type": "uint256"
        },
        {
          "indexed": false,
          "internalType": "uint256",
          "name": "newReserveFactorMantissa",
          "type": "uint256"
        }
      ],
      "name": "NewReserveFactor",
      "type": "event"
    },
    {
      "anonymous": false,
      "inputs": [
        {
          "indexed": false,
          "internalType": "address",
          "name": "redeemer",
          "type": "address"
        },
        {
          "indexed": false,
          "internalType": "uint256",
          "name": "redeemAmount",
          "type": "uint256"
        },
        {
          "indexed": false,
          "internalType": "uint256",
          "name": "redeemTokens",
          "type": "uint256"
        }
      ],
      "name": "Redeem",
      "type": "event"
    },
    {
      "anonymous": false,
      "inputs": [
        {
          "indexed": false,
          "internalType": "address",
          "name": "payer",
          "type": "address"
        },
        {
          "indexed": false,
          "internalType": "address",
          "name": "borrower",
          "type": "address"
        },
        {
          "indexed": false,
          "internalType": "uint256",
          "name": "repayAmount",
          "type": "uint256"
        },
        {
          "indexed": false,
          "internalType": "uint256",
          "name": "accountBorrows",
          "type": "uint256"
        },
        {
          "indexed": false,
          "internalType": "uint256",
          "name": "totalBorrows",
          "type": "uint256"
        }
      ],
      "name": "RepayBorrow",
      "type": "event"
    },
    {
      "anonymous": false,
      "inputs": [
        {
          "indexed": false,
          "internalType": "address",
          "name": "benefactor",
          "type": "address"
        },
        {
          "indexed": false,
          "internalType": "uint256",
          "name": "addAmount",
          "type": "uint256"
        },
        {
          "indexed": false,
          "internalType": "uint256",
          "name": "newTotalReserves",
          "type": "uint256"
        }
      ],
      "name": "ReservesAdded",
      "type": "event"
    },
    {
      "anonymous": false,
      "inputs": [
        {
          "indexed": false,
          "internalType": "address",
          "name": "admin",
          "type": "address"
        },
        {
          "indexed": false,
          "internalType": "uint256",
          "name": "reduceAmount",
          "type": "uint256"
        },
        {
          "indexed": false,
          "internalType": "uint256",
          "name": "newTotalReserves",
          "type": "uint256"
        }
      ],
      "name": "ReservesReduced",
      "type": "event"
    },
    {
      "anonymous": false,
      "inputs": [
        {
          "indexed": true,
          "internalType": "address",
          "name": "from",
          "type": "address"
        },
        {
          "indexed": true,
          "internalType": "address",
          "name": "to",
          "type": "address"
        },
        {
          "indexed": false,
          "internalType": "uint256",
          "name": "amount",
          "type": "uint256"
        }
      ],
      "name": "Transfer",
      "type": "event"
    },
    {
      "constant": false,
      "inputs": [],
      "name": "_acceptAdmin",
      "outputs": [
        {
          "internalType": "uint256",
          "name": "",
          "type": "uint256"
        }
      ],
      "payable": false,
      "stateMutability": "nonpayable",
      "type": "function"
    },
    {
      "constant": false,
      "inputs": [
        {
          "internalType": "uint256",
          "name": "reduceAmount",
          "type": "uint256"
        }
      ],
      "name": "_reduceReserves",
      "outputs": [
        {
          "internalType": "uint256",
          "name": "",
          "type": "uint256"
        }
      ],
      "payable": false,
      "stateMutability": "nonpayable",
      "type": "function"
    },
    {
      "constant": false,
      "inputs": [
        {
          "internalType": "contract ComptrollerInterface",
          "name": "newComptroller",
          "type": "address"
        }
      ],
      "name": "_setComptroller",
      "outputs": [
        {
          "internalType": "uint256",
          "name": "",
          "type": "uint256"
        }
      ],
      "payable": false,
      "stateMutability": "nonpayable",
      "type": "function"
    },
    {
      "constant": false,
      "inputs": [
        {
          "internalType": "contract InterestRateModel",
          "name": "newInterestRateModel",
          "type": "address"
        }
      ],
      "name": "_setInterestRateModel",
      "outputs": [
        {
          "internalType": "uint256",
          "name": "",
          "type": "uint256"
        }
      ],
      "payable": false,
      "stateMutability": "nonpayable",
      "type": "function"
    },
    {
      "constant": false,
      "inputs": [
        {
          "internalType": "address payable",
          "name": "newPendingAdmin",
          "type": "address"
        }
      ],
      "name": "_setPendingAdmin",
      "outputs": [
        {
          "internalType": "uint256",
          "name": "",
          "type": "uint256"
        }
      ],
      "payable": false,
      "stateMutability": "nonpayable",
      "type": "function"
    },
    {
      "constant": false,
      "inputs": [
        {
          "internalType": "uint256",
          "name": "newReserveFactorMantissa",
          "type": "uint256"
        }
      ],
      "name": "_setReserveFactor",
      "outputs": [
        {
          "internalType": "uint256",
          "name": "",
          "type": "uint256"
        }
      ],
      "payable": false,
      "stateMutability": "nonpayable",
      "type": "function"
    },
    {
      "constant": true,
      "inputs": [],
      "name": "accrualBlockNumber",
      "outputs": [
        {
          "internalType": "uint256",
          "name": "",
          "type": "uint256"
        }
      ],
      "payable": false,
      "stateMutability": "view",
      "type": "function"
    },
    {
      "constant": false,
      "inputs": [],
      "name": "accrueInterest",
      "outputs": [
        {
          "internalType": "uint256",
          "name": "",
          "type": "uint256"
        }
      ],
      "payable": false,
      "stateMutability": "nonpayable",
      "type": "function"
    },
    {
      "constant": true,
      "inputs": [],
      "name": "admin",
      "outputs": [
        {
          "internalType": "address payable",
          "name": "",
          "type": "address"
        }
      ],
      "payable": false,
      "stateMutability": "view",
      "type": "function"
    },
    {
      "constant": true,
      "inputs": [
        {
          "internalType": "address",
          "name": "owner",
          "type": "address"
        },
        {
          "internalType": "address",
          "name": "spender",
          "type": "address"
        }
      ],
      "name": "allowance",
      "outputs": [
        {
          "internalType": "uint256",
          "name": "",
          "type": "uint256"
        }
      ],
      "payable": false,
      "stateMutability": "view",
      "type": "function"
    },
    {
      "constant": false,
      "inputs": [
        {
          "internalType": "address",
          "name": "spender",
          "type": "address"
        },
        {
          "internalType": "uint256",
          "name": "amount",
          "type": "uint256"
        }
      ],
      "name": "approve",
      "outputs": [
        {
          "internalType": "bool",
          "name": "",
          "type": "bool"
        }
      ],
      "payable": false,
      "stateMutability": "nonpayable",
      "type": "function"
    },
    {
      "constant": true,
      "inputs": [
        {
          "internalType": "address",
          "name": "owner",
          "type": "address"
        }
      ],
      "name": "balanceOf",
      "outputs": [
        {
          "internalType": "uint256",
          "name": "",
          "type": "uint256"
        }
      ],
      "payable": false,
      "stateMutability": "view",
      "type": "function"
    },
    {
      "constant": false,
      "inputs": [
        {
          "internalType": "address",
          "name": "owner",
          "type": "address"
        }
      ],
      "name": "balanceOfUnderlying",
      "outputs": [
        {
          "internalType": "uint256",
          "name": "",
          "type": "uint256"
        }
      ],
      "payable": false,
      "stateMutability": "nonpayable",
      "type": "function"
    },
    {
      "constant": false,
      "inputs": [
        {
          "internalType": "address",
          "name": "account",
          "type": "address"
        }
      ],
      "name": "borrowBalanceCurrent",
      "outputs": [
        {
          "internalType": "uint256",
          "name": "",
          "type": "uint256"
        }
      ],
      "payable": false,
      "stateMutability": "nonpayable",
      "type": "function"
    },
    {
      "constant": true,
      "inputs": [
        {
          "internalType": "address",
          "name": "account",
          "type": "address"
        }
      ],
      "name": "borrowBalanceStored",
      "outputs": [
        {
          "internalType": "uint256",
          "name": "",
          "type": "uint256"
        }
      ],
      "payable": false,
      "stateMutability": "view",
      "type": "function"
    },
    {
      "constant": true,
      "inputs": [],
      "name": "borrowIndex",
      "outputs": [
        {
          "internalType": "uint256",
          "name": "",
          "type": "uint256"
        }
      ],
      "payable": false,
      "stateMutability": "view",
      "type": "function"
    },
    {
      "constant": true,
      "inputs": [],
      "name": "borrowRatePerBlock",
      "outputs": [
        {
          "internalType": "uint256",
          "name": "",
          "type": "uint256"
        }
      ],
      "payable": false,
      "stateMutability": "view",
      "type": "function"
    },
    {
      "constant": true,
      "inputs": [],
      "name": "comptroller",
      "outputs": [
        {
          "internalType": "contract ComptrollerInterface",
          "name": "",
          "type": "address"
        }
      ],
      "payable": false,
      "stateMutability": "view",
      "type": "function"
    },
    {
      "constant": true,
      "inputs": [],
      "name": "decimals",
      "outputs": [
        {
          "internalType": "uint8",
          "name": "",
          "type": "uint8"
        }
      ],
      "payable": false,
      "stateMutability": "view",
      "type": "function"
    },
    {
      "constant": false,
      "inputs": [],
      "name": "exchangeRateCurrent",
      "outputs": [
        {
          "internalType": "uint256",
          "name": "",
          "type": "uint256"
        }
      ],
      "payable": false,
      "stateMutability": "nonpayable",
      "type": "function"
    },
    {
      "constant": true,
      "inputs": [],
      "name": "exchangeRateStored",
      "outputs": [
        {
          "internalType": "uint256",
          "name": "",
          "type": "uint256"
        }
      ],
      "payable": false,
      "stateMutability": "view",
      "type": "function"
    },
    {
      "constant": true,
      "inputs": [
        {
          "internalType": "address",
          "name": "account",
          "type": "address"
        }
      ],
      "name": "getAccountSnapshot",
      "outputs": [
        {
          "internalType": "uint256",
          "name": "",
          "type": "uint256"
        },
        {
          "internalType": "uint256",
          "name": "",
          "type": "uint256"
        },
        {
          "internalType": "uint256",
          "name": "",
          "type": "uint256"
        },
        {
          "internalType": "uint256",
          "name": "",
          "type": "uint256"
        }
      ],
      "payable": false,
      "stateMutability": "view",
      "type": "function"
    },
    {
      "constant": true,
      "inputs": [],
      "name": "getCash",
      "outputs": [
        {
          "internalType": "uint256",
          "name": "",
          "type": "uint256"
        }
      ],
      "payable": false,
      "stateMutability": "view",
      "type": "function"
    },
    {
      "constant": true,
      "inputs": [],
      "name": "interestRateModel",
      "outputs": [
        {
          "internalType": "contract InterestRateModel",
          "name": "",
          "type": "address"
        }
      ],
      "payable": false,
      "stateMutability": "view",
      "type": "function"
    },
    {
      "constant": true,
      "inputs": [],
      "name": "isCToken",
      "outputs": [
        {
          "internalType": "bool",
          "name": "",
          "type": "bool"
        }
      ],
      "payable": false,
      "stateMutability": "view",
      "type": "function"
    },
    {
      "constant": true,
      "inputs": [],
      "name": "name",
      "outputs": [
        {
          "internalType": "string",
          "name": "",
          "type": "string"
        }
      ],
      "payable": false,
      "stateMutability": "view",
      "type": "function"
    },
    {
      "constant": true,
      "inputs": [],
      "name": "pendingAdmin",
      "outputs": [
        {
          "internalType": "address payable",
          "name": "",
          "type": "address"
        }
      ],
      "payable": false,
      "stateMutability": "view",
      "type": "function"
    },
    {
      "constant": true,
      "inputs": [],
      "name": "reserveFactorMantissa",
      "outputs": [
        {
          "internalType": "uint256",
          "name": "",
          "type": "uint256"
        }
      ],
      "payable": false,
      "stateMutability": "view",
      "type": "function"
    },
    {
      "constant": false,
      "inputs": [
        {
          "internalType": "address",
          "name": "liquidator",
          "type": "address"
        },
        {
          "internalType": "address",
          "name": "borrower",
          "type": "address"
        },
        {
          "internalType": "uint256",
          "name": "seizeTokens",
          "type": "uint256"
        }
      ],
      "name": "seize",
      "outputs": [
        {
          "internalType": "uint256",
          "name": "",
          "type": "uint256"
        }
      ],
      "payable": false,
      "stateMutability": "nonpayable",
      "type": "function"
    },
    {
      "constant": true,
      "inputs": [],
      "name": "supplyRatePerBlock",
      "outputs": [
        {
          "internalType": "uint256",
          "name": "",
          "type": "uint256"
        }
      ],
      "payable": false,
      "stateMutability": "view",
      "type": "function"
    },
    {
      "constant": true,
      "inputs": [],
      "name": "symbol",
      "outputs": [
        {
          "internalType": "string",
          "name": "",
          "type": "string"
        }
      ],
      "payable": false,
      "stateMutability": "view",
      "type": "function"
    },
    {
      "constant": true,
      "inputs": [],
      "name": "totalBorrows",
      "outputs": [
        {
          "internalType": "uint256",
          "name": "",
          "type": "uint256"
        }
      ],
      "payable": false,
      "stateMutability": "view",
      "type": "function"
    },
    {
      "constant": false,
      "inputs": [],
      "name": "totalBorrowsCurrent",
      "outputs": [
        {
          "internalType": "uint256",
          "name": "",
          "type": "uint256"
        }
      ],
      "payable": false,
      "stateMutability": "nonpayable",
      "type": "function"
    },
    {
      "constant": true,
      "inputs": [],
      "name": "totalReserves",
      "outputs": [
        {
          "internalType": "uint256",
          "name": "",
          "type": "uint256"
        }
      ],
      "payable": false,
      "stateMutability": "view",
      "type": "function"
    },
    {
      "constant": true,
      "inputs": [],
      "name": "totalSupply",
      "outputs": [
        {
          "internalType": "uint256",
          "name": "",
          "type": "uint256"
        }
      ],
      "payable": false,
      "stateMutability": "view",
      "type": "function"
    },
    {
      "constant": false,
      "inputs": [
        {
          "internalType": "address",
          "name": "dst",
          "type": "address"
        },
        {
          "internalType": "uint256",
          "name": "amount",
          "type": "uint256"
        }
      ],
      "name": "transfer",
      "outputs": [
        {
          "internalType": "bool",
          "name": "",
          "type": "bool"
        }
      ],
      "payable": false,
      "stateMutability": "nonpayable",
      "type": "function"
    },
    {
      "constant": false,
      "inputs": [
        {
          "internalType": "address",
          "name": "src",
          "type": "address"
        },
        {
          "internalType": "address",
          "name": "dst",
          "type": "address"
        },
        {
          "internalType": "uint256",
          "name": "amount",
          "type": "uint256"
        }
      ],
      "name": "transferFrom",
      "outputs": [
        {
          "internalType": "bool",
          "name": "",
          "type": "bool"
        }
      ],
      "payable": false,
      "stateMutability": "nonpayable",
      "type": "function"
    },
    {
      "constant": true,
      "inputs": [],
      "name": "underlying",
      "outputs": [
        {
          "internalType": "address",
          "name": "",
          "type": "address"
        }
      ],
      "payable": false,
      "stateMutability": "view",
      "type": "function"
    },
    {
      "constant": false,
      "inputs": [
        {
          "internalType": "address",
          "name": "underlying_",
          "type": "address"
        },
        {
          "internalType": "contract ComptrollerInterface",
          "name": "comptroller_",
          "type": "address"
        },
        {
          "internalType": "contract InterestRateModel",
          "name": "interestRateModel_",
          "type": "address"
        },
        {
          "internalType": "uint256",
          "name": "initialExchangeRateMantissa_",
          "type": "uint256"
        },
        {
          "internalType": "string",
          "name": "name_",
          "type": "string"
        },
        {
          "internalType": "string",
          "name": "symbol_",
          "type": "string"
        },
        {
          "internalType": "uint8",
          "name": "decimals_",
          "type": "uint8"
        }
      ],
      "name": "initialize",
      "outputs": [],
      "payable": false,
      "stateMutability": "nonpayable",
      "type": "function"
    },
    {
      "constant": false,
      "inputs": [
        {
          "internalType": "contract ComptrollerInterface",
          "name": "comptroller_",
          "type": "address"
        },
        {
          "internalType": "contract InterestRateModel",
          "name": "interestRateModel_",
          "type": "address"
        },
        {
          "internalType": "uint256",
          "name": "initialExchangeRateMantissa_",
          "type": "uint256"
        },
        {
          "internalType": "string",
          "name": "name_",
          "type": "string"
        },
        {
          "internalType": "string",
          "name": "symbol_",
          "type": "string"
        },
        {
          "internalType": "uint8",
          "name": "decimals_",
          "type": "uint8"
        }
      ],
      "name": "initialize",
      "outputs": [],
      "payable": false,
      "stateMutability": "nonpayable",
      "type": "function"
    },
    {
      "constant": false,
      "inputs": [
        {
          "internalType": "uint256",
          "name": "mintAmount",
          "type": "uint256"
        }
      ],
      "name": "mint",
      "outputs": [
        {
          "internalType": "uint256",
          "name": "",
          "type": "uint256"
        }
      ],
      "payable": false,
      "stateMutability": "nonpayable",
      "type": "function"
    },
    {
      "constant": false,
      "inputs": [
        {
          "internalType": "uint256",
          "name": "redeemTokens",
          "type": "uint256"
        }
      ],
      "name": "redeem",
      "outputs": [
        {
          "internalType": "uint256",
          "name": "",
          "type": "uint256"
        }
      ],
      "payable": false,
      "stateMutability": "nonpayable",
      "type": "function"
    },
    {
      "constant": false,
      "inputs": [
        {
          "internalType": "uint256",
          "name": "redeemAmount",
          "type": "uint256"
        }
      ],
      "name": "redeemUnderlying",
      "outputs": [
        {
          "internalType": "uint256",
          "name": "",
          "type": "uint256"
        }
      ],
      "payable": false,
      "stateMutability": "nonpayable",
      "type": "function"
    },
    {
      "constant": false,
      "inputs": [
        {
          "internalType": "uint256",
          "name": "borrowAmount",
          "type": "uint256"
        }
      ],
      "name": "borrow",
      "outputs": [
        {
          "internalType": "uint256",
          "name": "",
          "type": "uint256"
        }
      ],
      "payable": false,
      "stateMutability": "nonpayable",
      "type": "function"
    },
    {
      "constant": false,
      "inputs": [
        {
          "internalType": "uint256",
          "name": "repayAmount",
          "type": "uint256"
        }
      ],
      "name": "repayBorrow",
      "outputs": [
        {
          "internalType": "uint256",
          "name": "",
          "type": "uint256"
        }
      ],
      "payable": false,
      "stateMutability": "nonpayable",
      "type": "function"
    },
    {
      "constant": false,
      "inputs": [
        {
          "internalType": "address",
          "name": "borrower",
          "type": "address"
        },
        {
          "internalType": "uint256",
          "name": "repayAmount",
          "type": "uint256"
        }
      ],
      "name": "repayBorrowBehalf",
      "outputs": [
        {
          "internalType": "uint256",
          "name": "",
          "type": "uint256"
        }
      ],
      "payable": false,
      "stateMutability": "nonpayable",
      "type": "function"
    },
    {
      "constant": false,
      "inputs": [
        {
          "internalType": "address",
          "name": "borrower",
          "type": "address"
        },
        {
          "internalType": "uint256",
          "name": "repayAmount",
          "type": "uint256"
        },
        {
          "internalType": "contract CTokenInterface",
          "name": "cTokenCollateral",
          "type": "address"
        }
      ],
      "name": "liquidateBorrow",
      "outputs": [
        {
          "internalType": "uint256",
          "name": "",
          "type": "uint256"
        }
      ],
      "payable": false,
      "stateMutability": "nonpayable",
      "type": "function"
    },
    {
      "constant": false,
      "inputs": [
        {
          "internalType": "uint256",
          "name": "addAmount",
          "type": "uint256"
        }
      ],
      "name": "_addReserves",
      "outputs": [
        {
          "internalType": "uint256",
          "name": "",
          "type": "uint256"
        }
      ],
      "payable": false,
      "stateMutability": "nonpayable",
      "type": "function"
    }
  ],
  "bytecode": "0x608060405234801561001057600080fd5b50615266806100206000396000f3fe608060405234801561001057600080fd5b50600436106102a05760003560e01c80638f840ddd11610167578063c37f68e2116100ce578063f3fdb15a11610087578063f3fdb15a146109ef578063f5e3c462146109f7578063f851a44014610a2d578063f8f9da2814610a35578063fca7820b14610a3d578063fe9c44ae14610a5a576102a0565b8063c37f68e21461090d578063c5ebeaec14610959578063db006a7514610976578063dd62ed3e14610993578063e9c714f2146109c1578063f2b3abbd146109c9576102a0565b8063a9059cbb11610120578063a9059cbb1461086d578063aa5af0fd14610899578063ae9d70b0146108a1578063b2a02ff1146108a9578063b71d1a0c146108df578063bd6d894d14610905576102a0565b80638f840ddd146106c457806395d89b41146106cc57806395dd9193146106d457806399d8c1b4146106fa578063a0712d6814610848578063a6afed9514610865576102a0565b80633af9e6691161020b578063601a0bf1116101c4578063601a0bf11461064c5780636c540baf146106695780636f307dc31461067157806370a082311461067957806373acee981461069f578063852a12e3146106a7576102a0565b80633af9e669146105cb5780633b1d21a2146105f15780633e941010146105f95780634576b5db1461061657806347bd37181461063c5780635fe3b56714610644576102a0565b8063182df0f51161025d578063182df0f5146103c75780631a31d465146103cf57806323b872dd146105275780632608f8181461055d5780632678224714610589578063313ce567146105ad576102a0565b806306fdde03146102a5578063095ea7b3146103225780630e75270214610362578063173b99041461039157806317bfdfbc1461039957806318160ddd146103bf575b600080fd5b6102ad610a62565b6040805160208082528351818301528351919283929083019185019080838360005b838110156102e75781810151838201526020016102cf565b50505050905090810190601f1680156103145780820380516001836020036101000a031916815260200191505b509250505060405180910390f35b61034e6004803603604081101561033857600080fd5b506001600160a01b038135169060200135610aef565b604080519115158252519081900360200190f35b61037f6004803603602081101561037857600080fd5b5035610b5c565b60408051918252519081900360200190f35b61037f610b72565b61037f600480360360208110156103af57600080fd5b50356001600160a01b0316610b78565b61037f610c38565b61037f610c3e565b610525600480360360e08110156103e557600080fd5b6001600160a01b03823581169260208101358216926040820135909216916060820135919081019060a081016080820135600160201b81111561042757600080fd5b82018360208201111561043957600080fd5b803590602001918460018302840111600160201b8311171561045a57600080fd5b91908080601f0160208091040260200160405190810160405280939291908181526020018383808284376000920191909152509295949360208101935035915050600160201b8111156104ac57600080fd5b8201836020820111156104be57600080fd5b803590602001918460018302840111600160201b831117156104df57600080fd5b91908080601f0160208091040260200160405190810160405280939291908181526020018383808284376000920191909152509295505050903560ff169150610ca19050565b005b61034e6004803603606081101561053d57600080fd5b506001600160a01b03813581169160208101359091169060400135610d40565b61037f6004803603604081101561057357600080fd5b506001600160a01b038135169060200135610db2565b610591610dc8565b604080516001600160a01b039092168252519081900360200190f35b6105b5610dd7565b6040805160ff9092168252519081900360200190f35b61037f600480360360208110156105e157600080fd5b50356001600160a01b0316610de0565b61037f610e96565b61037f6004803603602081101561060f57600080fd5b5035610ea5565b61037f6004803603602081101561062c57600080fd5b50356001600160a01b0316610eb0565b61037f611005565b61059161100b565b61037f6004803603602081101561066257600080fd5b503561101a565b61037f6110b5565b6105916110bb565b61037f6004803603602081101561068f57600080fd5b50356001600160a01b03166110ca565b61037f6110e5565b61037f600480360360208110156106bd57600080fd5b503561119b565b61037f6111a6565b6102ad6111ac565b61037f600480360360208110156106ea57600080fd5b50356001600160a01b0316611204565b610525600480360360c081101561071057600080fd5b6001600160a01b03823581169260208101359091169160408201359190810190608081016060820135600160201b81111561074a57600080fd5b82018360208201111561075c57600080fd5b803590602001918460018302840111600160201b8311171561077d57600080fd5b91908080601f0160208091040260200160405190810160405280939291908181526020018383808284376000920191909152509295949360208101935035915050600160201b8111156107cf57600080fd5b8201836020820111156107e157600080fd5b803590602001918460018302840111600160201b8311171561080257600080fd5b91908080601f0160208091040260200160405190810160405280939291908181526020018383808284376000920191909152509295505050903560ff1691506112619050565b61037f6004803603602081101561085e57600080fd5b5035611448565b61037f611454565b61034e6004803603604081101561088357600080fd5b506001600160a01b038135169060200135611884565b61037f6118f5565b61037f6118fb565b61037f600480360360608110156108bf57600080fd5b506001600160a01b0381358116916020810135909116906040013561199a565b61037f600480360360208110156108f557600080fd5b50356001600160a01b0316611a0b565b61037f611a97565b6109336004803603602081101561092357600080fd5b50356001600160a01b0316611b53565b604080519485526020850193909352838301919091526060830152519081900360800190f35b61037f6004803603602081101561096f57600080fd5b5035611be8565b61037f6004803603602081101561098c57600080fd5b5035611bf3565b61037f600480360360408110156109a957600080fd5b506001600160a01b0381358116916020013516611bfe565b61037f611c29565b61037f600480360360208110156109df57600080fd5b50356001600160a01b0316611d2a565b610591611d64565b61037f60048036036060811015610a0d57600080fd5b506001600160a01b03813581169160208101359160409091013516611d73565b610591611d8b565b61037f611d9f565b61037f60048036036020811015610a5357600080fd5b5035611e03565b61034e611e81565b60018054604080516020600284861615610100026000190190941693909304601f81018490048402820184019092528181529291830182828015610ae75780601f10610abc57610100808354040283529160200191610ae7565b820191906000526020600020905b815481529060010190602001808311610aca57829003601f168201915b505050505081565b336000818152600f602090815260408083206001600160a01b03871680855290835281842086905581518681529151939493909284927f8c5be1e5ebec7d5bd14f71427d1e84f3dd0314c0f7b2291e5b200ac8c7c3b925929081900390910190a360019150505b92915050565b600080610b6883611e86565b509150505b919050565b60085481565b6000805460ff16610bbd576040805162461bcd60e51b815260206004820152600a6024820152691c994b595b9d195c995960b21b604482015290519081900360640190fd5b6000805460ff19168155610bcf611454565b14610c1a576040805162461bcd60e51b81526020600482015260166024820152751858d8dc9d59481a5b9d195c995cdd0819985a5b195960521b604482015290519081900360640190fd5b610c2382611204565b90505b6000805460ff19166001179055919050565b600d5481565b6000806000610c4b611f2f565b90925090506000826003811115610c5e57fe5b14610c9a5760405162461bcd60e51b815260040180806020018281038252603581526020018061517d6035913960400191505060405180910390fd5b9150505b90565b610caf868686868686611261565b601180546001600160a01b0319166001600160a01b038981169190911791829055604080516318160ddd60e01b8152905192909116916318160ddd91600480820192602092909190829003018186803b158015610d0b57600080fd5b505afa158015610d1f573d6000803e3d6000fd5b505050506040513d6020811015610d3557600080fd5b505050505050505050565b6000805460ff16610d85576040805162461bcd60e51b815260206004820152600a6024820152691c994b595b9d195c995960b21b604482015290519081900360640190fd5b6000805460ff19168155610d9b33868686611fdd565b1490506000805460ff191660011790559392505050565b600080610dbf84846122eb565b50949350505050565b6004546001600160a01b031681565b60035460ff1681565b6000610dea614e11565b6040518060200160405280610dfd611a97565b90526001600160a01b0384166000908152600e6020526040812054919250908190610e29908490612396565b90925090506000826003811115610e3c57fe5b14610e8e576040805162461bcd60e51b815260206004820152601f60248201527f62616c616e636520636f756c64206e6f742062652063616c63756c6174656400604482015290519081900360640190fd5b949350505050565b6000610ea06123ea565b905090565b6000610b568261246a565b60035460009061010090046001600160a01b03163314610edd57610ed66001603f6124fe565b9050610b6d565b60055460408051623f1ee960e11b815290516001600160a01b0392831692851691627e3dd2916004808301926020929190829003018186803b158015610f2257600080fd5b505afa158015610f36573d6000803e3d6000fd5b505050506040513d6020811015610f4c57600080fd5b5051610f9f576040805162461bcd60e51b815260206004820152601c60248201527f6d61726b6572206d6574686f642072657475726e65642066616c736500000000604482015290519081900360640190fd5b600580546001600160a01b0319166001600160a01b03858116918217909255604080519284168352602083019190915280517f7ac369dbd14fa5ea3f473ed67cc9d598964a77501540ba6751eb0b3decf5870d9281900390910190a160005b9392505050565b600b5481565b6005546001600160a01b031681565b6000805460ff1661105f576040805162461bcd60e51b815260206004820152600a6024820152691c994b595b9d195c995960b21b604482015290519081900360640190fd5b6000805460ff19168155611071611454565b905080156110975761108f81601081111561108857fe5b60306124fe565b915050610c26565b6110a083612564565b9150506000805460ff19166001179055919050565b60095481565b6011546001600160a01b031681565b6001600160a01b03166000908152600e602052604090205490565b6000805460ff1661112a576040805162461bcd60e51b815260206004820152600a6024820152691c994b595b9d195c995960b21b604482015290519081900360640190fd5b6000805460ff1916815561113c611454565b14611187576040805162461bcd60e51b81526020600482015260166024820152751858d8dc9d59481a5b9d195c995cdd0819985a5b195960521b604482015290519081900360640190fd5b50600b546000805460ff1916600117905590565b6000610b5682612697565b600c5481565b6002805460408051602060018416156101000260001901909316849004601f81018490048402820184019092528181529291830182828015610ae75780601f10610abc57610100808354040283529160200191610ae7565b600080600061121284612718565b9092509050600082600381111561122557fe5b14610ffe5760405162461bcd60e51b81526004018080602001828103825260378152602001806150886037913960400191505060405180910390fd5b60035461010090046001600160a01b031633146112af5760405162461bcd60e51b8152600401808060200182810382526024815260200180614fc46024913960400191505060405180910390fd5b6009541580156112bf5750600a54155b6112fa5760405162461bcd60e51b8152600401808060200182810382526023815260200180614fe86023913960400191505060405180910390fd5b60078490558361133b5760405162461bcd60e51b815260040180806020018281038252603081526020018061500b6030913960400191505060405180910390fd5b600061134687610eb0565b9050801561139b576040805162461bcd60e51b815260206004820152601a60248201527f73657474696e6720636f6d7074726f6c6c6572206661696c6564000000000000604482015290519081900360640190fd5b6113a36127cc565b600955670de0b6b3a7640000600a556113bb866127d0565b905080156113fa5760405162461bcd60e51b815260040180806020018281038252602281526020018061503b6022913960400191505060405180910390fd5b835161140d906001906020870190614e24565b508251611421906002906020860190614e24565b50506003805460ff90921660ff199283161790556000805490911660011790555050505050565b600080610b6883612945565b600061145e614ea2565b60006114686123ea565b600654600b54600c54604080516315f2405360e01b81526004810186905260248101939093526044830191909152519293506001600160a01b03909116916315f2405391606480820192602092909190829003018186803b1580156114cc57600080fd5b505afa1580156114e0573d6000803e3d6000fd5b505050506040513d60208110156114f657600080fd5b50516040830181905265048c273950001015611559576040805162461bcd60e51b815260206004820152601c60248201527f626f72726f772072617465206973206162737572646c79206869676800000000604482015290519081900360640190fd5b6115616127cc565b6060830181905260095461157591906129c6565b608084018190528382600381111561158957fe5b600381111561159457fe5b90525060009050825160038111156115a857fe5b146115fa576040805162461bcd60e51b815260206004820152601f60248201527f636f756c64206e6f742063616c63756c61746520626c6f636b2064656c746100604482015290519081900360640190fd5b61161a6040518060200160405280846040015181525083608001516129e9565b60a084018190528382600381111561162e57fe5b600381111561163957fe5b905250600090508251600381111561164d57fe5b146116775761166e600960068460000151600381111561166957fe5b612a51565b92505050610c9e565b6116878260a00151600b54612396565b60c084018190528382600381111561169b57fe5b60038111156116a657fe5b90525060009050825160038111156116ba57fe5b146116d65761166e600960018460000151600381111561166957fe5b6116e68260c00151600b54612ab7565b60e08401819052838260038111156116fa57fe5b600381111561170557fe5b905250600090508251600381111561171957fe5b146117355761166e600960048460000151600381111561166957fe5b61175660405180602001604052806008548152508360c00151600c54612add565b61010084018190528382600381111561176b57fe5b600381111561177657fe5b905250600090508251600381111561178a57fe5b146117a65761166e600960058460000151600381111561166957fe5b6117b98260a00151600a54600a54612add565b6101208401819052838260038111156117ce57fe5b60038111156117d957fe5b90525060009050825160038111156117ed57fe5b146118095761166e600960038460000151600381111561166957fe5b606080830151600955610120830151600a81905560e0840151600b819055610100850151600c5560c08501516040805186815260208101929092528181019390935292830152517f4dec04e750ca11537cabcd8a9eab06494de08da3735bc8871cd41250e190bc049181900360800190a160005b9250505090565b6000805460ff166118c9576040805162461bcd60e51b815260206004820152600a6024820152691c994b595b9d195c995960b21b604482015290519081900360640190fd5b6000805460ff191681556118df33338686611fdd565b1490506000805460ff1916600117905592915050565b600a5481565b6006546000906001600160a01b031663b81688166119176123ea565b600b54600c546008546040518563ffffffff1660e01b81526004018085815260200184815260200183815260200182815260200194505050505060206040518083038186803b15801561196957600080fd5b505afa15801561197d573d6000803e3d6000fd5b505050506040513d602081101561199357600080fd5b5051905090565b6000805460ff166119df576040805162461bcd60e51b815260206004820152600a6024820152691c994b595b9d195c995960b21b604482015290519081900360640190fd5b6000805460ff191690556119f533858585612b39565b90506000805460ff191660011790559392505050565b60035460009061010090046001600160a01b03163314611a3157610ed6600160456124fe565b600480546001600160a01b038481166001600160a01b0319831681179093556040805191909216808252602082019390935281517fca4f2f25d0898edd99413412fb94012f9e54ec8142f9b093e7720646a95b16a9929181900390910190a16000610ffe565b6000805460ff16611adc576040805162461bcd60e51b815260206004820152600a6024820152691c994b595b9d195c995960b21b604482015290519081900360640190fd5b6000805460ff19168155611aee611454565b14611b39576040805162461bcd60e51b81526020600482015260166024820152751858d8dc9d59481a5b9d195c995cdd0819985a5b195960521b604482015290519081900360640190fd5b611b41610c3e565b90506000805460ff1916600117905590565b6001600160a01b0381166000908152600e6020526040812054819081908190818080611b7e89612718565b935090506000816003811115611b9057fe5b14611bae5760095b975060009650869550859450611be19350505050565b611bb6611f2f565b925090506000816003811115611bc857fe5b14611bd4576009611b98565b5060009650919450925090505b9193509193565b6000610b5682612d9f565b6000610b5682612e1e565b6001600160a01b039182166000908152600f6020908152604080832093909416825291909152205490565b6004546000906001600160a01b031633141580611c44575033155b15611c5c57611c55600160006124fe565b9050610c9e565b60038054600480546001600160a01b03818116610100818102610100600160a81b0319871617968790556001600160a01b031990931690935560408051948390048216808652929095041660208401528351909391927ff9ffabca9c8276e99321725bcb43fb076a6c66a54b7f21c4e8146d8519b417dc92908290030190a1600454604080516001600160a01b038085168252909216602083015280517fca4f2f25d0898edd99413412fb94012f9e54ec8142f9b093e7720646a95b16a99281900390910190a1600061187d565b600080611d35611454565b90508015611d5b57611d53816010811115611d4c57fe5b60406124fe565b915050610b6d565b610ffe836127d0565b6006546001600160a01b031681565b600080611d81858585612e98565b5095945050505050565b60035461010090046001600160a01b031681565b6006546000906001600160a01b03166315f24053611dbb6123ea565b600b54600c546040518463ffffffff1660e01b815260040180848152602001838152602001828152602001935050505060206040518083038186803b15801561196957600080fd5b6000805460ff16611e48576040805162461bcd60e51b815260206004820152600a6024820152691c994b595b9d195c995960b21b604482015290519081900360640190fd5b6000805460ff19168155611e5a611454565b90508015611e785761108f816010811115611e7157fe5b60466124fe565b6110a083612fca565b600181565b60008054819060ff16611ecd576040805162461bcd60e51b815260206004820152600a6024820152691c994b595b9d195c995960b21b604482015290519081900360640190fd5b6000805460ff19168155611edf611454565b90508015611f0a57611efd816010811115611ef657fe5b60366124fe565b925060009150611f1b9050565b611f15333386613072565b92509250505b6000805460ff191660011790559092909150565b600080600d5460001415611f4a575050600754600090611fd9565b6000611f546123ea565b90506000611f60614e11565b6000611f7184600b54600c546134a3565b935090506000816003811115611f8357fe5b14611f9757945060009350611fd992505050565b611fa383600d546134e1565b925090506000816003811115611fb557fe5b14611fc957945060009350611fd992505050565b5051600094509250611fd9915050565b9091565b600554604080516317b9b84b60e31b81523060048201526001600160a01b03868116602483015285811660448301526064820185905291516000938493169163bdcdc25891608480830192602092919082900301818787803b15801561204257600080fd5b505af1158015612056573d6000803e3d6000fd5b505050506040513d602081101561206c57600080fd5b50519050801561208b576120836003604a83612a51565b915050610e8e565b836001600160a01b0316856001600160a01b031614156120b1576120836002604b6124fe565b60006001600160a01b0387811690871614156120d057506000196120f8565b506001600160a01b038086166000908152600f60209081526040808320938a16835292905220545b60008060008061210885896129c6565b9094509250600084600381111561211b57fe5b146121395761212c6009604b6124fe565b9650505050505050610e8e565b6001600160a01b038a166000908152600e602052604090205461215c90896129c6565b9094509150600084600381111561216f57fe5b146121805761212c6009604c6124fe565b6001600160a01b0389166000908152600e60205260409020546121a39089612ab7565b909450905060008460038111156121b657fe5b146121c75761212c6009604d6124fe565b6001600160a01b03808b166000908152600e6020526040808220859055918b16815220819055600019851461221f576001600160a01b03808b166000908152600f60209081526040808320938f168352929052208390555b886001600160a01b03168a6001600160a01b03166000805160206150f98339815191528a6040518082815260200191505060405180910390a36005546040805163352b4a3f60e11b81523060048201526001600160a01b038d811660248301528c81166044830152606482018c905291519190921691636a56947e91608480830192600092919082900301818387803b1580156122bb57600080fd5b505af11580156122cf573d6000803e3d6000fd5b50600092506122dc915050565b9b9a5050505050505050505050565b60008054819060ff16612332576040805162461bcd60e51b815260206004820152600a6024820152691c994b595b9d195c995960b21b604482015290519081900360640190fd5b6000805460ff19168155612344611454565b9050801561236f5761236281601081111561235b57fe5b60356124fe565b9250600091506123809050565b61237a338686613072565b92509250505b6000805460ff1916600117905590939092509050565b60008060006123a3614e11565b6123ad86866129e9565b909250905060008260038111156123c057fe5b146123d157509150600090506123e3565b60006123dc82613591565b9350935050505b9250929050565b601154604080516370a0823160e01b815230600482015290516000926001600160a01b03169182916370a0823191602480820192602092909190829003018186803b15801561243857600080fd5b505afa15801561244c573d6000803e3d6000fd5b505050506040513d602081101561246257600080fd5b505191505090565b6000805460ff166124af576040805162461bcd60e51b815260206004820152600a6024820152691c994b595b9d195c995960b21b604482015290519081900360640190fd5b6000805460ff191681556124c1611454565b905080156124df5761108f8160108111156124d857fe5b604e6124fe565b6124e8836135a0565b509150506000805460ff19166001179055919050565b60007f45b96fe442630264581b197e84bbada861235052c5a1aadfff9ea4e40a969aa083601081111561252d57fe5b83605081111561253957fe5b604080519283526020830191909152600082820152519081900360600190a1826010811115610ffe57fe5b600354600090819061010090046001600160a01b0316331461258c57611d53600160316124fe565b6125946127cc565b600954146125a857611d53600a60336124fe565b826125b16123ea565b10156125c357611d53600e60326124fe565b600c548311156125d957611d53600260346124fe565b50600c548281039081111561261f5760405162461bcd60e51b815260040180806020018281038252602481526020018061520e6024913960400191505060405180910390fd5b600c81905560035461263f9061010090046001600160a01b0316846136c2565b600354604080516101009092046001600160a01b0316825260208201859052818101839052517f3bad0c59cf2f06e7314077049f48a93578cd16f5ef92329f1dab1420a99c177e916060908290030190a16000610ffe565b6000805460ff166126dc576040805162461bcd60e51b815260206004820152600a6024820152691c994b595b9d195c995960b21b604482015290519081900360640190fd5b6000805460ff191681556126ee611454565b9050801561270c5761108f81601081111561270557fe5b60276124fe565b6110a0336000856137b9565b6001600160a01b03811660009081526010602052604081208054829182918291829161274f5750600094508493506127c792505050565b61275f8160000154600a54613c80565b9094509250600084600381111561277257fe5b146127875750919350600092506127c7915050565b612795838260010154613cbf565b909450915060008460038111156127a857fe5b146127bd5750919350600092506127c7915050565b5060009450925050505b915091565b4390565b600354600090819061010090046001600160a01b031633146127f857611d53600160426124fe565b6128006127cc565b6009541461281457611d53600a60416124fe565b600660009054906101000a90046001600160a01b03169050826001600160a01b0316632191f92a6040518163ffffffff1660e01b815260040160206040518083038186803b15801561286557600080fd5b505afa158015612879573d6000803e3d6000fd5b505050506040513d602081101561288f57600080fd5b50516128e2576040805162461bcd60e51b815260206004820152601c60248201527f6d61726b6572206d6574686f642072657475726e65642066616c736500000000604482015290519081900360640190fd5b600680546001600160a01b0319166001600160a01b03858116918217909255604080519284168352602083019190915280517fedffc32e068c7c95dfd4bdfd5c4d939a084d6b11c4199eac8436ed234d72f9269281900390910190a16000610ffe565b60008054819060ff1661298c576040805162461bcd60e51b815260206004820152600a6024820152691c994b595b9d195c995960b21b604482015290519081900360640190fd5b6000805460ff1916815561299e611454565b905080156129bc57611efd8160108111156129b557fe5b601e6124fe565b611f153385613cea565b6000808383116129dd5750600090508183036123e3565b506003905060006123e3565b60006129f3614e11565b600080612a04866000015186613c80565b90925090506000826003811115612a1757fe5b14612a36575060408051602081019091526000815290925090506123e3565b60408051602081019091529081526000969095509350505050565b60007f45b96fe442630264581b197e84bbada861235052c5a1aadfff9ea4e40a969aa0846010811115612a8057fe5b846050811115612a8c57fe5b604080519283526020830191909152818101859052519081900360600190a1836010811115610e8e57fe5b600080838301848110612acf576000925090506123e3565b5060029150600090506123e3565b6000806000612aea614e11565b612af487876129e9565b90925090506000826003811115612b0757fe5b14612b185750915060009050612b31565b612b2a612b2482613591565b86612ab7565b9350935050505b935093915050565b6005546040805163d02f735160e01b81523060048201526001600160a01b038781166024830152868116604483015285811660648301526084820185905291516000938493169163d02f73519160a480830192602092919082900301818787803b158015612ba657600080fd5b505af1158015612bba573d6000803e3d6000fd5b505050506040513d6020811015612bd057600080fd5b505190508015612be7576120836003601b83612a51565b846001600160a01b0316846001600160a01b03161415612c0d576120836006601c6124fe565b6001600160a01b0384166000908152600e602052604081205481908190612c3490876129c6565b90935091506000836003811115612c4757fe5b14612c6a57612c5f6009601a85600381111561166957fe5b945050505050610e8e565b6001600160a01b0388166000908152600e6020526040902054612c8d9087612ab7565b90935090506000836003811115612ca057fe5b14612cb857612c5f6009601985600381111561166957fe5b6001600160a01b038088166000818152600e60209081526040808320879055938c168083529184902085905583518a8152935191936000805160206150f9833981519152929081900390910190a360055460408051636d35bf9160e01b81523060048201526001600160a01b038c811660248301528b811660448301528a81166064830152608482018a905291519190921691636d35bf919160a480830192600092919082900301818387803b158015612d7157600080fd5b505af1158015612d85573d6000803e3d6000fd5b5060009250612d92915050565b9998505050505050505050565b6000805460ff16612de4576040805162461bcd60e51b815260206004820152600a6024820152691c994b595b9d195c995960b21b604482015290519081900360640190fd5b6000805460ff19168155612df6611454565b90508015612e145761108f816010811115612e0d57fe5b60086124fe565b6110a03384614191565b6000805460ff16612e63576040805162461bcd60e51b815260206004820152600a6024820152691c994b595b9d195c995960b21b604482015290519081900360640190fd5b6000805460ff19168155612e75611454565b90508015612e8c5761108f81601081111561270557fe5b6110a0338460006137b9565b60008054819060ff16612edf576040805162461bcd60e51b815260206004820152600a6024820152691c994b595b9d195c995960b21b604482015290519081900360640190fd5b6000805460ff19168155612ef1611454565b90508015612f1c57612f0f816010811115612f0857fe5b600f6124fe565b925060009150612fb39050565b836001600160a01b031663a6afed956040518163ffffffff1660e01b8152600401602060405180830381600087803b158015612f5757600080fd5b505af1158015612f6b573d6000803e3d6000fd5b505050506040513d6020811015612f8157600080fd5b505190508015612fa157612f0f816010811115612f9a57fe5b60106124fe565b612fad3387878761449f565b92509250505b6000805460ff191660011790559094909350915050565b60035460009061010090046001600160a01b03163314612ff057610ed6600160476124fe565b612ff86127cc565b6009541461300c57610ed6600a60486124fe565b670de0b6b3a764000082111561302857610ed6600260496124fe565b6008805490839055604080518281526020810185905281517faaa68312e2ea9d50e16af5068410ab56e1a1fd06037b1a35664812c30f821460929181900390910190a16000610ffe565b60055460408051631200453160e11b81523060048201526001600160a01b0386811660248301528581166044830152606482018590529151600093849384939116916324008a629160848082019260209290919082900301818787803b1580156130db57600080fd5b505af11580156130ef573d6000803e3d6000fd5b505050506040513d602081101561310557600080fd5b5051905080156131295761311c6003603883612a51565b925060009150612b319050565b6131316127cc565b600954146131455761311c600a60396124fe565b61314d614efc565b6001600160a01b038616600090815260106020526040902060010154606082015261317786612718565b608083018190526020830182600381111561318e57fe5b600381111561319957fe5b90525060009050816020015160038111156131b057fe5b146131da576131cc600960378360200151600381111561166957fe5b935060009250612b31915050565b6000198514156131f357608081015160408201526131fb565b604081018590525b613209878260400151614a22565b8190601081111561321657fe5b9081601081111561322357fe5b90525060008151601081111561323557fe5b146132475780516131cc90603c6124fe565b613255878260400151614b56565b60e08201819052608082015161326a916129c6565b60a083018190526020830182600381111561328157fe5b600381111561328c57fe5b90525060009050816020015160038111156132a357fe5b146132df5760405162461bcd60e51b815260040180806020018281038252603a8152602001806150bf603a913960400191505060405180910390fd5b6132ef600b548260e001516129c6565b60c083018190526020830182600381111561330657fe5b600381111561331157fe5b905250600090508160200151600381111561332857fe5b146133645760405162461bcd60e51b81526004018080602001828103825260318152602001806151196031913960400191505060405180910390fd5b60a080820180516001600160a01b03808a16600081815260106020908152604091829020948555600a5460019095019490945560c0870151600b81905560e088015195518251948f16855294840192909252828101949094526060820192909252608081019190915290517f1a2a22cb034d26d1854bdc6666a5b91fe25efbbb5dcad3b0355478d6f5c362a1929181900390910190a160055460e0820151606083015160408051631ededc9160e01b81523060048201526001600160a01b038c811660248301528b8116604483015260648201949094526084810192909252519190921691631ededc919160a480830192600092919082900301818387803b15801561346f57600080fd5b505af1158015613483573d6000803e3d6000fd5b5060009250613490915050565b8160e00151935093505050935093915050565b6000806000806134b38787612ab7565b909250905060008260038111156134c657fe5b146134d75750915060009050612b31565b612b2a81866129c6565b60006134eb614e11565b60008061350086670de0b6b3a7640000613c80565b9092509050600082600381111561351357fe5b14613532575060408051602081019091526000815290925090506123e3565b60008061353f8388613cbf565b9092509050600082600381111561355257fe5b14613574575060408051602081019091526000815290945092506123e3915050565b604080516020810190915290815260009890975095505050505050565b51670de0b6b3a7640000900490565b6000806000806135ae6127cc565b600954146135cd576135c2600a604f6124fe565b935091506127c79050565b60006135d93387614a22565b905060008160108111156135e957fe5b14613606576135f98160506124fe565b82945094505050506127c7565b6136103387614b56565b915081600c54019250600c54831015613670576040805162461bcd60e51b815260206004820181905260248201527f61646420726573657276657320756e6578706563746564206f766572666c6f77604482015290519081900360640190fd5b600c839055604080513381526020810184905280820185905290517fa91e67c5ea634cd43a12c5a482724b03de01e85ca68702a53d0c2f45cb7c1dc59181900360600190a15060009590945092505050565b6011546040805163a9059cbb60e01b81526001600160a01b0385811660048301526024820185905291519190921691829163a9059cbb9160448082019260009290919082900301818387803b15801561371a57600080fd5b505af115801561372e573d6000803e3d6000fd5b5050505060003d6000811461374a576020811461375457600080fd5b6000199150613760565b60206000803e60005191505b50806137b3576040805162461bcd60e51b815260206004820152601960248201527f544f4b454e5f5452414e534645525f4f55545f4641494c454400000000000000604482015290519081900360640190fd5b50505050565b60008215806137c6575081155b6138015760405162461bcd60e51b81526004018080602001828103825260348152602001806151da6034913960400191505060405180910390fd5b613809614f42565b613811611f2f565b604083018190526020830182600381111561382857fe5b600381111561383357fe5b905250600090508160200151600381111561384a57fe5b1461386e576138666009602b8360200151600381111561166957fe5b915050610ffe565b83156138ef5760608101849052604080516020810182529082015181526138959085612396565b60808301819052602083018260038111156138ac57fe5b60038111156138b757fe5b90525060009050816020015160038111156138ce57fe5b146138ea57613866600960298360200151600381111561166957fe5b613968565b61390b8360405180602001604052808460400151815250614da0565b606083018190526020830182600381111561392257fe5b600381111561392d57fe5b905250600090508160200151600381111561394457fe5b14613960576138666009602a8360200151600381111561166957fe5b608081018390525b60055460608201516040805163eabe7d9160e01b81523060048201526001600160a01b03898116602483015260448201939093529051600093929092169163eabe7d919160648082019260209290919082900301818787803b1580156139cd57600080fd5b505af11580156139e1573d6000803e3d6000fd5b505050506040513d60208110156139f757600080fd5b505190508015613a1757613a0e6003602883612a51565b92505050610ffe565b613a1f6127cc565b60095414613a3357613a0e600a602c6124fe565b613a43600d5483606001516129c6565b60a0840181905260208401826003811115613a5a57fe5b6003811115613a6557fe5b9052506000905082602001516003811115613a7c57fe5b14613a9857613a0e6009602e8460200151600381111561166957fe5b6001600160a01b0386166000908152600e60205260409020546060830151613ac091906129c6565b60c0840181905260208401826003811115613ad757fe5b6003811115613ae257fe5b9052506000905082602001516003811115613af957fe5b14613b1557613a0e6009602d8460200151600381111561166957fe5b8160800151613b226123ea565b1015613b3457613a0e600e602f6124fe565b613b428683608001516136c2565b60a0820151600d5560c08201516001600160a01b0387166000818152600e60209081526040918290209390935560608501518151908152905130936000805160206150f9833981519152928290030190a36080820151606080840151604080516001600160a01b038b168152602081019490945283810191909152517fe5b754fb1abb7f01b499791d0b820ae3b6af3424ac1c59768edb53f4ec31a9299281900390910190a160055460808301516060840151604080516351dff98960e01b81523060048201526001600160a01b038b81166024830152604482019490945260648101929092525191909216916351dff98991608480830192600092919082900301818387803b158015613c5557600080fd5b505af1158015613c69573d6000803e3d6000fd5b5060009250613c76915050565b9695505050505050565b60008083613c93575060009050806123e3565b83830283858281613ca057fe5b0414613cb4575060029150600090506123e3565b6000925090506123e3565b60008082613cd357506001905060006123e3565b6000838581613cde57fe5b04915091509250929050565b60055460408051634ef4c3e160e01b81523060048201526001600160a01b03858116602483015260448201859052915160009384938493911691634ef4c3e19160648082019260209290919082900301818787803b158015613d4b57600080fd5b505af1158015613d5f573d6000803e3d6000fd5b505050506040513d6020811015613d7557600080fd5b505190508015613d9957613d8c6003601f83612a51565b9250600091506123e39050565b613da16127cc565b60095414613db557613d8c600a60226124fe565b613dbd614f42565b613dc78686614a22565b81906010811115613dd457fe5b90816010811115613de157fe5b905250600081516010811115613df357fe5b14613e13578051613e059060266124fe565b9350600092506123e3915050565b613e1b611f2f565b6040830181905260208301826003811115613e3257fe5b6003811115613e3d57fe5b9052506000905081602001516003811115613e5457fe5b14613e7057613e05600960218360200151600381111561166957fe5b613e7a8686614b56565b60c0820181905260408051602081018252908301518152613e9b9190614da0565b6060830181905260208301826003811115613eb257fe5b6003811115613ebd57fe5b9052506000905081602001516003811115613ed457fe5b14613f26576040805162461bcd60e51b815260206004820181905260248201527f4d494e545f45584348414e47455f43414c43554c4154494f4e5f4641494c4544604482015290519081900360640190fd5b613f36600d548260600151612ab7565b6080830181905260208301826003811115613f4d57fe5b6003811115613f5857fe5b9052506000905081602001516003811115613f6f57fe5b14613fab5760405162461bcd60e51b81526004018080602001828103825260288152602001806151b26028913960400191505060405180910390fd5b6001600160a01b0386166000908152600e60205260409020546060820151613fd39190612ab7565b60a0830181905260208301826003811115613fea57fe5b6003811115613ff557fe5b905250600090508160200151600381111561400c57fe5b146140485760405162461bcd60e51b815260040180806020018281038252602b81526020018061505d602b913960400191505060405180910390fd5b6080810151600d5560a08101516001600160a01b0387166000818152600e60209081526040918290209390935560c084015160608086015183519485529484019190915282820193909352517f4c209b5fc8ad50758f13e2e1088ba56a560dff690a1c6fef26394f4c03821c4f929181900390910190a1606081015160408051918252516001600160a01b0388169130916000805160206150f98339815191529181900360200190a360055460c08201516060830151604080516341c728b960e01b81523060048201526001600160a01b038b81166024830152604482019490945260648101929092525191909216916341c728b991608480830192600092919082900301818387803b15801561415e57600080fd5b505af1158015614172573d6000803e3d6000fd5b506000925061417f915050565b8160c001519350935050509250929050565b6005546040805163368f515360e21b81523060048201526001600160a01b0385811660248301526044820185905291516000938493169163da3d454c91606480830192602092919082900301818787803b1580156141ee57600080fd5b505af1158015614202573d6000803e3d6000fd5b505050506040513d602081101561421857600080fd5b5051905080156142375761422f6003600e83612a51565b915050610b56565b61423f6127cc565b600954146142525761422f600a806124fe565b8261425b6123ea565b101561426d5761422f600e60096124fe565b614275614f80565b61427e85612718565b602083018190528282600381111561429257fe5b600381111561429d57fe5b90525060009050815160038111156142b157fe5b146142d6576142cd600960078360000151600381111561166957fe5b92505050610b56565b6142e4816020015185612ab7565b60408301819052828260038111156142f857fe5b600381111561430357fe5b905250600090508151600381111561431757fe5b14614333576142cd6009600c8360000151600381111561166957fe5b61433f600b5485612ab7565b606083018190528282600381111561435357fe5b600381111561435e57fe5b905250600090508151600381111561437257fe5b1461438e576142cd6009600b8360000151600381111561166957fe5b61439885856136c2565b604080820180516001600160a01b03881660008181526010602090815290859020928355600a54600190930192909255606080860151600b81905593518551928352928201899052818501929092529081019190915290517f13ed6866d4e1ee6da46f845c46d7e54120883d75c5ea9a2dacc1c4ca8984ab809181900360800190a160055460408051635c77860560e01b81523060048201526001600160a01b0388811660248301526044820188905291519190921691635c77860591606480830192600092919082900301818387803b15801561447557600080fd5b505af1158015614489573d6000803e3d6000fd5b5060009250614496915050565b95945050505050565b60055460408051632fe3f38f60e11b81523060048201526001600160a01b0384811660248301528781166044830152868116606483015260848201869052915160009384938493911691635fc7e71e9160a48082019260209290919082900301818787803b15801561451057600080fd5b505af1158015614524573d6000803e3d6000fd5b505050506040513d602081101561453a57600080fd5b50519050801561455e576145516003601283612a51565b925060009150614a199050565b6145666127cc565b6009541461457a57614551600a60166124fe565b6145826127cc565b846001600160a01b0316636c540baf6040518163ffffffff1660e01b815260040160206040518083038186803b1580156145bb57600080fd5b505afa1580156145cf573d6000803e3d6000fd5b505050506040513d60208110156145e557600080fd5b5051146145f857614551600a60116124fe565b866001600160a01b0316866001600160a01b0316141561461e57614551600660176124fe565b8461462f57614551600760156124fe565b60001985141561464557614551600760146124fe565b600080614653898989613072565b909250905081156146835761467482601081111561466d57fe5b60186124fe565b945060009350614a1992505050565b6005546040805163c488847b60e01b81523060048201526001600160a01b038981166024830152604482018590528251600094859492169263c488847b926064808301939192829003018186803b1580156146dd57600080fd5b505afa1580156146f1573d6000803e3d6000fd5b505050506040513d604081101561470757600080fd5b508051602090910151909250905081156147525760405162461bcd60e51b815260040180806020018281038252603381526020018061514a6033913960400191505060405180910390fd5b80886001600160a01b03166370a082318c6040518263ffffffff1660e01b815260040180826001600160a01b03166001600160a01b0316815260200191505060206040518083038186803b1580156147a957600080fd5b505afa1580156147bd573d6000803e3d6000fd5b505050506040513d60208110156147d357600080fd5b50511015614828576040805162461bcd60e51b815260206004820152601860248201527f4c49515549444154455f5345495a455f544f4f5f4d5543480000000000000000604482015290519081900360640190fd5b60006001600160a01b03891630141561484e57614847308d8d85612b39565b90506148d8565b6040805163b2a02ff160e01b81526001600160a01b038e811660048301528d81166024830152604482018590529151918b169163b2a02ff1916064808201926020929091908290030181600087803b1580156148a957600080fd5b505af11580156148bd573d6000803e3d6000fd5b505050506040513d60208110156148d357600080fd5b505190505b8015614922576040805162461bcd60e51b81526020600482015260146024820152731d1bdad95b881cd95a5e9d5c994819985a5b195960621b604482015290519081900360640190fd5b604080516001600160a01b03808f168252808e1660208301528183018790528b1660608201526080810184905290517f298637f684da70674f26509b10f07ec2fbc77a335ab1e7d6215a4b2484d8bb529181900360a00190a1600554604080516347ef3b3b60e01b81523060048201526001600160a01b038c811660248301528f811660448301528e811660648301526084820188905260a48201869052915191909216916347ef3b3b9160c480830192600092919082900301818387803b1580156149ed57600080fd5b505af1158015614a01573d6000803e3d6000fd5b5060009250614a0e915050565b975092955050505050505b94509492505050565b60115460408051636eb1769f60e11b81526001600160a01b038581166004830152306024830152915160009392909216918491839163dd62ed3e91604480820192602092909190829003018186803b158015614a7d57600080fd5b505afa158015614a91573d6000803e3d6000fd5b505050506040513d6020811015614aa757600080fd5b50511015614ab957600c915050610b56565b82816001600160a01b03166370a08231866040518263ffffffff1660e01b815260040180826001600160a01b03166001600160a01b0316815260200191505060206040518083038186803b158015614b1057600080fd5b505afa158015614b24573d6000803e3d6000fd5b505050506040513d6020811015614b3a57600080fd5b50511015614b4c57600d915050610b56565b5060009392505050565b601154604080516370a0823160e01b815230600482015290516000926001600160a01b031691839183916370a08231916024808301926020929190829003018186803b158015614ba557600080fd5b505afa158015614bb9573d6000803e3d6000fd5b505050506040513d6020811015614bcf57600080fd5b5051604080516323b872dd60e01b81526001600160a01b038881166004830152306024830152604482018890529151929350908416916323b872dd9160648082019260009290919082900301818387803b158015614c2c57600080fd5b505af1158015614c40573d6000803e3d6000fd5b5050505060003d60008114614c5c5760208114614c6657600080fd5b6000199150614c72565b60206000803e60005191505b5080614cc5576040805162461bcd60e51b815260206004820152601860248201527f544f4b454e5f5452414e534645525f494e5f4641494c45440000000000000000604482015290519081900360640190fd5b601154604080516370a0823160e01b815230600482015290516000926001600160a01b0316916370a08231916024808301926020929190829003018186803b158015614d1057600080fd5b505afa158015614d24573d6000803e3d6000fd5b505050506040513d6020811015614d3a57600080fd5b5051905082811015614d93576040805162461bcd60e51b815260206004820152601a60248201527f544f4b454e5f5452414e534645525f494e5f4f564552464c4f57000000000000604482015290519081900360640190fd5b9190910395945050505050565b6000806000614dad614e11565b6123ad86866000614dbc614e11565b600080614dd1670de0b6b3a764000087613c80565b90925090506000826003811115614de457fe5b14614e03575060408051602081019091526000815290925090506123e3565b6123dc8186600001516134e1565b6040518060200160405280600081525090565b828054600181600116156101000203166002900490600052602060002090601f016020900481019282601f10614e6557805160ff1916838001178555614e92565b82800160010185558215614e92579182015b82811115614e92578251825591602001919060010190614e77565b50614e9e929150614fa9565b5090565b604080516101408101909152806000815260200160008152602001600081526020016000815260200160008152602001614eda614e11565b8152602001600081526020016000815260200160008152602001600081525090565b6040805161010081019091528060008152602001600081526020016000815260200160008152602001600081526020016000815260200160008152602001600081525090565b6040805160e0810190915280600081526020016000815260200160008152602001600081526020016000815260200160008152602001600081525090565b604080516080810190915280600081526020016000815260200160008152602001600081525090565b610c9e91905b80821115614e9e5760008155600101614faf56fe6f6e6c792061646d696e206d617920696e697469616c697a6520746865206d61726b65746d61726b6574206d6179206f6e6c7920626520696e697469616c697a6564206f6e6365696e697469616c2065786368616e67652072617465206d7573742062652067726561746572207468616e207a65726f2e73657474696e6720696e7465726573742072617465206d6f64656c206661696c65644d494e545f4e45575f4143434f554e545f42414c414e43455f43414c43554c4154494f4e5f4641494c4544626f72726f7742616c616e636553746f7265643a20626f72726f7742616c616e636553746f726564496e7465726e616c206661696c656452455041595f424f52524f575f4e45575f4143434f554e545f424f52524f575f42414c414e43455f43414c43554c4154494f4e5f4641494c4544ddf252ad1be2c89b69c2b068fc378daa952ba7f163c4a11628f55a4df523b3ef52455041595f424f52524f575f4e45575f544f54414c5f42414c414e43455f43414c43554c4154494f4e5f4641494c45444c49515549444154455f434f4d5054524f4c4c45525f43414c43554c4154455f414d4f554e545f5345495a455f4641494c454465786368616e67655261746553746f7265643a2065786368616e67655261746553746f726564496e7465726e616c206661696c65644d494e545f4e45575f544f54414c5f535550504c595f43414c43554c4154494f4e5f4641494c45446f6e65206f662072656465656d546f6b656e73496e206f722072656465656d416d6f756e74496e206d757374206265207a65726f72656475636520726573657276657320756e657870656374656420756e646572666c6f77a265627a7a72315820b0341901a0a6d50cca38cd74c9f3f54ee9d1f2fa445e31a522320f44cee2d55264736f6c634300050c0032",
  "source": "pragma solidity ^0.5.12;\n\nimport \"./CToken.sol\";\n\n/**\n * @title Compound's CErc20 Contract\n * @notice CTokens which wrap an EIP-20 underlying\n * @author Compound\n */\ncontract CErc20 is CToken, CErc20Interface {\n    /**\n     * @notice Initialize the new money market\n     * @param underlying_ The address of the underlying asset\n     * @param comptroller_ The address of the Comptroller\n     * @param interestRateModel_ The address of the interest rate model\n     * @param initialExchangeRateMantissa_ The initial exchange rate, scaled by 1e18\n     * @param name_ ERC-20 name of this token\n     * @param symbol_ ERC-20 symbol of this token\n     * @param decimals_ ERC-20 decimal precision of this token\n     */\n    function initialize(address underlying_,\n                        ComptrollerInterface comptroller_,\n                        InterestRateModel interestRateModel_,\n                        uint initialExchangeRateMantissa_,\n                        string memory name_,\n                        string memory symbol_,\n                        uint8 decimals_) public {\n        // CToken initialize does the bulk of the work\n        super.initialize(comptroller_, interestRateModel_, initialExchangeRateMantissa_, name_, symbol_, decimals_);\n\n        // Set underlying and sanity check it\n        underlying = underlying_;\n        EIP20Interface(underlying).totalSupply();\n    }\n\n    /*** User Interface ***/\n\n    /**\n     * @notice Sender supplies assets into the market and receives cTokens in exchange\n     * @dev Accrues interest whether or not the operation succeeds, unless reverted\n     * @param mintAmount The amount of the underlying asset to supply\n     * @return uint 0=success, otherwise a failure (see ErrorReporter.sol for details)\n     */\n    function mint(uint mintAmount) external returns (uint) {\n        (uint err,) = mintInternal(mintAmount);\n        return err;\n    }\n\n    /**\n     * @notice Sender redeems cTokens in exchange for the underlying asset\n     * @dev Accrues interest whether or not the operation succeeds, unless reverted\n     * @param redeemTokens The number of cTokens to redeem into underlying\n     * @return uint 0=success, otherwise a failure (see ErrorReporter.sol for details)\n     */\n    function redeem(uint redeemTokens) external returns (uint) {\n        return redeemInternal(redeemTokens);\n    }\n\n    /**\n     * @notice Sender redeems cTokens in exchange for a specified amount of underlying asset\n     * @dev Accrues interest whether or not the operation succeeds, unless reverted\n     * @param redeemAmount The amount of underlying to redeem\n     * @return uint 0=success, otherwise a failure (see ErrorReporter.sol for details)\n     */\n    function redeemUnderlying(uint redeemAmount) external returns (uint) {\n        return redeemUnderlyingInternal(redeemAmount);\n    }\n\n    /**\n      * @notice Sender borrows assets from the protocol to their own address\n      * @param borrowAmount The amount of the underlying asset to borrow\n      * @return uint 0=success, otherwise a failure (see ErrorReporter.sol for details)\n      */\n    function borrow(uint borrowAmount) external returns (uint) {\n        return borrowInternal(borrowAmount);\n    }\n\n    /**\n     * @notice Sender repays their own borrow\n     * @param repayAmount The amount to repay\n     * @return uint 0=success, otherwise a failure (see ErrorReporter.sol for details)\n     */\n    function repayBorrow(uint repayAmount) external returns (uint) {\n        (uint err,) = repayBorrowInternal(repayAmount);\n        return err;\n    }\n\n    /**\n     * @notice Sender repays a borrow belonging to borrower\n     * @param borrower the account with the debt being payed off\n     * @param repayAmount The amount to repay\n     * @return uint 0=success, otherwise a failure (see ErrorReporter.sol for details)\n     */\n    function repayBorrowBehalf(address borrower, uint repayAmount) external returns (uint) {\n        (uint err,) = repayBorrowBehalfInternal(borrower, repayAmount);\n        return err;\n    }\n\n    /**\n     * @notice The sender liquidates the borrowers collateral.\n     *  The collateral seized is transferred to the liquidator.\n     * @param borrower The borrower of this cToken to be liquidated\n     * @param repayAmount The amount of the underlying borrowed asset to repay\n     * @param cTokenCollateral The market in which to seize collateral from the borrower\n     * @return uint 0=success, otherwise a failure (see ErrorReporter.sol for details)\n     */\n    function liquidateBorrow(address borrower, uint repayAmount, CTokenInterface cTokenCollateral) external returns (uint) {\n        (uint err,) = liquidateBorrowInternal(borrower, repayAmount, cTokenCollateral);\n        return err;\n    }\n\n    /**\n     * @notice The sender adds to reserves.\n     * @param addAmount The amount fo underlying token to add as reserves\n     * @return uint 0=success, otherwise a failure (see ErrorReporter.sol for details)\n     */\n    function _addReserves(uint addAmount) external returns (uint) {\n        return _addReservesInternal(addAmount);\n    }\n\n    /*** Safe Token ***/\n\n    /**\n     * @notice Gets balance of this contract in terms of the underlying\n     * @dev This excludes the value of the current message, if any\n     * @return The quantity of underlying tokens owned by this contract\n     */\n    function getCashPrior() internal view returns (uint) {\n        EIP20Interface token = EIP20Interface(underlying);\n        return token.balanceOf(address(this));\n    }\n\n    /**\n     * @dev Checks whether or not there is sufficient allowance for this contract to move amount from `from` and\n     *      whether or not `from` has a balance of at least `amount`. Does NOT do a transfer.\n     */\n    function checkTransferIn(address from, uint amount) internal view returns (Error) {\n        EIP20Interface token = EIP20Interface(underlying);\n\n        if (token.allowance(from, address(this)) < amount) {\n            return Error.TOKEN_INSUFFICIENT_ALLOWANCE;\n        }\n\n        if (token.balanceOf(from) < amount) {\n            return Error.TOKEN_INSUFFICIENT_BALANCE;\n        }\n\n        return Error.NO_ERROR;\n    }\n\n    /**\n     * @dev Similar to EIP20 transfer, except it handles a False result from `transferFrom` reverts in that case.\n     *      If caller has not called `checkTransferIn`, this may revert due to insufficient balance or insufficient\n     *      allowance. If caller has called `checkTransferIn` prior to this call, and it returned Error.NO_ERROR,\n     *      this should not revert in normal conditions. This function returns the actual amount received,\n     *      with may be less than `amount` if there is a fee attached with the transfer.\n     *\n     *      Note: This wrapper safely handles non-standard ERC-20 tokens that do not return a value.\n     *            See here: https://medium.com/coinmonks/missing-return-value-bug-at-least-130-tokens-affected-d67bf08521ca\n     */\n    function doTransferIn(address from, uint amount) internal returns (uint) {\n        EIP20NonStandardInterface token = EIP20NonStandardInterface(underlying);\n        uint balanceBefore = EIP20Interface(underlying).balanceOf(address(this));\n        token.transferFrom(from, address(this), amount);\n\n        bool success;\n        assembly {\n            switch returndatasize()\n                case 0 {                       // This is a non-standard ERC-20\n                    success := not(0)          // set success to true\n                }\n                case 32 {                      // This is a compliant ERC-20\n                    returndatacopy(0, 0, 32)\n                    success := mload(0)        // Set `success = returndata` of external call\n                }\n                default {                      // This is an excessively non-compliant ERC-20, revert.\n                    revert(0, 0)\n                }\n        }\n        require(success, \"TOKEN_TRANSFER_IN_FAILED\");\n\n        // Calculate the amount that was *actually* transferred\n        uint balanceAfter = EIP20Interface(underlying).balanceOf(address(this));\n        require(balanceAfter >= balanceBefore, \"TOKEN_TRANSFER_IN_OVERFLOW\");\n        return balanceAfter - balanceBefore;   // underflow already checked above, just subtract\n    }\n\n    /**\n     * @dev Similar to EIP20 transfer, except it handles a False success from `transfer` and returns an explanatory\n     *      error code rather than reverting. If caller has not called checked protocol's balance, this may revert due to\n     *      insufficient cash held in this contract. If caller has checked protocol's balance prior to this call, and verified\n     *      it is >= amount, this should not revert in normal conditions.\n     *\n     *      Note: This wrapper safely handles non-standard ERC-20 tokens that do not return a value.\n     *            See here: https://medium.com/coinmonks/missing-return-value-bug-at-least-130-tokens-affected-d67bf08521ca\n     */\n    function doTransferOut(address payable to, uint amount) internal {\n        EIP20NonStandardInterface token = EIP20NonStandardInterface(underlying);\n        token.transfer(to, amount);\n\n        bool success;\n        assembly {\n            switch returndatasize()\n                case 0 {                      // This is a non-standard ERC-20\n                    success := not(0)          // set success to true\n                }\n                case 32 {                     // This is a complaint ERC-20\n                    returndatacopy(0, 0, 32)\n                    success := mload(0)        // Set `success = returndata` of external call\n                }\n                default {                     // This is an excessively non-compliant ERC-20, revert.\n                    revert(0, 0)\n                }\n        }\n        require(success, \"TOKEN_TRANSFER_OUT_FAILED\");\n    }\n}\n",
  "sourcePath": "/home/akshay/workspace/somish/Compound-Finance/compound-protocol/contracts/CErc20.sol",
  "compiler": {
    "name": "solc",
    "version": "0.5.12+commit.7709ece9.Emscripten.clang"
  },
  "schemaVersion": "3.0.23",
  "updatedAt": "2020-03-04T10:50:01.287Z",
  "devdoc": {
    "author": "Compound",
    "methods": {
      "_acceptAdmin()": {
        "details": "Admin function for pending admin to accept role and update admin",
        "return": "uint 0=success, otherwise a failure (see ErrorReporter.sol for details)"
      },
      "_addReserves(uint256)": {
        "params": {
          "addAmount": "The amount fo underlying token to add as reserves"
        },
        "return": "uint 0=success, otherwise a failure (see ErrorReporter.sol for details)"
      },
      "_reduceReserves(uint256)": {
        "params": {
          "reduceAmount": "Amount of reduction to reserves"
        },
        "return": "uint 0=success, otherwise a failure (see ErrorReporter.sol for details)"
      },
      "_setComptroller(address)": {
        "details": "Admin function to set a new comptroller",
        "return": "uint 0=success, otherwise a failure (see ErrorReporter.sol for details)"
      },
      "_setInterestRateModel(address)": {
        "details": "Admin function to accrue interest and update the interest rate model",
        "params": {
          "newInterestRateModel": "the new interest rate model to use"
        },
        "return": "uint 0=success, otherwise a failure (see ErrorReporter.sol for details)"
      },
      "_setPendingAdmin(address)": {
        "details": "Admin function to begin change of admin. The newPendingAdmin must call `_acceptAdmin` to finalize the transfer.",
        "params": {
          "newPendingAdmin": "New pending admin."
        },
        "return": "uint 0=success, otherwise a failure (see ErrorReporter.sol for details)"
      },
      "_setReserveFactor(uint256)": {
        "details": "Admin function to accrue interest and set a new reserve factor",
        "return": "uint 0=success, otherwise a failure (see ErrorReporter.sol for details)"
      },
      "accrueInterest()": {
        "details": "This calculates interest accrued from the last checkpointed block  up to the current block and writes new checkpoint to storage."
      },
      "allowance(address,address)": {
        "params": {
          "owner": "The address of the account which owns the tokens to be spent",
          "spender": "The address of the account which may transfer tokens"
        },
        "return": "The number of tokens allowed to be spent (-1 means infinite)"
      },
      "approve(address,uint256)": {
        "details": "This will overwrite the approval amount for `spender` and is subject to issues noted [here](https://eips.ethereum.org/EIPS/eip-20#approve)",
        "params": {
          "amount": "The number of tokens that are approved (-1 means infinite)",
          "spender": "The address of the account which may transfer tokens"
        },
        "return": "Whether or not the approval succeeded"
      },
      "balanceOf(address)": {
        "params": {
          "owner": "The address of the account to query"
        },
        "return": "The number of tokens owned by `owner`"
      },
      "balanceOfUnderlying(address)": {
        "details": "This also accrues interest in a transaction",
        "params": {
          "owner": "The address of the account to query"
        },
        "return": "The amount of underlying owned by `owner`"
      },
      "borrow(uint256)": {
        "params": {
          "borrowAmount": "The amount of the underlying asset to borrow"
        },
        "return": "uint 0=success, otherwise a failure (see ErrorReporter.sol for details)"
      },
      "borrowBalanceCurrent(address)": {
        "params": {
          "account": "The address whose balance should be calculated after updating borrowIndex"
        },
        "return": "The calculated balance"
      },
      "borrowBalanceStored(address)": {
        "params": {
          "account": "The address whose balance should be calculated"
        },
        "return": "The calculated balance"
      },
      "borrowRatePerBlock()": {
        "return": "The borrow interest rate per block, scaled by 1e18"
      },
      "exchangeRateCurrent()": {
        "return": "Calculated exchange rate scaled by 1e18"
      },
      "exchangeRateStored()": {
        "details": "This function does not accrue interest before calculating the exchange rate",
        "return": "Calculated exchange rate scaled by 1e18"
      },
      "getAccountSnapshot(address)": {
        "details": "This is used by comptroller to more efficiently perform liquidity checks.",
        "params": {
          "account": "Address of the account to snapshot"
        },
        "return": "(possible error, token balance, borrow balance, exchange rate mantissa)"
      },
      "getCash()": {
        "return": "The quantity of underlying asset owned by this contract"
      },
      "initialize(address,address,address,uint256,string,string,uint8)": {
        "params": {
          "comptroller_": "The address of the Comptroller",
          "decimals_": "ERC-20 decimal precision of this token",
          "initialExchangeRateMantissa_": "The initial exchange rate, scaled by 1e18",
          "interestRateModel_": "The address of the interest rate model",
          "name_": "ERC-20 name of this token",
          "symbol_": "ERC-20 symbol of this token",
          "underlying_": "The address of the underlying asset"
        }
      },
      "initialize(address,address,uint256,string,string,uint8)": {
        "params": {
          "comptroller_": "The address of the Comptroller",
          "decimals_": "EIP-20 decimal precision of this token",
          "initialExchangeRateMantissa_": "The initial exchange rate, scaled by 1e18",
          "interestRateModel_": "The address of the interest rate model",
          "name_": "EIP-20 name of this token",
          "symbol_": "EIP-20 symbol of this token"
        }
      },
      "liquidateBorrow(address,uint256,address)": {
        "params": {
          "borrower": "The borrower of this cToken to be liquidated",
          "cTokenCollateral": "The market in which to seize collateral from the borrower",
          "repayAmount": "The amount of the underlying borrowed asset to repay"
        },
        "return": "uint 0=success, otherwise a failure (see ErrorReporter.sol for details)"
      },
      "mint(uint256)": {
        "details": "Accrues interest whether or not the operation succeeds, unless reverted",
        "params": {
          "mintAmount": "The amount of the underlying asset to supply"
        },
        "return": "uint 0=success, otherwise a failure (see ErrorReporter.sol for details)"
      },
      "redeem(uint256)": {
        "details": "Accrues interest whether or not the operation succeeds, unless reverted",
        "params": {
          "redeemTokens": "The number of cTokens to redeem into underlying"
        },
        "return": "uint 0=success, otherwise a failure (see ErrorReporter.sol for details)"
      },
      "redeemUnderlying(uint256)": {
        "details": "Accrues interest whether or not the operation succeeds, unless reverted",
        "params": {
          "redeemAmount": "The amount of underlying to redeem"
        },
        "return": "uint 0=success, otherwise a failure (see ErrorReporter.sol for details)"
      },
      "repayBorrow(uint256)": {
        "params": {
          "repayAmount": "The amount to repay"
        },
        "return": "uint 0=success, otherwise a failure (see ErrorReporter.sol for details)"
      },
      "repayBorrowBehalf(address,uint256)": {
        "params": {
          "borrower": "the account with the debt being payed off",
          "repayAmount": "The amount to repay"
        },
        "return": "uint 0=success, otherwise a failure (see ErrorReporter.sol for details)"
      },
      "seize(address,address,uint256)": {
        "details": "Will fail unless called by another cToken during the process of liquidation. Its absolutely critical to use msg.sender as the borrowed cToken and not a parameter.",
        "params": {
          "borrower": "The account having collateral seized",
          "liquidator": "The account receiving seized collateral",
          "seizeTokens": "The number of cTokens to seize"
        },
        "return": "uint 0=success, otherwise a failure (see ErrorReporter.sol for details)"
      },
      "supplyRatePerBlock()": {
        "return": "The supply interest rate per block, scaled by 1e18"
      },
      "totalBorrowsCurrent()": {
        "return": "The total borrows with interest"
      },
      "transfer(address,uint256)": {
        "params": {
          "amount": "The number of tokens to transfer",
          "dst": "The address of the destination account"
        },
        "return": "Whether or not the transfer succeeded"
      },
      "transferFrom(address,address,uint256)": {
        "params": {
          "amount": "The number of tokens to transfer",
          "dst": "The address of the destination account",
          "src": "The address of the source account"
        },
        "return": "Whether or not the transfer succeeded"
      }
    },
    "title": "Compound's CErc20 Contract"
  },
  "userdoc": {
    "methods": {
      "_acceptAdmin()": {
        "notice": "Accepts transfer of admin rights. msg.sender must be pendingAdmin"
      },
      "_addReserves(uint256)": {
        "notice": "The sender adds to reserves."
      },
      "_reduceReserves(uint256)": {
        "notice": "Accrues interest and reduces reserves by transferring to admin"
      },
      "_setComptroller(address)": {
        "notice": "Sets a new comptroller for the market"
      },
      "_setInterestRateModel(address)": {
        "notice": "accrues interest and updates the interest rate model using _setInterestRateModelFresh"
      },
      "_setPendingAdmin(address)": {
        "notice": "Begins transfer of admin rights. The newPendingAdmin must call `_acceptAdmin` to finalize the transfer."
      },
      "_setReserveFactor(uint256)": {
        "notice": "accrues interest and sets a new reserve factor for the protocol using _setReserveFactorFresh"
      },
      "accrueInterest()": {
        "notice": "Applies accrued interest to total borrows and reserves"
      },
      "allowance(address,address)": {
        "notice": "Get the current allowance from `owner` for `spender`"
      },
      "approve(address,uint256)": {
        "notice": "Approve `spender` to transfer up to `amount` from `src`"
      },
      "balanceOf(address)": {
        "notice": "Get the token balance of the `owner`"
      },
      "balanceOfUnderlying(address)": {
        "notice": "Get the underlying balance of the `owner`"
      },
      "borrow(uint256)": {
        "notice": "Sender borrows assets from the protocol to their own address"
      },
      "borrowBalanceCurrent(address)": {
        "notice": "Accrue interest to updated borrowIndex and then calculate account's borrow balance using the updated borrowIndex"
      },
      "borrowBalanceStored(address)": {
        "notice": "Return the borrow balance of account based on stored data"
      },
      "borrowRatePerBlock()": {
        "notice": "Returns the current per-block borrow interest rate for this cToken"
      },
      "exchangeRateCurrent()": {
        "notice": "Accrue interest then return the up-to-date exchange rate"
      },
      "exchangeRateStored()": {
        "notice": "Calculates the exchange rate from the underlying to the CToken"
      },
      "getAccountSnapshot(address)": {
        "notice": "Get a snapshot of the account's balances, and the cached exchange rate"
      },
      "getCash()": {
        "notice": "Get cash balance of this cToken in the underlying asset"
      },
      "initialize(address,address,address,uint256,string,string,uint8)": {
        "notice": "Initialize the new money market"
      },
      "initialize(address,address,uint256,string,string,uint8)": {
        "notice": "Initialize the money market"
      },
      "liquidateBorrow(address,uint256,address)": {
        "notice": "The sender liquidates the borrowers collateral. The collateral seized is transferred to the liquidator."
      },
      "mint(uint256)": {
        "notice": "Sender supplies assets into the market and receives cTokens in exchange"
      },
      "redeem(uint256)": {
        "notice": "Sender redeems cTokens in exchange for the underlying asset"
      },
      "redeemUnderlying(uint256)": {
        "notice": "Sender redeems cTokens in exchange for a specified amount of underlying asset"
      },
      "repayBorrow(uint256)": {
        "notice": "Sender repays their own borrow"
      },
      "repayBorrowBehalf(address,uint256)": {
        "notice": "Sender repays a borrow belonging to borrower"
      },
      "seize(address,address,uint256)": {
        "notice": "Transfers collateral tokens (this market) to the liquidator."
      },
      "supplyRatePerBlock()": {
        "notice": "Returns the current per-block supply interest rate for this cToken"
      },
      "totalBorrowsCurrent()": {
        "notice": "Returns the current total borrows plus accrued interest"
      },
      "transfer(address,uint256)": {
        "notice": "Transfer `amount` tokens from `msg.sender` to `dst`"
      },
      "transferFrom(address,address,uint256)": {
        "notice": "Transfer `amount` tokens from `src` to `dst`"
      }
    },
    "notice": "CTokens which wrap an EIP-20 underlying"
  }
}