{
  "contractName": "CErc20Immutable",
  "abi": [
    {
      "inputs": [
        {
          "internalType": "address",
          "name": "underlying_",
          "type": "address"
        },
        {
          "internalType": "contract ComptrollerInterface",
          "name": "comptroller_",
          "type": "address"
        },
        {
          "internalType": "contract InterestRateModel",
          "name": "interestRateModel_",
          "type": "address"
        },
        {
          "internalType": "uint256",
          "name": "initialExchangeRateMantissa_",
          "type": "uint256"
        },
        {
          "internalType": "string",
          "name": "name_",
          "type": "string"
        },
        {
          "internalType": "string",
          "name": "symbol_",
          "type": "string"
        },
        {
          "internalType": "uint8",
          "name": "decimals_",
          "type": "uint8"
        },
        {
          "internalType": "address payable",
          "name": "admin_",
          "type": "address"
        }
      ],
      "payable": false,
      "stateMutability": "nonpayable",
      "type": "constructor"
    },
    {
      "anonymous": false,
      "inputs": [
        {
          "indexed": false,
          "internalType": "uint256",
          "name": "cashPrior",
          "type": "uint256"
        },
        {
          "indexed": false,
          "internalType": "uint256",
          "name": "interestAccumulated",
          "type": "uint256"
        },
        {
          "indexed": false,
          "internalType": "uint256",
          "name": "borrowIndex",
          "type": "uint256"
        },
        {
          "indexed": false,
          "internalType": "uint256",
          "name": "totalBorrows",
          "type": "uint256"
        }
      ],
      "name": "AccrueInterest",
      "type": "event"
    },
    {
      "anonymous": false,
      "inputs": [
        {
          "indexed": true,
          "internalType": "address",
          "name": "owner",
          "type": "address"
        },
        {
          "indexed": true,
          "internalType": "address",
          "name": "spender",
          "type": "address"
        },
        {
          "indexed": false,
          "internalType": "uint256",
          "name": "amount",
          "type": "uint256"
        }
      ],
      "name": "Approval",
      "type": "event"
    },
    {
      "anonymous": false,
      "inputs": [
        {
          "indexed": false,
          "internalType": "address",
          "name": "borrower",
          "type": "address"
        },
        {
          "indexed": false,
          "internalType": "uint256",
          "name": "borrowAmount",
          "type": "uint256"
        },
        {
          "indexed": false,
          "internalType": "uint256",
          "name": "accountBorrows",
          "type": "uint256"
        },
        {
          "indexed": false,
          "internalType": "uint256",
          "name": "totalBorrows",
          "type": "uint256"
        }
      ],
      "name": "Borrow",
      "type": "event"
    },
    {
      "anonymous": false,
      "inputs": [
        {
          "indexed": false,
          "internalType": "uint256",
          "name": "error",
          "type": "uint256"
        },
        {
          "indexed": false,
          "internalType": "uint256",
          "name": "info",
          "type": "uint256"
        },
        {
          "indexed": false,
          "internalType": "uint256",
          "name": "detail",
          "type": "uint256"
        }
      ],
      "name": "Failure",
      "type": "event"
    },
    {
      "anonymous": false,
      "inputs": [
        {
          "indexed": false,
          "internalType": "address",
          "name": "liquidator",
          "type": "address"
        },
        {
          "indexed": false,
          "internalType": "address",
          "name": "borrower",
          "type": "address"
        },
        {
          "indexed": false,
          "internalType": "uint256",
          "name": "repayAmount",
          "type": "uint256"
        },
        {
          "indexed": false,
          "internalType": "address",
          "name": "cTokenCollateral",
          "type": "address"
        },
        {
          "indexed": false,
          "internalType": "uint256",
          "name": "seizeTokens",
          "type": "uint256"
        }
      ],
      "name": "LiquidateBorrow",
      "type": "event"
    },
    {
      "anonymous": false,
      "inputs": [
        {
          "indexed": false,
          "internalType": "address",
          "name": "minter",
          "type": "address"
        },
        {
          "indexed": false,
          "internalType": "uint256",
          "name": "mintAmount",
          "type": "uint256"
        },
        {
          "indexed": false,
          "internalType": "uint256",
          "name": "mintTokens",
          "type": "uint256"
        }
      ],
      "name": "Mint",
      "type": "event"
    },
    {
      "anonymous": false,
      "inputs": [
        {
          "indexed": false,
          "internalType": "address",
          "name": "oldAdmin",
          "type": "address"
        },
        {
          "indexed": false,
          "internalType": "address",
          "name": "newAdmin",
          "type": "address"
        }
      ],
      "name": "NewAdmin",
      "type": "event"
    },
    {
      "anonymous": false,
      "inputs": [
        {
          "indexed": false,
          "internalType": "contract ComptrollerInterface",
          "name": "oldComptroller",
          "type": "address"
        },
        {
          "indexed": false,
          "internalType": "contract ComptrollerInterface",
          "name": "newComptroller",
          "type": "address"
        }
      ],
      "name": "NewComptroller",
      "type": "event"
    },
    {
      "anonymous": false,
      "inputs": [
        {
          "indexed": false,
          "internalType": "contract InterestRateModel",
          "name": "oldInterestRateModel",
          "type": "address"
        },
        {
          "indexed": false,
          "internalType": "contract InterestRateModel",
          "name": "newInterestRateModel",
          "type": "address"
        }
      ],
      "name": "NewMarketInterestRateModel",
      "type": "event"
    },
    {
      "anonymous": false,
      "inputs": [
        {
          "indexed": false,
          "internalType": "address",
          "name": "oldPendingAdmin",
          "type": "address"
        },
        {
          "indexed": false,
          "internalType": "address",
          "name": "newPendingAdmin",
          "type": "address"
        }
      ],
      "name": "NewPendingAdmin",
      "type": "event"
    },
    {
      "anonymous": false,
      "inputs": [
        {
          "indexed": false,
          "internalType": "uint256",
          "name": "oldReserveFactorMantissa",
          "type": "uint256"
        },
        {
          "indexed": false,
          "internalType": "uint256",
          "name": "newReserveFactorMantissa",
          "type": "uint256"
        }
      ],
      "name": "NewReserveFactor",
      "type": "event"
    },
    {
      "anonymous": false,
      "inputs": [
        {
          "indexed": false,
          "internalType": "address",
          "name": "redeemer",
          "type": "address"
        },
        {
          "indexed": false,
          "internalType": "uint256",
          "name": "redeemAmount",
          "type": "uint256"
        },
        {
          "indexed": false,
          "internalType": "uint256",
          "name": "redeemTokens",
          "type": "uint256"
        }
      ],
      "name": "Redeem",
      "type": "event"
    },
    {
      "anonymous": false,
      "inputs": [
        {
          "indexed": false,
          "internalType": "address",
          "name": "payer",
          "type": "address"
        },
        {
          "indexed": false,
          "internalType": "address",
          "name": "borrower",
          "type": "address"
        },
        {
          "indexed": false,
          "internalType": "uint256",
          "name": "repayAmount",
          "type": "uint256"
        },
        {
          "indexed": false,
          "internalType": "uint256",
          "name": "accountBorrows",
          "type": "uint256"
        },
        {
          "indexed": false,
          "internalType": "uint256",
          "name": "totalBorrows",
          "type": "uint256"
        }
      ],
      "name": "RepayBorrow",
      "type": "event"
    },
    {
      "anonymous": false,
      "inputs": [
        {
          "indexed": false,
          "internalType": "address",
          "name": "benefactor",
          "type": "address"
        },
        {
          "indexed": false,
          "internalType": "uint256",
          "name": "addAmount",
          "type": "uint256"
        },
        {
          "indexed": false,
          "internalType": "uint256",
          "name": "newTotalReserves",
          "type": "uint256"
        }
      ],
      "name": "ReservesAdded",
      "type": "event"
    },
    {
      "anonymous": false,
      "inputs": [
        {
          "indexed": false,
          "internalType": "address",
          "name": "admin",
          "type": "address"
        },
        {
          "indexed": false,
          "internalType": "uint256",
          "name": "reduceAmount",
          "type": "uint256"
        },
        {
          "indexed": false,
          "internalType": "uint256",
          "name": "newTotalReserves",
          "type": "uint256"
        }
      ],
      "name": "ReservesReduced",
      "type": "event"
    },
    {
      "anonymous": false,
      "inputs": [
        {
          "indexed": true,
          "internalType": "address",
          "name": "from",
          "type": "address"
        },
        {
          "indexed": true,
          "internalType": "address",
          "name": "to",
          "type": "address"
        },
        {
          "indexed": false,
          "internalType": "uint256",
          "name": "amount",
          "type": "uint256"
        }
      ],
      "name": "Transfer",
      "type": "event"
    },
    {
      "constant": false,
      "inputs": [],
      "name": "_acceptAdmin",
      "outputs": [
        {
          "internalType": "uint256",
          "name": "",
          "type": "uint256"
        }
      ],
      "payable": false,
      "stateMutability": "nonpayable",
      "type": "function"
    },
    {
      "constant": false,
      "inputs": [
        {
          "internalType": "uint256",
          "name": "addAmount",
          "type": "uint256"
        }
      ],
      "name": "_addReserves",
      "outputs": [
        {
          "internalType": "uint256",
          "name": "",
          "type": "uint256"
        }
      ],
      "payable": false,
      "stateMutability": "nonpayable",
      "type": "function"
    },
    {
      "constant": false,
      "inputs": [
        {
          "internalType": "uint256",
          "name": "reduceAmount",
          "type": "uint256"
        }
      ],
      "name": "_reduceReserves",
      "outputs": [
        {
          "internalType": "uint256",
          "name": "",
          "type": "uint256"
        }
      ],
      "payable": false,
      "stateMutability": "nonpayable",
      "type": "function"
    },
    {
      "constant": false,
      "inputs": [
        {
          "internalType": "contract ComptrollerInterface",
          "name": "newComptroller",
          "type": "address"
        }
      ],
      "name": "_setComptroller",
      "outputs": [
        {
          "internalType": "uint256",
          "name": "",
          "type": "uint256"
        }
      ],
      "payable": false,
      "stateMutability": "nonpayable",
      "type": "function"
    },
    {
      "constant": false,
      "inputs": [
        {
          "internalType": "contract InterestRateModel",
          "name": "newInterestRateModel",
          "type": "address"
        }
      ],
      "name": "_setInterestRateModel",
      "outputs": [
        {
          "internalType": "uint256",
          "name": "",
          "type": "uint256"
        }
      ],
      "payable": false,
      "stateMutability": "nonpayable",
      "type": "function"
    },
    {
      "constant": false,
      "inputs": [
        {
          "internalType": "address payable",
          "name": "newPendingAdmin",
          "type": "address"
        }
      ],
      "name": "_setPendingAdmin",
      "outputs": [
        {
          "internalType": "uint256",
          "name": "",
          "type": "uint256"
        }
      ],
      "payable": false,
      "stateMutability": "nonpayable",
      "type": "function"
    },
    {
      "constant": false,
      "inputs": [
        {
          "internalType": "uint256",
          "name": "newReserveFactorMantissa",
          "type": "uint256"
        }
      ],
      "name": "_setReserveFactor",
      "outputs": [
        {
          "internalType": "uint256",
          "name": "",
          "type": "uint256"
        }
      ],
      "payable": false,
      "stateMutability": "nonpayable",
      "type": "function"
    },
    {
      "constant": true,
      "inputs": [],
      "name": "accrualBlockNumber",
      "outputs": [
        {
          "internalType": "uint256",
          "name": "",
          "type": "uint256"
        }
      ],
      "payable": false,
      "stateMutability": "view",
      "type": "function"
    },
    {
      "constant": false,
      "inputs": [],
      "name": "accrueInterest",
      "outputs": [
        {
          "internalType": "uint256",
          "name": "",
          "type": "uint256"
        }
      ],
      "payable": false,
      "stateMutability": "nonpayable",
      "type": "function"
    },
    {
      "constant": true,
      "inputs": [],
      "name": "admin",
      "outputs": [
        {
          "internalType": "address payable",
          "name": "",
          "type": "address"
        }
      ],
      "payable": false,
      "stateMutability": "view",
      "type": "function"
    },
    {
      "constant": true,
      "inputs": [
        {
          "internalType": "address",
          "name": "owner",
          "type": "address"
        },
        {
          "internalType": "address",
          "name": "spender",
          "type": "address"
        }
      ],
      "name": "allowance",
      "outputs": [
        {
          "internalType": "uint256",
          "name": "",
          "type": "uint256"
        }
      ],
      "payable": false,
      "stateMutability": "view",
      "type": "function"
    },
    {
      "constant": false,
      "inputs": [
        {
          "internalType": "address",
          "name": "spender",
          "type": "address"
        },
        {
          "internalType": "uint256",
          "name": "amount",
          "type": "uint256"
        }
      ],
      "name": "approve",
      "outputs": [
        {
          "internalType": "bool",
          "name": "",
          "type": "bool"
        }
      ],
      "payable": false,
      "stateMutability": "nonpayable",
      "type": "function"
    },
    {
      "constant": true,
      "inputs": [
        {
          "internalType": "address",
          "name": "owner",
          "type": "address"
        }
      ],
      "name": "balanceOf",
      "outputs": [
        {
          "internalType": "uint256",
          "name": "",
          "type": "uint256"
        }
      ],
      "payable": false,
      "stateMutability": "view",
      "type": "function"
    },
    {
      "constant": false,
      "inputs": [
        {
          "internalType": "address",
          "name": "owner",
          "type": "address"
        }
      ],
      "name": "balanceOfUnderlying",
      "outputs": [
        {
          "internalType": "uint256",
          "name": "",
          "type": "uint256"
        }
      ],
      "payable": false,
      "stateMutability": "nonpayable",
      "type": "function"
    },
    {
      "constant": false,
      "inputs": [
        {
          "internalType": "uint256",
          "name": "borrowAmount",
          "type": "uint256"
        }
      ],
      "name": "borrow",
      "outputs": [
        {
          "internalType": "uint256",
          "name": "",
          "type": "uint256"
        }
      ],
      "payable": false,
      "stateMutability": "nonpayable",
      "type": "function"
    },
    {
      "constant": false,
      "inputs": [
        {
          "internalType": "address",
          "name": "account",
          "type": "address"
        }
      ],
      "name": "borrowBalanceCurrent",
      "outputs": [
        {
          "internalType": "uint256",
          "name": "",
          "type": "uint256"
        }
      ],
      "payable": false,
      "stateMutability": "nonpayable",
      "type": "function"
    },
    {
      "constant": true,
      "inputs": [
        {
          "internalType": "address",
          "name": "account",
          "type": "address"
        }
      ],
      "name": "borrowBalanceStored",
      "outputs": [
        {
          "internalType": "uint256",
          "name": "",
          "type": "uint256"
        }
      ],
      "payable": false,
      "stateMutability": "view",
      "type": "function"
    },
    {
      "constant": true,
      "inputs": [],
      "name": "borrowIndex",
      "outputs": [
        {
          "internalType": "uint256",
          "name": "",
          "type": "uint256"
        }
      ],
      "payable": false,
      "stateMutability": "view",
      "type": "function"
    },
    {
      "constant": true,
      "inputs": [],
      "name": "borrowRatePerBlock",
      "outputs": [
        {
          "internalType": "uint256",
          "name": "",
          "type": "uint256"
        }
      ],
      "payable": false,
      "stateMutability": "view",
      "type": "function"
    },
    {
      "constant": true,
      "inputs": [],
      "name": "comptroller",
      "outputs": [
        {
          "internalType": "contract ComptrollerInterface",
          "name": "",
          "type": "address"
        }
      ],
      "payable": false,
      "stateMutability": "view",
      "type": "function"
    },
    {
      "constant": true,
      "inputs": [],
      "name": "decimals",
      "outputs": [
        {
          "internalType": "uint8",
          "name": "",
          "type": "uint8"
        }
      ],
      "payable": false,
      "stateMutability": "view",
      "type": "function"
    },
    {
      "constant": false,
      "inputs": [],
      "name": "exchangeRateCurrent",
      "outputs": [
        {
          "internalType": "uint256",
          "name": "",
          "type": "uint256"
        }
      ],
      "payable": false,
      "stateMutability": "nonpayable",
      "type": "function"
    },
    {
      "constant": true,
      "inputs": [],
      "name": "exchangeRateStored",
      "outputs": [
        {
          "internalType": "uint256",
          "name": "",
          "type": "uint256"
        }
      ],
      "payable": false,
      "stateMutability": "view",
      "type": "function"
    },
    {
      "constant": true,
      "inputs": [
        {
          "internalType": "address",
          "name": "account",
          "type": "address"
        }
      ],
      "name": "getAccountSnapshot",
      "outputs": [
        {
          "internalType": "uint256",
          "name": "",
          "type": "uint256"
        },
        {
          "internalType": "uint256",
          "name": "",
          "type": "uint256"
        },
        {
          "internalType": "uint256",
          "name": "",
          "type": "uint256"
        },
        {
          "internalType": "uint256",
          "name": "",
          "type": "uint256"
        }
      ],
      "payable": false,
      "stateMutability": "view",
      "type": "function"
    },
    {
      "constant": true,
      "inputs": [],
      "name": "getCash",
      "outputs": [
        {
          "internalType": "uint256",
          "name": "",
          "type": "uint256"
        }
      ],
      "payable": false,
      "stateMutability": "view",
      "type": "function"
    },
    {
      "constant": false,
      "inputs": [
        {
          "internalType": "address",
          "name": "underlying_",
          "type": "address"
        },
        {
          "internalType": "contract ComptrollerInterface",
          "name": "comptroller_",
          "type": "address"
        },
        {
          "internalType": "contract InterestRateModel",
          "name": "interestRateModel_",
          "type": "address"
        },
        {
          "internalType": "uint256",
          "name": "initialExchangeRateMantissa_",
          "type": "uint256"
        },
        {
          "internalType": "string",
          "name": "name_",
          "type": "string"
        },
        {
          "internalType": "string",
          "name": "symbol_",
          "type": "string"
        },
        {
          "internalType": "uint8",
          "name": "decimals_",
          "type": "uint8"
        }
      ],
      "name": "initialize",
      "outputs": [],
      "payable": false,
      "stateMutability": "nonpayable",
      "type": "function"
    },
    {
      "constant": false,
      "inputs": [
        {
          "internalType": "contract ComptrollerInterface",
          "name": "comptroller_",
          "type": "address"
        },
        {
          "internalType": "contract InterestRateModel",
          "name": "interestRateModel_",
          "type": "address"
        },
        {
          "internalType": "uint256",
          "name": "initialExchangeRateMantissa_",
          "type": "uint256"
        },
        {
          "internalType": "string",
          "name": "name_",
          "type": "string"
        },
        {
          "internalType": "string",
          "name": "symbol_",
          "type": "string"
        },
        {
          "internalType": "uint8",
          "name": "decimals_",
          "type": "uint8"
        }
      ],
      "name": "initialize",
      "outputs": [],
      "payable": false,
      "stateMutability": "nonpayable",
      "type": "function"
    },
    {
      "constant": true,
      "inputs": [],
      "name": "interestRateModel",
      "outputs": [
        {
          "internalType": "contract InterestRateModel",
          "name": "",
          "type": "address"
        }
      ],
      "payable": false,
      "stateMutability": "view",
      "type": "function"
    },
    {
      "constant": true,
      "inputs": [],
      "name": "isCToken",
      "outputs": [
        {
          "internalType": "bool",
          "name": "",
          "type": "bool"
        }
      ],
      "payable": false,
      "stateMutability": "view",
      "type": "function"
    },
    {
      "constant": false,
      "inputs": [
        {
          "internalType": "address",
          "name": "borrower",
          "type": "address"
        },
        {
          "internalType": "uint256",
          "name": "repayAmount",
          "type": "uint256"
        },
        {
          "internalType": "contract CTokenInterface",
          "name": "cTokenCollateral",
          "type": "address"
        }
      ],
      "name": "liquidateBorrow",
      "outputs": [
        {
          "internalType": "uint256",
          "name": "",
          "type": "uint256"
        }
      ],
      "payable": false,
      "stateMutability": "nonpayable",
      "type": "function"
    },
    {
      "constant": false,
      "inputs": [
        {
          "internalType": "uint256",
          "name": "mintAmount",
          "type": "uint256"
        }
      ],
      "name": "mint",
      "outputs": [
        {
          "internalType": "uint256",
          "name": "",
          "type": "uint256"
        }
      ],
      "payable": false,
      "stateMutability": "nonpayable",
      "type": "function"
    },
    {
      "constant": false,
      "inputs": [],
      "name": "mintMax",
      "outputs": [
        {
          "internalType": "uint256",
          "name": "",
          "type": "uint256"
        }
      ],
      "payable": false,
      "stateMutability": "nonpayable",
      "type": "function"
    },
    {
      "constant": true,
      "inputs": [],
      "name": "name",
      "outputs": [
        {
          "internalType": "string",
          "name": "",
          "type": "string"
        }
      ],
      "payable": false,
      "stateMutability": "view",
      "type": "function"
    },
    {
      "constant": true,
      "inputs": [],
      "name": "pendingAdmin",
      "outputs": [
        {
          "internalType": "address payable",
          "name": "",
          "type": "address"
        }
      ],
      "payable": false,
      "stateMutability": "view",
      "type": "function"
    },
    {
      "constant": false,
      "inputs": [
        {
          "internalType": "uint256",
          "name": "redeemTokens",
          "type": "uint256"
        }
      ],
      "name": "redeem",
      "outputs": [
        {
          "internalType": "uint256",
          "name": "",
          "type": "uint256"
        }
      ],
      "payable": false,
      "stateMutability": "nonpayable",
      "type": "function"
    },
    {
      "constant": false,
      "inputs": [
        {
          "internalType": "uint256",
          "name": "redeemAmount",
          "type": "uint256"
        }
      ],
      "name": "redeemUnderlying",
      "outputs": [
        {
          "internalType": "uint256",
          "name": "",
          "type": "uint256"
        }
      ],
      "payable": false,
      "stateMutability": "nonpayable",
      "type": "function"
    },
    {
      "constant": false,
      "inputs": [
        {
          "internalType": "uint256",
          "name": "repayAmount",
          "type": "uint256"
        }
      ],
      "name": "repayBorrow",
      "outputs": [
        {
          "internalType": "uint256",
          "name": "",
          "type": "uint256"
        }
      ],
      "payable": false,
      "stateMutability": "nonpayable",
      "type": "function"
    },
    {
      "constant": false,
      "inputs": [
        {
          "internalType": "address",
          "name": "borrower",
          "type": "address"
        },
        {
          "internalType": "uint256",
          "name": "repayAmount",
          "type": "uint256"
        }
      ],
      "name": "repayBorrowBehalf",
      "outputs": [
        {
          "internalType": "uint256",
          "name": "",
          "type": "uint256"
        }
      ],
      "payable": false,
      "stateMutability": "nonpayable",
      "type": "function"
    },
    {
      "constant": true,
      "inputs": [],
      "name": "reserveFactorMantissa",
      "outputs": [
        {
          "internalType": "uint256",
          "name": "",
          "type": "uint256"
        }
      ],
      "payable": false,
      "stateMutability": "view",
      "type": "function"
    },
    {
      "constant": false,
      "inputs": [
        {
          "internalType": "address",
          "name": "liquidator",
          "type": "address"
        },
        {
          "internalType": "address",
          "name": "borrower",
          "type": "address"
        },
        {
          "internalType": "uint256",
          "name": "seizeTokens",
          "type": "uint256"
        }
      ],
      "name": "seize",
      "outputs": [
        {
          "internalType": "uint256",
          "name": "",
          "type": "uint256"
        }
      ],
      "payable": false,
      "stateMutability": "nonpayable",
      "type": "function"
    },
    {
      "constant": true,
      "inputs": [],
      "name": "supplyRatePerBlock",
      "outputs": [
        {
          "internalType": "uint256",
          "name": "",
          "type": "uint256"
        }
      ],
      "payable": false,
      "stateMutability": "view",
      "type": "function"
    },
    {
      "constant": true,
      "inputs": [],
      "name": "symbol",
      "outputs": [
        {
          "internalType": "string",
          "name": "",
          "type": "string"
        }
      ],
      "payable": false,
      "stateMutability": "view",
      "type": "function"
    },
    {
      "constant": true,
      "inputs": [],
      "name": "totalBorrows",
      "outputs": [
        {
          "internalType": "uint256",
          "name": "",
          "type": "uint256"
        }
      ],
      "payable": false,
      "stateMutability": "view",
      "type": "function"
    },
    {
      "constant": false,
      "inputs": [],
      "name": "totalBorrowsCurrent",
      "outputs": [
        {
          "internalType": "uint256",
          "name": "",
          "type": "uint256"
        }
      ],
      "payable": false,
      "stateMutability": "nonpayable",
      "type": "function"
    },
    {
      "constant": true,
      "inputs": [],
      "name": "totalReserves",
      "outputs": [
        {
          "internalType": "uint256",
          "name": "",
          "type": "uint256"
        }
      ],
      "payable": false,
      "stateMutability": "view",
      "type": "function"
    },
    {
      "constant": true,
      "inputs": [],
      "name": "totalSupply",
      "outputs": [
        {
          "internalType": "uint256",
          "name": "",
          "type": "uint256"
        }
      ],
      "payable": false,
      "stateMutability": "view",
      "type": "function"
    },
    {
      "constant": false,
      "inputs": [
        {
          "internalType": "address",
          "name": "dst",
          "type": "address"
        },
        {
          "internalType": "uint256",
          "name": "amount",
          "type": "uint256"
        }
      ],
      "name": "transfer",
      "outputs": [
        {
          "internalType": "bool",
          "name": "",
          "type": "bool"
        }
      ],
      "payable": false,
      "stateMutability": "nonpayable",
      "type": "function"
    },
    {
      "constant": false,
      "inputs": [
        {
          "internalType": "address",
          "name": "src",
          "type": "address"
        },
        {
          "internalType": "address",
          "name": "dst",
          "type": "address"
        },
        {
          "internalType": "uint256",
          "name": "amount",
          "type": "uint256"
        }
      ],
      "name": "transferFrom",
      "outputs": [
        {
          "internalType": "bool",
          "name": "",
          "type": "bool"
        }
      ],
      "payable": false,
      "stateMutability": "nonpayable",
      "type": "function"
    },
    {
      "constant": true,
      "inputs": [],
      "name": "underlying",
      "outputs": [
        {
          "internalType": "address",
          "name": "",
          "type": "address"
        }
      ],
      "payable": false,
      "stateMutability": "view",
      "type": "function"
    }
  ],
  "bytecode": "0x60806040523480156200001157600080fd5b5060405162006cac38038062006cac83398181016040526101008110156200003857600080fd5b81516020830151604080850151606086015160808701805193519597949692959194919392820192846401000000008211156200007457600080fd5b9083019060208201858111156200008a57600080fd5b8251640100000000811182820188101715620000a557600080fd5b82525081516020918201929091019080838360005b83811015620000d4578181015183820152602001620000ba565b50505050905090810190601f168015620001025780820380516001836020036101000a031916815260200191505b50604052602001805160405193929190846401000000008211156200012657600080fd5b9083019060208201858111156200013c57600080fd5b82516401000000008111828201881017156200015757600080fd5b82525081516020918201929091019080838360005b83811015620001865781810151838201526020016200016c565b50505050905090810190601f168015620001b45780820380516001836020036101000a031916815260200191505b506040908152602082015191015160038054610100600160a81b03191633610100021790559092509050620001ef8888888888888862000223565b600380546001600160a01b0390921661010002610100600160a81b0319909216919091179055506200090d95505050505050565b6200023e868686868686620002d260201b6200180b1760201c565b601180546001600160a01b0319166001600160a01b038981169190911791829055604080516318160ddd60e01b8152905192909116916318160ddd91600480820192602092909190829003018186803b1580156200029b57600080fd5b505afa158015620002b0573d6000803e3d6000fd5b505050506040513d6020811015620002c757600080fd5b505050505050505050565b60035461010090046001600160a01b03163314620003225760405162461bcd60e51b815260040180806020018281038252602481526020018062006c136024913960400191505060405180910390fd5b600954158015620003335750600a54155b620003705760405162461bcd60e51b815260040180806020018281038252602381526020018062006c376023913960400191505060405180910390fd5b600784905583620003b35760405162461bcd60e51b815260040180806020018281038252603081526020018062006c5a6030913960400191505060405180910390fd5b6000620003c9876001600160e01b03620004e816565b905080156200041f576040805162461bcd60e51b815260206004820152601a60248201527f73657474696e6720636f6d7074726f6c6c6572206661696c6564000000000000604482015290519081900360640190fd5b620004326001600160e01b036200065016565b600955670de0b6b3a7640000600a5562000455866001600160e01b036200065516565b90508015620004965760405162461bcd60e51b815260040180806020018281038252602281526020018062006c8a6022913960400191505060405180910390fd5b8351620004ab9060019060208701906200086b565b508251620004c19060029060208601906200086b565b50506003805460ff90921660ff199283161790556000805490911660011790555050505050565b60035460009061010090046001600160a01b0316331462000522576200051a6001603f6001600160e01b03620007fb16565b90506200064b565b60055460408051623f1ee960e11b815290516001600160a01b0392831692851691627e3dd2916004808301926020929190829003018186803b1580156200056857600080fd5b505afa1580156200057d573d6000803e3d6000fd5b505050506040513d60208110156200059457600080fd5b5051620005e8576040805162461bcd60e51b815260206004820152601c60248201527f6d61726b6572206d6574686f642072657475726e65642066616c736500000000604482015290519081900360640190fd5b600580546001600160a01b0319166001600160a01b03858116918217909255604080519284168352602083019190915280517f7ac369dbd14fa5ea3f473ed67cc9d598964a77501540ba6751eb0b3decf5870d9281900390910190a160005b9150505b919050565b435b90565b600354600090819061010090046001600160a01b03163314620006925762000689600160426001600160e01b03620007fb16565b9150506200064b565b620006a56001600160e01b036200065016565b60095414620006c55762000689600a60416001600160e01b03620007fb16565b600660009054906101000a90046001600160a01b03169050826001600160a01b0316632191f92a6040518163ffffffff1660e01b815260040160206040518083038186803b1580156200071757600080fd5b505afa1580156200072c573d6000803e3d6000fd5b505050506040513d60208110156200074357600080fd5b505162000797576040805162461bcd60e51b815260206004820152601c60248201527f6d61726b6572206d6574686f642072657475726e65642066616c736500000000604482015290519081900360640190fd5b600680546001600160a01b0319166001600160a01b03858116918217909255604080519284168352602083019190915280517fedffc32e068c7c95dfd4bdfd5c4d939a084d6b11c4199eac8436ed234d72f9269281900390910190a1600062000647565b60007f45b96fe442630264581b197e84bbada861235052c5a1aadfff9ea4e40a969aa08360108111156200082b57fe5b8360508111156200083857fe5b604080519283526020830191909152600082820152519081900360600190a18260108111156200086457fe5b9392505050565b828054600181600116156101000203166002900490600052602060002090601f016020900481019282601f10620008ae57805160ff1916838001178555620008de565b82800160010185558215620008de579182015b82811115620008de578251825591602001919060010190620008c1565b50620008ec929150620008f0565b5090565b6200065291905b80821115620008ec5760008155600101620008f7565b6162f6806200091d6000396000f3fe608060405234801561001057600080fd5b506004361061032b5760003560e01c8063852a12e3116101b2578063bd6d894d116100f9578063f2b3abbd116100a2578063f851a4401161007c578063f851a44014610bb2578063f8f9da2814610bba578063fca7820b14610bc2578063fe9c44ae14610bdf5761032b565b8063f2b3abbd14610b34578063f3fdb15a14610b67578063f5e3c46214610b6f5761032b565b8063db006a75116100d3578063db006a7514610ad4578063dd62ed3e14610af1578063e9c714f214610b2c5761032b565b8063bd6d894d14610a56578063c37f68e214610a5e578063c5ebeaec14610ab75761032b565b8063a6afed951161015b578063ae9d70b011610135578063ae9d70b0146109d8578063b2a02ff1146109e0578063b71d1a0c14610a235761032b565b8063a6afed951461098f578063a9059cbb14610997578063aa5af0fd146109d05761032b565b806395dd91931161018c57806395dd9193146107e057806399d8c1b414610813578063a0712d68146109725761032b565b8063852a12e3146107b35780638f840ddd146107d057806395d89b41146107d85761032b565b80633af9e669116102765780635fe3b5671161021f5780636f307dc3116101f95780636f307dc31461077057806370a082311461077857806373acee98146107ab5761032b565b80635fe3b56714610743578063601a0bf11461074b5780636c540baf146107685761032b565b80634576b5db116102505780634576b5db1461070057806347bd3718146107335780634d1555611461073b5761032b565b80633af9e669146106a85780633b1d21a2146106db5780633e941010146106e35761032b565b8063182df0f5116102d85780632608f818116102b25780632608f818146106205780632678224714610659578063313ce5671461068a5761032b565b8063182df0f51461046c5780631a31d4651461047457806323b872dd146105dd5761032b565b8063173b990411610309578063173b99041461042957806317bfdfbc1461043157806318160ddd146104645761032b565b806306fdde0314610330578063095ea7b3146103ad5780630e752702146103fa575b600080fd5b610338610be7565b6040805160208082528351818301528351919283929083019185019080838360005b8381101561037257818101518382015260200161035a565b50505050905090810190601f16801561039f5780820380516001836020036101000a031916815260200191505b509250505060405180910390f35b6103e6600480360360408110156103c357600080fd5b5073ffffffffffffffffffffffffffffffffffffffff8135169060200135610c92565b604080519115158252519081900360200190f35b6104176004803603602081101561041057600080fd5b5035610d0c565b60408051918252519081900360200190f35b610417610d22565b6104176004803603602081101561044757600080fd5b503573ffffffffffffffffffffffffffffffffffffffff16610d28565b610417610e72565b610417610e78565b6105db600480360360e081101561048a57600080fd5b73ffffffffffffffffffffffffffffffffffffffff823581169260208101358216926040820135909216916060820135919081019060a0810160808201356401000000008111156104da57600080fd5b8201836020820111156104ec57600080fd5b8035906020019184600183028401116401000000008311171561050e57600080fd5b91908080601f016020809104026020016040519081016040528093929190818152602001838380828437600092019190915250929594936020810193503591505064010000000081111561056157600080fd5b82018360208201111561057357600080fd5b8035906020019184600183028401116401000000008311171561059557600080fd5b91908080601f0160208091040260200160405190810160405280939291908181526020018383808284376000920191909152509295505050903560ff169150610ef59050565b005b6103e6600480360360608110156105f357600080fd5b5073ffffffffffffffffffffffffffffffffffffffff813581169160208101359091169060400135610fd2565b6104176004803603604081101561063657600080fd5b5073ffffffffffffffffffffffffffffffffffffffff81351690602001356110ad565b6106616110c3565b6040805173ffffffffffffffffffffffffffffffffffffffff9092168252519081900360200190f35b6106926110df565b6040805160ff9092168252519081900360200190f35b610417600480360360208110156106be57600080fd5b503573ffffffffffffffffffffffffffffffffffffffff166110e8565b6104176111c5565b610417600480360360208110156106f957600080fd5b50356111d4565b6104176004803603602081101561071657600080fd5b503573ffffffffffffffffffffffffffffffffffffffff166111df565b6104176113a6565b6104176113ac565b610661611463565b6104176004803603602081101561076157600080fd5b503561147f565b610417611583565b610661611589565b6104176004803603602081101561078e57600080fd5b503573ffffffffffffffffffffffffffffffffffffffff166115a5565b6104176115cd565b610417600480360360208110156107c957600080fd5b503561170d565b610417611718565b61033861171e565b610417600480360360208110156107f657600080fd5b503573ffffffffffffffffffffffffffffffffffffffff16611794565b6105db600480360360c081101561082957600080fd5b73ffffffffffffffffffffffffffffffffffffffff82358116926020810135909116916040820135919081019060808101606082013564010000000081111561087157600080fd5b82018360208201111561088357600080fd5b803590602001918460018302840111640100000000831117156108a557600080fd5b91908080601f01602080910402602001604051908101604052809392919081815260200183838082843760009201919091525092959493602081019350359150506401000000008111156108f857600080fd5b82018360208201111561090a57600080fd5b8035906020019184600183028401116401000000008311171561092c57600080fd5b91908080601f0160208091040260200160405190810160405280939291908181526020018383808284376000920191909152509295505050903560ff16915061180b9050565b6104176004803603602081101561098857600080fd5b5035611a9f565b610417611aab565b6103e6600480360360408110156109ad57600080fd5b5073ffffffffffffffffffffffffffffffffffffffff8135169060200135611e5d565b610417611f37565b610417611f3d565b610417600480360360608110156109f657600080fd5b5073ffffffffffffffffffffffffffffffffffffffff813581169160208101359091169060400135611fe9565b61041760048036036020811015610a3957600080fd5b503573ffffffffffffffffffffffffffffffffffffffff166120c3565b610417612181565b610a9160048036036020811015610a7457600080fd5b503573ffffffffffffffffffffffffffffffffffffffff166122c7565b604080519485526020850193909352838301919091526060830152519081900360800190f35b61041760048036036020811015610acd57600080fd5b5035612369565b61041760048036036020811015610aea57600080fd5b5035612374565b61041760048036036040811015610b0757600080fd5b5073ffffffffffffffffffffffffffffffffffffffff8135811691602001351661237f565b6104176123b7565b61041760048036036020811015610b4a57600080fd5b503573ffffffffffffffffffffffffffffffffffffffff16612510565b61066161254a565b61041760048036036060811015610b8557600080fd5b5073ffffffffffffffffffffffffffffffffffffffff813581169160208101359160409091013516612566565b61066161257e565b61041761259f565b61041760048036036020811015610bd857600080fd5b5035612610565b6103e66126d9565b60018054604080516020600284861615610100027fffffffffffffffffffffffffffffffffffffffffffffffffffffffffffffffff0190941693909304601f81018490048402820184019092528181529291830182828015610c8a5780601f10610c5f57610100808354040283529160200191610c8a565b820191906000526020600020905b815481529060010190602001808311610c6d57829003601f168201915b505050505081565b336000818152600f6020908152604080832073ffffffffffffffffffffffffffffffffffffffff871680855290835281842086905581518681529151939493909284927f8c5be1e5ebec7d5bd14f71427d1e84f3dd0314c0f7b2291e5b200ac8c7c3b925929081900390910190a360019150505b92915050565b600080610d18836126de565b509150505b919050565b60085481565b6000805460ff16610d9a57604080517f08c379a000000000000000000000000000000000000000000000000000000000815260206004820152600a60248201527f72652d656e746572656400000000000000000000000000000000000000000000604482015290519081900360640190fd5b600080547fffffffffffffffffffffffffffffffffffffffffffffffffffffffffffffff00168155610dca611aab565b14610e3657604080517f08c379a000000000000000000000000000000000000000000000000000000000815260206004820152601660248201527f61636372756520696e746572657374206661696c656400000000000000000000604482015290519081900360640190fd5b610e3f82611794565b90505b600080547fffffffffffffffffffffffffffffffffffffffffffffffffffffffffffffff00166001179055919050565b600d5481565b6000806000610e856127f0565b90925090506000826003811115610e9857fe5b14610eee576040517f08c379a000000000000000000000000000000000000000000000000000000000815260040180806020018281038252603581526020018061620d6035913960400191505060405180910390fd5b9150505b90565b610f0386868686868661180b565b601180547fffffffffffffffffffffffff00000000000000000000000000000000000000001673ffffffffffffffffffffffffffffffffffffffff8981169190911791829055604080517f18160ddd000000000000000000000000000000000000000000000000000000008152905192909116916318160ddd91600480820192602092909190829003018186803b158015610f9d57600080fd5b505afa158015610fb1573d6000803e3d6000fd5b505050506040513d6020811015610fc757600080fd5b505050505050505050565b6000805460ff1661104457604080517f08c379a000000000000000000000000000000000000000000000000000000000815260206004820152600a60248201527f72652d656e746572656400000000000000000000000000000000000000000000604482015290519081900360640190fd5b600080547fffffffffffffffffffffffffffffffffffffffffffffffffffffffffffffff001681556110783386868661289f565b149050600080547fffffffffffffffffffffffffffffffffffffffffffffffffffffffffffffff001660011790559392505050565b6000806110ba8484612cc9565b50949350505050565b60045473ffffffffffffffffffffffffffffffffffffffff1681565b60035460ff1681565b60006110f2615f1b565b6040518060200160405280611105612181565b905273ffffffffffffffffffffffffffffffffffffffff84166000908152600e602052604081205491925090819061113e908490612ddd565b9092509050600082600381111561115157fe5b146111bd57604080517f08c379a000000000000000000000000000000000000000000000000000000000815260206004820152601f60248201527f62616c616e636520636f756c64206e6f742062652063616c63756c6174656400604482015290519081900360640190fd5b949350505050565b60006111cf612e31565b905090565b6000610d0682612ed7565b600354600090610100900473ffffffffffffffffffffffffffffffffffffffff163314611219576112126001603f612fd4565b9050610d1d565b600554604080517e7e3dd2000000000000000000000000000000000000000000000000000000008152905173ffffffffffffffffffffffffffffffffffffffff92831692851691627e3dd2916004808301926020929190829003018186803b15801561128457600080fd5b505afa158015611298573d6000803e3d6000fd5b505050506040513d60208110156112ae57600080fd5b505161131b57604080517f08c379a000000000000000000000000000000000000000000000000000000000815260206004820152601c60248201527f6d61726b6572206d6574686f642072657475726e65642066616c736500000000604482015290519081900360640190fd5b600580547fffffffffffffffffffffffff00000000000000000000000000000000000000001673ffffffffffffffffffffffffffffffffffffffff858116918217909255604080519284168352602083019190915280517f7ac369dbd14fa5ea3f473ed67cc9d598964a77501540ba6751eb0b3decf5870d9281900390910190a160005b9392505050565b600b5481565b601154604080517f70a082310000000000000000000000000000000000000000000000000000000081523360048201529051600092839273ffffffffffffffffffffffffffffffffffffffff909116916370a0823191602480820192602092909190829003018186803b15801561142257600080fd5b505afa158015611436573d6000803e3d6000fd5b505050506040513d602081101561144c57600080fd5b50519050600061145b8261303a565b509250505090565b60055473ffffffffffffffffffffffffffffffffffffffff1681565b6000805460ff166114f157604080517f08c379a000000000000000000000000000000000000000000000000000000000815260206004820152600a60248201527f72652d656e746572656400000000000000000000000000000000000000000000604482015290519081900360640190fd5b600080547fffffffffffffffffffffffffffffffffffffffffffffffffffffffffffffff00168155611521611aab565b905080156115475761153f81601081111561153857fe5b6030612fd4565b915050610e42565b61155083613106565b915050600080547fffffffffffffffffffffffffffffffffffffffffffffffffffffffffffffff00166001179055919050565b60095481565b60115473ffffffffffffffffffffffffffffffffffffffff1681565b73ffffffffffffffffffffffffffffffffffffffff166000908152600e602052604090205490565b6000805460ff1661163f57604080517f08c379a000000000000000000000000000000000000000000000000000000000815260206004820152600a60248201527f72652d656e746572656400000000000000000000000000000000000000000000604482015290519081900360640190fd5b600080547fffffffffffffffffffffffffffffffffffffffffffffffffffffffffffffff0016815561166f611aab565b146116db57604080517f08c379a000000000000000000000000000000000000000000000000000000000815260206004820152601660248201527f61636372756520696e746572657374206661696c656400000000000000000000604482015290519081900360640190fd5b50600b54600080547fffffffffffffffffffffffffffffffffffffffffffffffffffffffffffffff0016600117905590565b6000610d068261327a565b600c5481565b600280546040805160206001841615610100027fffffffffffffffffffffffffffffffffffffffffffffffffffffffffffffffff01909316849004601f81018490048402820184019092528181529291830182828015610c8a5780601f10610c5f57610100808354040283529160200191610c8a565b60008060006117a284613346565b909250905060008260038111156117b557fe5b1461139f576040517f08c379a00000000000000000000000000000000000000000000000000000000081526004018080602001828103825260378152602001806161386037913960400191505060405180910390fd5b600354610100900473ffffffffffffffffffffffffffffffffffffffff163314611880576040517f08c379a00000000000000000000000000000000000000000000000000000000081526004018080602001828103825260248152602001806160746024913960400191505060405180910390fd5b6009541580156118905750600a54155b6118e5576040517f08c379a00000000000000000000000000000000000000000000000000000000081526004018080602001828103825260238152602001806160986023913960400191505060405180910390fd5b600784905583611940576040517f08c379a00000000000000000000000000000000000000000000000000000000081526004018080602001828103825260308152602001806160bb6030913960400191505060405180910390fd5b600061194b876111df565b905080156119ba57604080517f08c379a000000000000000000000000000000000000000000000000000000000815260206004820152601a60248201527f73657474696e6720636f6d7074726f6c6c6572206661696c6564000000000000604482015290519081900360640190fd5b6119c2613407565b600955670de0b6b3a7640000600a556119da8661340b565b90508015611a33576040517f08c379a00000000000000000000000000000000000000000000000000000000081526004018080602001828103825260228152602001806160eb6022913960400191505060405180910390fd5b8351611a46906001906020870190615f2e565b508251611a5a906002906020860190615f2e565b50506003805460ff9092167fffffffffffffffffffffffffffffffffffffffffffffffffffffffffffffff009283161790556000805490911660011790555050505050565b600080610d188361303a565b600080611ab6613407565b60095490915080821415611acf57600092505050610ef2565b6000611ad9612e31565b600b54600c54600a54600654604080517f15f24053000000000000000000000000000000000000000000000000000000008152600481018790526024810186905260448101859052905195965093949293919260009273ffffffffffffffffffffffffffffffffffffffff909216916315f24053916064808301926020929190829003018186803b158015611b6d57600080fd5b505afa158015611b81573d6000803e3d6000fd5b505050506040513d6020811015611b9757600080fd5b5051905065048c27395000811115611c1057604080517f08c379a000000000000000000000000000000000000000000000000000000000815260206004820152601c60248201527f626f72726f772072617465206973206162737572646c79206869676800000000604482015290519081900360640190fd5b600080611c1d89896135e6565b90925090506000826003811115611c3057fe5b14611c9c57604080517f08c379a000000000000000000000000000000000000000000000000000000000815260206004820152601f60248201527f636f756c64206e6f742063616c63756c61746520626c6f636b2064656c746100604482015290519081900360640190fd5b611ca4615f1b565b600080600080611cc260405180602001604052808a81525087613609565b90975094506000876003811115611cd557fe5b14611d0757611cf260096006896003811115611ced57fe5b613671565b9e505050505050505050505050505050610ef2565b611d11858c612ddd565b90975093506000876003811115611d2457fe5b14611d3c57611cf260096001896003811115611ced57fe5b611d46848c6136d7565b90975092506000876003811115611d5957fe5b14611d7157611cf260096004896003811115611ced57fe5b611d8c6040518060200160405280600854815250858c6136fd565b90975091506000876003811115611d9f57fe5b14611db757611cf260096005896003811115611ced57fe5b611dc2858a8b6136fd565b90975090506000876003811115611dd557fe5b14611ded57611cf260096003896003811115611ced57fe5b60098e9055600a819055600b839055600c829055604080518d8152602081018690528082018390526060810185905290517f4dec04e750ca11537cabcd8a9eab06494de08da3735bc8871cd41250e190bc049181900360800190a160009e50505050505050505050505050505090565b6000805460ff16611ecf57604080517f08c379a000000000000000000000000000000000000000000000000000000000815260206004820152600a60248201527f72652d656e746572656400000000000000000000000000000000000000000000604482015290519081900360640190fd5b600080547fffffffffffffffffffffffffffffffffffffffffffffffffffffffffffffff00168155611f033333868661289f565b149050600080547fffffffffffffffffffffffffffffffffffffffffffffffffffffffffffffff0016600117905592915050565b600a5481565b60065460009073ffffffffffffffffffffffffffffffffffffffff1663b8168816611f66612e31565b600b54600c546008546040518563ffffffff1660e01b81526004018085815260200184815260200183815260200182815260200194505050505060206040518083038186803b158015611fb857600080fd5b505afa158015611fcc573d6000803e3d6000fd5b505050506040513d6020811015611fe257600080fd5b5051905090565b6000805460ff1661205b57604080517f08c379a000000000000000000000000000000000000000000000000000000000815260206004820152600a60248201527f72652d656e746572656400000000000000000000000000000000000000000000604482015290519081900360640190fd5b600080547fffffffffffffffffffffffffffffffffffffffffffffffffffffffffffffff0016905561208f33858585613759565b9050600080547fffffffffffffffffffffffffffffffffffffffffffffffffffffffffffffff001660011790559392505050565b600354600090610100900473ffffffffffffffffffffffffffffffffffffffff1633146120f65761121260016045612fd4565b6004805473ffffffffffffffffffffffffffffffffffffffff8481167fffffffffffffffffffffffff0000000000000000000000000000000000000000831681179093556040805191909216808252602082019390935281517fca4f2f25d0898edd99413412fb94012f9e54ec8142f9b093e7720646a95b16a9929181900390910190a1600061139f565b6000805460ff166121f357604080517f08c379a000000000000000000000000000000000000000000000000000000000815260206004820152600a60248201527f72652d656e746572656400000000000000000000000000000000000000000000604482015290519081900360640190fd5b600080547fffffffffffffffffffffffffffffffffffffffffffffffffffffffffffffff00168155612223611aab565b1461228f57604080517f08c379a000000000000000000000000000000000000000000000000000000000815260206004820152601660248201527f61636372756520696e746572657374206661696c656400000000000000000000604482015290519081900360640190fd5b612297610e78565b9050600080547fffffffffffffffffffffffffffffffffffffffffffffffffffffffffffffff0016600117905590565b73ffffffffffffffffffffffffffffffffffffffff81166000908152600e60205260408120548190819081908180806122ff89613346565b93509050600081600381111561231157fe5b1461232f5760095b9750600096508695508594506123629350505050565b6123376127f0565b92509050600081600381111561234957fe5b14612355576009612319565b5060009650919450925090505b9193509193565b6000610d0682613a5e565b6000610d0682613b28565b73ffffffffffffffffffffffffffffffffffffffff9182166000908152600f6020908152604080832093909416825291909152205490565b60045460009073ffffffffffffffffffffffffffffffffffffffff16331415806123df575033155b156123f7576123f060016000612fd4565b9050610ef2565b600380546004805473ffffffffffffffffffffffffffffffffffffffff8181166101008181027fffffffffffffffffffffff0000000000000000000000000000000000000000ff871617968790557fffffffffffffffffffffffff000000000000000000000000000000000000000090931690935560408051948390048216808652929095041660208401528351909391927ff9ffabca9c8276e99321725bcb43fb076a6c66a54b7f21c4e8146d8519b417dc92908290030190a16004546040805173ffffffffffffffffffffffffffffffffffffffff8085168252909216602083015280517fca4f2f25d0898edd99413412fb94012f9e54ec8142f9b093e7720646a95b16a99281900390910190a160009250505090565b60008061251b611aab565b905080156125415761253981601081111561253257fe5b6040612fd4565b915050610d1d565b61139f8361340b565b60065473ffffffffffffffffffffffffffffffffffffffff1681565b600080612574858585613bed565b5095945050505050565b600354610100900473ffffffffffffffffffffffffffffffffffffffff1681565b60065460009073ffffffffffffffffffffffffffffffffffffffff166315f240536125c8612e31565b600b54600c546040518463ffffffff1660e01b815260040180848152602001838152602001828152602001935050505060206040518083038186803b158015611fb857600080fd5b6000805460ff1661268257604080517f08c379a000000000000000000000000000000000000000000000000000000000815260206004820152600a60248201527f72652d656e746572656400000000000000000000000000000000000000000000604482015290519081900360640190fd5b600080547fffffffffffffffffffffffffffffffffffffffffffffffffffffffffffffff001681556126b2611aab565b905080156126d05761153f8160108111156126c957fe5b6046612fd4565b61155083613d95565b600181565b60008054819060ff1661275257604080517f08c379a000000000000000000000000000000000000000000000000000000000815260206004820152600a60248201527f72652d656e746572656400000000000000000000000000000000000000000000604482015290519081900360640190fd5b600080547fffffffffffffffffffffffffffffffffffffffffffffffffffffffffffffff00168155612782611aab565b905080156127ad576127a081601081111561279957fe5b6036612fd4565b9250600091506127be9050565b6127b8333386613e4a565b92509250505b600080547fffffffffffffffffffffffffffffffffffffffffffffffffffffffffffffff001660011790559092909150565b600d5460009081908061280b5750506007546000915061289b565b6000612815612e31565b90506000612821615f1b565b600061283284600b54600c546142e7565b93509050600081600381111561284457fe5b146128595795506000945061289b9350505050565b6128638386614325565b92509050600081600381111561287557fe5b1461288a5795506000945061289b9350505050565b505160009550935061289b92505050565b9091565b600554604080517fbdcdc25800000000000000000000000000000000000000000000000000000000815230600482015273ffffffffffffffffffffffffffffffffffffffff868116602483015285811660448301526064820185905291516000938493169163bdcdc25891608480830192602092919082900301818787803b15801561292a57600080fd5b505af115801561293e573d6000803e3d6000fd5b505050506040513d602081101561295457600080fd5b5051905080156129735761296b6003604a83613671565b9150506111bd565b8373ffffffffffffffffffffffffffffffffffffffff168573ffffffffffffffffffffffffffffffffffffffff1614156129b35761296b6002604b612fd4565b600073ffffffffffffffffffffffffffffffffffffffff87811690871614156129fd57507fffffffffffffffffffffffffffffffffffffffffffffffffffffffffffffffff612a32565b5073ffffffffffffffffffffffffffffffffffffffff8086166000908152600f60209081526040808320938a16835292905220545b600080600080612a4285896135e6565b90945092506000846003811115612a5557fe5b14612a7357612a666009604b612fd4565b96505050505050506111bd565b73ffffffffffffffffffffffffffffffffffffffff8a166000908152600e6020526040902054612aa390896135e6565b90945091506000846003811115612ab657fe5b14612ac757612a666009604c612fd4565b73ffffffffffffffffffffffffffffffffffffffff89166000908152600e6020526040902054612af790896136d7565b90945090506000846003811115612b0a57fe5b14612b1b57612a666009604d612fd4565b73ffffffffffffffffffffffffffffffffffffffff808b166000908152600e6020526040808220859055918b168152208190557fffffffffffffffffffffffffffffffffffffffffffffffffffffffffffffffff8514612bab5773ffffffffffffffffffffffffffffffffffffffff808b166000908152600f60209081526040808320938f168352929052208390555b8873ffffffffffffffffffffffffffffffffffffffff168a73ffffffffffffffffffffffffffffffffffffffff167fddf252ad1be2c89b69c2b068fc378daa952ba7f163c4a11628f55a4df523b3ef8a6040518082815260200191505060405180910390a3600554604080517f6a56947e00000000000000000000000000000000000000000000000000000000815230600482015273ffffffffffffffffffffffffffffffffffffffff8d811660248301528c81166044830152606482018c905291519190921691636a56947e91608480830192600092919082900301818387803b158015612c9957600080fd5b505af1158015612cad573d6000803e3d6000fd5b5060009250612cba915050565b9b9a5050505050505050505050565b60008054819060ff16612d3d57604080517f08c379a000000000000000000000000000000000000000000000000000000000815260206004820152600a60248201527f72652d656e746572656400000000000000000000000000000000000000000000604482015290519081900360640190fd5b600080547fffffffffffffffffffffffffffffffffffffffffffffffffffffffffffffff00168155612d6d611aab565b90508015612d9857612d8b816010811115612d8457fe5b6035612fd4565b925060009150612da99050565b612da3338686613e4a565b92509250505b600080547fffffffffffffffffffffffffffffffffffffffffffffffffffffffffffffff0016600117905590939092509050565b6000806000612dea615f1b565b612df48686613609565b90925090506000826003811115612e0757fe5b14612e185750915060009050612e2a565b6000612e23826143d5565b9350935050505b9250929050565b601154604080517f70a08231000000000000000000000000000000000000000000000000000000008152306004820152905160009273ffffffffffffffffffffffffffffffffffffffff169182916370a0823191602480820192602092909190829003018186803b158015612ea557600080fd5b505afa158015612eb9573d6000803e3d6000fd5b505050506040513d6020811015612ecf57600080fd5b505191505090565b6000805460ff16612f4957604080517f08c379a000000000000000000000000000000000000000000000000000000000815260206004820152600a60248201527f72652d656e746572656400000000000000000000000000000000000000000000604482015290519081900360640190fd5b600080547fffffffffffffffffffffffffffffffffffffffffffffffffffffffffffffff00168155612f79611aab565b90508015612f975761153f816010811115612f9057fe5b604e612fd4565b612fa0836143e4565b50915050600080547fffffffffffffffffffffffffffffffffffffffffffffffffffffffffffffff00166001179055919050565b60007f45b96fe442630264581b197e84bbada861235052c5a1aadfff9ea4e40a969aa083601081111561300357fe5b83605081111561300f57fe5b604080519283526020830191909152600082820152519081900360600190a182601081111561139f57fe5b60008054819060ff166130ae57604080517f08c379a000000000000000000000000000000000000000000000000000000000815260206004820152600a60248201527f72652d656e746572656400000000000000000000000000000000000000000000604482015290519081900360640190fd5b600080547fffffffffffffffffffffffffffffffffffffffffffffffffffffffffffffff001681556130de611aab565b905080156130fc576127a08160108111156130f557fe5b601e612fd4565b6127b833856144e6565b6003546000908190610100900473ffffffffffffffffffffffffffffffffffffffff16331461313b5761253960016031612fd4565b613143613407565b6009541461315757612539600a6033612fd4565b82613160612e31565b101561317257612539600e6032612fd4565b600c548311156131885761253960026034612fd4565b50600c54828103908111156131e8576040517f08c379a000000000000000000000000000000000000000000000000000000000815260040180806020018281038252602481526020018061629e6024913960400191505060405180910390fd5b600c81905560035461321590610100900473ffffffffffffffffffffffffffffffffffffffff1684614a18565b6003546040805161010090920473ffffffffffffffffffffffffffffffffffffffff16825260208201859052818101839052517f3bad0c59cf2f06e7314077049f48a93578cd16f5ef92329f1dab1420a99c177e916060908290030190a1600061139f565b6000805460ff166132ec57604080517f08c379a000000000000000000000000000000000000000000000000000000000815260206004820152600a60248201527f72652d656e746572656400000000000000000000000000000000000000000000604482015290519081900360640190fd5b600080547fffffffffffffffffffffffffffffffffffffffffffffffffffffffffffffff0016815561331c611aab565b9050801561333a5761153f81601081111561333357fe5b6027612fd4565b61155033600085614b6d565b73ffffffffffffffffffffffffffffffffffffffff811660009081526010602052604081208054829182918291829161338a57506000945084935061340292505050565b61339a8160000154600a546150d3565b909450925060008460038111156133ad57fe5b146133c2575091935060009250613402915050565b6133d0838260010154615112565b909450915060008460038111156133e357fe5b146133f8575091935060009250613402915050565b5060009450925050505b915091565b4390565b6003546000908190610100900473ffffffffffffffffffffffffffffffffffffffff1633146134405761253960016042612fd4565b613448613407565b6009541461345c57612539600a6041612fd4565b600660009054906101000a900473ffffffffffffffffffffffffffffffffffffffff1690508273ffffffffffffffffffffffffffffffffffffffff16632191f92a6040518163ffffffff1660e01b815260040160206040518083038186803b1580156134c757600080fd5b505afa1580156134db573d6000803e3d6000fd5b505050506040513d60208110156134f157600080fd5b505161355e57604080517f08c379a000000000000000000000000000000000000000000000000000000000815260206004820152601c60248201527f6d61726b6572206d6574686f642072657475726e65642066616c736500000000604482015290519081900360640190fd5b600680547fffffffffffffffffffffffff00000000000000000000000000000000000000001673ffffffffffffffffffffffffffffffffffffffff858116918217909255604080519284168352602083019190915280517fedffc32e068c7c95dfd4bdfd5c4d939a084d6b11c4199eac8436ed234d72f9269281900390910190a1600061139f565b6000808383116135fd575060009050818303612e2a565b50600390506000612e2a565b6000613613615f1b565b6000806136248660000151866150d3565b9092509050600082600381111561363757fe5b1461365657506040805160208101909152600081529092509050612e2a565b60408051602081019091529081526000969095509350505050565b60007f45b96fe442630264581b197e84bbada861235052c5a1aadfff9ea4e40a969aa08460108111156136a057fe5b8460508111156136ac57fe5b604080519283526020830191909152818101859052519081900360600190a18360108111156111bd57fe5b6000808383018481106136ef57600092509050612e2a565b506002915060009050612e2a565b600080600061370a615f1b565b6137148787613609565b9092509050600082600381111561372757fe5b146137385750915060009050613751565b61374a613744826143d5565b866136d7565b9350935050505b935093915050565b600554604080517fd02f735100000000000000000000000000000000000000000000000000000000815230600482015273ffffffffffffffffffffffffffffffffffffffff8781166024830152868116604483015285811660648301526084820185905291516000938493169163d02f73519160a480830192602092919082900301818787803b1580156137ec57600080fd5b505af1158015613800573d6000803e3d6000fd5b505050506040513d602081101561381657600080fd5b50519050801561382d5761296b6003601b83613671565b8473ffffffffffffffffffffffffffffffffffffffff168473ffffffffffffffffffffffffffffffffffffffff16141561386d5761296b6006601c612fd4565b73ffffffffffffffffffffffffffffffffffffffff84166000908152600e6020526040812054819081906138a190876135e6565b909350915060008360038111156138b457fe5b146138d7576138cc6009601a856003811115611ced57fe5b9450505050506111bd565b73ffffffffffffffffffffffffffffffffffffffff88166000908152600e602052604090205461390790876136d7565b9093509050600083600381111561391a57fe5b14613932576138cc60096019856003811115611ced57fe5b73ffffffffffffffffffffffffffffffffffffffff8088166000818152600e60209081526040808320879055938c168083529184902085905583518a8152935191937fddf252ad1be2c89b69c2b068fc378daa952ba7f163c4a11628f55a4df523b3ef929081900390910190a3600554604080517f6d35bf9100000000000000000000000000000000000000000000000000000000815230600482015273ffffffffffffffffffffffffffffffffffffffff8c811660248301528b811660448301528a81166064830152608482018a905291519190921691636d35bf919160a480830192600092919082900301818387803b158015613a3057600080fd5b505af1158015613a44573d6000803e3d6000fd5b5060009250613a51915050565b9998505050505050505050565b6000805460ff16613ad057604080517f08c379a000000000000000000000000000000000000000000000000000000000815260206004820152600a60248201527f72652d656e746572656400000000000000000000000000000000000000000000604482015290519081900360640190fd5b600080547fffffffffffffffffffffffffffffffffffffffffffffffffffffffffffffff00168155613b00611aab565b90508015613b1e5761153f816010811115613b1757fe5b6008612fd4565b611550338461513d565b6000805460ff16613b9a57604080517f08c379a000000000000000000000000000000000000000000000000000000000815260206004820152600a60248201527f72652d656e746572656400000000000000000000000000000000000000000000604482015290519081900360640190fd5b600080547fffffffffffffffffffffffffffffffffffffffffffffffffffffffffffffff00168155613bca611aab565b90508015613be15761153f81601081111561333357fe5b61155033846000614b6d565b60008054819060ff16613c6157604080517f08c379a000000000000000000000000000000000000000000000000000000000815260206004820152600a60248201527f72652d656e746572656400000000000000000000000000000000000000000000604482015290519081900360640190fd5b600080547fffffffffffffffffffffffffffffffffffffffffffffffffffffffffffffff00168155613c91611aab565b90508015613cbc57613caf816010811115613ca857fe5b600f612fd4565b925060009150613d609050565b8373ffffffffffffffffffffffffffffffffffffffff1663a6afed956040518163ffffffff1660e01b8152600401602060405180830381600087803b158015613d0457600080fd5b505af1158015613d18573d6000803e3d6000fd5b505050506040513d6020811015613d2e57600080fd5b505190508015613d4e57613caf816010811115613d4757fe5b6010612fd4565b613d5a338787876154a4565b92509250505b600080547fffffffffffffffffffffffffffffffffffffffffffffffffffffffffffffff001660011790559094909350915050565b600354600090610100900473ffffffffffffffffffffffffffffffffffffffff163314613dc85761121260016047612fd4565b613dd0613407565b60095414613de457611212600a6048612fd4565b670de0b6b3a7640000821115613e005761121260026049612fd4565b6008805490839055604080518281526020810185905281517faaa68312e2ea9d50e16af5068410ab56e1a1fd06037b1a35664812c30f821460929181900390910190a1600061139f565b600554604080517f24008a6200000000000000000000000000000000000000000000000000000000815230600482015273ffffffffffffffffffffffffffffffffffffffff86811660248301528581166044830152606482018590529151600093849384939116916324008a629160848082019260209290919082900301818787803b158015613ed957600080fd5b505af1158015613eed573d6000803e3d6000fd5b505050506040513d6020811015613f0357600080fd5b505190508015613f2757613f1a6003603883613671565b9250600091506137519050565b613f2f613407565b60095414613f4357613f1a600a6039612fd4565b613f4b615fac565b73ffffffffffffffffffffffffffffffffffffffff86166000908152601060205260409020600101546060820152613f8286613346565b6080830181905260208301826003811115613f9957fe5b6003811115613fa457fe5b9052506000905081602001516003811115613fbb57fe5b14613fe557613fd76009603783602001516003811115611ced57fe5b935060009250613751915050565b7fffffffffffffffffffffffffffffffffffffffffffffffffffffffffffffffff85141561401c5760808101516040820152614024565b604081018590525b614032878260400151615b9c565b60e082018190526080820151614047916135e6565b60a083018190526020830182600381111561405e57fe5b600381111561406957fe5b905250600090508160200151600381111561408057fe5b146140d6576040517f08c379a000000000000000000000000000000000000000000000000000000000815260040180806020018281038252603a81526020018061616f603a913960400191505060405180910390fd5b6140e6600b548260e001516135e6565b60c08301819052602083018260038111156140fd57fe5b600381111561410857fe5b905250600090508160200151600381111561411f57fe5b14614175576040517f08c379a00000000000000000000000000000000000000000000000000000000081526004018080602001828103825260318152602001806161a96031913960400191505060405180910390fd5b60a0808201805173ffffffffffffffffffffffffffffffffffffffff808a16600081815260106020908152604091829020948555600a5460019095019490945560c0870151600b81905560e088015195518251948f16855294840192909252828101949094526060820192909252608081019190915290517f1a2a22cb034d26d1854bdc6666a5b91fe25efbbb5dcad3b0355478d6f5c362a1929181900390910190a160055460e08201516060830151604080517f1ededc9100000000000000000000000000000000000000000000000000000000815230600482015273ffffffffffffffffffffffffffffffffffffffff8c811660248301528b8116604483015260648201949094526084810192909252519190921691631ededc919160a480830192600092919082900301818387803b1580156142b357600080fd5b505af11580156142c7573d6000803e3d6000fd5b50600092506142d4915050565b8160e00151935093505050935093915050565b6000806000806142f787876136d7565b9092509050600082600381111561430a57fe5b1461431b5750915060009050613751565b61374a81866135e6565b600061432f615f1b565b60008061434486670de0b6b3a76400006150d3565b9092509050600082600381111561435757fe5b1461437657506040805160208101909152600081529092509050612e2a565b6000806143838388615112565b9092509050600082600381111561439657fe5b146143b857506040805160208101909152600081529094509250612e2a915050565b604080516020810190915290815260009890975095505050505050565b51670de0b6b3a7640000900490565b6000806000806143f2613407565b6009541461441157614406600a604f612fd4565b935091506134029050565b61441b3386615b9c565b905080600c54019150600c5482101561449557604080517f08c379a000000000000000000000000000000000000000000000000000000000815260206004820181905260248201527f61646420726573657276657320756e6578706563746564206f766572666c6f77604482015290519081900360640190fd5b600c829055604080513381526020810183905280820184905290517fa91e67c5ea634cd43a12c5a482724b03de01e85ca68702a53d0c2f45cb7c1dc59181900360600190a160009350915050915091565b600554604080517f4ef4c3e100000000000000000000000000000000000000000000000000000000815230600482015273ffffffffffffffffffffffffffffffffffffffff858116602483015260448201859052915160009384938493911691634ef4c3e19160648082019260209290919082900301818787803b15801561456d57600080fd5b505af1158015614581573d6000803e3d6000fd5b505050506040513d602081101561459757600080fd5b5051905080156145bb576145ae6003601f83613671565b925060009150612e2a9050565b6145c3613407565b600954146145d7576145ae600a6022612fd4565b6145df615ff2565b6145e76127f0565b60408301819052602083018260038111156145fe57fe5b600381111561460957fe5b905250600090508160200151600381111561462057fe5b1461464a5761463c6009602183602001516003811115611ced57fe5b935060009250612e2a915050565b6146548686615b9c565b60c08201819052604080516020810182529083015181526146759190615eaa565b606083018190526020830182600381111561468c57fe5b600381111561469757fe5b90525060009050816020015160038111156146ae57fe5b1461471a57604080517f08c379a000000000000000000000000000000000000000000000000000000000815260206004820181905260248201527f4d494e545f45584348414e47455f43414c43554c4154494f4e5f4641494c4544604482015290519081900360640190fd5b61472a600d5482606001516136d7565b608083018190526020830182600381111561474157fe5b600381111561474c57fe5b905250600090508160200151600381111561476357fe5b146147b9576040517f08c379a00000000000000000000000000000000000000000000000000000000081526004018080602001828103825260288152602001806162426028913960400191505060405180910390fd5b73ffffffffffffffffffffffffffffffffffffffff86166000908152600e602052604090205460608201516147ee91906136d7565b60a083018190526020830182600381111561480557fe5b600381111561481057fe5b905250600090508160200151600381111561482757fe5b1461487d576040517f08c379a000000000000000000000000000000000000000000000000000000000815260040180806020018281038252602b81526020018061610d602b913960400191505060405180910390fd5b6080810151600d5560a081015173ffffffffffffffffffffffffffffffffffffffff87166000818152600e60209081526040918290209390935560c084015160608086015183519485529484019190915282820193909352517f4c209b5fc8ad50758f13e2e1088ba56a560dff690a1c6fef26394f4c03821c4f929181900390910190a16060810151604080519182525173ffffffffffffffffffffffffffffffffffffffff88169130917fddf252ad1be2c89b69c2b068fc378daa952ba7f163c4a11628f55a4df523b3ef9181900360200190a360055460c08201516060830151604080517f41c728b900000000000000000000000000000000000000000000000000000000815230600482015273ffffffffffffffffffffffffffffffffffffffff8b81166024830152604482019490945260648101929092525191909216916341c728b991608480830192600092919082900301818387803b1580156149e557600080fd5b505af11580156149f9573d6000803e3d6000fd5b5060009250614a06915050565b8160c001519350935050509250929050565b601154604080517fa9059cbb00000000000000000000000000000000000000000000000000000000815273ffffffffffffffffffffffffffffffffffffffff85811660048301526024820185905291519190921691829163a9059cbb9160448082019260009290919082900301818387803b158015614a9657600080fd5b505af1158015614aaa573d6000803e3d6000fd5b5050505060003d60008114614ac65760208114614aee57600080fd5b7fffffffffffffffffffffffffffffffffffffffffffffffffffffffffffffffff9150614afa565b60206000803e60005191505b5080614b6757604080517f08c379a000000000000000000000000000000000000000000000000000000000815260206004820152601960248201527f544f4b454e5f5452414e534645525f4f55545f4641494c454400000000000000604482015290519081900360640190fd5b50505050565b6000821580614b7a575081155b614bcf576040517f08c379a000000000000000000000000000000000000000000000000000000000815260040180806020018281038252603481526020018061626a6034913960400191505060405180910390fd5b614bd7615ff2565b614bdf6127f0565b6040830181905260208301826003811115614bf657fe5b6003811115614c0157fe5b9052506000905081602001516003811115614c1857fe5b14614c3c57614c346009602b83602001516003811115611ced57fe5b91505061139f565b8315614cbd576060810184905260408051602081018252908201518152614c639085612ddd565b6080830181905260208301826003811115614c7a57fe5b6003811115614c8557fe5b9052506000905081602001516003811115614c9c57fe5b14614cb857614c346009602983602001516003811115611ced57fe5b614d36565b614cd98360405180602001604052808460400151815250615eaa565b6060830181905260208301826003811115614cf057fe5b6003811115614cfb57fe5b9052506000905081602001516003811115614d1257fe5b14614d2e57614c346009602a83602001516003811115611ced57fe5b608081018390525b6005546060820151604080517feabe7d9100000000000000000000000000000000000000000000000000000000815230600482015273ffffffffffffffffffffffffffffffffffffffff898116602483015260448201939093529051600093929092169163eabe7d919160648082019260209290919082900301818787803b158015614dc157600080fd5b505af1158015614dd5573d6000803e3d6000fd5b505050506040513d6020811015614deb57600080fd5b505190508015614e0b57614e026003602883613671565b9250505061139f565b614e13613407565b60095414614e2757614e02600a602c612fd4565b614e37600d5483606001516135e6565b60a0840181905260208401826003811115614e4e57fe5b6003811115614e5957fe5b9052506000905082602001516003811115614e7057fe5b14614e8c57614e026009602e84602001516003811115611ced57fe5b73ffffffffffffffffffffffffffffffffffffffff86166000908152600e60205260409020546060830151614ec191906135e6565b60c0840181905260208401826003811115614ed857fe5b6003811115614ee357fe5b9052506000905082602001516003811115614efa57fe5b14614f1657614e026009602d84602001516003811115611ced57fe5b8160800151614f23612e31565b1015614f3557614e02600e602f612fd4565b614f43868360800151614a18565b60a0820151600d5560c082015173ffffffffffffffffffffffffffffffffffffffff87166000818152600e60209081526040918290209390935560608501518151908152905130937fddf252ad1be2c89b69c2b068fc378daa952ba7f163c4a11628f55a4df523b3ef928290030190a360808201516060808401516040805173ffffffffffffffffffffffffffffffffffffffff8b168152602081019490945283810191909152517fe5b754fb1abb7f01b499791d0b820ae3b6af3424ac1c59768edb53f4ec31a9299281900390910190a160055460808301516060840151604080517f51dff98900000000000000000000000000000000000000000000000000000000815230600482015273ffffffffffffffffffffffffffffffffffffffff8b81166024830152604482019490945260648101929092525191909216916351dff98991608480830192600092919082900301818387803b1580156150a857600080fd5b505af11580156150bc573d6000803e3d6000fd5b50600092506150c9915050565b9695505050505050565b600080836150e657506000905080612e2a565b838302838582816150f357fe5b041461510757506002915060009050612e2a565b600092509050612e2a565b600080826151265750600190506000612e2a565b600083858161513157fe5b04915091509250929050565b600554604080517fda3d454c00000000000000000000000000000000000000000000000000000000815230600482015273ffffffffffffffffffffffffffffffffffffffff85811660248301526044820185905291516000938493169163da3d454c91606480830192602092919082900301818787803b1580156151c057600080fd5b505af11580156151d4573d6000803e3d6000fd5b505050506040513d60208110156151ea57600080fd5b505190508015615209576152016003600e83613671565b915050610d06565b615211613407565b6009541461522457615201600a80612fd4565b8261522d612e31565b101561523f57615201600e6009612fd4565b615247616030565b61525085613346565b602083018190528282600381111561526457fe5b600381111561526f57fe5b905250600090508151600381111561528357fe5b146152a85761529f6009600783600001516003811115611ced57fe5b92505050610d06565b6152b68160200151856136d7565b60408301819052828260038111156152ca57fe5b60038111156152d557fe5b90525060009050815160038111156152e957fe5b146153055761529f6009600c83600001516003811115611ced57fe5b615311600b54856136d7565b606083018190528282600381111561532557fe5b600381111561533057fe5b905250600090508151600381111561534457fe5b146153605761529f6009600b83600001516003811115611ced57fe5b61536a8585614a18565b6040808201805173ffffffffffffffffffffffffffffffffffffffff881660008181526010602090815290859020928355600a54600190930192909255606080860151600b81905593518551928352928201899052818501929092529081019190915290517f13ed6866d4e1ee6da46f845c46d7e54120883d75c5ea9a2dacc1c4ca8984ab809181900360800190a1600554604080517f5c77860500000000000000000000000000000000000000000000000000000000815230600482015273ffffffffffffffffffffffffffffffffffffffff88811660248301526044820188905291519190921691635c77860591606480830192600092919082900301818387803b15801561547a57600080fd5b505af115801561548e573d6000803e3d6000fd5b506000925061549b915050565b95945050505050565b600554604080517f5fc7e71e00000000000000000000000000000000000000000000000000000000815230600482015273ffffffffffffffffffffffffffffffffffffffff84811660248301528781166044830152868116606483015260848201869052915160009384938493911691635fc7e71e9160a48082019260209290919082900301818787803b15801561553b57600080fd5b505af115801561554f573d6000803e3d6000fd5b505050506040513d602081101561556557600080fd5b5051905080156155895761557c6003601283613671565b925060009150615b939050565b615591613407565b600954146155a55761557c600a6016612fd4565b6155ad613407565b8473ffffffffffffffffffffffffffffffffffffffff16636c540baf6040518163ffffffff1660e01b815260040160206040518083038186803b1580156155f357600080fd5b505afa158015615607573d6000803e3d6000fd5b505050506040513d602081101561561d57600080fd5b5051146156305761557c600a6011612fd4565b8673ffffffffffffffffffffffffffffffffffffffff168673ffffffffffffffffffffffffffffffffffffffff1614156156705761557c60066017612fd4565b846156815761557c60076015612fd4565b7fffffffffffffffffffffffffffffffffffffffffffffffffffffffffffffffff8514156156b55761557c60076014612fd4565b6000806156c3898989613e4a565b909250905081156156f3576156e48260108111156156dd57fe5b6018612fd4565b945060009350615b9392505050565b600554604080517fc488847b00000000000000000000000000000000000000000000000000000000815230600482015273ffffffffffffffffffffffffffffffffffffffff8981166024830152604482018590528251600094859492169263c488847b926064808301939192829003018186803b15801561577357600080fd5b505afa158015615787573d6000803e3d6000fd5b505050506040513d604081101561579d57600080fd5b50805160209091015190925090508115615802576040517f08c379a00000000000000000000000000000000000000000000000000000000081526004018080602001828103825260338152602001806161da6033913960400191505060405180910390fd5b808873ffffffffffffffffffffffffffffffffffffffff166370a082318c6040518263ffffffff1660e01b8152600401808273ffffffffffffffffffffffffffffffffffffffff1673ffffffffffffffffffffffffffffffffffffffff16815260200191505060206040518083038186803b15801561588057600080fd5b505afa158015615894573d6000803e3d6000fd5b505050506040513d60208110156158aa57600080fd5b5051101561591957604080517f08c379a000000000000000000000000000000000000000000000000000000000815260206004820152601860248201527f4c49515549444154455f5345495a455f544f4f5f4d5543480000000000000000604482015290519081900360640190fd5b600073ffffffffffffffffffffffffffffffffffffffff891630141561594c57615945308d8d85613759565b90506159fc565b604080517fb2a02ff100000000000000000000000000000000000000000000000000000000815273ffffffffffffffffffffffffffffffffffffffff8e811660048301528d81166024830152604482018590529151918b169163b2a02ff1916064808201926020929091908290030181600087803b1580156159cd57600080fd5b505af11580156159e1573d6000803e3d6000fd5b505050506040513d60208110156159f757600080fd5b505190505b8015615a6957604080517f08c379a000000000000000000000000000000000000000000000000000000000815260206004820152601460248201527f746f6b656e207365697a757265206661696c6564000000000000000000000000604482015290519081900360640190fd5b6040805173ffffffffffffffffffffffffffffffffffffffff808f168252808e1660208301528183018790528b1660608201526080810184905290517f298637f684da70674f26509b10f07ec2fbc77a335ab1e7d6215a4b2484d8bb529181900360a00190a1600554604080517f47ef3b3b00000000000000000000000000000000000000000000000000000000815230600482015273ffffffffffffffffffffffffffffffffffffffff8c811660248301528f811660448301528e811660648301526084820188905260a48201869052915191909216916347ef3b3b9160c480830192600092919082900301818387803b158015615b6757600080fd5b505af1158015615b7b573d6000803e3d6000fd5b5060009250615b88915050565b975092955050505050505b94509492505050565b601154604080517f70a08231000000000000000000000000000000000000000000000000000000008152306004820152905160009273ffffffffffffffffffffffffffffffffffffffff1691839183916370a08231916024808301926020929190829003018186803b158015615c1157600080fd5b505afa158015615c25573d6000803e3d6000fd5b505050506040513d6020811015615c3b57600080fd5b5051604080517f23b872dd00000000000000000000000000000000000000000000000000000000815273ffffffffffffffffffffffffffffffffffffffff8881166004830152306024830152604482018890529151929350908416916323b872dd9160648082019260009290919082900301818387803b158015615cbe57600080fd5b505af1158015615cd2573d6000803e3d6000fd5b5050505060003d60008114615cee5760208114615d1657600080fd5b7fffffffffffffffffffffffffffffffffffffffffffffffffffffffffffffffff9150615d22565b60206000803e60005191505b5080615d8f57604080517f08c379a000000000000000000000000000000000000000000000000000000000815260206004820152601860248201527f544f4b454e5f5452414e534645525f494e5f4641494c45440000000000000000604482015290519081900360640190fd5b601154604080517f70a08231000000000000000000000000000000000000000000000000000000008152306004820152905160009273ffffffffffffffffffffffffffffffffffffffff16916370a08231916024808301926020929190829003018186803b158015615e0057600080fd5b505afa158015615e14573d6000803e3d6000fd5b505050506040513d6020811015615e2a57600080fd5b5051905082811015615e9d57604080517f08c379a000000000000000000000000000000000000000000000000000000000815260206004820152601a60248201527f544f4b454e5f5452414e534645525f494e5f4f564552464c4f57000000000000604482015290519081900360640190fd5b9190910395945050505050565b6000806000615eb7615f1b565b612df486866000615ec6615f1b565b600080615edb670de0b6b3a7640000876150d3565b90925090506000826003811115615eee57fe5b14615f0d57506040805160208101909152600081529092509050612e2a565b612e23818660000151614325565b6040518060200160405280600081525090565b828054600181600116156101000203166002900490600052602060002090601f016020900481019282601f10615f6f57805160ff1916838001178555615f9c565b82800160010185558215615f9c579182015b82811115615f9c578251825591602001919060010190615f81565b50615fa8929150616059565b5090565b6040805161010081019091528060008152602001600081526020016000815260200160008152602001600081526020016000815260200160008152602001600081525090565b6040805160e0810190915280600081526020016000815260200160008152602001600081526020016000815260200160008152602001600081525090565b604080516080810190915280600081526020016000815260200160008152602001600081525090565b610ef291905b80821115615fa8576000815560010161605f56fe6f6e6c792061646d696e206d617920696e697469616c697a6520746865206d61726b65746d61726b6574206d6179206f6e6c7920626520696e697469616c697a6564206f6e6365696e697469616c2065786368616e67652072617465206d7573742062652067726561746572207468616e207a65726f2e73657474696e6720696e7465726573742072617465206d6f64656c206661696c65644d494e545f4e45575f4143434f554e545f42414c414e43455f43414c43554c4154494f4e5f4641494c4544626f72726f7742616c616e636553746f7265643a20626f72726f7742616c616e636553746f726564496e7465726e616c206661696c656452455041595f424f52524f575f4e45575f4143434f554e545f424f52524f575f42414c414e43455f43414c43554c4154494f4e5f4641494c454452455041595f424f52524f575f4e45575f544f54414c5f42414c414e43455f43414c43554c4154494f4e5f4641494c45444c49515549444154455f434f4d5054524f4c4c45525f43414c43554c4154455f414d4f554e545f5345495a455f4641494c454465786368616e67655261746553746f7265643a2065786368616e67655261746553746f726564496e7465726e616c206661696c65644d494e545f4e45575f544f54414c5f535550504c595f43414c43554c4154494f4e5f4641494c45446f6e65206f662072656465656d546f6b656e73496e206f722072656465656d416d6f756e74496e206d757374206265207a65726f72656475636520726573657276657320756e657870656374656420756e646572666c6f77a265627a7a72315820ce72e34e52935fae8b906fdef2e68012b9dd586326cabcb4dacbda5b4ca4705464736f6c634300051000326f6e6c792061646d696e206d617920696e697469616c697a6520746865206d61726b65746d61726b6574206d6179206f6e6c7920626520696e697469616c697a6564206f6e6365696e697469616c2065786368616e67652072617465206d7573742062652067726561746572207468616e207a65726f2e73657474696e6720696e7465726573742072617465206d6f64656c206661696c6564",
  "source": "pragma solidity ^0.5.16;\n\nimport \"./CErc20.sol\";\n\n/**\n * @title Compound's CErc20Immutable Contract\n * @notice CTokens which wrap an EIP-20 underlying and are immutable\n * @author Compound\n */\ncontract CErc20Immutable is CErc20 {\n    /**\n     * @notice Construct a new money market\n     * @param underlying_ The address of the underlying asset\n     * @param comptroller_ The address of the Comptroller\n     * @param interestRateModel_ The address of the interest rate model\n     * @param initialExchangeRateMantissa_ The initial exchange rate, scaled by 1e18\n     * @param name_ ERC-20 name of this token\n     * @param symbol_ ERC-20 symbol of this token\n     * @param decimals_ ERC-20 decimal precision of this token\n     * @param admin_ Address of the administrator of this token\n     */\n    constructor(address underlying_,\n                ComptrollerInterface comptroller_,\n                InterestRateModel interestRateModel_,\n                uint initialExchangeRateMantissa_,\n                string memory name_,\n                string memory symbol_,\n                uint8 decimals_,\n                address payable admin_) public {\n        // Creator of the contract is admin during initialization\n        admin = msg.sender;\n\n        // Initialize the market\n        initialize(underlying_, comptroller_, interestRateModel_, initialExchangeRateMantissa_, name_, symbol_, decimals_);\n\n        // Set the proper admin now that initialization is done\n        admin = admin_;\n    }\n}\n",
  "sourcePath": "/mnt/c/repo/omnivault-contracts/contracts/CErc20Immutable.sol",
  "compiler": {
    "name": "solc",
    "version": "0.5.16+commit.9c3226ce.Linux.g++"
  },
  "schemaVersion": "3.3.3",
  "updatedAt": "2021-09-24T02:41:56.729Z",
  "devdoc": {
    "author": "Compound",
    "methods": {
      "_acceptAdmin()": {
        "details": "Admin function for pending admin to accept role and update admin",
        "return": "uint 0=success, otherwise a failure (see ErrorReporter.sol for details)"
      },
      "_addReserves(uint256)": {
        "params": {
          "addAmount": "The amount fo underlying token to add as reserves"
        },
        "return": "uint 0=success, otherwise a failure (see ErrorReporter.sol for details)"
      },
      "_reduceReserves(uint256)": {
        "params": {
          "reduceAmount": "Amount of reduction to reserves"
        },
        "return": "uint 0=success, otherwise a failure (see ErrorReporter.sol for details)"
      },
      "_setComptroller(address)": {
        "details": "Admin function to set a new comptroller",
        "return": "uint 0=success, otherwise a failure (see ErrorReporter.sol for details)"
      },
      "_setInterestRateModel(address)": {
        "details": "Admin function to accrue interest and update the interest rate model",
        "params": {
          "newInterestRateModel": "the new interest rate model to use"
        },
        "return": "uint 0=success, otherwise a failure (see ErrorReporter.sol for details)"
      },
      "_setPendingAdmin(address)": {
        "details": "Admin function to begin change of admin. The newPendingAdmin must call `_acceptAdmin` to finalize the transfer.",
        "params": {
          "newPendingAdmin": "New pending admin."
        },
        "return": "uint 0=success, otherwise a failure (see ErrorReporter.sol for details)"
      },
      "_setReserveFactor(uint256)": {
        "details": "Admin function to accrue interest and set a new reserve factor",
        "return": "uint 0=success, otherwise a failure (see ErrorReporter.sol for details)"
      },
      "accrueInterest()": {
        "details": "This calculates interest accrued from the last checkpointed block  up to the current block and writes new checkpoint to storage."
      },
      "allowance(address,address)": {
        "params": {
          "owner": "The address of the account which owns the tokens to be spent",
          "spender": "The address of the account which may transfer tokens"
        },
        "return": "The number of tokens allowed to be spent (-1 means infinite)"
      },
      "approve(address,uint256)": {
        "details": "This will overwrite the approval amount for `spender` and is subject to issues noted [here](https://eips.ethereum.org/EIPS/eip-20#approve)",
        "params": {
          "amount": "The number of tokens that are approved (-1 means infinite)",
          "spender": "The address of the account which may transfer tokens"
        },
        "return": "Whether or not the approval succeeded"
      },
      "balanceOf(address)": {
        "params": {
          "owner": "The address of the account to query"
        },
        "return": "The number of tokens owned by `owner`"
      },
      "balanceOfUnderlying(address)": {
        "details": "This also accrues interest in a transaction",
        "params": {
          "owner": "The address of the account to query"
        },
        "return": "The amount of underlying owned by `owner`"
      },
      "borrow(uint256)": {
        "params": {
          "borrowAmount": "The amount of the underlying asset to borrow"
        },
        "return": "uint 0=success, otherwise a failure (see ErrorReporter.sol for details)"
      },
      "borrowBalanceCurrent(address)": {
        "params": {
          "account": "The address whose balance should be calculated after updating borrowIndex"
        },
        "return": "The calculated balance"
      },
      "borrowBalanceStored(address)": {
        "params": {
          "account": "The address whose balance should be calculated"
        },
        "return": "The calculated balance"
      },
      "borrowRatePerBlock()": {
        "return": "The borrow interest rate per block, scaled by 1e18"
      },
      "constructor": {
        "params": {
          "admin_": "Address of the administrator of this token",
          "comptroller_": "The address of the Comptroller",
          "decimals_": "ERC-20 decimal precision of this token",
          "initialExchangeRateMantissa_": "The initial exchange rate, scaled by 1e18",
          "interestRateModel_": "The address of the interest rate model",
          "name_": "ERC-20 name of this token",
          "symbol_": "ERC-20 symbol of this token",
          "underlying_": "The address of the underlying asset"
        }
      },
      "exchangeRateCurrent()": {
        "return": "Calculated exchange rate scaled by 1e18"
      },
      "exchangeRateStored()": {
        "details": "This function does not accrue interest before calculating the exchange rate",
        "return": "Calculated exchange rate scaled by 1e18"
      },
      "getAccountSnapshot(address)": {
        "details": "This is used by comptroller to more efficiently perform liquidity checks.",
        "params": {
          "account": "Address of the account to snapshot"
        },
        "return": "(possible error, token balance, borrow balance, exchange rate mantissa)"
      },
      "getCash()": {
        "return": "The quantity of underlying asset owned by this contract"
      },
      "initialize(address,address,address,uint256,string,string,uint8)": {
        "params": {
          "comptroller_": "The address of the Comptroller",
          "decimals_": "ERC-20 decimal precision of this token",
          "initialExchangeRateMantissa_": "The initial exchange rate, scaled by 1e18",
          "interestRateModel_": "The address of the interest rate model",
          "name_": "ERC-20 name of this token",
          "symbol_": "ERC-20 symbol of this token",
          "underlying_": "The address of the underlying asset"
        }
      },
      "initialize(address,address,uint256,string,string,uint8)": {
        "params": {
          "comptroller_": "The address of the Comptroller",
          "decimals_": "EIP-20 decimal precision of this token",
          "initialExchangeRateMantissa_": "The initial exchange rate, scaled by 1e18",
          "interestRateModel_": "The address of the interest rate model",
          "name_": "EIP-20 name of this token",
          "symbol_": "EIP-20 symbol of this token"
        }
      },
      "liquidateBorrow(address,uint256,address)": {
        "params": {
          "borrower": "The borrower of this cToken to be liquidated",
          "cTokenCollateral": "The market in which to seize collateral from the borrower",
          "repayAmount": "The amount of the underlying borrowed asset to repay"
        },
        "return": "uint 0=success, otherwise a failure (see ErrorReporter.sol for details)"
      },
      "mint(uint256)": {
        "details": "Accrues interest whether or not the operation succeeds, unless reverted",
        "params": {
          "mintAmount": "The amount of the underlying asset to supply"
        },
        "return": "uint 0=success, otherwise a failure (see ErrorReporter.sol for details)"
      },
      "mintMax()": {
        "details": "Accrues interest whether or not the operation succeeds, unless reverted",
        "return": "uint 0=success, otherwise a failure (see ErrorReporter.sol for details)"
      },
      "redeem(uint256)": {
        "details": "Accrues interest whether or not the operation succeeds, unless reverted",
        "params": {
          "redeemTokens": "The number of cTokens to redeem into underlying"
        },
        "return": "uint 0=success, otherwise a failure (see ErrorReporter.sol for details)"
      },
      "redeemUnderlying(uint256)": {
        "details": "Accrues interest whether or not the operation succeeds, unless reverted",
        "params": {
          "redeemAmount": "The amount of underlying to redeem"
        },
        "return": "uint 0=success, otherwise a failure (see ErrorReporter.sol for details)"
      },
      "repayBorrow(uint256)": {
        "params": {
          "repayAmount": "The amount to repay"
        },
        "return": "uint 0=success, otherwise a failure (see ErrorReporter.sol for details)"
      },
      "repayBorrowBehalf(address,uint256)": {
        "params": {
          "borrower": "the account with the debt being payed off",
          "repayAmount": "The amount to repay"
        },
        "return": "uint 0=success, otherwise a failure (see ErrorReporter.sol for details)"
      },
      "seize(address,address,uint256)": {
        "details": "Will fail unless called by another cToken during the process of liquidation. Its absolutely critical to use msg.sender as the borrowed cToken and not a parameter.",
        "params": {
          "borrower": "The account having collateral seized",
          "liquidator": "The account receiving seized collateral",
          "seizeTokens": "The number of cTokens to seize"
        },
        "return": "uint 0=success, otherwise a failure (see ErrorReporter.sol for details)"
      },
      "supplyRatePerBlock()": {
        "return": "The supply interest rate per block, scaled by 1e18"
      },
      "totalBorrowsCurrent()": {
        "return": "The total borrows with interest"
      },
      "transfer(address,uint256)": {
        "params": {
          "amount": "The number of tokens to transfer",
          "dst": "The address of the destination account"
        },
        "return": "Whether or not the transfer succeeded"
      },
      "transferFrom(address,address,uint256)": {
        "params": {
          "amount": "The number of tokens to transfer",
          "dst": "The address of the destination account",
          "src": "The address of the source account"
        },
        "return": "Whether or not the transfer succeeded"
      }
    },
    "title": "Compound's CErc20Immutable Contract"
  },
  "userdoc": {
    "methods": {
      "_acceptAdmin()": {
        "notice": "Accepts transfer of admin rights. msg.sender must be pendingAdmin"
      },
      "_addReserves(uint256)": {
        "notice": "The sender adds to reserves."
      },
      "_reduceReserves(uint256)": {
        "notice": "Accrues interest and reduces reserves by transferring to admin"
      },
      "_setComptroller(address)": {
        "notice": "Sets a new comptroller for the market"
      },
      "_setInterestRateModel(address)": {
        "notice": "accrues interest and updates the interest rate model using _setInterestRateModelFresh"
      },
      "_setPendingAdmin(address)": {
        "notice": "Begins transfer of admin rights. The newPendingAdmin must call `_acceptAdmin` to finalize the transfer."
      },
      "_setReserveFactor(uint256)": {
        "notice": "accrues interest and sets a new reserve factor for the protocol using _setReserveFactorFresh"
      },
      "accrueInterest()": {
        "notice": "Applies accrued interest to total borrows and reserves"
      },
      "allowance(address,address)": {
        "notice": "Get the current allowance from `owner` for `spender`"
      },
      "approve(address,uint256)": {
        "notice": "Approve `spender` to transfer up to `amount` from `src`"
      },
      "balanceOf(address)": {
        "notice": "Get the token balance of the `owner`"
      },
      "balanceOfUnderlying(address)": {
        "notice": "Get the underlying balance of the `owner`"
      },
      "borrow(uint256)": {
        "notice": "Sender borrows assets from the protocol to their own address"
      },
      "borrowBalanceCurrent(address)": {
        "notice": "Accrue interest to updated borrowIndex and then calculate account's borrow balance using the updated borrowIndex"
      },
      "borrowBalanceStored(address)": {
        "notice": "Return the borrow balance of account based on stored data"
      },
      "borrowRatePerBlock()": {
        "notice": "Returns the current per-block borrow interest rate for this cToken"
      },
      "constructor": "Construct a new money market",
      "exchangeRateCurrent()": {
        "notice": "Accrue interest then return the up-to-date exchange rate"
      },
      "exchangeRateStored()": {
        "notice": "Calculates the exchange rate from the underlying to the CToken"
      },
      "getAccountSnapshot(address)": {
        "notice": "Get a snapshot of the account's balances, and the cached exchange rate"
      },
      "getCash()": {
        "notice": "Get cash balance of this cToken in the underlying asset"
      },
      "initialize(address,address,address,uint256,string,string,uint8)": {
        "notice": "Initialize the new money market"
      },
      "initialize(address,address,uint256,string,string,uint8)": {
        "notice": "Initialize the money market"
      },
      "liquidateBorrow(address,uint256,address)": {
        "notice": "The sender liquidates the borrowers collateral. The collateral seized is transferred to the liquidator."
      },
      "mint(uint256)": {
        "notice": "Sender supplies assets into the market and receives cTokens in exchange"
      },
      "mintMax()": {
        "notice": "Sender supplies Max assets into the market and receives cTokens in exchange"
      },
      "redeem(uint256)": {
        "notice": "Sender redeems cTokens in exchange for the underlying asset"
      },
      "redeemUnderlying(uint256)": {
        "notice": "Sender redeems cTokens in exchange for a specified amount of underlying asset"
      },
      "repayBorrow(uint256)": {
        "notice": "Sender repays their own borrow"
      },
      "repayBorrowBehalf(address,uint256)": {
        "notice": "Sender repays a borrow belonging to borrower"
      },
      "seize(address,address,uint256)": {
        "notice": "Transfers collateral tokens (this market) to the liquidator."
      },
      "supplyRatePerBlock()": {
        "notice": "Returns the current per-block supply interest rate for this cToken"
      },
      "totalBorrowsCurrent()": {
        "notice": "Returns the current total borrows plus accrued interest"
      },
      "transfer(address,uint256)": {
        "notice": "Transfer `amount` tokens from `msg.sender` to `dst`"
      },
      "transferFrom(address,address,uint256)": {
        "notice": "Transfer `amount` tokens from `src` to `dst`"
      }
    },
    "notice": "CTokens which wrap an EIP-20 underlying and are immutable"
  }
}