{
  "contractName": "CEther",
  "abi": [
    {
      "inputs": [
        {
          "internalType": "contract ComptrollerInterface",
          "name": "comptroller_",
          "type": "address"
        },
        {
          "internalType": "contract InterestRateModel",
          "name": "interestRateModel_",
          "type": "address"
        },
        {
          "internalType": "uint256",
          "name": "initialExchangeRateMantissa_",
          "type": "uint256"
        },
        {
          "internalType": "string",
          "name": "name_",
          "type": "string"
        },
        {
          "internalType": "string",
          "name": "symbol_",
          "type": "string"
        },
        {
          "internalType": "uint8",
          "name": "decimals_",
          "type": "uint8"
        },
        {
          "internalType": "address payable",
          "name": "admin_",
          "type": "address"
        }
      ],
      "payable": false,
      "stateMutability": "nonpayable",
      "type": "constructor"
    },
    {
      "anonymous": false,
      "inputs": [
        {
          "indexed": false,
          "internalType": "uint256",
          "name": "cashPrior",
          "type": "uint256"
        },
        {
          "indexed": false,
          "internalType": "uint256",
          "name": "interestAccumulated",
          "type": "uint256"
        },
        {
          "indexed": false,
          "internalType": "uint256",
          "name": "borrowIndex",
          "type": "uint256"
        },
        {
          "indexed": false,
          "internalType": "uint256",
          "name": "totalBorrows",
          "type": "uint256"
        }
      ],
      "name": "AccrueInterest",
      "type": "event"
    },
    {
      "anonymous": false,
      "inputs": [
        {
          "indexed": true,
          "internalType": "address",
          "name": "owner",
          "type": "address"
        },
        {
          "indexed": true,
          "internalType": "address",
          "name": "spender",
          "type": "address"
        },
        {
          "indexed": false,
          "internalType": "uint256",
          "name": "amount",
          "type": "uint256"
        }
      ],
      "name": "Approval",
      "type": "event"
    },
    {
      "anonymous": false,
      "inputs": [
        {
          "indexed": false,
          "internalType": "address",
          "name": "borrower",
          "type": "address"
        },
        {
          "indexed": false,
          "internalType": "uint256",
          "name": "borrowAmount",
          "type": "uint256"
        },
        {
          "indexed": false,
          "internalType": "uint256",
          "name": "accountBorrows",
          "type": "uint256"
        },
        {
          "indexed": false,
          "internalType": "uint256",
          "name": "totalBorrows",
          "type": "uint256"
        }
      ],
      "name": "Borrow",
      "type": "event"
    },
    {
      "anonymous": false,
      "inputs": [
        {
          "indexed": false,
          "internalType": "uint256",
          "name": "error",
          "type": "uint256"
        },
        {
          "indexed": false,
          "internalType": "uint256",
          "name": "info",
          "type": "uint256"
        },
        {
          "indexed": false,
          "internalType": "uint256",
          "name": "detail",
          "type": "uint256"
        }
      ],
      "name": "Failure",
      "type": "event"
    },
    {
      "anonymous": false,
      "inputs": [
        {
          "indexed": false,
          "internalType": "address",
          "name": "liquidator",
          "type": "address"
        },
        {
          "indexed": false,
          "internalType": "address",
          "name": "borrower",
          "type": "address"
        },
        {
          "indexed": false,
          "internalType": "uint256",
          "name": "repayAmount",
          "type": "uint256"
        },
        {
          "indexed": false,
          "internalType": "address",
          "name": "cTokenCollateral",
          "type": "address"
        },
        {
          "indexed": false,
          "internalType": "uint256",
          "name": "seizeTokens",
          "type": "uint256"
        }
      ],
      "name": "LiquidateBorrow",
      "type": "event"
    },
    {
      "anonymous": false,
      "inputs": [
        {
          "indexed": false,
          "internalType": "address",
          "name": "minter",
          "type": "address"
        },
        {
          "indexed": false,
          "internalType": "uint256",
          "name": "mintAmount",
          "type": "uint256"
        },
        {
          "indexed": false,
          "internalType": "uint256",
          "name": "mintTokens",
          "type": "uint256"
        }
      ],
      "name": "Mint",
      "type": "event"
    },
    {
      "anonymous": false,
      "inputs": [
        {
          "indexed": false,
          "internalType": "address",
          "name": "oldAdmin",
          "type": "address"
        },
        {
          "indexed": false,
          "internalType": "address",
          "name": "newAdmin",
          "type": "address"
        }
      ],
      "name": "NewAdmin",
      "type": "event"
    },
    {
      "anonymous": false,
      "inputs": [
        {
          "indexed": false,
          "internalType": "contract ComptrollerInterface",
          "name": "oldComptroller",
          "type": "address"
        },
        {
          "indexed": false,
          "internalType": "contract ComptrollerInterface",
          "name": "newComptroller",
          "type": "address"
        }
      ],
      "name": "NewComptroller",
      "type": "event"
    },
    {
      "anonymous": false,
      "inputs": [
        {
          "indexed": false,
          "internalType": "contract InterestRateModel",
          "name": "oldInterestRateModel",
          "type": "address"
        },
        {
          "indexed": false,
          "internalType": "contract InterestRateModel",
          "name": "newInterestRateModel",
          "type": "address"
        }
      ],
      "name": "NewMarketInterestRateModel",
      "type": "event"
    },
    {
      "anonymous": false,
      "inputs": [
        {
          "indexed": false,
          "internalType": "address",
          "name": "oldPendingAdmin",
          "type": "address"
        },
        {
          "indexed": false,
          "internalType": "address",
          "name": "newPendingAdmin",
          "type": "address"
        }
      ],
      "name": "NewPendingAdmin",
      "type": "event"
    },
    {
      "anonymous": false,
      "inputs": [
        {
          "indexed": false,
          "internalType": "uint256",
          "name": "oldReserveFactorMantissa",
          "type": "uint256"
        },
        {
          "indexed": false,
          "internalType": "uint256",
          "name": "newReserveFactorMantissa",
          "type": "uint256"
        }
      ],
      "name": "NewReserveFactor",
      "type": "event"
    },
    {
      "anonymous": false,
      "inputs": [
        {
          "indexed": false,
          "internalType": "address",
          "name": "redeemer",
          "type": "address"
        },
        {
          "indexed": false,
          "internalType": "uint256",
          "name": "redeemAmount",
          "type": "uint256"
        },
        {
          "indexed": false,
          "internalType": "uint256",
          "name": "redeemTokens",
          "type": "uint256"
        }
      ],
      "name": "Redeem",
      "type": "event"
    },
    {
      "anonymous": false,
      "inputs": [
        {
          "indexed": false,
          "internalType": "address",
          "name": "payer",
          "type": "address"
        },
        {
          "indexed": false,
          "internalType": "address",
          "name": "borrower",
          "type": "address"
        },
        {
          "indexed": false,
          "internalType": "uint256",
          "name": "repayAmount",
          "type": "uint256"
        },
        {
          "indexed": false,
          "internalType": "uint256",
          "name": "accountBorrows",
          "type": "uint256"
        },
        {
          "indexed": false,
          "internalType": "uint256",
          "name": "totalBorrows",
          "type": "uint256"
        }
      ],
      "name": "RepayBorrow",
      "type": "event"
    },
    {
      "anonymous": false,
      "inputs": [
        {
          "indexed": false,
          "internalType": "address",
          "name": "benefactor",
          "type": "address"
        },
        {
          "indexed": false,
          "internalType": "uint256",
          "name": "addAmount",
          "type": "uint256"
        },
        {
          "indexed": false,
          "internalType": "uint256",
          "name": "newTotalReserves",
          "type": "uint256"
        }
      ],
      "name": "ReservesAdded",
      "type": "event"
    },
    {
      "anonymous": false,
      "inputs": [
        {
          "indexed": false,
          "internalType": "address",
          "name": "admin",
          "type": "address"
        },
        {
          "indexed": false,
          "internalType": "uint256",
          "name": "reduceAmount",
          "type": "uint256"
        },
        {
          "indexed": false,
          "internalType": "uint256",
          "name": "newTotalReserves",
          "type": "uint256"
        }
      ],
      "name": "ReservesReduced",
      "type": "event"
    },
    {
      "anonymous": false,
      "inputs": [
        {
          "indexed": true,
          "internalType": "address",
          "name": "from",
          "type": "address"
        },
        {
          "indexed": true,
          "internalType": "address",
          "name": "to",
          "type": "address"
        },
        {
          "indexed": false,
          "internalType": "uint256",
          "name": "amount",
          "type": "uint256"
        }
      ],
      "name": "Transfer",
      "type": "event"
    },
    {
      "payable": true,
      "stateMutability": "payable",
      "type": "fallback"
    },
    {
      "constant": false,
      "inputs": [],
      "name": "_acceptAdmin",
      "outputs": [
        {
          "internalType": "uint256",
          "name": "",
          "type": "uint256"
        }
      ],
      "payable": false,
      "stateMutability": "nonpayable",
      "type": "function"
    },
    {
      "constant": false,
      "inputs": [
        {
          "internalType": "uint256",
          "name": "reduceAmount",
          "type": "uint256"
        }
      ],
      "name": "_reduceReserves",
      "outputs": [
        {
          "internalType": "uint256",
          "name": "",
          "type": "uint256"
        }
      ],
      "payable": false,
      "stateMutability": "nonpayable",
      "type": "function"
    },
    {
      "constant": false,
      "inputs": [
        {
          "internalType": "contract ComptrollerInterface",
          "name": "newComptroller",
          "type": "address"
        }
      ],
      "name": "_setComptroller",
      "outputs": [
        {
          "internalType": "uint256",
          "name": "",
          "type": "uint256"
        }
      ],
      "payable": false,
      "stateMutability": "nonpayable",
      "type": "function"
    },
    {
      "constant": false,
      "inputs": [
        {
          "internalType": "contract InterestRateModel",
          "name": "newInterestRateModel",
          "type": "address"
        }
      ],
      "name": "_setInterestRateModel",
      "outputs": [
        {
          "internalType": "uint256",
          "name": "",
          "type": "uint256"
        }
      ],
      "payable": false,
      "stateMutability": "nonpayable",
      "type": "function"
    },
    {
      "constant": false,
      "inputs": [
        {
          "internalType": "address payable",
          "name": "newPendingAdmin",
          "type": "address"
        }
      ],
      "name": "_setPendingAdmin",
      "outputs": [
        {
          "internalType": "uint256",
          "name": "",
          "type": "uint256"
        }
      ],
      "payable": false,
      "stateMutability": "nonpayable",
      "type": "function"
    },
    {
      "constant": false,
      "inputs": [
        {
          "internalType": "uint256",
          "name": "newReserveFactorMantissa",
          "type": "uint256"
        }
      ],
      "name": "_setReserveFactor",
      "outputs": [
        {
          "internalType": "uint256",
          "name": "",
          "type": "uint256"
        }
      ],
      "payable": false,
      "stateMutability": "nonpayable",
      "type": "function"
    },
    {
      "constant": true,
      "inputs": [],
      "name": "accrualBlockNumber",
      "outputs": [
        {
          "internalType": "uint256",
          "name": "",
          "type": "uint256"
        }
      ],
      "payable": false,
      "stateMutability": "view",
      "type": "function"
    },
    {
      "constant": false,
      "inputs": [],
      "name": "accrueInterest",
      "outputs": [
        {
          "internalType": "uint256",
          "name": "",
          "type": "uint256"
        }
      ],
      "payable": false,
      "stateMutability": "nonpayable",
      "type": "function"
    },
    {
      "constant": true,
      "inputs": [],
      "name": "admin",
      "outputs": [
        {
          "internalType": "address payable",
          "name": "",
          "type": "address"
        }
      ],
      "payable": false,
      "stateMutability": "view",
      "type": "function"
    },
    {
      "constant": true,
      "inputs": [
        {
          "internalType": "address",
          "name": "owner",
          "type": "address"
        },
        {
          "internalType": "address",
          "name": "spender",
          "type": "address"
        }
      ],
      "name": "allowance",
      "outputs": [
        {
          "internalType": "uint256",
          "name": "",
          "type": "uint256"
        }
      ],
      "payable": false,
      "stateMutability": "view",
      "type": "function"
    },
    {
      "constant": false,
      "inputs": [
        {
          "internalType": "address",
          "name": "spender",
          "type": "address"
        },
        {
          "internalType": "uint256",
          "name": "amount",
          "type": "uint256"
        }
      ],
      "name": "approve",
      "outputs": [
        {
          "internalType": "bool",
          "name": "",
          "type": "bool"
        }
      ],
      "payable": false,
      "stateMutability": "nonpayable",
      "type": "function"
    },
    {
      "constant": true,
      "inputs": [
        {
          "internalType": "address",
          "name": "owner",
          "type": "address"
        }
      ],
      "name": "balanceOf",
      "outputs": [
        {
          "internalType": "uint256",
          "name": "",
          "type": "uint256"
        }
      ],
      "payable": false,
      "stateMutability": "view",
      "type": "function"
    },
    {
      "constant": false,
      "inputs": [
        {
          "internalType": "address",
          "name": "owner",
          "type": "address"
        }
      ],
      "name": "balanceOfUnderlying",
      "outputs": [
        {
          "internalType": "uint256",
          "name": "",
          "type": "uint256"
        }
      ],
      "payable": false,
      "stateMutability": "nonpayable",
      "type": "function"
    },
    {
      "constant": false,
      "inputs": [
        {
          "internalType": "address",
          "name": "account",
          "type": "address"
        }
      ],
      "name": "borrowBalanceCurrent",
      "outputs": [
        {
          "internalType": "uint256",
          "name": "",
          "type": "uint256"
        }
      ],
      "payable": false,
      "stateMutability": "nonpayable",
      "type": "function"
    },
    {
      "constant": true,
      "inputs": [
        {
          "internalType": "address",
          "name": "account",
          "type": "address"
        }
      ],
      "name": "borrowBalanceStored",
      "outputs": [
        {
          "internalType": "uint256",
          "name": "",
          "type": "uint256"
        }
      ],
      "payable": false,
      "stateMutability": "view",
      "type": "function"
    },
    {
      "constant": true,
      "inputs": [],
      "name": "borrowIndex",
      "outputs": [
        {
          "internalType": "uint256",
          "name": "",
          "type": "uint256"
        }
      ],
      "payable": false,
      "stateMutability": "view",
      "type": "function"
    },
    {
      "constant": true,
      "inputs": [],
      "name": "borrowRatePerBlock",
      "outputs": [
        {
          "internalType": "uint256",
          "name": "",
          "type": "uint256"
        }
      ],
      "payable": false,
      "stateMutability": "view",
      "type": "function"
    },
    {
      "constant": true,
      "inputs": [],
      "name": "comptroller",
      "outputs": [
        {
          "internalType": "contract ComptrollerInterface",
          "name": "",
          "type": "address"
        }
      ],
      "payable": false,
      "stateMutability": "view",
      "type": "function"
    },
    {
      "constant": true,
      "inputs": [],
      "name": "decimals",
      "outputs": [
        {
          "internalType": "uint8",
          "name": "",
          "type": "uint8"
        }
      ],
      "payable": false,
      "stateMutability": "view",
      "type": "function"
    },
    {
      "constant": false,
      "inputs": [],
      "name": "exchangeRateCurrent",
      "outputs": [
        {
          "internalType": "uint256",
          "name": "",
          "type": "uint256"
        }
      ],
      "payable": false,
      "stateMutability": "nonpayable",
      "type": "function"
    },
    {
      "constant": true,
      "inputs": [],
      "name": "exchangeRateStored",
      "outputs": [
        {
          "internalType": "uint256",
          "name": "",
          "type": "uint256"
        }
      ],
      "payable": false,
      "stateMutability": "view",
      "type": "function"
    },
    {
      "constant": true,
      "inputs": [
        {
          "internalType": "address",
          "name": "account",
          "type": "address"
        }
      ],
      "name": "getAccountSnapshot",
      "outputs": [
        {
          "internalType": "uint256",
          "name": "",
          "type": "uint256"
        },
        {
          "internalType": "uint256",
          "name": "",
          "type": "uint256"
        },
        {
          "internalType": "uint256",
          "name": "",
          "type": "uint256"
        },
        {
          "internalType": "uint256",
          "name": "",
          "type": "uint256"
        }
      ],
      "payable": false,
      "stateMutability": "view",
      "type": "function"
    },
    {
      "constant": true,
      "inputs": [],
      "name": "getCash",
      "outputs": [
        {
          "internalType": "uint256",
          "name": "",
          "type": "uint256"
        }
      ],
      "payable": false,
      "stateMutability": "view",
      "type": "function"
    },
    {
      "constant": false,
      "inputs": [
        {
          "internalType": "contract ComptrollerInterface",
          "name": "comptroller_",
          "type": "address"
        },
        {
          "internalType": "contract InterestRateModel",
          "name": "interestRateModel_",
          "type": "address"
        },
        {
          "internalType": "uint256",
          "name": "initialExchangeRateMantissa_",
          "type": "uint256"
        },
        {
          "internalType": "string",
          "name": "name_",
          "type": "string"
        },
        {
          "internalType": "string",
          "name": "symbol_",
          "type": "string"
        },
        {
          "internalType": "uint8",
          "name": "decimals_",
          "type": "uint8"
        }
      ],
      "name": "initialize",
      "outputs": [],
      "payable": false,
      "stateMutability": "nonpayable",
      "type": "function"
    },
    {
      "constant": true,
      "inputs": [],
      "name": "interestRateModel",
      "outputs": [
        {
          "internalType": "contract InterestRateModel",
          "name": "",
          "type": "address"
        }
      ],
      "payable": false,
      "stateMutability": "view",
      "type": "function"
    },
    {
      "constant": true,
      "inputs": [],
      "name": "isCToken",
      "outputs": [
        {
          "internalType": "bool",
          "name": "",
          "type": "bool"
        }
      ],
      "payable": false,
      "stateMutability": "view",
      "type": "function"
    },
    {
      "constant": true,
      "inputs": [],
      "name": "name",
      "outputs": [
        {
          "internalType": "string",
          "name": "",
          "type": "string"
        }
      ],
      "payable": false,
      "stateMutability": "view",
      "type": "function"
    },
    {
      "constant": true,
      "inputs": [],
      "name": "pendingAdmin",
      "outputs": [
        {
          "internalType": "address payable",
          "name": "",
          "type": "address"
        }
      ],
      "payable": false,
      "stateMutability": "view",
      "type": "function"
    },
    {
      "constant": true,
      "inputs": [],
      "name": "reserveFactorMantissa",
      "outputs": [
        {
          "internalType": "uint256",
          "name": "",
          "type": "uint256"
        }
      ],
      "payable": false,
      "stateMutability": "view",
      "type": "function"
    },
    {
      "constant": false,
      "inputs": [
        {
          "internalType": "address",
          "name": "liquidator",
          "type": "address"
        },
        {
          "internalType": "address",
          "name": "borrower",
          "type": "address"
        },
        {
          "internalType": "uint256",
          "name": "seizeTokens",
          "type": "uint256"
        }
      ],
      "name": "seize",
      "outputs": [
        {
          "internalType": "uint256",
          "name": "",
          "type": "uint256"
        }
      ],
      "payable": false,
      "stateMutability": "nonpayable",
      "type": "function"
    },
    {
      "constant": true,
      "inputs": [],
      "name": "supplyRatePerBlock",
      "outputs": [
        {
          "internalType": "uint256",
          "name": "",
          "type": "uint256"
        }
      ],
      "payable": false,
      "stateMutability": "view",
      "type": "function"
    },
    {
      "constant": true,
      "inputs": [],
      "name": "symbol",
      "outputs": [
        {
          "internalType": "string",
          "name": "",
          "type": "string"
        }
      ],
      "payable": false,
      "stateMutability": "view",
      "type": "function"
    },
    {
      "constant": true,
      "inputs": [],
      "name": "totalBorrows",
      "outputs": [
        {
          "internalType": "uint256",
          "name": "",
          "type": "uint256"
        }
      ],
      "payable": false,
      "stateMutability": "view",
      "type": "function"
    },
    {
      "constant": false,
      "inputs": [],
      "name": "totalBorrowsCurrent",
      "outputs": [
        {
          "internalType": "uint256",
          "name": "",
          "type": "uint256"
        }
      ],
      "payable": false,
      "stateMutability": "nonpayable",
      "type": "function"
    },
    {
      "constant": true,
      "inputs": [],
      "name": "totalReserves",
      "outputs": [
        {
          "internalType": "uint256",
          "name": "",
          "type": "uint256"
        }
      ],
      "payable": false,
      "stateMutability": "view",
      "type": "function"
    },
    {
      "constant": true,
      "inputs": [],
      "name": "totalSupply",
      "outputs": [
        {
          "internalType": "uint256",
          "name": "",
          "type": "uint256"
        }
      ],
      "payable": false,
      "stateMutability": "view",
      "type": "function"
    },
    {
      "constant": false,
      "inputs": [
        {
          "internalType": "address",
          "name": "dst",
          "type": "address"
        },
        {
          "internalType": "uint256",
          "name": "amount",
          "type": "uint256"
        }
      ],
      "name": "transfer",
      "outputs": [
        {
          "internalType": "bool",
          "name": "",
          "type": "bool"
        }
      ],
      "payable": false,
      "stateMutability": "nonpayable",
      "type": "function"
    },
    {
      "constant": false,
      "inputs": [
        {
          "internalType": "address",
          "name": "src",
          "type": "address"
        },
        {
          "internalType": "address",
          "name": "dst",
          "type": "address"
        },
        {
          "internalType": "uint256",
          "name": "amount",
          "type": "uint256"
        }
      ],
      "name": "transferFrom",
      "outputs": [
        {
          "internalType": "bool",
          "name": "",
          "type": "bool"
        }
      ],
      "payable": false,
      "stateMutability": "nonpayable",
      "type": "function"
    },
    {
      "constant": false,
      "inputs": [],
      "name": "mint",
      "outputs": [],
      "payable": true,
      "stateMutability": "payable",
      "type": "function"
    },
    {
      "constant": false,
      "inputs": [
        {
          "internalType": "uint256",
          "name": "redeemTokens",
          "type": "uint256"
        }
      ],
      "name": "redeem",
      "outputs": [
        {
          "internalType": "uint256",
          "name": "",
          "type": "uint256"
        }
      ],
      "payable": false,
      "stateMutability": "nonpayable",
      "type": "function"
    },
    {
      "constant": false,
      "inputs": [
        {
          "internalType": "uint256",
          "name": "redeemAmount",
          "type": "uint256"
        }
      ],
      "name": "redeemUnderlying",
      "outputs": [
        {
          "internalType": "uint256",
          "name": "",
          "type": "uint256"
        }
      ],
      "payable": false,
      "stateMutability": "nonpayable",
      "type": "function"
    },
    {
      "constant": false,
      "inputs": [
        {
          "internalType": "uint256",
          "name": "borrowAmount",
          "type": "uint256"
        }
      ],
      "name": "borrow",
      "outputs": [
        {
          "internalType": "uint256",
          "name": "",
          "type": "uint256"
        }
      ],
      "payable": false,
      "stateMutability": "nonpayable",
      "type": "function"
    },
    {
      "constant": false,
      "inputs": [],
      "name": "repayBorrow",
      "outputs": [],
      "payable": true,
      "stateMutability": "payable",
      "type": "function"
    },
    {
      "constant": false,
      "inputs": [
        {
          "internalType": "address",
          "name": "borrower",
          "type": "address"
        }
      ],
      "name": "repayBorrowBehalf",
      "outputs": [],
      "payable": true,
      "stateMutability": "payable",
      "type": "function"
    },
    {
      "constant": false,
      "inputs": [
        {
          "internalType": "address",
          "name": "borrower",
          "type": "address"
        },
        {
          "internalType": "contract CToken",
          "name": "cTokenCollateral",
          "type": "address"
        }
      ],
      "name": "liquidateBorrow",
      "outputs": [],
      "payable": true,
      "stateMutability": "payable",
      "type": "function"
    }
  ],
  "bytecode": "0x60806040523480156200001157600080fd5b50604051620059af380380620059af833981810160405260e08110156200003757600080fd5b8151602083015160408085015160608601805192519496939591949391820192846401000000008211156200006b57600080fd5b9083019060208201858111156200008157600080fd5b82516401000000008111828201881017156200009c57600080fd5b82525081516020918201929091019080838360005b83811015620000cb578181015183820152602001620000b1565b50505050905090810190601f168015620000f95780820380516001836020036101000a031916815260200191505b50604052602001805160405193929190846401000000008211156200011d57600080fd5b9083019060208201858111156200013357600080fd5b82516401000000008111828201881017156200014e57600080fd5b82525081516020918201929091019080838360005b838110156200017d57818101518382015260200162000163565b50505050905090810190601f168015620001ab5780820380516001836020036101000a031916815260200191505b506040908152602082015191015160038054610100600160a81b03191633610100021790559092509050620001e587878787878762000218565b600380546001600160a01b0390921661010002610100600160a81b03199092169190911790555062000922945050505050565b60035461010090046001600160a01b0316331462000282576040517f08c379a0000000000000000000000000000000000000000000000000000000008152600401808060200182810382526024815260200180620059166024913960400191505060405180910390fd5b600954158015620002935750600a54155b620002ea576040517f08c379a00000000000000000000000000000000000000000000000000000000081526004018080602001828103825260238152602001806200593a6023913960400191505060405180910390fd5b60078490558362000347576040517f08c379a00000000000000000000000000000000000000000000000000000000081526004018080602001828103825260308152602001806200595d6030913960400191505060405180910390fd5b60006200035d876001600160e01b03620004b016565b90508015620003cd57604080517f08c379a000000000000000000000000000000000000000000000000000000000815260206004820152601a60248201527f73657474696e6720636f6d7074726f6c6c6572206661696c6564000000000000604482015290519081900360640190fd5b620003e06001600160e01b036200064b16565b600955670de0b6b3a7640000600a5562000403866001600160e01b036200065016565b905080156200045e576040517f08c379a00000000000000000000000000000000000000000000000000000000081526004018080602001828103825260228152602001806200598d6022913960400191505060405180910390fd5b83516200047390600190602087019062000880565b5082516200048990600290602086019062000880565b50506003805460ff90921660ff199283161790556000805490911660011790555050505050565b60035460009061010090046001600160a01b03163314620004ea57620004e26001603f6001600160e01b036200081016565b905062000646565b600554604080517e7e3dd200000000000000000000000000000000000000000000000000000000815290516001600160a01b0392831692851691627e3dd2916004808301926020929190829003018186803b1580156200054957600080fd5b505afa1580156200055e573d6000803e3d6000fd5b505050506040513d60208110156200057557600080fd5b5051620005e357604080517f08c379a000000000000000000000000000000000000000000000000000000000815260206004820152601c60248201527f6d61726b6572206d6574686f642072657475726e65642066616c736500000000604482015290519081900360640190fd5b600580546001600160a01b0319166001600160a01b03858116918217909255604080519284168352602083019190915280517f7ac369dbd14fa5ea3f473ed67cc9d598964a77501540ba6751eb0b3decf5870d9281900390910190a160005b9150505b919050565b435b90565b600354600090819061010090046001600160a01b031633146200068d5762000684600160426001600160e01b036200081016565b91505062000646565b620006a06001600160e01b036200064b16565b60095414620006c05762000684600a60416001600160e01b036200081016565b600660009054906101000a90046001600160a01b03169050826001600160a01b0316632191f92a6040518163ffffffff1660e01b815260040160206040518083038186803b1580156200071257600080fd5b505afa15801562000727573d6000803e3d6000fd5b505050506040513d60208110156200073e57600080fd5b5051620007ac57604080517f08c379a000000000000000000000000000000000000000000000000000000000815260206004820152601c60248201527f6d61726b6572206d6574686f642072657475726e65642066616c736500000000604482015290519081900360640190fd5b600680546001600160a01b0319166001600160a01b03858116918217909255604080519284168352602083019190915280517fedffc32e068c7c95dfd4bdfd5c4d939a084d6b11c4199eac8436ed234d72f9269281900390910190a1600062000642565b60007f45b96fe442630264581b197e84bbada861235052c5a1aadfff9ea4e40a969aa08360108111156200084057fe5b8360508111156200084d57fe5b604080519283526020830191909152600082820152519081900360600190a18260108111156200087957fe5b9392505050565b828054600181600116156101000203166002900490600052602060002090601f016020900481019282601f10620008c357805160ff1916838001178555620008f3565b82800160010185558215620008f3579182015b82811115620008f3578251825591602001919060010190620008d6565b506200090192915062000905565b5090565b6200064d91905b808211156200090157600081556001016200090c565b614fe480620009326000396000f3fe6080604052600436106102725760003560e01c806395d89b411161014f578063c37f68e2116100c1578063f2b3abbd1161007a578063f2b3abbd14610a22578063f3fdb15a14610a55578063f851a44014610a6a578063f8f9da2814610a7f578063fca7820b14610a94578063fe9c44ae14610abe57610272565b8063c37f68e2146108ff578063c5ebeaec14610958578063db006a7514610982578063dd62ed3e146109ac578063e5974619146109e7578063e9c714f214610a0d57610272565b8063aa5af0fd11610113578063aa5af0fd1461081c578063aae40a2a14610831578063ae9d70b01461085f578063b2a02ff114610874578063b71d1a0c146108b7578063bd6d894d146108ea57610272565b806395d89b411461062757806395dd91931461063c57806399d8c1b41461066f578063a6afed95146107ce578063a9059cbb146107e357610272565b80633b1d21a2116101e8578063601a0bf1116101ac578063601a0bf1146105615780636c540baf1461058b57806370a08231146105a057806373acee98146105d3578063852a12e3146105e85780638f840ddd1461061257610272565b80633b1d21a2146104e75780634576b5db146104fc57806347bd37181461052f5780634e4d9fea146105445780635fe3b5671461054c57610272565b806318160ddd1161023a57806318160ddd146103eb578063182df0f51461040057806323b872dd146104155780632678224714610458578063313ce567146104895780633af9e669146104b457610272565b806306fdde03146102b0578063095ea7b31461033a5780631249c58b14610387578063173b99041461039157806317bfdfbc146103b8575b600061027d34610ad3565b5090506102ad816040518060400160405280600b81526020016a1b5a5b9d0819985a5b195960aa1b815250610b7b565b50005b3480156102bc57600080fd5b506102c5610d7b565b6040805160208082528351818301528351919283929083019185019080838360005b838110156102ff5781810151838201526020016102e7565b50505050905090810190601f16801561032c5780820380516001836020036101000a031916815260200191505b509250505060405180910390f35b34801561034657600080fd5b506103736004803603604081101561035d57600080fd5b506001600160a01b038135169060200135610e08565b604080519115158252519081900360200190f35b61038f610e75565b005b34801561039d57600080fd5b506103a6610eb3565b60408051918252519081900360200190f35b3480156103c457600080fd5b506103a6600480360360208110156103db57600080fd5b50356001600160a01b0316610eb9565b3480156103f757600080fd5b506103a6610f79565b34801561040c57600080fd5b506103a6610f7f565b34801561042157600080fd5b506103736004803603606081101561043857600080fd5b506001600160a01b03813581169160208101359091169060400135610fe2565b34801561046457600080fd5b5061046d611054565b604080516001600160a01b039092168252519081900360200190f35b34801561049557600080fd5b5061049e611063565b6040805160ff9092168252519081900360200190f35b3480156104c057600080fd5b506103a6600480360360208110156104d757600080fd5b50356001600160a01b031661106c565b3480156104f357600080fd5b506103a6611124565b34801561050857600080fd5b506103a66004803603602081101561051f57600080fd5b50356001600160a01b0316611133565b34801561053b57600080fd5b506103a6611288565b61038f61128e565b34801561055857600080fd5b5061046d6112d0565b34801561056d57600080fd5b506103a66004803603602081101561058457600080fd5b50356112df565b34801561059757600080fd5b506103a661137a565b3480156105ac57600080fd5b506103a6600480360360208110156105c357600080fd5b50356001600160a01b0316611380565b3480156105df57600080fd5b506103a661139b565b3480156105f457600080fd5b506103a66004803603602081101561060b57600080fd5b5035611451565b34801561061e57600080fd5b506103a661145c565b34801561063357600080fd5b506102c5611462565b34801561064857600080fd5b506103a66004803603602081101561065f57600080fd5b50356001600160a01b03166114ba565b34801561067b57600080fd5b5061038f600480360360c081101561069257600080fd5b6001600160a01b038235811692602081013590911691604082013591908101906080810160608201356401000000008111156106cd57600080fd5b8201836020820111156106df57600080fd5b8035906020019184600183028401116401000000008311171561070157600080fd5b91908080601f016020809104026020016040519081016040528093929190818152602001838380828437600092019190915250929594936020810193503591505064010000000081111561075457600080fd5b82018360208201111561076657600080fd5b8035906020019184600183028401116401000000008311171561078857600080fd5b91908080601f0160208091040260200160405190810160405280939291908181526020018383808284376000920191909152509295505050903560ff1691506115179050565b3480156107da57600080fd5b506103a66116fe565b3480156107ef57600080fd5b506103736004803603604081101561080657600080fd5b506001600160a01b038135169060200135611b2e565b34801561082857600080fd5b506103a6611b9f565b61038f6004803603604081101561084757600080fd5b506001600160a01b0381358116916020013516611ba5565b34801561086b57600080fd5b506103a6611bf2565b34801561088057600080fd5b506103a66004803603606081101561089757600080fd5b506001600160a01b03813581169160208101359091169060400135611c91565b3480156108c357600080fd5b506103a6600480360360208110156108da57600080fd5b50356001600160a01b0316611d02565b3480156108f657600080fd5b506103a6611d8e565b34801561090b57600080fd5b506109326004803603602081101561092257600080fd5b50356001600160a01b0316611e4a565b604080519485526020850193909352838301919091526060830152519081900360800190f35b34801561096457600080fd5b506103a66004803603602081101561097b57600080fd5b5035611edf565b34801561098e57600080fd5b506103a6600480360360208110156109a557600080fd5b5035611eea565b3480156109b857600080fd5b506103a6600480360360408110156109cf57600080fd5b506001600160a01b0381358116916020013516611ef5565b61038f600480360360208110156109fd57600080fd5b50356001600160a01b0316611f20565b348015610a1957600080fd5b506103a6611f6e565b348015610a2e57600080fd5b506103a660048036036020811015610a4557600080fd5b50356001600160a01b031661206f565b348015610a6157600080fd5b5061046d6120a9565b348015610a7657600080fd5b5061046d6120b8565b348015610a8b57600080fd5b506103a66120cc565b348015610aa057600080fd5b506103a660048036036020811015610ab757600080fd5b5035612130565b348015610aca57600080fd5b506103736121ae565b60008054819060ff16610b1a576040805162461bcd60e51b815260206004820152600a6024820152691c994b595b9d195c995960b21b604482015290519081900360640190fd5b6000805460ff19168155610b2c6116fe565b90508015610b5757610b4a816010811115610b4357fe5b601e6121b3565b925060009150610b679050565b610b613385612219565b92509250505b6000805460ff191660011790559092909150565b81610b8557610d77565b606081516005016040519080825280601f01601f191660200182016040528015610bb6576020820181803883390190505b50905060005b8251811015610c0757828181518110610bd157fe5b602001015160f81c60f81b828281518110610be857fe5b60200101906001600160f81b031916908160001a905350600101610bbc565b8151600160fd1b90839083908110610c1b57fe5b60200101906001600160f81b031916908160001a905350602860f81b828260010181518110610c4657fe5b60200101906001600160f81b031916908160001a905350600a840460300160f81b828260020181518110610c7657fe5b60200101906001600160f81b031916908160001a905350600a840660300160f81b828260030181518110610ca657fe5b60200101906001600160f81b031916908160001a905350602960f81b828260040181518110610cd157fe5b60200101906001600160f81b031916908160001a905350818415610d735760405162461bcd60e51b81526004018080602001828103825283818151815260200191508051906020019080838360005b83811015610d38578181015183820152602001610d20565b50505050905090810190601f168015610d655780820380516001836020036101000a031916815260200191505b509250505060405180910390fd5b5050505b5050565b60018054604080516020600284861615610100026000190190941693909304601f81018490048402820184019092528181529291830182828015610e005780601f10610dd557610100808354040283529160200191610e00565b820191906000526020600020905b815481529060010190602001808311610de357829003601f168201915b505050505081565b336000818152600f602090815260408083206001600160a01b03871680855290835281842086905581518681529151939493909284927f8c5be1e5ebec7d5bd14f71427d1e84f3dd0314c0f7b2291e5b200ac8c7c3b925929081900390910190a360019150505b92915050565b6000610e8034610ad3565b509050610eb0816040518060400160405280600b81526020016a1b5a5b9d0819985a5b195960aa1b815250610b7b565b50565b60085481565b6000805460ff16610efe576040805162461bcd60e51b815260206004820152600a6024820152691c994b595b9d195c995960b21b604482015290519081900360640190fd5b6000805460ff19168155610f106116fe565b14610f5b576040805162461bcd60e51b81526020600482015260166024820152751858d8dc9d59481a5b9d195c995cdd0819985a5b195960521b604482015290519081900360640190fd5b610f64826114ba565b90505b6000805460ff19166001179055919050565b600d5481565b6000806000610f8c6126c1565b90925090506000826003811115610f9f57fe5b14610fdb5760405162461bcd60e51b8152600401808060200182810382526035815260200180614efb6035913960400191505060405180910390fd5b9150505b90565b6000805460ff16611027576040805162461bcd60e51b815260206004820152600a6024820152691c994b595b9d195c995960b21b604482015290519081900360640190fd5b6000805460ff1916815561103d3386868661276f565b1490506000805460ff191660011790559392505050565b6004546001600160a01b031681565b60035460ff1681565b6000611076614b8f565b6040518060200160405280611089611d8e565b90526001600160a01b0384166000908152600e60205260408120549192509081906110b5908490612a7f565b909250905060008260038111156110c857fe5b1461111a576040805162461bcd60e51b815260206004820152601f60248201527f62616c616e636520636f756c64206e6f742062652063616c63756c6174656400604482015290519081900360640190fd5b925050505b919050565b600061112e612ad2565b905090565b60035460009061010090046001600160a01b03163314611160576111596001603f6121b3565b905061111f565b60055460408051623f1ee960e11b815290516001600160a01b0392831692851691627e3dd2916004808301926020929190829003018186803b1580156111a557600080fd5b505afa1580156111b9573d6000803e3d6000fd5b505050506040513d60208110156111cf57600080fd5b5051611222576040805162461bcd60e51b815260206004820152601c60248201527f6d61726b6572206d6574686f642072657475726e65642066616c736500000000604482015290519081900360640190fd5b600580546001600160a01b0319166001600160a01b03858116918217909255604080519284168352602083019190915280517f7ac369dbd14fa5ea3f473ed67cc9d598964a77501540ba6751eb0b3decf5870d9281900390910190a160005b9392505050565b600b5481565b600061129934612afe565b509050610eb081604051806040016040528060128152602001711c995c185e509bdc9c9bddc819985a5b195960721b815250610b7b565b6005546001600160a01b031681565b6000805460ff16611324576040805162461bcd60e51b815260206004820152600a6024820152691c994b595b9d195c995960b21b604482015290519081900360640190fd5b6000805460ff191681556113366116fe565b9050801561135c5761135481601081111561134d57fe5b60306121b3565b915050610f67565b61136583612b80565b9150506000805460ff19166001179055919050565b60095481565b6001600160a01b03166000908152600e602052604090205490565b6000805460ff166113e0576040805162461bcd60e51b815260206004820152600a6024820152691c994b595b9d195c995960b21b604482015290519081900360640190fd5b6000805460ff191681556113f26116fe565b1461143d576040805162461bcd60e51b81526020600482015260166024820152751858d8dc9d59481a5b9d195c995cdd0819985a5b195960521b604482015290519081900360640190fd5b50600b546000805460ff1916600117905590565b6000610e6f82612cb3565b600c5481565b6002805460408051602060018416156101000260001901909316849004601f81018490048402820184019092528181529291830182828015610e005780601f10610dd557610100808354040283529160200191610e00565b60008060006114c884612d34565b909250905060008260038111156114db57fe5b146112815760405162461bcd60e51b8152600401808060200182810382526037815260200180614e066037913960400191505060405180910390fd5b60035461010090046001600160a01b031633146115655760405162461bcd60e51b8152600401808060200182810382526024815260200180614d426024913960400191505060405180910390fd5b6009541580156115755750600a54155b6115b05760405162461bcd60e51b8152600401808060200182810382526023815260200180614d666023913960400191505060405180910390fd5b6007849055836115f15760405162461bcd60e51b8152600401808060200182810382526030815260200180614d896030913960400191505060405180910390fd5b60006115fc87611133565b90508015611651576040805162461bcd60e51b815260206004820152601a60248201527f73657474696e6720636f6d7074726f6c6c6572206661696c6564000000000000604482015290519081900360640190fd5b611659612de8565b600955670de0b6b3a7640000600a5561167186612dec565b905080156116b05760405162461bcd60e51b8152600401808060200182810382526022815260200180614db96022913960400191505060405180910390fd5b83516116c3906001906020870190614ba2565b5082516116d7906002906020860190614ba2565b50506003805460ff90921660ff199283161790556000805490911660011790555050505050565b6000611708614c20565b6000611712612ad2565b600654600b54600c54604080516315f2405360e01b81526004810186905260248101939093526044830191909152519293506001600160a01b03909116916315f2405391606480820192602092909190829003018186803b15801561177657600080fd5b505afa15801561178a573d6000803e3d6000fd5b505050506040513d60208110156117a057600080fd5b50516040830181905265048c273950001015611803576040805162461bcd60e51b815260206004820152601c60248201527f626f72726f772072617465206973206162737572646c79206869676800000000604482015290519081900360640190fd5b61180b612de8565b6060830181905260095461181f9190612f61565b608084018190528382600381111561183357fe5b600381111561183e57fe5b905250600090508251600381111561185257fe5b146118a4576040805162461bcd60e51b815260206004820152601f60248201527f636f756c64206e6f742063616c63756c61746520626c6f636b2064656c746100604482015290519081900360640190fd5b6118c4604051806020016040528084604001518152508360800151612f84565b60a08401819052838260038111156118d857fe5b60038111156118e357fe5b90525060009050825160038111156118f757fe5b1461192157611918600960068460000151600381111561191357fe5b612fec565b92505050610fdf565b6119318260a00151600b54612a7f565b60c084018190528382600381111561194557fe5b600381111561195057fe5b905250600090508251600381111561196457fe5b1461198057611918600960018460000151600381111561191357fe5b6119908260c00151600b54613052565b60e08401819052838260038111156119a457fe5b60038111156119af57fe5b90525060009050825160038111156119c357fe5b146119df57611918600960048460000151600381111561191357fe5b611a0060405180602001604052806008548152508360c00151600c54613078565b610100840181905283826003811115611a1557fe5b6003811115611a2057fe5b9052506000905082516003811115611a3457fe5b14611a5057611918600960058460000151600381111561191357fe5b611a638260a00151600a54600a54613078565b610120840181905283826003811115611a7857fe5b6003811115611a8357fe5b9052506000905082516003811115611a9757fe5b14611ab357611918600960038460000151600381111561191357fe5b606080830151600955610120830151600a81905560e0840151600b819055610100850151600c5560c08501516040805186815260208101929092528181019390935292830152517f4dec04e750ca11537cabcd8a9eab06494de08da3735bc8871cd41250e190bc049181900360800190a160005b9250505090565b6000805460ff16611b73576040805162461bcd60e51b815260206004820152600a6024820152691c994b595b9d195c995960b21b604482015290519081900360640190fd5b6000805460ff19168155611b893333868661276f565b1490506000805460ff1916600117905592915050565b600a5481565b6000611bb28334846130d4565b509050611bed81604051806040016040528060168152602001751b1a5c5d5a59185d19509bdc9c9bddc819985a5b195960521b815250610b7b565b505050565b6006546000906001600160a01b031663b8168816611c0e612ad2565b600b54600c546008546040518563ffffffff1660e01b81526004018085815260200184815260200183815260200182815260200194505050505060206040518083038186803b158015611c6057600080fd5b505afa158015611c74573d6000803e3d6000fd5b505050506040513d6020811015611c8a57600080fd5b5051905090565b6000805460ff16611cd6576040805162461bcd60e51b815260206004820152600a6024820152691c994b595b9d195c995960b21b604482015290519081900360640190fd5b6000805460ff19169055611cec33858585613206565b90506000805460ff191660011790559392505050565b60035460009061010090046001600160a01b03163314611d2857611159600160456121b3565b600480546001600160a01b038481166001600160a01b0319831681179093556040805191909216808252602082019390935281517fca4f2f25d0898edd99413412fb94012f9e54ec8142f9b093e7720646a95b16a9929181900390910190a16000611281565b6000805460ff16611dd3576040805162461bcd60e51b815260206004820152600a6024820152691c994b595b9d195c995960b21b604482015290519081900360640190fd5b6000805460ff19168155611de56116fe565b14611e30576040805162461bcd60e51b81526020600482015260166024820152751858d8dc9d59481a5b9d195c995cdd0819985a5b195960521b604482015290519081900360640190fd5b611e38610f7f565b90506000805460ff1916600117905590565b6001600160a01b0381166000908152600e6020526040812054819081908190818080611e7589612d34565b935090506000816003811115611e8757fe5b14611ea55760095b975060009650869550859450611ed89350505050565b611ead6126c1565b925090506000816003811115611ebf57fe5b14611ecb576009611e8f565b5060009650919450925090505b9193509193565b6000610e6f8261346c565b6000610e6f826134eb565b6001600160a01b039182166000908152600f6020908152604080832093909416825291909152205490565b6000611f2c8234613565565b509050610d77816040518060400160405280601881526020017f7265706179426f72726f77426568616c66206661696c65640000000000000000815250610b7b565b6004546000906001600160a01b031633141580611f89575033155b15611fa157611f9a600160006121b3565b9050610fdf565b60038054600480546001600160a01b03818116610100818102610100600160a81b0319871617968790556001600160a01b031990931690935560408051948390048216808652929095041660208401528351909391927ff9ffabca9c8276e99321725bcb43fb076a6c66a54b7f21c4e8146d8519b417dc92908290030190a1600454604080516001600160a01b038085168252909216602083015280517fca4f2f25d0898edd99413412fb94012f9e54ec8142f9b093e7720646a95b16a99281900390910190a16000611b27565b60008061207a6116fe565b905080156120a05761209881601081111561209157fe5b60406121b3565b91505061111f565b61128183612dec565b6006546001600160a01b031681565b60035461010090046001600160a01b031681565b6006546000906001600160a01b03166315f240536120e8612ad2565b600b54600c546040518463ffffffff1660e01b815260040180848152602001838152602001828152602001935050505060206040518083038186803b158015611c6057600080fd5b6000805460ff16612175576040805162461bcd60e51b815260206004820152600a6024820152691c994b595b9d195c995960b21b604482015290519081900360640190fd5b6000805460ff191681556121876116fe565b905080156121a55761135481601081111561219e57fe5b60466121b3565b61136583613610565b600181565b60007f45b96fe442630264581b197e84bbada861235052c5a1aadfff9ea4e40a969aa08360108111156121e257fe5b8360508111156121ee57fe5b604080519283526020830191909152600082820152519081900360600190a182601081111561128157fe5b60055460408051634ef4c3e160e01b81523060048201526001600160a01b03858116602483015260448201859052915160009384938493911691634ef4c3e19160648082019260209290919082900301818787803b15801561227a57600080fd5b505af115801561228e573d6000803e3d6000fd5b505050506040513d60208110156122a457600080fd5b5051905080156122c8576122bb6003601f83612fec565b9250600091506126ba9050565b6122d0612de8565b600954146122e4576122bb600a60226121b3565b6122ec614c7a565b6122f686866136b8565b8190601081111561230357fe5b9081601081111561231057fe5b90525060008151601081111561232257fe5b146123425780516123349060266121b3565b9350600092506126ba915050565b61234a6126c1565b604083018190526020830182600381111561236157fe5b600381111561236c57fe5b905250600090508160200151600381111561238357fe5b1461239f57612334600960218360200151600381111561191357fe5b6123a98686613757565b60c08201819052604080516020810182529083015181526123ca91906137f3565b60608301819052602083018260038111156123e157fe5b60038111156123ec57fe5b905250600090508160200151600381111561240357fe5b14612455576040805162461bcd60e51b815260206004820181905260248201527f4d494e545f45584348414e47455f43414c43554c4154494f4e5f4641494c4544604482015290519081900360640190fd5b612465600d548260600151613052565b608083018190526020830182600381111561247c57fe5b600381111561248757fe5b905250600090508160200151600381111561249e57fe5b146124da5760405162461bcd60e51b8152600401808060200182810382526028815260200180614f306028913960400191505060405180910390fd5b6001600160a01b0386166000908152600e602052604090205460608201516125029190613052565b60a083018190526020830182600381111561251957fe5b600381111561252457fe5b905250600090508160200151600381111561253b57fe5b146125775760405162461bcd60e51b815260040180806020018281038252602b815260200180614ddb602b913960400191505060405180910390fd5b6080810151600d5560a08101516001600160a01b0387166000818152600e60209081526040918290209390935560c084015160608086015183519485529484019190915282820193909352517f4c209b5fc8ad50758f13e2e1088ba56a560dff690a1c6fef26394f4c03821c4f929181900390910190a1606081015160408051918252516001600160a01b038816913091600080516020614e778339815191529181900360200190a360055460c08201516060830151604080516341c728b960e01b81523060048201526001600160a01b038b81166024830152604482019490945260648101929092525191909216916341c728b991608480830192600092919082900301818387803b15801561268d57600080fd5b505af11580156126a1573d6000803e3d6000fd5b50600092506126ae915050565b8160c001519350935050505b9250929050565b600080600d54600014156126dc57505060075460009061276b565b60006126e6612ad2565b905060006126f2614b8f565b600061270384600b54600c5461380a565b93509050600081600381111561271557fe5b146127295794506000935061276b92505050565b61273583600d54613848565b92509050600081600381111561274757fe5b1461275b5794506000935061276b92505050565b505160009450925061276b915050565b9091565b600554604080516317b9b84b60e31b81523060048201526001600160a01b03868116602483015285811660448301526064820185905291516000938493169163bdcdc25891608480830192602092919082900301818787803b1580156127d457600080fd5b505af11580156127e8573d6000803e3d6000fd5b505050506040513d60208110156127fe57600080fd5b50519050801561281d576128156003604a83612fec565b915050612a77565b836001600160a01b0316856001600160a01b03161415612843576128156002604b6121b3565b60006001600160a01b038781169087161415612862575060001961288a565b506001600160a01b038086166000908152600f60209081526040808320938a16835292905220545b60008060008061289a8589612f61565b909450925060008460038111156128ad57fe5b146128cb576128be6009604b6121b3565b9650505050505050612a77565b6001600160a01b038a166000908152600e60205260409020546128ee9089612f61565b9094509150600084600381111561290157fe5b14612912576128be6009604c6121b3565b6001600160a01b0389166000908152600e60205260409020546129359089613052565b9094509050600084600381111561294857fe5b14612959576128be6009604d6121b3565b6001600160a01b03808b166000908152600e6020526040808220859055918b1681522081905560001985146129b1576001600160a01b03808b166000908152600f60209081526040808320938f168352929052208390555b886001600160a01b03168a6001600160a01b0316600080516020614e778339815191528a6040518082815260200191505060405180910390a36005546040805163352b4a3f60e11b81523060048201526001600160a01b038d811660248301528c81166044830152606482018c905291519190921691636a56947e91608480830192600092919082900301818387803b158015612a4d57600080fd5b505af1158015612a61573d6000803e3d6000fd5b5060009250612a6e915050565b96505050505050505b949350505050565b6000806000612a8c614b8f565b612a968686612f84565b90925090506000826003811115612aa957fe5b14612aba57509150600090506126ba565b6000612ac5826138f8565b9350935050509250929050565b60008080612ae1303134612f61565b90925090506000826003811115612af457fe5b14610fdb57600080fd5b60008054819060ff16612b45576040805162461bcd60e51b815260206004820152600a6024820152691c994b595b9d195c995960b21b604482015290519081900360640190fd5b6000805460ff19168155612b576116fe565b90508015612b7557610b4a816010811115612b6e57fe5b60366121b3565b610b61333386613907565b600354600090819061010090046001600160a01b03163314612ba857612098600160316121b3565b612bb0612de8565b60095414612bc457612098600a60336121b3565b82612bcd612ad2565b1015612bdf57612098600e60326121b3565b600c54831115612bf557612098600260346121b3565b50600c5482810390811115612c3b5760405162461bcd60e51b8152600401808060200182810382526024815260200180614f8c6024913960400191505060405180910390fd5b600c819055600354612c5b9061010090046001600160a01b031684613d38565b600354604080516101009092046001600160a01b0316825260208201859052818101839052517f3bad0c59cf2f06e7314077049f48a93578cd16f5ef92329f1dab1420a99c177e916060908290030190a16000611281565b6000805460ff16612cf8576040805162461bcd60e51b815260206004820152600a6024820152691c994b595b9d195c995960b21b604482015290519081900360640190fd5b6000805460ff19168155612d0a6116fe565b90508015612d2857611354816010811115612d2157fe5b60276121b3565b61136533600085613d6e565b6001600160a01b038116600090815260106020526040812080548291829182918291612d6b575060009450849350612de392505050565b612d7b8160000154600a54614235565b90945092506000846003811115612d8e57fe5b14612da3575091935060009250612de3915050565b612db1838260010154614274565b90945091506000846003811115612dc457fe5b14612dd9575091935060009250612de3915050565b5060009450925050505b915091565b4390565b600354600090819061010090046001600160a01b03163314612e1457612098600160426121b3565b612e1c612de8565b60095414612e3057612098600a60416121b3565b600660009054906101000a90046001600160a01b03169050826001600160a01b0316632191f92a6040518163ffffffff1660e01b815260040160206040518083038186803b158015612e8157600080fd5b505afa158015612e95573d6000803e3d6000fd5b505050506040513d6020811015612eab57600080fd5b5051612efe576040805162461bcd60e51b815260206004820152601c60248201527f6d61726b6572206d6574686f642072657475726e65642066616c736500000000604482015290519081900360640190fd5b600680546001600160a01b0319166001600160a01b03858116918217909255604080519284168352602083019190915280517fedffc32e068c7c95dfd4bdfd5c4d939a084d6b11c4199eac8436ed234d72f9269281900390910190a16000611281565b600080838311612f785750600090508183036126ba565b506003905060006126ba565b6000612f8e614b8f565b600080612f9f866000015186614235565b90925090506000826003811115612fb257fe5b14612fd1575060408051602081019091526000815290925090506126ba565b60408051602081019091529081526000969095509350505050565b60007f45b96fe442630264581b197e84bbada861235052c5a1aadfff9ea4e40a969aa084601081111561301b57fe5b84605081111561302757fe5b604080519283526020830191909152818101859052519081900360600190a1836010811115612a7757fe5b60008083830184811061306a576000925090506126ba565b5060029150600090506126ba565b6000806000613085614b8f565b61308f8787612f84565b909250905060008260038111156130a257fe5b146130b357509150600090506130cc565b6130c56130bf826138f8565b86613052565b9350935050505b935093915050565b60008054819060ff1661311b576040805162461bcd60e51b815260206004820152600a6024820152691c994b595b9d195c995960b21b604482015290519081900360640190fd5b6000805460ff1916815561312d6116fe565b905080156131585761314b81601081111561314457fe5b600f6121b3565b9250600091506131ef9050565b836001600160a01b031663a6afed956040518163ffffffff1660e01b8152600401602060405180830381600087803b15801561319357600080fd5b505af11580156131a7573d6000803e3d6000fd5b505050506040513d60208110156131bd57600080fd5b5051905080156131dd5761314b8160108111156131d657fe5b60106121b3565b6131e93387878761429f565b92509250505b6000805460ff191660011790559094909350915050565b6005546040805163d02f735160e01b81523060048201526001600160a01b038781166024830152868116604483015285811660648301526084820185905291516000938493169163d02f73519160a480830192602092919082900301818787803b15801561327357600080fd5b505af1158015613287573d6000803e3d6000fd5b505050506040513d602081101561329d57600080fd5b5051905080156132b4576128156003601b83612fec565b846001600160a01b0316846001600160a01b031614156132da576128156006601c6121b3565b6001600160a01b0384166000908152600e6020526040812054819081906133019087612f61565b9093509150600083600381111561331457fe5b146133375761332c6009601a85600381111561191357fe5b945050505050612a77565b6001600160a01b0388166000908152600e602052604090205461335a9087613052565b9093509050600083600381111561336d57fe5b146133855761332c6009601985600381111561191357fe5b6001600160a01b038088166000818152600e60209081526040808320879055938c168083529184902085905583518a815293519193600080516020614e77833981519152929081900390910190a360055460408051636d35bf9160e01b81523060048201526001600160a01b038c811660248301528b811660448301528a81166064830152608482018a905291519190921691636d35bf919160a480830192600092919082900301818387803b15801561343e57600080fd5b505af1158015613452573d6000803e3d6000fd5b506000925061345f915050565b9998505050505050505050565b6000805460ff166134b1576040805162461bcd60e51b815260206004820152600a6024820152691c994b595b9d195c995960b21b604482015290519081900360640190fd5b6000805460ff191681556134c36116fe565b905080156134e1576113548160108111156134da57fe5b60086121b3565b6113653384614822565b6000805460ff16613530576040805162461bcd60e51b815260206004820152600a6024820152691c994b595b9d195c995960b21b604482015290519081900360640190fd5b6000805460ff191681556135426116fe565b9050801561355957611354816010811115612d2157fe5b61136533846000613d6e565b60008054819060ff166135ac576040805162461bcd60e51b815260206004820152600a6024820152691c994b595b9d195c995960b21b604482015290519081900360640190fd5b6000805460ff191681556135be6116fe565b905080156135e9576135dc8160108111156135d557fe5b60356121b3565b9250600091506135fa9050565b6135f4338686613907565b92509250505b6000805460ff1916600117905590939092509050565b60035460009061010090046001600160a01b0316331461363657611159600160476121b3565b61363e612de8565b6009541461365257611159600a60486121b3565b670de0b6b3a764000082111561366e57611159600260496121b3565b6008805490839055604080518281526020810185905281517faaa68312e2ea9d50e16af5068410ab56e1a1fd06037b1a35664812c30f821460929181900390910190a16000611281565b6000336001600160a01b03841614613709576040805162461bcd60e51b815260206004820152600f60248201526e0e6cadcc8cae440dad2e6dac2e8c6d608b1b604482015290519081900360640190fd5b81341461374e576040805162461bcd60e51b815260206004820152600e60248201526d0ecc2d8eaca40dad2e6dac2e8c6d60931b604482015290519081900360640190fd5b50600092915050565b6000336001600160a01b038416146137a8576040805162461bcd60e51b815260206004820152600f60248201526e0e6cadcc8cae440dad2e6dac2e8c6d608b1b604482015290519081900360640190fd5b8134146137ed576040805162461bcd60e51b815260206004820152600e60248201526d0ecc2d8eaca40dad2e6dac2e8c6d60931b604482015290519081900360640190fd5b50919050565b6000806000613800614b8f565b612a968686614b30565b60008060008061381a8787613052565b9092509050600082600381111561382d57fe5b1461383e57509150600090506130cc565b6130c58186612f61565b6000613852614b8f565b60008061386786670de0b6b3a7640000614235565b9092509050600082600381111561387a57fe5b14613899575060408051602081019091526000815290925090506126ba565b6000806138a68388614274565b909250905060008260038111156138b957fe5b146138db575060408051602081019091526000815290945092506126ba915050565b604080516020810190915290815260009890975095505050505050565b51670de0b6b3a7640000900490565b60055460408051631200453160e11b81523060048201526001600160a01b0386811660248301528581166044830152606482018590529151600093849384939116916324008a629160848082019260209290919082900301818787803b15801561397057600080fd5b505af1158015613984573d6000803e3d6000fd5b505050506040513d602081101561399a57600080fd5b5051905080156139be576139b16003603883612fec565b9250600091506130cc9050565b6139c6612de8565b600954146139da576139b1600a60396121b3565b6139e2614cb8565b6001600160a01b0386166000908152601060205260409020600101546060820152613a0c86612d34565b6080830181905260208301826003811115613a2357fe5b6003811115613a2e57fe5b9052506000905081602001516003811115613a4557fe5b14613a6f57613a61600960378360200151600381111561191357fe5b9350600092506130cc915050565b600019851415613a885760808101516040820152613a90565b604081018590525b613a9e8782604001516136b8565b81906010811115613aab57fe5b90816010811115613ab857fe5b905250600081516010811115613aca57fe5b14613adc578051613a6190603c6121b3565b613aea878260400151613757565b60e082018190526080820151613aff91612f61565b60a0830181905260208301826003811115613b1657fe5b6003811115613b2157fe5b9052506000905081602001516003811115613b3857fe5b14613b745760405162461bcd60e51b815260040180806020018281038252603a815260200180614e3d603a913960400191505060405180910390fd5b613b84600b548260e00151612f61565b60c0830181905260208301826003811115613b9b57fe5b6003811115613ba657fe5b9052506000905081602001516003811115613bbd57fe5b14613bf95760405162461bcd60e51b8152600401808060200182810382526031815260200180614e976031913960400191505060405180910390fd5b60a080820180516001600160a01b03808a16600081815260106020908152604091829020948555600a5460019095019490945560c0870151600b81905560e088015195518251948f16855294840192909252828101949094526060820192909252608081019190915290517f1a2a22cb034d26d1854bdc6666a5b91fe25efbbb5dcad3b0355478d6f5c362a1929181900390910190a160055460e0820151606083015160408051631ededc9160e01b81523060048201526001600160a01b038c811660248301528b8116604483015260648201949094526084810192909252519190921691631ededc919160a480830192600092919082900301818387803b158015613d0457600080fd5b505af1158015613d18573d6000803e3d6000fd5b5060009250613d25915050565b8160e00151935093505050935093915050565b6040516001600160a01b0383169082156108fc029083906000818181858888f19350505050158015611bed573d6000803e3d6000fd5b6000821580613d7b575081155b613db65760405162461bcd60e51b8152600401808060200182810382526034815260200180614f586034913960400191505060405180910390fd5b613dbe614c7a565b613dc66126c1565b6040830181905260208301826003811115613ddd57fe5b6003811115613de857fe5b9052506000905081602001516003811115613dff57fe5b14613e2357613e1b6009602b8360200151600381111561191357fe5b915050611281565b8315613ea4576060810184905260408051602081018252908201518152613e4a9085612a7f565b6080830181905260208301826003811115613e6157fe5b6003811115613e6c57fe5b9052506000905081602001516003811115613e8357fe5b14613e9f57613e1b600960298360200151600381111561191357fe5b613f1d565b613ec083604051806020016040528084604001518152506137f3565b6060830181905260208301826003811115613ed757fe5b6003811115613ee257fe5b9052506000905081602001516003811115613ef957fe5b14613f1557613e1b6009602a8360200151600381111561191357fe5b608081018390525b60055460608201516040805163eabe7d9160e01b81523060048201526001600160a01b03898116602483015260448201939093529051600093929092169163eabe7d919160648082019260209290919082900301818787803b158015613f8257600080fd5b505af1158015613f96573d6000803e3d6000fd5b505050506040513d6020811015613fac57600080fd5b505190508015613fcc57613fc36003602883612fec565b92505050611281565b613fd4612de8565b60095414613fe857613fc3600a602c6121b3565b613ff8600d548360600151612f61565b60a084018190526020840182600381111561400f57fe5b600381111561401a57fe5b905250600090508260200151600381111561403157fe5b1461404d57613fc36009602e8460200151600381111561191357fe5b6001600160a01b0386166000908152600e602052604090205460608301516140759190612f61565b60c084018190526020840182600381111561408c57fe5b600381111561409757fe5b90525060009050826020015160038111156140ae57fe5b146140ca57613fc36009602d8460200151600381111561191357fe5b81608001516140d7612ad2565b10156140e957613fc3600e602f6121b3565b6140f7868360800151613d38565b60a0820151600d5560c08201516001600160a01b0387166000818152600e6020908152604091829020939093556060850151815190815290513093600080516020614e77833981519152928290030190a36080820151606080840151604080516001600160a01b038b168152602081019490945283810191909152517fe5b754fb1abb7f01b499791d0b820ae3b6af3424ac1c59768edb53f4ec31a9299281900390910190a160055460808301516060840151604080516351dff98960e01b81523060048201526001600160a01b038b81166024830152604482019490945260648101929092525191909216916351dff98991608480830192600092919082900301818387803b15801561420a57600080fd5b505af115801561421e573d6000803e3d6000fd5b506000925061422b915050565b9695505050505050565b60008083614248575060009050806126ba565b8383028385828161425557fe5b0414614269575060029150600090506126ba565b6000925090506126ba565b6000808261428857506001905060006126ba565b600083858161429357fe5b04915091509250929050565b60055460408051632fe3f38f60e11b81523060048201526001600160a01b0384811660248301528781166044830152868116606483015260848201869052915160009384938493911691635fc7e71e9160a48082019260209290919082900301818787803b15801561431057600080fd5b505af1158015614324573d6000803e3d6000fd5b505050506040513d602081101561433a57600080fd5b50519050801561435e576143516003601283612fec565b9250600091506148199050565b614366612de8565b6009541461437a57614351600a60166121b3565b614382612de8565b846001600160a01b0316636c540baf6040518163ffffffff1660e01b815260040160206040518083038186803b1580156143bb57600080fd5b505afa1580156143cf573d6000803e3d6000fd5b505050506040513d60208110156143e557600080fd5b5051146143f857614351600a60116121b3565b866001600160a01b0316866001600160a01b0316141561441e57614351600660176121b3565b8461442f57614351600760156121b3565b60001985141561444557614351600760146121b3565b600080614453898989613907565b909250905081156144835761447482601081111561446d57fe5b60186121b3565b94506000935061481992505050565b6005546040805163c488847b60e01b81523060048201526001600160a01b038981166024830152604482018590528251600094859492169263c488847b926064808301939192829003018186803b1580156144dd57600080fd5b505afa1580156144f1573d6000803e3d6000fd5b505050506040513d604081101561450757600080fd5b508051602090910151909250905081156145525760405162461bcd60e51b8152600401808060200182810382526033815260200180614ec86033913960400191505060405180910390fd5b80886001600160a01b03166370a082318c6040518263ffffffff1660e01b815260040180826001600160a01b03166001600160a01b0316815260200191505060206040518083038186803b1580156145a957600080fd5b505afa1580156145bd573d6000803e3d6000fd5b505050506040513d60208110156145d357600080fd5b50511015614628576040805162461bcd60e51b815260206004820152601860248201527f4c49515549444154455f5345495a455f544f4f5f4d5543480000000000000000604482015290519081900360640190fd5b60006001600160a01b03891630141561464e57614647308d8d85613206565b90506146d8565b6040805163b2a02ff160e01b81526001600160a01b038e811660048301528d81166024830152604482018590529151918b169163b2a02ff1916064808201926020929091908290030181600087803b1580156146a957600080fd5b505af11580156146bd573d6000803e3d6000fd5b505050506040513d60208110156146d357600080fd5b505190505b8015614722576040805162461bcd60e51b81526020600482015260146024820152731d1bdad95b881cd95a5e9d5c994819985a5b195960621b604482015290519081900360640190fd5b604080516001600160a01b03808f168252808e1660208301528183018790528b1660608201526080810184905290517f298637f684da70674f26509b10f07ec2fbc77a335ab1e7d6215a4b2484d8bb529181900360a00190a1600554604080516347ef3b3b60e01b81523060048201526001600160a01b038c811660248301528f811660448301528e811660648301526084820188905260a48201869052915191909216916347ef3b3b9160c480830192600092919082900301818387803b1580156147ed57600080fd5b505af1158015614801573d6000803e3d6000fd5b506000925061480e915050565b975092955050505050505b94509492505050565b6005546040805163368f515360e21b81523060048201526001600160a01b0385811660248301526044820185905291516000938493169163da3d454c91606480830192602092919082900301818787803b15801561487f57600080fd5b505af1158015614893573d6000803e3d6000fd5b505050506040513d60208110156148a957600080fd5b5051905080156148c8576148c06003600e83612fec565b915050610e6f565b6148d0612de8565b600954146148e3576148c0600a806121b3565b826148ec612ad2565b10156148fe576148c0600e60096121b3565b614906614cfe565b61490f85612d34565b602083018190528282600381111561492357fe5b600381111561492e57fe5b905250600090508151600381111561494257fe5b146149675761495e600960078360000151600381111561191357fe5b92505050610e6f565b614975816020015185613052565b604083018190528282600381111561498957fe5b600381111561499457fe5b90525060009050815160038111156149a857fe5b146149c45761495e6009600c8360000151600381111561191357fe5b6149d0600b5485613052565b60608301819052828260038111156149e457fe5b60038111156149ef57fe5b9052506000905081516003811115614a0357fe5b14614a1f5761495e6009600b8360000151600381111561191357fe5b614a298585613d38565b604080820180516001600160a01b03881660008181526010602090815290859020928355600a54600190930192909255606080860151600b81905593518551928352928201899052818501929092529081019190915290517f13ed6866d4e1ee6da46f845c46d7e54120883d75c5ea9a2dacc1c4ca8984ab809181900360800190a160055460408051635c77860560e01b81523060048201526001600160a01b0388811660248301526044820188905291519190921691635c77860591606480830192600092919082900301818387803b158015614b0657600080fd5b505af1158015614b1a573d6000803e3d6000fd5b5060009250614b27915050565b95945050505050565b6000614b3a614b8f565b600080614b4f670de0b6b3a764000087614235565b90925090506000826003811115614b6257fe5b14614b81575060408051602081019091526000815290925090506126ba565b612ac5818660000151613848565b6040518060200160405280600081525090565b828054600181600116156101000203166002900490600052602060002090601f016020900481019282601f10614be357805160ff1916838001178555614c10565b82800160010185558215614c10579182015b82811115614c10578251825591602001919060010190614bf5565b50614c1c929150614d27565b5090565b604080516101408101909152806000815260200160008152602001600081526020016000815260200160008152602001614c58614b8f565b8152602001600081526020016000815260200160008152602001600081525090565b6040805160e0810190915280600081526020016000815260200160008152602001600081526020016000815260200160008152602001600081525090565b6040805161010081019091528060008152602001600081526020016000815260200160008152602001600081526020016000815260200160008152602001600081525090565b604080516080810190915280600081526020016000815260200160008152602001600081525090565b610fdf91905b80821115614c1c5760008155600101614d2d56fe6f6e6c792061646d696e206d617920696e697469616c697a6520746865206d61726b65746d61726b6574206d6179206f6e6c7920626520696e697469616c697a6564206f6e6365696e697469616c2065786368616e67652072617465206d7573742062652067726561746572207468616e207a65726f2e73657474696e6720696e7465726573742072617465206d6f64656c206661696c65644d494e545f4e45575f4143434f554e545f42414c414e43455f43414c43554c4154494f4e5f4641494c4544626f72726f7742616c616e636553746f7265643a20626f72726f7742616c616e636553746f726564496e7465726e616c206661696c656452455041595f424f52524f575f4e45575f4143434f554e545f424f52524f575f42414c414e43455f43414c43554c4154494f4e5f4641494c4544ddf252ad1be2c89b69c2b068fc378daa952ba7f163c4a11628f55a4df523b3ef52455041595f424f52524f575f4e45575f544f54414c5f42414c414e43455f43414c43554c4154494f4e5f4641494c45444c49515549444154455f434f4d5054524f4c4c45525f43414c43554c4154455f414d4f554e545f5345495a455f4641494c454465786368616e67655261746553746f7265643a2065786368616e67655261746553746f726564496e7465726e616c206661696c65644d494e545f4e45575f544f54414c5f535550504c595f43414c43554c4154494f4e5f4641494c45446f6e65206f662072656465656d546f6b656e73496e206f722072656465656d416d6f756e74496e206d757374206265207a65726f72656475636520726573657276657320756e657870656374656420756e646572666c6f77a265627a7a72315820fc49286a1f4dfbf7f18827e4363a159f0691eb100fb955004bf51690c72ee28a64736f6c634300050c00326f6e6c792061646d696e206d617920696e697469616c697a6520746865206d61726b65746d61726b6574206d6179206f6e6c7920626520696e697469616c697a6564206f6e6365696e697469616c2065786368616e67652072617465206d7573742062652067726561746572207468616e207a65726f2e73657474696e6720696e7465726573742072617465206d6f64656c206661696c6564",
  "source": "pragma solidity ^0.5.12;\n\nimport \"./CToken.sol\";\n\n/**\n * @title Compound's CEther Contract\n * @notice CToken which wraps Ether\n * @author Compound\n */\ncontract CEther is CToken {\n    /**\n     * @notice Construct a new CEther money market\n     * @param comptroller_ The address of the Comptroller\n     * @param interestRateModel_ The address of the interest rate model\n     * @param initialExchangeRateMantissa_ The initial exchange rate, scaled by 1e18\n     * @param name_ ERC-20 name of this token\n     * @param symbol_ ERC-20 symbol of this token\n     * @param decimals_ ERC-20 decimal precision of this token\n     * @param admin_ Address of the administrator of this token\n     */\n    constructor(ComptrollerInterface comptroller_,\n                InterestRateModel interestRateModel_,\n                uint initialExchangeRateMantissa_,\n                string memory name_,\n                string memory symbol_,\n                uint8 decimals_,\n                address payable admin_) public {\n        // Creator of the contract is admin during initialization\n        admin = msg.sender;\n\n        initialize(comptroller_, interestRateModel_, initialExchangeRateMantissa_, name_, symbol_, decimals_);\n\n        // Set the proper admin now that initialization is done\n        admin = admin_;\n    }\n\n\n    /*** User Interface ***/\n\n    /**\n     * @notice Sender supplies assets into the market and receives cTokens in exchange\n     * @dev Reverts upon any failure\n     */\n    function mint() external payable {\n        (uint err,) = mintInternal(msg.value);\n        requireNoError(err, \"mint failed\");\n    }\n\n    /**\n     * @notice Sender redeems cTokens in exchange for the underlying asset\n     * @dev Accrues interest whether or not the operation succeeds, unless reverted\n     * @param redeemTokens The number of cTokens to redeem into underlying\n     * @return uint 0=success, otherwise a failure (see ErrorReporter.sol for details)\n     */\n    function redeem(uint redeemTokens) external returns (uint) {\n        return redeemInternal(redeemTokens);\n    }\n\n    /**\n     * @notice Sender redeems cTokens in exchange for a specified amount of underlying asset\n     * @dev Accrues interest whether or not the operation succeeds, unless reverted\n     * @param redeemAmount The amount of underlying to redeem\n     * @return uint 0=success, otherwise a failure (see ErrorReporter.sol for details)\n     */\n    function redeemUnderlying(uint redeemAmount) external returns (uint) {\n        return redeemUnderlyingInternal(redeemAmount);\n    }\n\n    /**\n      * @notice Sender borrows assets from the protocol to their own address\n      * @param borrowAmount The amount of the underlying asset to borrow\n      * @return uint 0=success, otherwise a failure (see ErrorReporter.sol for details)\n      */\n    function borrow(uint borrowAmount) external returns (uint) {\n        return borrowInternal(borrowAmount);\n    }\n\n    /**\n     * @notice Sender repays their own borrow\n     * @dev Reverts upon any failure\n     */\n    function repayBorrow() external payable {\n        (uint err,) = repayBorrowInternal(msg.value);\n        requireNoError(err, \"repayBorrow failed\");\n    }\n\n    /**\n     * @notice Sender repays a borrow belonging to borrower\n     * @dev Reverts upon any failure\n     * @param borrower the account with the debt being payed off\n     */\n    function repayBorrowBehalf(address borrower) external payable {\n        (uint err,) = repayBorrowBehalfInternal(borrower, msg.value);\n        requireNoError(err, \"repayBorrowBehalf failed\");\n    }\n\n    /**\n     * @notice The sender liquidates the borrowers collateral.\n     *  The collateral seized is transferred to the liquidator.\n     * @dev Reverts upon any failure\n     * @param borrower The borrower of this cToken to be liquidated\n     * @param cTokenCollateral The market in which to seize collateral from the borrower\n     */\n    function liquidateBorrow(address borrower, CToken cTokenCollateral) external payable {\n        (uint err,) = liquidateBorrowInternal(borrower, msg.value, cTokenCollateral);\n        requireNoError(err, \"liquidateBorrow failed\");\n    }\n\n    /**\n     * @notice Send Ether to CEther to mint\n     */\n    function () external payable {\n        (uint err,) = mintInternal(msg.value);\n        requireNoError(err, \"mint failed\");\n    }\n\n    /*** Safe Token ***/\n\n    /**\n     * @notice Gets balance of this contract in terms of Ether, before this message\n     * @dev This excludes the value of the current message, if any\n     * @return The quantity of Ether owned by this contract\n     */\n    function getCashPrior() internal view returns (uint) {\n        (MathError err, uint startingBalance) = subUInt(address(this).balance, msg.value);\n        require(err == MathError.NO_ERROR);\n        return startingBalance;\n    }\n\n    /**\n     * @notice Checks whether the requested transfer matches the `msg`\n     * @dev Does NOT do a transfer\n     * @param from Address sending the Ether\n     * @param amount Amount of Ether being sent\n     * @return Whether or not the transfer checks out\n     */\n    function checkTransferIn(address from, uint amount) internal view returns (Error) {\n        // Sanity checks\n        require(msg.sender == from, \"sender mismatch\");\n        require(msg.value == amount, \"value mismatch\");\n        return Error.NO_ERROR;\n    }\n\n    /**\n     * @notice Perform the actual transfer in, which is a no-op\n     * @param from Address sending the Ether\n     * @param amount Amount of Ether being sent\n     * @return The actual amount of Ether transferred\n     */\n    function doTransferIn(address from, uint amount) internal returns (uint) {\n        // Sanity checks\n        require(msg.sender == from, \"sender mismatch\");\n        require(msg.value == amount, \"value mismatch\");\n        return amount;\n    }\n\n    function doTransferOut(address payable to, uint amount) internal {\n        /* Send the Ether, with minimal gas and revert on failure */\n        to.transfer(amount);\n    }\n\n    function requireNoError(uint errCode, string memory message) internal pure {\n        if (errCode == uint(Error.NO_ERROR)) {\n            return;\n        }\n\n        bytes memory fullMessage = new bytes(bytes(message).length + 5);\n        uint i;\n\n        for (i = 0; i < bytes(message).length; i++) {\n            fullMessage[i] = bytes(message)[i];\n        }\n\n        fullMessage[i+0] = byte(uint8(32));\n        fullMessage[i+1] = byte(uint8(40));\n        fullMessage[i+2] = byte(uint8(48 + ( errCode / 10 )));\n        fullMessage[i+3] = byte(uint8(48 + ( errCode % 10 )));\n        fullMessage[i+4] = byte(uint8(41));\n\n        require(errCode == uint(Error.NO_ERROR), string(fullMessage));\n    }\n}\n",
  "sourcePath": "/home/akshay/workspace/somish/Compound-Finance/compound-protocol/contracts/CEther.sol",
  "compiler": {
    "name": "solc",
    "version": "0.5.12+commit.7709ece9.Emscripten.clang"
  },
  "schemaVersion": "3.0.23",
  "updatedAt": "2020-03-04T10:50:01.304Z",
  "devdoc": {
    "author": "Compound",
    "methods": {
      "_acceptAdmin()": {
        "details": "Admin function for pending admin to accept role and update admin",
        "return": "uint 0=success, otherwise a failure (see ErrorReporter.sol for details)"
      },
      "_reduceReserves(uint256)": {
        "params": {
          "reduceAmount": "Amount of reduction to reserves"
        },
        "return": "uint 0=success, otherwise a failure (see ErrorReporter.sol for details)"
      },
      "_setComptroller(address)": {
        "details": "Admin function to set a new comptroller",
        "return": "uint 0=success, otherwise a failure (see ErrorReporter.sol for details)"
      },
      "_setInterestRateModel(address)": {
        "details": "Admin function to accrue interest and update the interest rate model",
        "params": {
          "newInterestRateModel": "the new interest rate model to use"
        },
        "return": "uint 0=success, otherwise a failure (see ErrorReporter.sol for details)"
      },
      "_setPendingAdmin(address)": {
        "details": "Admin function to begin change of admin. The newPendingAdmin must call `_acceptAdmin` to finalize the transfer.",
        "params": {
          "newPendingAdmin": "New pending admin."
        },
        "return": "uint 0=success, otherwise a failure (see ErrorReporter.sol for details)"
      },
      "_setReserveFactor(uint256)": {
        "details": "Admin function to accrue interest and set a new reserve factor",
        "return": "uint 0=success, otherwise a failure (see ErrorReporter.sol for details)"
      },
      "accrueInterest()": {
        "details": "This calculates interest accrued from the last checkpointed block  up to the current block and writes new checkpoint to storage."
      },
      "allowance(address,address)": {
        "params": {
          "owner": "The address of the account which owns the tokens to be spent",
          "spender": "The address of the account which may transfer tokens"
        },
        "return": "The number of tokens allowed to be spent (-1 means infinite)"
      },
      "approve(address,uint256)": {
        "details": "This will overwrite the approval amount for `spender` and is subject to issues noted [here](https://eips.ethereum.org/EIPS/eip-20#approve)",
        "params": {
          "amount": "The number of tokens that are approved (-1 means infinite)",
          "spender": "The address of the account which may transfer tokens"
        },
        "return": "Whether or not the approval succeeded"
      },
      "balanceOf(address)": {
        "params": {
          "owner": "The address of the account to query"
        },
        "return": "The number of tokens owned by `owner`"
      },
      "balanceOfUnderlying(address)": {
        "details": "This also accrues interest in a transaction",
        "params": {
          "owner": "The address of the account to query"
        },
        "return": "The amount of underlying owned by `owner`"
      },
      "borrow(uint256)": {
        "params": {
          "borrowAmount": "The amount of the underlying asset to borrow"
        },
        "return": "uint 0=success, otherwise a failure (see ErrorReporter.sol for details)"
      },
      "borrowBalanceCurrent(address)": {
        "params": {
          "account": "The address whose balance should be calculated after updating borrowIndex"
        },
        "return": "The calculated balance"
      },
      "borrowBalanceStored(address)": {
        "params": {
          "account": "The address whose balance should be calculated"
        },
        "return": "The calculated balance"
      },
      "borrowRatePerBlock()": {
        "return": "The borrow interest rate per block, scaled by 1e18"
      },
      "constructor": {
        "params": {
          "admin_": "Address of the administrator of this token",
          "comptroller_": "The address of the Comptroller",
          "decimals_": "ERC-20 decimal precision of this token",
          "initialExchangeRateMantissa_": "The initial exchange rate, scaled by 1e18",
          "interestRateModel_": "The address of the interest rate model",
          "name_": "ERC-20 name of this token",
          "symbol_": "ERC-20 symbol of this token"
        }
      },
      "exchangeRateCurrent()": {
        "return": "Calculated exchange rate scaled by 1e18"
      },
      "exchangeRateStored()": {
        "details": "This function does not accrue interest before calculating the exchange rate",
        "return": "Calculated exchange rate scaled by 1e18"
      },
      "getAccountSnapshot(address)": {
        "details": "This is used by comptroller to more efficiently perform liquidity checks.",
        "params": {
          "account": "Address of the account to snapshot"
        },
        "return": "(possible error, token balance, borrow balance, exchange rate mantissa)"
      },
      "getCash()": {
        "return": "The quantity of underlying asset owned by this contract"
      },
      "initialize(address,address,uint256,string,string,uint8)": {
        "params": {
          "comptroller_": "The address of the Comptroller",
          "decimals_": "EIP-20 decimal precision of this token",
          "initialExchangeRateMantissa_": "The initial exchange rate, scaled by 1e18",
          "interestRateModel_": "The address of the interest rate model",
          "name_": "EIP-20 name of this token",
          "symbol_": "EIP-20 symbol of this token"
        }
      },
      "liquidateBorrow(address,address)": {
        "details": "Reverts upon any failure",
        "params": {
          "borrower": "The borrower of this cToken to be liquidated",
          "cTokenCollateral": "The market in which to seize collateral from the borrower"
        }
      },
      "mint()": {
        "details": "Reverts upon any failure"
      },
      "redeem(uint256)": {
        "details": "Accrues interest whether or not the operation succeeds, unless reverted",
        "params": {
          "redeemTokens": "The number of cTokens to redeem into underlying"
        },
        "return": "uint 0=success, otherwise a failure (see ErrorReporter.sol for details)"
      },
      "redeemUnderlying(uint256)": {
        "details": "Accrues interest whether or not the operation succeeds, unless reverted",
        "params": {
          "redeemAmount": "The amount of underlying to redeem"
        },
        "return": "uint 0=success, otherwise a failure (see ErrorReporter.sol for details)"
      },
      "repayBorrow()": {
        "details": "Reverts upon any failure"
      },
      "repayBorrowBehalf(address)": {
        "details": "Reverts upon any failure",
        "params": {
          "borrower": "the account with the debt being payed off"
        }
      },
      "seize(address,address,uint256)": {
        "details": "Will fail unless called by another cToken during the process of liquidation. Its absolutely critical to use msg.sender as the borrowed cToken and not a parameter.",
        "params": {
          "borrower": "The account having collateral seized",
          "liquidator": "The account receiving seized collateral",
          "seizeTokens": "The number of cTokens to seize"
        },
        "return": "uint 0=success, otherwise a failure (see ErrorReporter.sol for details)"
      },
      "supplyRatePerBlock()": {
        "return": "The supply interest rate per block, scaled by 1e18"
      },
      "totalBorrowsCurrent()": {
        "return": "The total borrows with interest"
      },
      "transfer(address,uint256)": {
        "params": {
          "amount": "The number of tokens to transfer",
          "dst": "The address of the destination account"
        },
        "return": "Whether or not the transfer succeeded"
      },
      "transferFrom(address,address,uint256)": {
        "params": {
          "amount": "The number of tokens to transfer",
          "dst": "The address of the destination account",
          "src": "The address of the source account"
        },
        "return": "Whether or not the transfer succeeded"
      }
    },
    "title": "Compound's CEther Contract"
  },
  "userdoc": {
    "methods": {
      "_acceptAdmin()": {
        "notice": "Accepts transfer of admin rights. msg.sender must be pendingAdmin"
      },
      "_reduceReserves(uint256)": {
        "notice": "Accrues interest and reduces reserves by transferring to admin"
      },
      "_setComptroller(address)": {
        "notice": "Sets a new comptroller for the market"
      },
      "_setInterestRateModel(address)": {
        "notice": "accrues interest and updates the interest rate model using _setInterestRateModelFresh"
      },
      "_setPendingAdmin(address)": {
        "notice": "Begins transfer of admin rights. The newPendingAdmin must call `_acceptAdmin` to finalize the transfer."
      },
      "_setReserveFactor(uint256)": {
        "notice": "accrues interest and sets a new reserve factor for the protocol using _setReserveFactorFresh"
      },
      "accrueInterest()": {
        "notice": "Applies accrued interest to total borrows and reserves"
      },
      "allowance(address,address)": {
        "notice": "Get the current allowance from `owner` for `spender`"
      },
      "approve(address,uint256)": {
        "notice": "Approve `spender` to transfer up to `amount` from `src`"
      },
      "balanceOf(address)": {
        "notice": "Get the token balance of the `owner`"
      },
      "balanceOfUnderlying(address)": {
        "notice": "Get the underlying balance of the `owner`"
      },
      "borrow(uint256)": {
        "notice": "Sender borrows assets from the protocol to their own address"
      },
      "borrowBalanceCurrent(address)": {
        "notice": "Accrue interest to updated borrowIndex and then calculate account's borrow balance using the updated borrowIndex"
      },
      "borrowBalanceStored(address)": {
        "notice": "Return the borrow balance of account based on stored data"
      },
      "borrowRatePerBlock()": {
        "notice": "Returns the current per-block borrow interest rate for this cToken"
      },
      "constructor": "Construct a new CEther money market",
      "exchangeRateCurrent()": {
        "notice": "Accrue interest then return the up-to-date exchange rate"
      },
      "exchangeRateStored()": {
        "notice": "Calculates the exchange rate from the underlying to the CToken"
      },
      "getAccountSnapshot(address)": {
        "notice": "Get a snapshot of the account's balances, and the cached exchange rate"
      },
      "getCash()": {
        "notice": "Get cash balance of this cToken in the underlying asset"
      },
      "initialize(address,address,uint256,string,string,uint8)": {
        "notice": "Initialize the money market"
      },
      "liquidateBorrow(address,address)": {
        "notice": "The sender liquidates the borrowers collateral. The collateral seized is transferred to the liquidator."
      },
      "mint()": {
        "notice": "Sender supplies assets into the market and receives cTokens in exchange"
      },
      "redeem(uint256)": {
        "notice": "Sender redeems cTokens in exchange for the underlying asset"
      },
      "redeemUnderlying(uint256)": {
        "notice": "Sender redeems cTokens in exchange for a specified amount of underlying asset"
      },
      "repayBorrow()": {
        "notice": "Sender repays their own borrow"
      },
      "repayBorrowBehalf(address)": {
        "notice": "Sender repays a borrow belonging to borrower"
      },
      "seize(address,address,uint256)": {
        "notice": "Transfers collateral tokens (this market) to the liquidator."
      },
      "supplyRatePerBlock()": {
        "notice": "Returns the current per-block supply interest rate for this cToken"
      },
      "totalBorrowsCurrent()": {
        "notice": "Returns the current total borrows plus accrued interest"
      },
      "transfer(address,uint256)": {
        "notice": "Transfer `amount` tokens from `msg.sender` to `dst`"
      },
      "transferFrom(address,address,uint256)": {
        "notice": "Transfer `amount` tokens from `src` to `dst`"
      }
    },
    "notice": "CToken which wraps Ether"
  }
}