{
  "contractName": "DAIInterestRateModel",
  "abi": [
    {
      "inputs": [
        {
          "internalType": "uint256",
          "name": "jumpMultiplierPerYear",
          "type": "uint256"
        },
        {
          "internalType": "uint256",
          "name": "kink_",
          "type": "uint256"
        },
        {
          "internalType": "address",
          "name": "pot_",
          "type": "address"
        },
        {
          "internalType": "address",
          "name": "jug_",
          "type": "address"
        }
      ],
      "payable": false,
      "stateMutability": "nonpayable",
      "type": "constructor"
    },
    {
      "anonymous": false,
      "inputs": [
        {
          "indexed": false,
          "internalType": "uint256",
          "name": "baseRatePerBlock",
          "type": "uint256"
        },
        {
          "indexed": false,
          "internalType": "uint256",
          "name": "multiplierPerBlock",
          "type": "uint256"
        },
        {
          "indexed": false,
          "internalType": "uint256",
          "name": "jumpMultiplierPerBlock",
          "type": "uint256"
        },
        {
          "indexed": false,
          "internalType": "uint256",
          "name": "kink",
          "type": "uint256"
        }
      ],
      "name": "NewInterestParams",
      "type": "event"
    },
    {
      "constant": true,
      "inputs": [],
      "name": "assumedOneMinusReserveFactorMantissa",
      "outputs": [
        {
          "internalType": "uint256",
          "name": "",
          "type": "uint256"
        }
      ],
      "payable": false,
      "stateMutability": "view",
      "type": "function"
    },
    {
      "constant": true,
      "inputs": [],
      "name": "baseRatePerBlock",
      "outputs": [
        {
          "internalType": "uint256",
          "name": "",
          "type": "uint256"
        }
      ],
      "payable": false,
      "stateMutability": "view",
      "type": "function"
    },
    {
      "constant": true,
      "inputs": [],
      "name": "blocksPerYear",
      "outputs": [
        {
          "internalType": "uint256",
          "name": "",
          "type": "uint256"
        }
      ],
      "payable": false,
      "stateMutability": "view",
      "type": "function"
    },
    {
      "constant": true,
      "inputs": [],
      "name": "gapPerBlock",
      "outputs": [
        {
          "internalType": "uint256",
          "name": "",
          "type": "uint256"
        }
      ],
      "payable": false,
      "stateMutability": "view",
      "type": "function"
    },
    {
      "constant": true,
      "inputs": [
        {
          "internalType": "uint256",
          "name": "cash",
          "type": "uint256"
        },
        {
          "internalType": "uint256",
          "name": "borrows",
          "type": "uint256"
        },
        {
          "internalType": "uint256",
          "name": "reserves",
          "type": "uint256"
        }
      ],
      "name": "getBorrowRate",
      "outputs": [
        {
          "internalType": "uint256",
          "name": "",
          "type": "uint256"
        }
      ],
      "payable": false,
      "stateMutability": "view",
      "type": "function"
    },
    {
      "constant": true,
      "inputs": [],
      "name": "isInterestRateModel",
      "outputs": [
        {
          "internalType": "bool",
          "name": "",
          "type": "bool"
        }
      ],
      "payable": false,
      "stateMutability": "view",
      "type": "function"
    },
    {
      "constant": true,
      "inputs": [],
      "name": "jumpMultiplierPerBlock",
      "outputs": [
        {
          "internalType": "uint256",
          "name": "",
          "type": "uint256"
        }
      ],
      "payable": false,
      "stateMutability": "view",
      "type": "function"
    },
    {
      "constant": true,
      "inputs": [],
      "name": "kink",
      "outputs": [
        {
          "internalType": "uint256",
          "name": "",
          "type": "uint256"
        }
      ],
      "payable": false,
      "stateMutability": "view",
      "type": "function"
    },
    {
      "constant": true,
      "inputs": [],
      "name": "multiplierPerBlock",
      "outputs": [
        {
          "internalType": "uint256",
          "name": "",
          "type": "uint256"
        }
      ],
      "payable": false,
      "stateMutability": "view",
      "type": "function"
    },
    {
      "constant": true,
      "inputs": [
        {
          "internalType": "uint256",
          "name": "cash",
          "type": "uint256"
        },
        {
          "internalType": "uint256",
          "name": "borrows",
          "type": "uint256"
        },
        {
          "internalType": "uint256",
          "name": "reserves",
          "type": "uint256"
        }
      ],
      "name": "utilizationRate",
      "outputs": [
        {
          "internalType": "uint256",
          "name": "",
          "type": "uint256"
        }
      ],
      "payable": false,
      "stateMutability": "pure",
      "type": "function"
    },
    {
      "constant": true,
      "inputs": [
        {
          "internalType": "uint256",
          "name": "cash",
          "type": "uint256"
        },
        {
          "internalType": "uint256",
          "name": "borrows",
          "type": "uint256"
        },
        {
          "internalType": "uint256",
          "name": "reserves",
          "type": "uint256"
        },
        {
          "internalType": "uint256",
          "name": "reserveFactorMantissa",
          "type": "uint256"
        }
      ],
      "name": "getSupplyRate",
      "outputs": [
        {
          "internalType": "uint256",
          "name": "",
          "type": "uint256"
        }
      ],
      "payable": false,
      "stateMutability": "view",
      "type": "function"
    },
    {
      "constant": true,
      "inputs": [],
      "name": "dsrPerBlock",
      "outputs": [
        {
          "internalType": "uint256",
          "name": "",
          "type": "uint256"
        }
      ],
      "payable": false,
      "stateMutability": "view",
      "type": "function"
    },
    {
      "constant": false,
      "inputs": [],
      "name": "poke",
      "outputs": [],
      "payable": false,
      "stateMutability": "nonpayable",
      "type": "function"
    }
  ],
  "bytecode": "0x60806040523480156200001157600080fd5b506040516200118238038062001182833981810160405260808110156200003757600080fd5b5080516020808301516040840151606090940151929390929091600090819086908690620000759084906220148090620006e76200015c821b17901c565b6001556200009383622014806200015c602090811b620006e717901c565b600055620000b182622014806200015c602090811b620006e717901c565b60028190556003829055600154600054604080519283526020830191909152818101929092526060810183905290517f6960ab234c7ef4b0c9197100f5393cfcde7c453ac910a27bd2000aa1dd4c068d9181900360800190a15050600480546001600160a01b038087166001600160a01b0319928316179092556005805492861692909116919091179055506200015290506001600160e01b03620001af16565b50505050620007d3565b6000620001a683836040518060400160405280601a81526020017f536166654d6174683a206469766973696f6e206279207a65726f000000000000815250620004ad60201b60201c565b90505b92915050565b600554604080517fd9638d360000000000000000000000000000000000000000000000000000000081527f4554482d41000000000000000000000000000000000000000000000000000000600482015281516000936001600160a01b03169263d9638d369260248082019391829003018186803b1580156200023057600080fd5b505afa15801562000245573d6000803e3d6000fd5b505050506040513d60408110156200025c57600080fd5b5051600554604080517f5001f3b500000000000000000000000000000000000000000000000000000000815290519293506000926200037492600f926200034c926b033b2e3c9fd0803ce8000000926200036092670de0b6b3a7640000928692869262000338926001600160a01b0390921691635001f3b591600480820192602092909190829003018186803b158015620002f657600080fd5b505afa1580156200030b573d6000803e3d6000fd5b505050506040513d60208110156200032257600080fd5b50518b906200056e602090811b6200072917901c565b620005e360201b620007831790919060201c565b6200062d60201b620006851790919060201c565b6200015c60201b620006e71790919060201c565b9050620003a3670d2f13f7789f000062000360670de0b6b3a76400006200034c6001600160e01b03620006a516565b600181905581111562000416576200040d60035462000360670de0b6b3a76400006200034c622014806601c6bf5263400081620003dc57fe5b04620003f960015488620005e360201b620007831790919060201c565b6200056e60201b620007291790919060201c565b60005562000457565b6200045360035462000360670de0b6b3a7640000622014806601c6bf52634000816200043e57fe5b046200062d60201b620006851790919060201c565b6000555b600154600054600254600354604080519485526020850193909352838301919091526060830152517f6960ab234c7ef4b0c9197100f5393cfcde7c453ac910a27bd2000aa1dd4c068d9181900360800190a15050565b6000818362000557576040517f08c379a00000000000000000000000000000000000000000000000000000000081526004018080602001828103825283818151815260200191508051906020019080838360005b838110156200051b57818101518382015260200162000501565b50505050905090810190601f168015620005495780820380516001836020036101000a031916815260200191505b509250505060405180910390fd5b5060008385816200056457fe5b0495945050505050565b600082820183811015620001a657604080517f08c379a000000000000000000000000000000000000000000000000000000000815260206004820152601b60248201527f536166654d6174683a206164646974696f6e206f766572666c6f770000000000604482015290519081900360640190fd5b6000620001a683836040518060400160405280601e81526020017f536166654d6174683a207375627472616374696f6e206f766572666c6f7700008152506200075c60201b60201c565b6000826200063e57506000620001a9565b828202828482816200064c57fe5b0414620001a6576040517f08c379a0000000000000000000000000000000000000000000000000000000008152600401808060200182810382526021815260200180620011616021913960400191505060405180910390fd5b600062000757600f6200034c633b9aca00620003606b033b2e3c9fd0803ce8000000600460009054906101000a90046001600160a01b03166001600160a01b031663487bf0826040518163ffffffff1660e01b815260040160206040518083038186803b1580156200071657600080fd5b505afa1580156200072b573d6000803e3d6000fd5b505050506040513d60208110156200074257600080fd5b505190620005e3602090811b6200078317901c565b905090565b60008184841115620007cb576040517f08c379a00000000000000000000000000000000000000000000000000000000081526020600482018181528351602484015283519092839260449091019190850190808383600083156200051b57818101518382015260200162000501565b505050900390565b61097e80620007e36000396000f3fe608060405234801561001057600080fd5b50600436106100cf5760003560e01c806396456c5c1161008c578063b9f9850a11610066578063b9f9850a146101ad578063f14039de146101b5578063f52d21f3146101bd578063fd2da339146101c5576100cf565b806396456c5c1461016e578063a385fb9614610176578063b81688161461017e576100cf565b806315f24053146100d4578063181783581461010f5780632191f92a146101195780636dac7cd5146101355780636e71e2d81461013d5780638726bb8914610166575b600080fd5b6100fd600480360360608110156100ea57600080fd5b50803590602081013590604001356101cd565b60408051918252519081900360200190f35b6101176102a5565b005b6101216104eb565b604080519115158252519081900360200190f35b6100fd6104f0565b6100fd6004803603606081101561015357600080fd5b50803590602081013590604001356104fc565b6100fd610542565b6100fd610548565b6100fd6105f2565b6100fd6004803603608081101561019457600080fd5b50803590602081013590604081013590606001356105f9565b6100fd61066b565b6100fd610671565b6100fd610677565b6100fd61067f565b6000806101db8585856104fc565b9050600354811161022d57610225600154610219670de0b6b3a764000061020d6000548661068590919063ffffffff16565b9063ffffffff6106e716565b9063ffffffff61072916565b91505061029e565b6000610258600154610219670de0b6b3a764000061020d60005460035461068590919063ffffffff16565b905060006102716003548461078390919063ffffffff16565b905061029882610219670de0b6b3a764000061020d6002548661068590919063ffffffff16565b93505050505b9392505050565b60055460408051636cb1c69b60e11b8152644554482d4160d81b600482015281516000936001600160a01b03169263d9638d369260248082019391829003018186803b1580156102f457600080fd5b505afa158015610308573d6000803e3d6000fd5b505050506040513d604081101561031e57600080fd5b505160055460408051635001f3b560e01b815290519293506000926103eb92600f926103df926b033b2e3c9fd0803ce80000009261020d92670de0b6b3a764000092869286926103d3926001600160a01b0390921691635001f3b591600480820192602092909190829003018186803b15801561039a57600080fd5b505afa1580156103ae573d6000803e3d6000fd5b505050506040513d60208110156103c457600080fd5b50518b9063ffffffff61072916565b9063ffffffff61078316565b9063ffffffff61068516565b905061040d670d2f13f7789f000061020d670de0b6b3a76400006103df610548565b600181905581111561045f5761045760035461020d670de0b6b3a76400006103df622014806601c6bf526340008161044157fe5b046102196001548861078390919063ffffffff16565b600055610495565b61049160035461020d670de0b6b3a7640000622014806601c6bf526340008161048457fe5b049063ffffffff61068516565b6000555b600154600054600254600354604080519485526020850193909352838301919091526060830152517f6960ab234c7ef4b0c9197100f5393cfcde7c453ac910a27bd2000aa1dd4c068d9181900360800190a15050565b600181565b670d2f13f7789f000081565b60008261050b5750600061029e565b61053a610522836103d3878763ffffffff61072916565b61020d85670de0b6b3a764000063ffffffff61068516565b949350505050565b60005481565b60006105ed600f6103df633b9aca0061020d6b033b2e3c9fd0803ce8000000600460009054906101000a90046001600160a01b03166001600160a01b031663487bf0826040518163ffffffff1660e01b815260040160206040518083038186803b1580156105b557600080fd5b505afa1580156105c9573d6000803e3d6000fd5b505050506040513d60208110156105df57600080fd5b50519063ffffffff61078316565b905090565b6220148081565b600080610608868686866107c5565b90506000610620856103d3898963ffffffff61072916565b90508061062f5750905061053a565b600061064d8261020d610640610548565b8b9063ffffffff61068516565b905061065f818463ffffffff61072916565b98975050505050505050565b60025481565b60015481565b630e2ce5cf81565b60035481565b600082610694575060006106e1565b828202828482816106a157fe5b04146106de5760405162461bcd60e51b81526004018080602001828103825260218152602001806109296021913960400191505060405180910390fd5b90505b92915050565b60006106de83836040518060400160405280601a81526020017f536166654d6174683a206469766973696f6e206279207a65726f00000000000081525061082c565b6000828201838110156106de576040805162461bcd60e51b815260206004820152601b60248201527f536166654d6174683a206164646974696f6e206f766572666c6f770000000000604482015290519081900360640190fd5b60006106de83836040518060400160405280601e81526020017f536166654d6174683a207375627472616374696f6e206f766572666c6f7700008152506108ce565b6000806107e0670de0b6b3a76400008463ffffffff61078316565b905060006107ef8787876101cd565b9050600061080f670de0b6b3a764000061020d848663ffffffff61068516565b905061065f670de0b6b3a764000061020d836103df8c8c8c6104fc565b600081836108b85760405162461bcd60e51b81526004018080602001828103825283818151815260200191508051906020019080838360005b8381101561087d578181015183820152602001610865565b50505050905090810190601f1680156108aa5780820380516001836020036101000a031916815260200191505b509250505060405180910390fd5b5060008385816108c457fe5b0495945050505050565b600081848411156109205760405162461bcd60e51b815260206004820181815283516024840152835190928392604490910191908501908083836000831561087d578181015183820152602001610865565b50505090039056fe536166654d6174683a206d756c7469706c69636174696f6e206f766572666c6f77a265627a7a723158209c8d9e910fcbfbd469b8324e01bf02d49f127702c1a64bdd32d93da8e94d85fc64736f6c634300050c0032536166654d6174683a206d756c7469706c69636174696f6e206f766572666c6f77",
  "source": "pragma solidity ^0.5.12;\n\nimport \"./JumpRateModel.sol\";\nimport \"./SafeMath.sol\";\n\n/**\n  * @title Compound's DAIInterestRateModel Contract\n  * @author Compound\n  * @notice The parameterized model described in section 2.4 of the original Compound Protocol whitepaper\n  */\ncontract DAIInterestRateModel is JumpRateModel {\n    using SafeMath for uint;\n\n    /**\n     * @notice The additional margin per block separating the base borrow rate from the roof (0.05% / block)\n     */\n    uint public constant gapPerBlock = 0.05e16 / blocksPerYear;\n\n    /**\n     * @notice The assumed (1 - reserve factor) used to calculate the minimum borrow rate (reserve factor = 0.05)\n     */\n    uint public constant assumedOneMinusReserveFactorMantissa = 0.95e18;\n\n    PotLike pot;\n    JugLike jug;\n\n    /**\n     * @notice Construct an interest rate model\n     * @param jumpMultiplierPerYear The multiplierPerBlock after hitting a specified utilization point\n     * @param kink_ The utilization point at which the jump multiplier is applied\n     * @param pot_ The address of the Dai pot (where DSR is earned)\n     * @param jug_ The address of the Dai jug (where SF is kept)\n     */\n    constructor(uint jumpMultiplierPerYear, uint kink_, address pot_, address jug_) JumpRateModel(0, 0, jumpMultiplierPerYear, kink_) public {\n        pot = PotLike(pot_);\n        jug = JugLike(jug_);\n        poke();\n    }\n\n    /**\n     * @notice Calculates the current supply interest rate per block including the Dai savings rate\n     * @param cash The total amount of cash the market has\n     * @param borrows The total amount of borrows the market has outstanding\n     * @param reserves The total amnount of reserves the market has\n     * @param reserveFactorMantissa The current reserve factor the market has\n     * @return The supply rate per block (as a percentage, and scaled by 1e18)\n     */\n    function getSupplyRate(uint cash, uint borrows, uint reserves, uint reserveFactorMantissa) public view returns (uint) {\n        uint protocolRate = super.getSupplyRate(cash, borrows, reserves, reserveFactorMantissa);\n\n        uint underlying = cash.add(borrows).sub(reserves);\n        if (underlying == 0) {\n            return protocolRate;\n        } else {\n            uint cashRate = cash.mul(dsrPerBlock()).div(underlying);\n            return cashRate.add(protocolRate);\n        }\n    }\n\n    /**\n     * @notice Calculates the Dai savings rate per block\n     * @return The Dai savings rate per block (as a percentage, and scaled by 1e18)\n     */\n    function dsrPerBlock() public view returns (uint) {\n        return pot\n            .dsr().sub(1e27)  // scaled 1e27 aka RAY, and includes an extra \"ONE\" before subraction\n            .div(1e9) // descale to 1e18\n            .mul(15); // 15 seconds per block\n    }\n\n    /**\n     * @notice Resets the baseRate and multiplier per block based on the stability fee and Dai savings rate\n     */\n    function poke() public {\n        (uint duty, ) = jug.ilks(\"ETH-A\");\n        uint stabilityFeePerBlock = duty.add(jug.base()).sub(1e27).mul(1e18).div(1e27).mul(15);\n\n        // We ensure the minimum borrow rate >= DSR / (1 - reserve factor)\n        baseRatePerBlock = dsrPerBlock().mul(1e18).div(assumedOneMinusReserveFactorMantissa);\n\n        // The roof borrow rate is max(base rate, stability fee) + gap, from which we derive the slope\n        if (baseRatePerBlock < stabilityFeePerBlock) {\n            multiplierPerBlock = stabilityFeePerBlock.sub(baseRatePerBlock).add(gapPerBlock).mul(1e18).div(kink);\n        } else {\n            multiplierPerBlock = gapPerBlock.mul(1e18).div(kink);\n        }\n\n        emit NewInterestParams(baseRatePerBlock, multiplierPerBlock, jumpMultiplierPerBlock, kink);\n    }\n}\n\n\n/*** Maker Interfaces ***/\n\ncontract PotLike {\n    function chi() public view returns (uint);\n    function dsr() public view returns (uint);\n    function rho() public view returns (uint);\n    function pie(address) public view returns (uint);\n    function drip() public returns (uint);\n    function join(uint) public;\n    function exit(uint) public;\n}\n\ncontract JugLike {\n    // --- Data ---\n    struct Ilk {\n        uint256 duty;\n        uint256  rho;\n    }\n\n   mapping (bytes32 => Ilk) public ilks;\n   uint256 public base;\n}\n\n",
  "sourcePath": "/home/akshay/workspace/somish/Compound-Finance/compound-protocol/contracts/DAIInterestRateModel.sol",
  "compiler": {
    "name": "solc",
    "version": "0.5.12+commit.7709ece9.Emscripten.clang"
  },
  "schemaVersion": "3.0.23",
  "updatedAt": "2020-03-04T10:50:01.517Z",
  "devdoc": {
    "author": "Compound",
    "methods": {
      "constructor": {
        "params": {
          "jug_": "The address of the Dai jug (where SF is kept)",
          "jumpMultiplierPerYear": "The multiplierPerBlock after hitting a specified utilization point",
          "kink_": "The utilization point at which the jump multiplier is applied",
          "pot_": "The address of the Dai pot (where DSR is earned)"
        }
      },
      "dsrPerBlock()": {
        "return": "The Dai savings rate per block (as a percentage, and scaled by 1e18)"
      },
      "getBorrowRate(uint256,uint256,uint256)": {
        "params": {
          "borrows": "The amount of borrows in the market",
          "cash": "The amount of cash in the market",
          "reserves": "The amount of reserves in the market"
        },
        "return": "The borrow rate percentage per block as a mantissa (scaled by 1e18)"
      },
      "getSupplyRate(uint256,uint256,uint256,uint256)": {
        "params": {
          "borrows": "The total amount of borrows the market has outstanding",
          "cash": "The total amount of cash the market has",
          "reserveFactorMantissa": "The current reserve factor the market has",
          "reserves": "The total amnount of reserves the market has"
        },
        "return": "The supply rate per block (as a percentage, and scaled by 1e18)"
      },
      "utilizationRate(uint256,uint256,uint256)": {
        "params": {
          "borrows": "The amount of borrows in the market",
          "cash": "The amount of cash in the market",
          "reserves": "The amount of reserves in the market (currently unused)"
        },
        "return": "The utilization rate as a mantissa between [0, 1e18]"
      }
    },
    "title": "Compound's DAIInterestRateModel Contract"
  },
  "userdoc": {
    "methods": {
      "constructor": "Construct an interest rate model",
      "dsrPerBlock()": {
        "notice": "Calculates the Dai savings rate per block"
      },
      "getBorrowRate(uint256,uint256,uint256)": {
        "notice": "Calculates the current borrow rate per block, with the error code expected by the market"
      },
      "getSupplyRate(uint256,uint256,uint256,uint256)": {
        "notice": "Calculates the current supply interest rate per block including the Dai savings rate"
      },
      "poke()": {
        "notice": "Resets the baseRate and multiplier per block based on the stability fee and Dai savings rate"
      },
      "utilizationRate(uint256,uint256,uint256)": {
        "notice": "Calculates the utilization rate of the market: `borrows / (cash + borrows - reserves)`"
      }
    },
    "notice": "The parameterized model described in section 2.4 of the original Compound Protocol whitepaper"
  }
}