{
    "_format": "hh-sol-artifact-1",
    "contractName": "JumpRateModelV2",
    "sourceName": "contracts/JumpRateModelV2.sol",
    "abi": [
        {
            "inputs": [
                {
                    "internalType": "uint256",
                    "name": "baseRatePerYear",
                    "type": "uint256"
                },
                {
                    "internalType": "uint256",
                    "name": "multiplierPerYear",
                    "type": "uint256"
                },
                {
                    "internalType": "uint256",
                    "name": "jumpMultiplierPerYear",
                    "type": "uint256"
                },
                {
                    "internalType": "uint256",
                    "name": "kink_",
                    "type": "uint256"
                },
                {
                    "internalType": "address",
                    "name": "owner_",
                    "type": "address"
                }
            ],
            "payable": false,
            "stateMutability": "nonpayable",
            "type": "constructor"
        },
        {
            "anonymous": false,
            "inputs": [
                {
                    "indexed": false,
                    "internalType": "uint256",
                    "name": "baseRatePerBlock",
                    "type": "uint256"
                },
                {
                    "indexed": false,
                    "internalType": "uint256",
                    "name": "multiplierPerBlock",
                    "type": "uint256"
                },
                {
                    "indexed": false,
                    "internalType": "uint256",
                    "name": "jumpMultiplierPerBlock",
                    "type": "uint256"
                },
                {
                    "indexed": false,
                    "internalType": "uint256",
                    "name": "kink",
                    "type": "uint256"
                }
            ],
            "name": "NewInterestParams",
            "type": "event"
        },
        {
            "anonymous": false,
            "inputs": [
                {
                    "indexed": false,
                    "internalType": "address",
                    "name": "oldOwner",
                    "type": "address"
                },
                {
                    "indexed": false,
                    "internalType": "address",
                    "name": "newOwner",
                    "type": "address"
                }
            ],
            "name": "OwnershipTransferred",
            "type": "event"
        },
        {
            "constant": true,
            "inputs": [],
            "name": "baseRatePerBlock",
            "outputs": [
                {
                    "internalType": "uint256",
                    "name": "",
                    "type": "uint256"
                }
            ],
            "payable": false,
            "stateMutability": "view",
            "type": "function"
        },
        {
            "constant": true,
            "inputs": [],
            "name": "blocksPerYear",
            "outputs": [
                {
                    "internalType": "uint256",
                    "name": "",
                    "type": "uint256"
                }
            ],
            "payable": false,
            "stateMutability": "view",
            "type": "function"
        },
        {
            "constant": true,
            "inputs": [
                {
                    "internalType": "uint256",
                    "name": "cash",
                    "type": "uint256"
                },
                {
                    "internalType": "uint256",
                    "name": "borrows",
                    "type": "uint256"
                },
                {
                    "internalType": "uint256",
                    "name": "reserves",
                    "type": "uint256"
                }
            ],
            "name": "getBorrowRate",
            "outputs": [
                {
                    "internalType": "uint256",
                    "name": "",
                    "type": "uint256"
                }
            ],
            "payable": false,
            "stateMutability": "view",
            "type": "function"
        },
        {
            "constant": true,
            "inputs": [
                {
                    "internalType": "uint256",
                    "name": "cash",
                    "type": "uint256"
                },
                {
                    "internalType": "uint256",
                    "name": "borrows",
                    "type": "uint256"
                },
                {
                    "internalType": "uint256",
                    "name": "reserves",
                    "type": "uint256"
                },
                {
                    "internalType": "uint256",
                    "name": "reserveFactorMantissa",
                    "type": "uint256"
                }
            ],
            "name": "getSupplyRate",
            "outputs": [
                {
                    "internalType": "uint256",
                    "name": "",
                    "type": "uint256"
                }
            ],
            "payable": false,
            "stateMutability": "view",
            "type": "function"
        },
        {
            "constant": true,
            "inputs": [],
            "name": "isInterestRateModel",
            "outputs": [
                {
                    "internalType": "bool",
                    "name": "",
                    "type": "bool"
                }
            ],
            "payable": false,
            "stateMutability": "view",
            "type": "function"
        },
        {
            "constant": true,
            "inputs": [],
            "name": "jumpMultiplierPerBlock",
            "outputs": [
                {
                    "internalType": "uint256",
                    "name": "",
                    "type": "uint256"
                }
            ],
            "payable": false,
            "stateMutability": "view",
            "type": "function"
        },
        {
            "constant": true,
            "inputs": [],
            "name": "kink",
            "outputs": [
                {
                    "internalType": "uint256",
                    "name": "",
                    "type": "uint256"
                }
            ],
            "payable": false,
            "stateMutability": "view",
            "type": "function"
        },
        {
            "constant": true,
            "inputs": [],
            "name": "multiplierPerBlock",
            "outputs": [
                {
                    "internalType": "uint256",
                    "name": "",
                    "type": "uint256"
                }
            ],
            "payable": false,
            "stateMutability": "view",
            "type": "function"
        },
        {
            "constant": true,
            "inputs": [],
            "name": "owner",
            "outputs": [
                {
                    "internalType": "address",
                    "name": "",
                    "type": "address"
                }
            ],
            "payable": false,
            "stateMutability": "view",
            "type": "function"
        },
        {
            "constant": false,
            "inputs": [
                {
                    "internalType": "address",
                    "name": "newOwner",
                    "type": "address"
                }
            ],
            "name": "transferOwnership",
            "outputs": [],
            "payable": false,
            "stateMutability": "nonpayable",
            "type": "function"
        },
        {
            "constant": false,
            "inputs": [
                {
                    "internalType": "uint256",
                    "name": "baseRatePerYear",
                    "type": "uint256"
                },
                {
                    "internalType": "uint256",
                    "name": "multiplierPerYear",
                    "type": "uint256"
                },
                {
                    "internalType": "uint256",
                    "name": "jumpMultiplierPerYear",
                    "type": "uint256"
                },
                {
                    "internalType": "uint256",
                    "name": "kink_",
                    "type": "uint256"
                }
            ],
            "name": "updateJumpRateModel",
            "outputs": [],
            "payable": false,
            "stateMutability": "nonpayable",
            "type": "function"
        },
        {
            "constant": true,
            "inputs": [
                {
                    "internalType": "uint256",
                    "name": "cash",
                    "type": "uint256"
                },
                {
                    "internalType": "uint256",
                    "name": "borrows",
                    "type": "uint256"
                },
                {
                    "internalType": "uint256",
                    "name": "reserves",
                    "type": "uint256"
                }
            ],
            "name": "utilizationRate",
            "outputs": [
                {
                    "internalType": "uint256",
                    "name": "",
                    "type": "uint256"
                }
            ],
            "payable": false,
            "stateMutability": "pure",
            "type": "function"
        }
    ],
    "bytecode": "0x60806040523480156200001157600080fd5b5060405162000b7038038062000b70833981810160405260c08110156200003757600080fd5b508051602082015160408301516060840151608085015160a090950151600080546001600160a01b0319166001600160a01b038316179055939492939192909162000086868686868662000092565b505050505050620002e5565b6001859055620000af84866200018d602090811b6200055e17901c565b6003819055506200010b620000d582600154620001e060201b620004fc1790919060201c565b620000f7670de0b6b3a764000086620001e060201b620004fc1790919060201c565b6200018d60201b6200055e1790919060201c565b6002819055506200012d600154836200018d60201b6200055e1790919060201c565b60048190556005829055600354600254604080519283526020830191909152818101929092526060810183905290517f6960ab234c7ef4b0c9197100f5393cfcde7c453ac910a27bd2000aa1dd4c068d9181900360800190a15050505050565b6000620001d783836040518060400160405280601a81526020017f536166654d6174683a206469766973696f6e206279207a65726f0000000000008152506200023e60201b60201c565b90505b92915050565b600082620001f157506000620001da565b82820282848281620001ff57fe5b0414620001d75760405162461bcd60e51b815260040180806020018281038252602181526020018062000b4f6021913960400191505060405180910390fd5b60008183620002ce5760405162461bcd60e51b81526004018080602001828103825283818151815260200191508051906020019080838360005b838110156200029257818101518382015260200162000278565b50505050905090810190601f168015620002c05780820380516001836020036101000a031916815260200191505b509250505060405180910390fd5b506000838581620002db57fe5b0495945050505050565b61085a80620002f56000396000f3fe608060405234801561001057600080fd5b50600436106100b45760003560e01c8063a385fb9611610071578063a385fb961461019c578063b8168816146101a4578063b9f9850a146101d3578063f14039de146101db578063f2fde38b146101e3578063fd2da33914610209576100b4565b806315f24053146100b95780632191f92a146100f45780636e71e2d8146101105780638726bb89146101395780638da5cb5b1461014157806391a30e8d14610165575b600080fd5b6100e2600480360360608110156100cf57600080fd5b5080359060208101359060400135610211565b60408051918252519081900360200190f35b6100fc6102e9565b604080519115158252519081900360200190f35b6100e26004803603606081101561012657600080fd5b50803590602081013590604001356102ee565b6100e2610340565b610149610346565b604080516001600160a01b039092168252519081900360200190f35b61019a600480360360a081101561017b57600080fd5b5080359060208101359060408101359060608101359060800135610355565b005b6100e26103b2565b6100e2600480360360808110156101ba57600080fd5b50803590602081013590604081013590606001356103b8565b6100e2610437565b6100e261043d565b61019a600480360360208110156101f957600080fd5b50356001600160a01b0316610443565b6100e26104f6565b60008061021f8585856102ee565b905060055481116102715761026960035461025d670de0b6b3a7640000610251600254866104fc90919063ffffffff16565b9063ffffffff61055e16565b9063ffffffff6105a016565b9150506102e2565b600061029c60035461025d670de0b6b3a76400006102516002546005546104fc90919063ffffffff16565b905060006102b5600554846105fa90919063ffffffff16565b90506102dc8261025d670de0b6b3a7640000610251600454866104fc90919063ffffffff16565b93505050505b9392505050565b600181565b6000826102fd575060006102e2565b61033861032083610314878763ffffffff6105a016565b9063ffffffff6105fa16565b61025185670de0b6b3a764000063ffffffff6104fc16565b949350505050565b60025481565b6000546001600160a01b031681565b6000546001600160a01b0316331461039e5760405162461bcd60e51b81526004018080602001828103825260268152602001806108006026913960400191505060405180910390fd5b6103ab858585858561063c565b5050505050565b60015481565b6000806103d3670de0b6b3a76400008463ffffffff6105fa16565b905060006103e2878787610211565b90506000610402670de0b6b3a7640000610251848663ffffffff6104fc16565b905061042b670de0b6b3a76400006102518361041f8c8c8c6102ee565b9063ffffffff6104fc16565b98975050505050505050565b60045481565b60035481565b6000546001600160a01b0316331461048c5760405162461bcd60e51b81526004018080602001828103825260268152602001806108006026913960400191505060405180910390fd5b600054604080516001600160a01b039283168152918316602083015280517f8be0079c531659141344cd1fd0a4f28419497f9722a3daafe3b4186f6b6457e09281900390910190a1600080546001600160a01b0319166001600160a01b0392909216919091179055565b60055481565b60008261050b57506000610558565b8282028284828161051857fe5b04146105555760405162461bcd60e51b81526004018080602001828103825260218152602001806107df6021913960400191505060405180910390fd5b90505b92915050565b600061055583836040518060400160405280601a81526020017f536166654d6174683a206469766973696f6e206279207a65726f0000000000008152506106e2565b600082820183811015610555576040805162461bcd60e51b815260206004820152601b60248201527f536166654d6174683a206164646974696f6e206f766572666c6f770000000000604482015290519081900360640190fd5b600061055583836040518060400160405280601f81526020017f536166654d6174683a207375627472616374696f6e20756e646572666c6f7700815250610784565b6001859055610651848663ffffffff61055e16565b60035560015461066b90610320908363ffffffff6104fc16565b60025560015461068290839063ffffffff61055e16565b60048190556005829055600354600254604080519283526020830191909152818101929092526060810183905290517f6960ab234c7ef4b0c9197100f5393cfcde7c453ac910a27bd2000aa1dd4c068d9181900360800190a15050505050565b6000818361076e5760405162461bcd60e51b81526004018080602001828103825283818151815260200191508051906020019080838360005b8381101561073357818101518382015260200161071b565b50505050905090810190601f1680156107605780820380516001836020036101000a031916815260200191505b509250505060405180910390fd5b50600083858161077a57fe5b0495945050505050565b600081848411156107d65760405162461bcd60e51b815260206004820181815283516024840152835190928392604490910191908501908083836000831561073357818101518382015260200161071b565b50505090039056fe536166654d6174683a206d756c7469706c69636174696f6e206f766572666c6f776f6e6c7920746865206f776e6572206d61792063616c6c20746869732066756e6374696f6e2ea265627a7a72315820252aafa0866f08bd3b9895686e94ffe057a38b61964f5015008726fa87fd1baf64736f6c63430005100032536166654d6174683a206d756c7469706c69636174696f6e206f766572666c6f77",
    "linkReferences": {},
    "deployedLinkReferences": {}
}