{
  "_format": "hh-sol-artifact-1",
  "contractName": "ZapFactory",
  "sourceName": "contracts/ZapFactory.sol",
  "abi": [
    {
      "anonymous": false,
      "inputs": [
        {
          "indexed": true,
          "internalType": "address",
          "name": "owner",
          "type": "address"
        },
        {
          "indexed": true,
          "internalType": "address",
          "name": "zap",
          "type": "address"
        }
      ],
      "name": "NewZap",
      "type": "event"
    },
    {
      "inputs": [],
      "name": "create",
      "outputs": [
        {
          "internalType": "address",
          "name": "newZap",
          "type": "address"
        }
      ],
      "stateMutability": "nonpayable",
      "type": "function"
    },
    {
      "inputs": [
        {
          "internalType": "address",
          "name": "",
          "type": "address"
        }
      ],
      "name": "zaps",
      "outputs": [
        {
          "internalType": "address",
          "name": "",
          "type": "address"
        }
      ],
      "stateMutability": "view",
      "type": "function"
    }
  ],
  "bytecode": "0x608060405234801561001057600080fd5b50610ac8806100206000396000f3fe608060405234801561001057600080fd5b50600436106100365760003560e01c8063e676ea951461003b578063efc81a8c14610097575b600080fd5b61006e6004803603602081101561005157600080fd5b503573ffffffffffffffffffffffffffffffffffffffff1661009f565b6040805173ffffffffffffffffffffffffffffffffffffffff9092168252519081900360200190f35b61006e6100c7565b60006020819052908152604090205473ffffffffffffffffffffffffffffffffffffffff1681565b3360009081526020819052604081205473ffffffffffffffffffffffffffffffffffffffff161561015957604080517f08c379a000000000000000000000000000000000000000000000000000000000815260206004820152601660248201527f5a6170466163746f72793a207a61702065786973747300000000000000000000604482015290519081900360640190fd5b60003360405161016890610223565b73ffffffffffffffffffffffffffffffffffffffff909116815260405190819003602001906000f0801580156101a2573d6000803e3d6000fd5b503360008181526020819052604080822080547fffffffffffffffffffffffff00000000000000000000000000000000000000001673ffffffffffffffffffffffffffffffffffffffff86169081179091559051939450927fc29c8f41fdf111f83390ec3cd21a318d588a7cf681fdbe971c4ff38376beddfa9190a3905090565b610862806102318339019056fe608060405234801561001057600080fd5b5060405161086238038061086283398101604081905261002f91610054565b600080546001600160a01b0319166001600160a01b0392909216919091179055610082565b600060208284031215610065578081fd5b81516001600160a01b038116811461007b578182fd5b9392505050565b6107d1806100916000396000f3fe6080604052600436106100295760003560e01c80636a9cc4c51461002e5780638da5cb5b14610043575b600080fd5b61004161003c3660046104be565b61006e565b005b34801561004f57600080fd5b506100586102a3565b6040516100659190610644565b60405180910390f35b60005473ffffffffffffffffffffffffffffffffffffffff1633146100c8576040517f08c379a00000000000000000000000000000000000000000000000000000000081526004016100bf906106ed565b60405180910390fd5b825184511480156100da575081518451145b80156100e7575080518451145b61011d576040517f08c379a00000000000000000000000000000000000000000000000000000000081526004016100bf906106b6565b60005b845181101561029c57606083828151811061013757fe5b602002602001015151600014156101635782828151811061015457fe5b602002602001015190506101b5565b83828151811061016f57fe5b60200260200101518051906020012083838151811061018a57fe5b60200260200101516040516020016101a39291906105e0565b60405160208183030381529060405290505b600060608784815181106101c557fe5b602002602001015173ffffffffffffffffffffffffffffffffffffffff168785815181106101ef57fe5b6020026020010151846040516102059190610628565b60006040518083038185875af1925050503d8060008114610242576040519150601f19603f3d011682016040523d82523d6000602084013e610247565b606091505b509150915061028c82826040518060400160405280601081526020017f5a61703a2063616c6c206661696c6564000000000000000000000000000000008152506102bf565b5050600190920191506101209050565b5050505050565b60005473ffffffffffffffffffffffffffffffffffffffff1681565b606083156102ce575081610312565b8251156102de5782518084602001fd5b816040517f08c379a00000000000000000000000000000000000000000000000000000000081526004016100bf9190610665565b9392505050565b600082601f830112610329578081fd5b813561033c6103378261074b565b610724565b818152915060208083019084810160005b8481101561037657610364888484358a0101610437565b8452928201929082019060010161034d565b505050505092915050565b600082601f830112610391578081fd5b813561039f6103378261074b565b818152915060208083019084810160005b84811015610376576103c7888484358a0101610437565b845292820192908201906001016103b0565b600082601f8301126103e9578081fd5b81356103f76103378261074b565b81815291506020808301908481018184028601820187101561041857600080fd5b60005b848110156103765781358452928201929082019060010161041b565b600082601f830112610447578081fd5b813567ffffffffffffffff81111561045d578182fd5b61048e60207fffffffffffffffffffffffffffffffffffffffffffffffffffffffffffffffe0601f84011601610724565b91508082528360208285010111156104a557600080fd5b8060208401602084013760009082016020015292915050565b600080600080608085870312156104d3578384fd5b843567ffffffffffffffff808211156104ea578586fd5b818701915087601f8301126104fd578586fd5b813561050b6103378261074b565b80828252602080830192508086018c82838702890101111561052b578a8bfd5b8a96505b8487101561056e57803573ffffffffffffffffffffffffffffffffffffffff8116811461055a578b8cfd5b84526001969096019592810192810161052f565b509098508901359350505080821115610585578485fd5b610591888389016103d9565b945060408701359150808211156105a6578384fd5b6105b288838901610381565b935060608701359150808211156105c7578283fd5b506105d487828801610319565b91505092959194509250565b60007fffffffff0000000000000000000000000000000000000000000000000000000084168252825161061a81600485016020870161076b565b919091016004019392505050565b6000825161063a81846020870161076b565b9190910192915050565b73ffffffffffffffffffffffffffffffffffffffff91909116815260200190565b600060208252825180602084015261068481604085016020870161076b565b601f017fffffffffffffffffffffffffffffffffffffffffffffffffffffffffffffffe0169190910160400192915050565b6020808252600f908201527f6c656e677468206d69736d617463680000000000000000000000000000000000604082015260600190565b6020808252601c908201527f5a61703a2063616c6c6572206973206e6f7420746865206f776e657200000000604082015260600190565b60405181810167ffffffffffffffff8111828210171561074357600080fd5b604052919050565b600067ffffffffffffffff821115610761578081fd5b5060209081020190565b60005b8381101561078657818101518382015260200161076e565b83811115610795576000848401525b5050505056fea264697066735822122067b7c9cd989ec628ca20ec2d701ed451a999fd0ed8f9413e61bb8b4719c2ecf664736f6c634300060c0033a2646970667358221220776c6fe71a3e1999a9e24f0884ed30acc55f846b321163e68d426c3ba7a88b3d64736f6c634300060c0033",
  "linkReferences": {},
  "deployedLinkReferences": {}
}